{
  "transactions": [
    {
      "hash": "0x7055361718f3cc617fba90bbb95e0c4b85d8082e579b67e78ce26ce3ee621a25",
      "transactionType": "CALL",
      "contractName": null,
      "contractAddress": "0xcf62030BFd6c0c64B5569b7C76b03F97E9A31352",
      "function": "borrowerExit((uint256,address))",
      "arguments": [
        "(0, 0xD20baecCd9F77fAA9E2C2B185F33483D7911f9C8)"
      ],
      "transaction": {
        "type": "0x02",
        "from": "0xd20baeccd9f77faa9e2c2b185f33483d7911f9c8",
        "to": "0xcf62030bfd6c0c64b5569b7c76b03f97e9a31352",
        "gas": "0x7ae9e",
        "value": "0x0",
        "data": "0x18719d5f0000000000000000000000000000000000000000000000000000000000000000000000000000000000000000d20baeccd9f77faa9e2c2b185f33483d7911f9c8",
        "nonce": "0x5e",
        "accessList": []
      },
      "additionalContracts": [
        {
          "transactionType": "CREATE",
          "address": "0x1CFe3A2e27c5Cc101c7E67CbCaD3a7be820CbDa9",
          "initCode": "0x3d602d80600a3d3981f3363d3d373d3d3d363d73a3541ee3074eeb38baf74fb5c37c47c21c027bcf5af43d82803e903d91602b57fd5bf3"
        }
      ],
      "isFixedGasLimit": false
    }
  ],
  "receipts": [
    {
      "transactionHash": "0x7055361718f3cc617fba90bbb95e0c4b85d8082e579b67e78ce26ce3ee621a25",
      "transactionIndex": "0xf7",
      "blockHash": "0xb71bd022215a8dc3ee07deeff07f7c5a2e46e893672ff42eb3fada62c8dc0943",
      "blockNumber": "0x4fd94a",
      "from": "0xD20baecCd9F77fAA9E2C2B185F33483D7911f9C8",
      "to": "0xcf62030BFd6c0c64B5569b7C76b03F97E9A31352",
      "cumulativeGasUsed": "0x1a298b7",
      "gasUsed": "0x58fd1",
      "contractAddress": null,
      "logs": [
        {
          "address": "0xcf62030BFd6c0c64B5569b7C76b03F97E9A31352",
          "topics": [
            "0xf50ca305fd863aaad9e46c7156ad990b20a548e9e612e7f1b0c7e38680ca4ee0",
            "0x0000000000000000000000000000000000000000000000000000000000000000"
          ],
          "data": "0x000000000000000000000000d20baeccd9f77faa9e2c2b185f33483d7911f9c8",
          "blockHash": "0xb71bd022215a8dc3ee07deeff07f7c5a2e46e893672ff42eb3fada62c8dc0943",
          "blockNumber": "0x4fd94a",
          "transactionHash": "0x7055361718f3cc617fba90bbb95e0c4b85d8082e579b67e78ce26ce3ee621a25",
          "transactionIndex": "0xf7",
          "logIndex": "0x168",
          "removed": false
        },
        {
          "address": "0x6031f0512e86164c278bEBF8a59E733ec6FA92D9",
          "topics": [
            "0xddf252ad1be2c89b69c2b068fc378daa952ba7f163c4a11628f55a4df523b3ef",
            "0x000000000000000000000000236955b5ce6d975a1655f10dba30726c65cb2f35",
            "0x000000000000000000000000236955b5ce6d975a1655f10dba30726c65cb2f35"
          ],
          "data": "0x0000000000000000000000000000000000000000000000000000000000613aae",
          "blockHash": "0xb71bd022215a8dc3ee07deeff07f7c5a2e46e893672ff42eb3fada62c8dc0943",
          "blockNumber": "0x4fd94a",
          "transactionHash": "0x7055361718f3cc617fba90bbb95e0c4b85d8082e579b67e78ce26ce3ee621a25",
          "transactionIndex": "0xf7",
          "logIndex": "0x169",
          "removed": false
        },
        {
          "address": "0x6031f0512e86164c278bEBF8a59E733ec6FA92D9",
          "topics": [
            "0x4beccb90f994c31aced7a23b5611020728a23d8ec5cddd1a3e9d97b96fda8666",
            "0x000000000000000000000000236955b5ce6d975a1655f10dba30726c65cb2f35",
            "0x000000000000000000000000236955b5ce6d975a1655f10dba30726c65cb2f35"
          ],
          "data": "0x0000000000000000000000000000000000000000000000000000000000613aae0000000000000000000000000000000000000000033b2e3c9fd0803ce8000000",
          "blockHash": "0xb71bd022215a8dc3ee07deeff07f7c5a2e46e893672ff42eb3fada62c8dc0943",
          "blockNumber": "0x4fd94a",
          "transactionHash": "0x7055361718f3cc617fba90bbb95e0c4b85d8082e579b67e78ce26ce3ee621a25",
          "transactionIndex": "0xf7",
          "logIndex": "0x16a",
          "removed": false
        },
        {
          "address": "0xcf62030BFd6c0c64B5569b7C76b03F97E9A31352",
          "topics": [
            "0x61d77434230bc4628b3ed22c0c8e26455cdc6f3cafeb2f032ea3b8e375822ab1",
            "0x000000000000000000000000ab64885b2368a60a9aa19d8a0583d0fd81ac2f30",
            "0x0000000000000000000000001cfe3a2e27c5cc101c7e67cbcad3a7be820cbda9"
          ],
          "data": "0x",
          "blockHash": "0xb71bd022215a8dc3ee07deeff07f7c5a2e46e893672ff42eb3fada62c8dc0943",
          "blockNumber": "0x4fd94a",
          "transactionHash": "0x7055361718f3cc617fba90bbb95e0c4b85d8082e579b67e78ce26ce3ee621a25",
          "transactionIndex": "0xf7",
          "logIndex": "0x16b",
          "removed": false
        },
        {
          "address": "0x1CFe3A2e27c5Cc101c7E67CbCaD3a7be820CbDa9",
          "topics": [
            "0x8be0079c531659141344cd1fd0a4f28419497f9722a3daafe3b4186f6b6457e0",
            "0x0000000000000000000000000000000000000000000000000000000000000000",
            "0x000000000000000000000000cf62030bfd6c0c64b5569b7c76b03f97e9a31352"
          ],
          "data": "0x",
          "blockHash": "0xb71bd022215a8dc3ee07deeff07f7c5a2e46e893672ff42eb3fada62c8dc0943",
          "blockNumber": "0x4fd94a",
          "transactionHash": "0x7055361718f3cc617fba90bbb95e0c4b85d8082e579b67e78ce26ce3ee621a25",
          "transactionIndex": "0xf7",
          "logIndex": "0x16c",
          "removed": false
        },
        {
          "address": "0x1CFe3A2e27c5Cc101c7E67CbCaD3a7be820CbDa9",
          "topics": [
            "0xc7f505b2f371ae2175ee4913f4499e1f2633a7b5936321eed1cdaeb6115181d2"
          ],
          "data": "0x0000000000000000000000000000000000000000000000000000000000000001",
          "blockHash": "0xb71bd022215a8dc3ee07deeff07f7c5a2e46e893672ff42eb3fada62c8dc0943",
          "blockNumber": "0x4fd94a",
          "transactionHash": "0x7055361718f3cc617fba90bbb95e0c4b85d8082e579b67e78ce26ce3ee621a25",
          "transactionIndex": "0xf7",
          "logIndex": "0x16d",
          "removed": false
        },
        {
          "address": "0x6031f0512e86164c278bEBF8a59E733ec6FA92D9",
          "topics": [
            "0xddf252ad1be2c89b69c2b068fc378daa952ba7f163c4a11628f55a4df523b3ef",
            "0x000000000000000000000000236955b5ce6d975a1655f10dba30726c65cb2f35",
            "0x0000000000000000000000001cfe3a2e27c5cc101c7e67cbcad3a7be820cbda9"
          ],
          "data": "0x00000000000000000000000000000000000000000000000000000000000f4240",
          "blockHash": "0xb71bd022215a8dc3ee07deeff07f7c5a2e46e893672ff42eb3fada62c8dc0943",
          "blockNumber": "0x4fd94a",
          "transactionHash": "0x7055361718f3cc617fba90bbb95e0c4b85d8082e579b67e78ce26ce3ee621a25",
          "transactionIndex": "0xf7",
          "logIndex": "0x16e",
          "removed": false
        },
        {
          "address": "0x6031f0512e86164c278bEBF8a59E733ec6FA92D9",
          "topics": [
            "0x4beccb90f994c31aced7a23b5611020728a23d8ec5cddd1a3e9d97b96fda8666",
            "0x000000000000000000000000236955b5ce6d975a1655f10dba30726c65cb2f35",
            "0x0000000000000000000000001cfe3a2e27c5cc101c7e67cbcad3a7be820cbda9"
          ],
          "data": "0x00000000000000000000000000000000000000000000000000000000000f42400000000000000000000000000000000000000000033b2e3c9fd0803ce8000000",
          "blockHash": "0xb71bd022215a8dc3ee07deeff07f7c5a2e46e893672ff42eb3fada62c8dc0943",
          "blockNumber": "0x4fd94a",
          "transactionHash": "0x7055361718f3cc617fba90bbb95e0c4b85d8082e579b67e78ce26ce3ee621a25",
          "transactionIndex": "0xf7",
          "logIndex": "0x16f",
          "removed": false
        },
        {
          "address": "0x8c7fBeB9F92D40E8F9A3634f62f35F522997E68B",
          "topics": [
            "0xddf252ad1be2c89b69c2b068fc378daa952ba7f163c4a11628f55a4df523b3ef",
            "0x000000000000000000000000d20baeccd9f77faa9e2c2b185f33483d7911f9c8",
            "0x000000000000000000000000d20baeccd9f77faa9e2c2b185f33483d7911f9c8"
          ],
          "data": "0x0000000000000000000000000000000000000000000000000000000000c39573",
          "blockHash": "0xb71bd022215a8dc3ee07deeff07f7c5a2e46e893672ff42eb3fada62c8dc0943",
          "blockNumber": "0x4fd94a",
          "transactionHash": "0x7055361718f3cc617fba90bbb95e0c4b85d8082e579b67e78ce26ce3ee621a25",
          "transactionIndex": "0xf7",
          "logIndex": "0x170",
          "removed": false
        }
      ],
      "status": "0x1",
      "logsBloom": "0x00000000000200000000000000001000004000000000080002800000000000000000000000200000000000200000000000000000200000000000000008000000000000000000000000000008000000000001000000004000000800000000004001000000020000002000100000000800000024000000000000000010000000400001010000800000000800000000000000000000008280000000080000000000000000400000000000000000001000000000000010000000400000000000000000000002000000100000000010000000000000000004000000000000000020000044000000000000000000000000000001080000200100000000000000020000",
      "type": "0x2",
      "effectiveGasPrice": "0x12fb12f0bf"
    }
  ],
  "libraries": [],
  "pending": [],
  "returns": {},
  "timestamp": 1707232313,
  "chain": 11155111,
  "multi": false,
  "commit": "ab1700d"
}