{
  "transactions": [
    {
      "hash": "0x7ef48617f3c1f31060cdc1971cb791cb4ba123e42138870b3c180db7cf6a2274",
      "transactionType": "CALL",
      "contractName": null,
      "contractAddress": "0xcf62030BFd6c0c64B5569b7C76b03F97E9A31352",
      "function": "borrowerExit((uint256,address))",
      "arguments": [
        "(0, 0xD20baecCd9F77fAA9E2C2B185F33483D7911f9C8)"
      ],
      "transaction": {
        "type": "0x02",
        "from": "0xd20baeccd9f77faa9e2c2b185f33483d7911f9c8",
        "to": "0xcf62030bfd6c0c64b5569b7c76b03f97e9a31352",
        "gas": "0x4ebfe",
        "value": "0x0",
        "data": "0x18719d5f0000000000000000000000000000000000000000000000000000000000000000000000000000000000000000d20baeccd9f77faa9e2c2b185f33483d7911f9c8",
        "nonce": "0x5f",
        "accessList": []
      },
      "additionalContracts": [],
      "isFixedGasLimit": false
    }
  ],
  "receipts": [],
  "libraries": [],
  "pending": [
    "0x7ef48617f3c1f31060cdc1971cb791cb4ba123e42138870b3c180db7cf6a2274"
  ],
  "returns": {},
  "timestamp": 1707232371,
  "chain": 11155111,
  "multi": false,
  "commit": "ab1700d"
}