{
  "transactions": [
    {
      "hash": "0x7ef48617f3c1f31060cdc1971cb791cb4ba123e42138870b3c180db7cf6a2274",
      "transactionType": "CALL",
      "contractName": null,
      "contractAddress": "0xcf62030BFd6c0c64B5569b7C76b03F97E9A31352",
      "function": "borrowerExit((uint256,address))",
      "arguments": [
        "(0, 0xD20baecCd9F77fAA9E2C2B185F33483D7911f9C8)"
      ],
      "transaction": {
        "type": "0x02",
        "from": "0xd20baeccd9f77faa9e2c2b185f33483d7911f9c8",
        "to": "0xcf62030bfd6c0c64b5569b7c76b03f97e9a31352",
        "gas": "0x4ebfe",
        "value": "0x0",
        "data": "0x18719d5f0000000000000000000000000000000000000000000000000000000000000000000000000000000000000000d20baeccd9f77faa9e2c2b185f33483d7911f9c8",
        "nonce": "0x5f",
        "accessList": []
      },
      "additionalContracts": [],
      "isFixedGasLimit": false
    }
  ],
  "receipts": [
    {
      "transactionHash": "0x7ef48617f3c1f31060cdc1971cb791cb4ba123e42138870b3c180db7cf6a2274",
      "transactionIndex": "0x1a",
      "blockHash": "0xa6202f078ae6cc3b38ff0e7d93abdf1f68e3a55234cfe7388f6df57d00c45a7b",
      "blockNumber": "0x4fd94d",
      "from": "0xD20baecCd9F77fAA9E2C2B185F33483D7911f9C8",
      "to": "0xcf62030BFd6c0c64B5569b7C76b03F97E9A31352",
      "cumulativeGasUsed": "0x184f49",
      "gasUsed": "0x39037",
      "contractAddress": null,
      "logs": [
        {
          "address": "0xcf62030BFd6c0c64B5569b7C76b03F97E9A31352",
          "topics": [
            "0xf50ca305fd863aaad9e46c7156ad990b20a548e9e612e7f1b0c7e38680ca4ee0",
            "0x0000000000000000000000000000000000000000000000000000000000000000"
          ],
          "data": "0x000000000000000000000000d20baeccd9f77faa9e2c2b185f33483d7911f9c8",
          "blockHash": "0xa6202f078ae6cc3b38ff0e7d93abdf1f68e3a55234cfe7388f6df57d00c45a7b",
          "blockNumber": "0x4fd94d",
          "transactionHash": "0x7ef48617f3c1f31060cdc1971cb791cb4ba123e42138870b3c180db7cf6a2274",
          "transactionIndex": "0x1a",
          "logIndex": "0xa",
          "removed": false
        },
        {
          "address": "0x6031f0512e86164c278bEBF8a59E733ec6FA92D9",
          "topics": [
            "0xddf252ad1be2c89b69c2b068fc378daa952ba7f163c4a11628f55a4df523b3ef",
            "0x000000000000000000000000236955b5ce6d975a1655f10dba30726c65cb2f35",
            "0x000000000000000000000000236955b5ce6d975a1655f10dba30726c65cb2f35"
          ],
          "data": "0x0000000000000000000000000000000000000000000000000000000000613ace",
          "blockHash": "0xa6202f078ae6cc3b38ff0e7d93abdf1f68e3a55234cfe7388f6df57d00c45a7b",
          "blockNumber": "0x4fd94d",
          "transactionHash": "0x7ef48617f3c1f31060cdc1971cb791cb4ba123e42138870b3c180db7cf6a2274",
          "transactionIndex": "0x1a",
          "logIndex": "0xb",
          "removed": false
        },
        {
          "address": "0x6031f0512e86164c278bEBF8a59E733ec6FA92D9",
          "topics": [
            "0x4beccb90f994c31aced7a23b5611020728a23d8ec5cddd1a3e9d97b96fda8666",
            "0x000000000000000000000000236955b5ce6d975a1655f10dba30726c65cb2f35",
            "0x000000000000000000000000236955b5ce6d975a1655f10dba30726c65cb2f35"
          ],
          "data": "0x0000000000000000000000000000000000000000000000000000000000613ace0000000000000000000000000000000000000000033b2e3c9fd0803ce8000000",
          "blockHash": "0xa6202f078ae6cc3b38ff0e7d93abdf1f68e3a55234cfe7388f6df57d00c45a7b",
          "blockNumber": "0x4fd94d",
          "transactionHash": "0x7ef48617f3c1f31060cdc1971cb791cb4ba123e42138870b3c180db7cf6a2274",
          "transactionIndex": "0x1a",
          "logIndex": "0xc",
          "removed": false
        },
        {
          "address": "0x6031f0512e86164c278bEBF8a59E733ec6FA92D9",
          "topics": [
            "0xddf252ad1be2c89b69c2b068fc378daa952ba7f163c4a11628f55a4df523b3ef",
            "0x000000000000000000000000236955b5ce6d975a1655f10dba30726c65cb2f35",
            "0x0000000000000000000000001cfe3a2e27c5cc101c7e67cbcad3a7be820cbda9"
          ],
          "data": "0x00000000000000000000000000000000000000000000000000000000000f4240",
          "blockHash": "0xa6202f078ae6cc3b38ff0e7d93abdf1f68e3a55234cfe7388f6df57d00c45a7b",
          "blockNumber": "0x4fd94d",
          "transactionHash": "0x7ef48617f3c1f31060cdc1971cb791cb4ba123e42138870b3c180db7cf6a2274",
          "transactionIndex": "0x1a",
          "logIndex": "0xd",
          "removed": false
        },
        {
          "address": "0x6031f0512e86164c278bEBF8a59E733ec6FA92D9",
          "topics": [
            "0x4beccb90f994c31aced7a23b5611020728a23d8ec5cddd1a3e9d97b96fda8666",
            "0x000000000000000000000000236955b5ce6d975a1655f10dba30726c65cb2f35",
            "0x0000000000000000000000001cfe3a2e27c5cc101c7e67cbcad3a7be820cbda9"
          ],
          "data": "0x00000000000000000000000000000000000000000000000000000000000f42400000000000000000000000000000000000000000033b2e3c9fd0803ce8000000",
          "blockHash": "0xa6202f078ae6cc3b38ff0e7d93abdf1f68e3a55234cfe7388f6df57d00c45a7b",
          "blockNumber": "0x4fd94d",
          "transactionHash": "0x7ef48617f3c1f31060cdc1971cb791cb4ba123e42138870b3c180db7cf6a2274",
          "transactionIndex": "0x1a",
          "logIndex": "0xe",
          "removed": false
        },
        {
          "address": "0x8c7fBeB9F92D40E8F9A3634f62f35F522997E68B",
          "topics": [
            "0xddf252ad1be2c89b69c2b068fc378daa952ba7f163c4a11628f55a4df523b3ef",
            "0x000000000000000000000000d20baeccd9f77faa9e2c2b185f33483d7911f9c8",
            "0x000000000000000000000000d20baeccd9f77faa9e2c2b185f33483d7911f9c8"
          ],
          "data": "0x0000000000000000000000000000000000000000000000000000000000c3956f",
          "blockHash": "0xa6202f078ae6cc3b38ff0e7d93abdf1f68e3a55234cfe7388f6df57d00c45a7b",
          "blockNumber": "0x4fd94d",
          "transactionHash": "0x7ef48617f3c1f31060cdc1971cb791cb4ba123e42138870b3c180db7cf6a2274",
          "transactionIndex": "0x1a",
          "logIndex": "0xf",
          "removed": false
        }
      ],
      "status": "0x1",
      "logsBloom": "0x00000000000000000000000000001000004000000000080002000000000000000000000000200000000000000000000000000000200000000000000000000000000000000000000000000008000000000000000000004000000800000000000001000000020000002000100000000800000024000000000000000010000000000001010000800000000000000000000000000000008000000000000000000000000000000000000000000000000000000000000000000000400000000000000000000002000000100000000010000000000000000000000000000000000020000040000000000000000000000000000000000000200100000000000000020000",
      "type": "0x2",
      "effectiveGasPrice": "0x198b5a980c"
    }
  ],
  "libraries": [],
  "pending": [],
  "returns": {},
  "timestamp": 1707232384,
  "chain": 11155111,
  "multi": false,
  "commit": "ab1700d"
}