{
  "transactions": [
    {
      "hash": "0x70d4644cd22f4365fbf184ac01b7716272831f26ff007189d77b2a5c79d45b0a",
      "transactionType": "CALL",
      "contractName": null,
      "contractAddress": "0xcf62030BFd6c0c64B5569b7C76b03F97E9A31352",
      "function": "deposit((address,uint256,address))",
      "arguments": [
        "(0xfFf9976782d46CC05630D1f6eBAb18b2324d6B14, 10000000000000000, 0x979Af411D048b453E3334C95F392012B3BbD6215)"
      ],
      "transaction": {
        "type": "0x02",
        "from": "0xd20baeccd9f77faa9e2c2b185f33483d7911f9c8",
        "to": "0xcf62030bfd6c0c64b5569b7c76b03f97e9a31352",
        "gas": "0x2c8ca",
        "value": "0x0",
        "data": "0x0cf8542f000000000000000000000000fff9976782d46cc05630d1f6ebab18b2324d6b14000000000000000000000000000000000000000000000000002386f26fc10000000000000000000000000000979af411d048b453e3334c95f392012b3bbd6215",
        "nonce": "0x5b",
        "accessList": []
      },
      "additionalContracts": [],
      "isFixedGasLimit": false
    }
  ],
  "receipts": [
    {
      "transactionHash": "0x70d4644cd22f4365fbf184ac01b7716272831f26ff007189d77b2a5c79d45b0a",
      "transactionIndex": "0x37",
      "blockHash": "0x97fe3472623bdd1b4d24e3df0237334078b2a25779999dcb67fcb28a9b0ad603",
      "blockNumber": "0x4fd809",
      "from": "0xD20baecCd9F77fAA9E2C2B185F33483D7911f9C8",
      "to": "0xcf62030BFd6c0c64B5569b7C76b03F97E9A31352",
      "cumulativeGasUsed": "0x45cddd",
      "gasUsed": "0x1e761",
      "contractAddress": null,
      "logs": [
        {
          "address": "0xfFf9976782d46CC05630D1f6eBAb18b2324d6B14",
          "topics": [
            "0xddf252ad1be2c89b69c2b068fc378daa952ba7f163c4a11628f55a4df523b3ef",
            "0x000000000000000000000000d20baeccd9f77faa9e2c2b185f33483d7911f9c8",
            "0x000000000000000000000000cf62030bfd6c0c64b5569b7c76b03f97e9a31352"
          ],
          "data": "0x000000000000000000000000000000000000000000000000002386f26fc10000",
          "blockHash": "0x97fe3472623bdd1b4d24e3df0237334078b2a25779999dcb67fcb28a9b0ad603",
          "blockNumber": "0x4fd809",
          "transactionHash": "0x70d4644cd22f4365fbf184ac01b7716272831f26ff007189d77b2a5c79d45b0a",
          "transactionIndex": "0x37",
          "logIndex": "0x4e",
          "removed": false
        },
        {
          "address": "0x4409c5da8144738484188a1C9C9B6A95816caDE8",
          "topics": [
            "0xddf252ad1be2c89b69c2b068fc378daa952ba7f163c4a11628f55a4df523b3ef",
            "0x0000000000000000000000000000000000000000000000000000000000000000",
            "0x000000000000000000000000979af411d048b453e3334c95f392012b3bbd6215"
          ],
          "data": "0x000000000000000000000000000000000000000000000000002386f26fc10000",
          "blockHash": "0x97fe3472623bdd1b4d24e3df0237334078b2a25779999dcb67fcb28a9b0ad603",
          "blockNumber": "0x4fd809",
          "transactionHash": "0x70d4644cd22f4365fbf184ac01b7716272831f26ff007189d77b2a5c79d45b0a",
          "transactionIndex": "0x37",
          "logIndex": "0x4f",
          "removed": false
        },
        {
          "address": "0xcf62030BFd6c0c64B5569b7C76b03F97E9A31352",
          "topics": [
            "0x5548c837ab068cf56a2c2479df0882a4922fd203edb7517321831d95078c5f62",
            "0x000000000000000000000000fff9976782d46cc05630d1f6ebab18b2324d6b14",
            "0x000000000000000000000000979af411d048b453e3334c95f392012b3bbd6215"
          ],
          "data": "0x000000000000000000000000000000000000000000000000002386f26fc10000",
          "blockHash": "0x97fe3472623bdd1b4d24e3df0237334078b2a25779999dcb67fcb28a9b0ad603",
          "blockNumber": "0x4fd809",
          "transactionHash": "0x70d4644cd22f4365fbf184ac01b7716272831f26ff007189d77b2a5c79d45b0a",
          "transactionIndex": "0x37",
          "logIndex": "0x50",
          "removed": false
        }
      ],
      "status": "0x1",
      "logsBloom": "0x00000000001000000000000000000000004000000000080000000000000000000000000000000000000000000000000000000800000002000100000040000000000000000008000000000008000000000000000000000000000800004000000000000000020000002000100000000800000000000000000000000010000000000040000000000000000000000000000000000000000000400000000000000000000020000000000000000000001000000000000010000000000000000000100000000402000000000002000001000000000000000000000000000000000020000000000000000000000000000000000001000000200000000000000000000000",
      "type": "0x2",
      "effectiveGasPrice": "0xf7620d57d"
    }
  ],
  "libraries": [],
  "pending": [],
  "returns": {},
  "timestamp": 1707228064,
  "chain": 11155111,
  "multi": false,
  "commit": "5feec6f"
}