{
  "transactions": [
    {
      "hash": "0x822d55408f9b9090920d07c492347ae0d8f0f54d2c4df63511d3e2f5f1966c33",
      "transactionType": "CALL",
      "contractName": null,
      "contractAddress": "0xcf62030BFd6c0c64B5569b7C76b03F97E9A31352",
      "function": "deposit((address,uint256,address))",
      "arguments": [
        "(0xfFf9976782d46CC05630D1f6eBAb18b2324d6B14, 10000000000000000, 0xcf62030BFd6c0c64B5569b7C76b03F97E9A31352)"
      ],
      "transaction": {
        "type": "0x02",
        "from": "0xd20baeccd9f77faa9e2c2b185f33483d7911f9c8",
        "to": "0xcf62030bfd6c0c64b5569b7c76b03f97e9a31352",
        "gas": "0x244ed",
        "value": "0x0",
        "data": "0x0cf8542f000000000000000000000000fff9976782d46cc05630d1f6ebab18b2324d6b14000000000000000000000000000000000000000000000000002386f26fc10000000000000000000000000000cf62030bfd6c0c64b5569b7c76b03f97e9a31352",
        "nonce": "0x44",
        "accessList": []
      },
      "additionalContracts": [],
      "isFixedGasLimit": false
    }
  ],
  "receipts": [],
  "libraries": [],
  "pending": [
    "0x822d55408f9b9090920d07c492347ae0d8f0f54d2c4df63511d3e2f5f1966c33"
  ],
  "returns": {},
  "timestamp": 1707153337,
  "chain": 11155111,
  "multi": false,
  "commit": "73dc280"
}