{
  "transactions": [
    {
      "hash": "0x15742c3e11ee1dec5a8197825fa575f89ce72745026bf515805c53f4718b059f",
      "transactionType": "CALL",
      "contractName": null,
      "contractAddress": "0xcf62030BFd6c0c64B5569b7C76b03F97E9A31352",
      "function": "deposit((address,uint256,address))",
      "arguments": [
        "(0xfFf9976782d46CC05630D1f6eBAb18b2324d6B14, 100000000000000000, 0xcf62030BFd6c0c64B5569b7C76b03F97E9A31352)"
      ],
      "transaction": {
        "type": "0x02",
        "from": "0xd20baeccd9f77faa9e2c2b185f33483d7911f9c8",
        "to": "0xcf62030bfd6c0c64b5569b7c76b03f97e9a31352",
        "gas": "0x2672b",
        "value": "0x0",
        "data": "0x0cf8542f000000000000000000000000fff9976782d46cc05630d1f6ebab18b2324d6b14000000000000000000000000000000000000000000000000016345785d8a0000000000000000000000000000cf62030bfd6c0c64b5569b7c76b03f97e9a31352",
        "nonce": "0x55",
        "accessList": []
      },
      "additionalContracts": [],
      "isFixedGasLimit": false
    }
  ],
  "receipts": [],
  "libraries": [],
  "pending": [
    "0x15742c3e11ee1dec5a8197825fa575f89ce72745026bf515805c53f4718b059f"
  ],
  "returns": {},
  "timestamp": 1707223021,
  "chain": 11155111,
  "multi": false,
  "commit": "be388e0"
}