{
  "transactions": [
    {
      "hash": "0xaac07cc7c5ca1fd0dc6162aeec2f80d9494083f15f999e36a4d5b211fe2f3966",
      "transactionType": "CALL",
      "contractName": null,
      "contractAddress": "0xcf62030BFd6c0c64B5569b7C76b03F97E9A31352",
      "function": "deposit((address,uint256,address))",
      "arguments": [
        "(0xfFf9976782d46CC05630D1f6eBAb18b2324d6B14, 10000000000000000, 0xD20baecCd9F77fAA9E2C2B185F33483D7911f9C8)"
      ],
      "transaction": {
        "type": "0x02",
        "from": "0x979af411d048b453e3334c95f392012b3bbd6215",
        "to": "0xcf62030bfd6c0c64b5569b7c76b03f97e9a31352",
        "gas": "0x2c8ca",
        "value": "0x0",
        "data": "0x0cf8542f000000000000000000000000fff9976782d46cc05630d1f6ebab18b2324d6b14000000000000000000000000000000000000000000000000002386f26fc10000000000000000000000000000d20baeccd9f77faa9e2c2b185f33483d7911f9c8",
        "nonce": "0x1a",
        "accessList": []
      },
      "additionalContracts": [],
      "isFixedGasLimit": false
    }
  ],
  "receipts": [],
  "libraries": [],
  "pending": [
    "0xaac07cc7c5ca1fd0dc6162aeec2f80d9494083f15f999e36a4d5b211fe2f3966"
  ],
  "returns": {},
  "timestamp": 1707227847,
  "chain": 11155111,
  "multi": false,
  "commit": "5feec6f"
}