{
  "transactions": [
    {
      "hash": "0x9250b626ae8fe5b817dc61b48d5367df73c9d2eefd3d2e78ebdef4cbe38e7600",
      "transactionType": "CALL",
      "contractName": null,
      "contractAddress": "0xB548236de5178A880dc8D68B3b96419B58C9895C",
      "function": "transferOwnership(address)",
      "arguments": [
        "0xD20baecCd9F77fAA9E2C2B185F33483D7911f9C8"
      ],
      "transaction": {
        "type": "0x02",
        "from": "0xf0c7f57f5f889d546f032e50fba953bd7c026350",
        "to": "0xb548236de5178a880dc8d68b3b96419b58c9895c",
        "gas": "0x9a49",
        "value": "0x0",
        "data": "0xf2fde38b000000000000000000000000d20baeccd9f77faa9e2c2b185f33483d7911f9c8",
        "nonce": "0x194",
        "accessList": []
      },
      "additionalContracts": [],
      "isFixedGasLimit": false
    }
  ],
  "receipts": [
    {
      "transactionHash": "0x9250b626ae8fe5b817dc61b48d5367df73c9d2eefd3d2e78ebdef4cbe38e7600",
      "transactionIndex": "0x13",
      "blockHash": "0x8f3c0edae03d950de6410a361bb6e5702ed6aaca59580ef90ca73569d25e8131",
      "blockNumber": "0x5838c0",
      "from": "0xf0c7f57f5F889D546F032E50fbA953BD7c026350",
      "to": "0xB548236de5178A880dc8D68B3b96419B58C9895C",
      "cumulativeGasUsed": "0x16f852",
      "gasUsed": "0x6fb4",
      "contractAddress": null,
      "logs": [
        {
          "address": "0xB548236de5178A880dc8D68B3b96419B58C9895C",
          "topics": [
            "0x8be0079c531659141344cd1fd0a4f28419497f9722a3daafe3b4186f6b6457e0",
            "0x000000000000000000000000f0c7f57f5f889d546f032e50fba953bd7c026350",
            "0x000000000000000000000000d20baeccd9f77faa9e2c2b185f33483d7911f9c8"
          ],
          "data": "0x",
          "blockHash": "0x8f3c0edae03d950de6410a361bb6e5702ed6aaca59580ef90ca73569d25e8131",
          "blockNumber": "0x5838c0",
          "transactionHash": "0x9250b626ae8fe5b817dc61b48d5367df73c9d2eefd3d2e78ebdef4cbe38e7600",
          "transactionIndex": "0x13",
          "logIndex": "0x13",
          "removed": false
        }
      ],
      "status": "0x1",
      "logsBloom": "0x00000000000000000000000000000000000008000000000000800000000000000000000000000000000000000000000000000000000240000000000000000000000000000000000000000000000000000011000000000000000800000000000000000000000000002000100000000000000000000000000000000000000000400000000000000000000000000000000000000000000000000000000000000000000000000000000000000000000000000000000000000000000000000000000000000001000000000000000000000800000000000000000000000000000000000000000000000000000000000000000000000000000000000000000000000000",
      "type": "0x2",
      "effectiveGasPrice": "0xd2caf4e5"
    }
  ],
  "libraries": [],
  "pending": [],
  "returns": {},
  "timestamp": 1714135962,
  "chain": 11155111,
  "commit": "d226c20"
}