{
  "transactions": [
    {
      "hash": "0x3e893e53458b3a4cf03ccb3e7315225199a6f296804d0ca5ba6d891cf82496be",
      "transactionType": "CALL",
      "contractName": null,
      "contractAddress": "0x036cbd53842c5426634e7929541ec2318f3dcf7e",
      "function": "approve(address,uint256)",
      "arguments": [
        "0xA5f2066647d22dfBd2Ed0dD43344dB9DCe4b4632",
        "115792089237316195423570985008687907853269984665640564039457584007913129639935"
      ],
      "transaction": {
        "from": "0xa7dbe6a016a082873ab6dc5efbea3dacb2238bfc",
        "to": "0x036cbd53842c5426634e7929541ec2318f3dcf7e",
        "gas": "0x13eb1",
        "value": "0x0",
        "input": "0x095ea7b3000000000000000000000000a5f2066647d22dfbd2ed0dd43344db9dce4b4632ffffffffffffffffffffffffffffffffffffffffffffffffffffffffffffffff",
        "nonce": "0x12d",
        "chainId": "0x14a34"
      },
      "additionalContracts": [],
      "isFixedGasLimit": false
    },
    {
      "hash": "0x7f0dae643c0561a80bde8bea4e2e30817d49f2c951610564cc67fbec46c45955",
      "transactionType": "CALL",
      "contractName": "ERC1967Proxy",
      "contractAddress": "0xa5f2066647d22dfbd2ed0dd43344db9dce4b4632",
      "function": null,
      "arguments": null,
      "transaction": {
        "from": "0xa7dbe6a016a082873ab6dc5efbea3dacb2238bfc",
        "to": "0xa5f2066647d22dfbd2ed0dd43344db9dce4b4632",
        "gas": "0x60f2f",
        "value": "0x0",
        "input": "0x0cf8542f000000000000000000000000036cbd53842c5426634e7929541ec2318f3dcf7e00000000000000000000000000000000000000000000000000000000000000010000000000000000000000000000000000000000000000000000000000010001",
        "nonce": "0x12e",
        "chainId": "0x14a34"
      },
      "additionalContracts": [],
      "isFixedGasLimit": false
    },
    {
      "hash": "0x8c9047d7d5822b080dad3a71a8388b873c9bd8554667c4b1cfc390f9ed6ea390",
      "transactionType": "CALL",
      "contractName": "ERC1967Proxy",
      "contractAddress": "0xa5f2066647d22dfbd2ed0dd43344db9dce4b4632",
      "function": null,
      "arguments": null,
      "transaction": {
        "from": "0xa7dbe6a016a082873ab6dc5efbea3dacb2238bfc",
        "to": "0xa5f2066647d22dfbd2ed0dd43344db9dce4b4632",
        "gas": "0x5dd6b",
        "value": "0x0",
        "input": "0x0cf8542f000000000000000000000000036cbd53842c5426634e7929541ec2318f3dcf7e00000000000000000000000000000000000000000000000000000000000000020000000000000000000000000000000000000000000000000000000000010002",
        "nonce": "0x12f",
        "chainId": "0x14a34"
      },
      "additionalContracts": [],
      "isFixedGasLimit": false
    },
    {
      "hash": "0xbed9374cd53e025df67d7dc99316a27b8f43437e093691c4b460fe49190dcae7",
      "transactionType": "CALL",
      "contractName": "ERC1967Proxy",
      "contractAddress": "0xa5f2066647d22dfbd2ed0dd43344db9dce4b4632",
      "function": null,
      "arguments": null,
      "transaction": {
        "from": "0xa7dbe6a016a082873ab6dc5efbea3dacb2238bfc",
        "to": "0xa5f2066647d22dfbd2ed0dd43344db9dce4b4632",
        "gas": "0x5dd6b",
        "value": "0x0",
        "input": "0x0cf8542f000000000000000000000000036cbd53842c5426634e7929541ec2318f3dcf7e00000000000000000000000000000000000000000000000000000000000000030000000000000000000000000000000000000000000000000000000000010003",
        "nonce": "0x130",
        "chainId": "0x14a34"
      },
      "additionalContracts": [],
      "isFixedGasLimit": false
    },
    {
      "hash": "0x353f9eb23f5c4dd86b1f38b833a3174389c5c5767b67328287c53662044a1b46",
      "transactionType": "CALL",
      "contractName": "ERC1967Proxy",
      "contractAddress": "0xa5f2066647d22dfbd2ed0dd43344db9dce4b4632",
      "function": null,
      "arguments": null,
      "transaction": {
        "from": "0xa7dbe6a016a082873ab6dc5efbea3dacb2238bfc",
        "to": "0xa5f2066647d22dfbd2ed0dd43344db9dce4b4632",
        "gas": "0x5dd6b",
        "value": "0x0",
        "input": "0x0cf8542f000000000000000000000000036cbd53842c5426634e7929541ec2318f3dcf7e00000000000000000000000000000000000000000000000000000000000000040000000000000000000000000000000000000000000000000000000000010004",
        "nonce": "0x131",
        "chainId": "0x14a34"
      },
      "additionalContracts": [],
      "isFixedGasLimit": false
    },
    {
      "hash": "0x54c643855861fde9998573aaf18e9eb2ae5d382df1274d91e6d38d34bf147e39",
      "transactionType": "CALL",
      "contractName": "ERC1967Proxy",
      "contractAddress": "0xa5f2066647d22dfbd2ed0dd43344db9dce4b4632",
      "function": null,
      "arguments": null,
      "transaction": {
        "from": "0xa7dbe6a016a082873ab6dc5efbea3dacb2238bfc",
        "to": "0xa5f2066647d22dfbd2ed0dd43344db9dce4b4632",
        "gas": "0x5dd6b",
        "value": "0x0",
        "input": "0x0cf8542f000000000000000000000000036cbd53842c5426634e7929541ec2318f3dcf7e00000000000000000000000000000000000000000000000000000000000000050000000000000000000000000000000000000000000000000000000000010005",
        "nonce": "0x132",
        "chainId": "0x14a34"
      },
      "additionalContracts": [],
      "isFixedGasLimit": false
    },
    {
      "hash": "0x4e8e37f58e65fea0712255b1ad291c43c15dce62064b6497c3a7260193e46d64",
      "transactionType": "CALL",
      "contractName": "ERC1967Proxy",
      "contractAddress": "0xa5f2066647d22dfbd2ed0dd43344db9dce4b4632",
      "function": null,
      "arguments": null,
      "transaction": {
        "from": "0xa7dbe6a016a082873ab6dc5efbea3dacb2238bfc",
        "to": "0xa5f2066647d22dfbd2ed0dd43344db9dce4b4632",
        "gas": "0x5dd6b",
        "value": "0x0",
        "input": "0x0cf8542f000000000000000000000000036cbd53842c5426634e7929541ec2318f3dcf7e00000000000000000000000000000000000000000000000000000000000000060000000000000000000000000000000000000000000000000000000000010006",
        "nonce": "0x133",
        "chainId": "0x14a34"
      },
      "additionalContracts": [],
      "isFixedGasLimit": false
    },
    {
      "hash": "0x198e898fa4c32370d8049635b0b9723d3cd2c00dd566ab93412c9ef95207f80f",
      "transactionType": "CALL",
      "contractName": "ERC1967Proxy",
      "contractAddress": "0xa5f2066647d22dfbd2ed0dd43344db9dce4b4632",
      "function": null,
      "arguments": null,
      "transaction": {
        "from": "0xa7dbe6a016a082873ab6dc5efbea3dacb2238bfc",
        "to": "0xa5f2066647d22dfbd2ed0dd43344db9dce4b4632",
        "gas": "0x5dd6b",
        "value": "0x0",
        "input": "0x0cf8542f000000000000000000000000036cbd53842c5426634e7929541ec2318f3dcf7e00000000000000000000000000000000000000000000000000000000000000070000000000000000000000000000000000000000000000000000000000010007",
        "nonce": "0x134",
        "chainId": "0x14a34"
      },
      "additionalContracts": [],
      "isFixedGasLimit": false
    },
    {
      "hash": "0x70842ab5a14f4b333e95621bbbf8001e483d6cbf6e51755fb4613d6286daef75",
      "transactionType": "CALL",
      "contractName": "ERC1967Proxy",
      "contractAddress": "0xa5f2066647d22dfbd2ed0dd43344db9dce4b4632",
      "function": null,
      "arguments": null,
      "transaction": {
        "from": "0xa7dbe6a016a082873ab6dc5efbea3dacb2238bfc",
        "to": "0xa5f2066647d22dfbd2ed0dd43344db9dce4b4632",
        "gas": "0x5dd6b",
        "value": "0x0",
        "input": "0x0cf8542f000000000000000000000000036cbd53842c5426634e7929541ec2318f3dcf7e00000000000000000000000000000000000000000000000000000000000000080000000000000000000000000000000000000000000000000000000000010008",
        "nonce": "0x135",
        "chainId": "0x14a34"
      },
      "additionalContracts": [],
      "isFixedGasLimit": false
    },
    {
      "hash": "0xe9a302e1759041d9156d76a9a45ea8c182e3c52b8f47c926867c09edd6adabe3",
      "transactionType": "CALL",
      "contractName": "ERC1967Proxy",
      "contractAddress": "0xa5f2066647d22dfbd2ed0dd43344db9dce4b4632",
      "function": null,
      "arguments": null,
      "transaction": {
        "from": "0xa7dbe6a016a082873ab6dc5efbea3dacb2238bfc",
        "to": "0xa5f2066647d22dfbd2ed0dd43344db9dce4b4632",
        "gas": "0x5dd6b",
        "value": "0x0",
        "input": "0x0cf8542f000000000000000000000000036cbd53842c5426634e7929541ec2318f3dcf7e00000000000000000000000000000000000000000000000000000000000000090000000000000000000000000000000000000000000000000000000000010009",
        "nonce": "0x136",
        "chainId": "0x14a34"
      },
      "additionalContracts": [],
      "isFixedGasLimit": false
    },
    {
      "hash": "0xdcb8663f04a64af5976e45eca682c2b6974bdba5c2b96c450b88205c1520b6d3",
      "transactionType": "CALL",
      "contractName": "ERC1967Proxy",
      "contractAddress": "0xa5f2066647d22dfbd2ed0dd43344db9dce4b4632",
      "function": null,
      "arguments": null,
      "transaction": {
        "from": "0xa7dbe6a016a082873ab6dc5efbea3dacb2238bfc",
        "to": "0xa5f2066647d22dfbd2ed0dd43344db9dce4b4632",
        "gas": "0x5dd6b",
        "value": "0x0",
        "input": "0x0cf8542f000000000000000000000000036cbd53842c5426634e7929541ec2318f3dcf7e000000000000000000000000000000000000000000000000000000000000000a000000000000000000000000000000000000000000000000000000000001000a",
        "nonce": "0x137",
        "chainId": "0x14a34"
      },
      "additionalContracts": [],
      "isFixedGasLimit": false
    }
  ],
  "receipts": [
    {
      "status": "0x1",
      "cumulativeGasUsed": "0x11acf7",
      "logs": [
        {
          "address": "0x036cbd53842c5426634e7929541ec2318f3dcf7e",
          "topics": [
            "0x8c5be1e5ebec7d5bd14f71427d1e84f3dd0314c0f7b2291e5b200ac8c7c3b925",
            "0x000000000000000000000000a7dbe6a016a082873ab6dc5efbea3dacb2238bfc",
            "0x000000000000000000000000a5f2066647d22dfbd2ed0dd43344db9dce4b4632"
          ],
          "data": "0xffffffffffffffffffffffffffffffffffffffffffffffffffffffffffffffff",
          "blockHash": "0xadb1958db5dd8031126bc783c9404d33e2d693789f5cb42545ee332cc455ed53",
          "blockNumber": "0x114aabe",
          "transactionHash": "0x3e893e53458b3a4cf03ccb3e7315225199a6f296804d0ca5ba6d891cf82496be",
          "transactionIndex": "0x7",
          "logIndex": "0x17",
          "removed": false
        }
      ],
      "logsBloom": "0x00000000044000000000000000000000000000000000000000000000000000000000000000000000000000000000000000000000008000000000000000200000000000000000000000000000000200000000000000000400010000000000000800000000000000000000000000000000000000000000000000000000000000000000000000000000000000000000000000000000000000000000000000000000020000000000000000000000000000000000000000000000000000000000000000000000000000000000000000000000000000001000000000000000000000000010000000000000000000000020000000000000000000000000000000000000",
      "type": "0x2",
      "transactionHash": "0x3e893e53458b3a4cf03ccb3e7315225199a6f296804d0ca5ba6d891cf82496be",
      "transactionIndex": "0x7",
      "blockHash": "0xadb1958db5dd8031126bc783c9404d33e2d693789f5cb42545ee332cc455ed53",
      "blockNumber": "0x114aabe",
      "gasUsed": "0xd9e9",
      "effectiveGasPrice": "0xe2e59",
      "from": "0xa7dbe6a016a082873ab6dc5efbea3dacb2238bfc",
      "to": "0x036cbd53842c5426634e7929541ec2318f3dcf7e",
      "contractAddress": null,
      "l1BaseFeeScalar": "0x44d",
      "l1BlobBaseFee": "0x1",
      "l1BlobBaseFeeScalar": "0xa118b",
      "l1Fee": "0x1406e01a4d",
      "l1GasPrice": "0xb5e5a0329",
      "l1GasUsed": "0x640"
    },
    {
      "status": "0x1",
      "cumulativeGasUsed": "0x160fff",
      "logs": [
        {
          "address": "0x036cbd53842c5426634e7929541ec2318f3dcf7e",
          "topics": [
            "0xddf252ad1be2c89b69c2b068fc378daa952ba7f163c4a11628f55a4df523b3ef",
            "0x000000000000000000000000a7dbe6a016a082873ab6dc5efbea3dacb2238bfc",
            "0x000000000000000000000000a5f2066647d22dfbd2ed0dd43344db9dce4b4632"
          ],
          "data": "0x0000000000000000000000000000000000000000000000000000000000000001",
          "blockHash": "0xadb1958db5dd8031126bc783c9404d33e2d693789f5cb42545ee332cc455ed53",
          "blockNumber": "0x114aabe",
          "transactionHash": "0x7f0dae643c0561a80bde8bea4e2e30817d49f2c951610564cc67fbec46c45955",
          "transactionIndex": "0x8",
          "logIndex": "0x18",
          "removed": false
        },
        {
          "address": "0x036cbd53842c5426634e7929541ec2318f3dcf7e",
          "topics": [
            "0x8c5be1e5ebec7d5bd14f71427d1e84f3dd0314c0f7b2291e5b200ac8c7c3b925",
            "0x000000000000000000000000a5f2066647d22dfbd2ed0dd43344db9dce4b4632",
            "0x00000000000000000000000007ea79f68b2b3df564d0a34f8e19d9b1e339814b"
          ],
          "data": "0x0000000000000000000000000000000000000000000000000000000000000001",
          "blockHash": "0xadb1958db5dd8031126bc783c9404d33e2d693789f5cb42545ee332cc455ed53",
          "blockNumber": "0x114aabe",
          "transactionHash": "0x7f0dae643c0561a80bde8bea4e2e30817d49f2c951610564cc67fbec46c45955",
          "transactionIndex": "0x8",
          "logIndex": "0x19",
          "removed": false
        },
        {
          "address": "0x07ea79f68b2b3df564d0a34f8e19d9b1e339814b",
          "topics": [
            "0x804c9b842b2748a22bb64b345453a3de7ca54a6ca45ce00d415894979e22897a",
            "0x000000000000000000000000036cbd53842c5426634e7929541ec2318f3dcf7e"
          ],
          "data": "0x0000000000000000000000000000000000000000000229b201f51b5d2073dc09000000000000000000000000000000000000000000456a227e3f327abb65f4460000000000000000000000000000000000000000000b830ee3b32980b565f446000000000000000000000000000000000000000003457c339625a5a63b025a1d0000000000000000000000000000000000000000034d60e3d7e7a13614801b6e",
          "blockHash": "0xadb1958db5dd8031126bc783c9404d33e2d693789f5cb42545ee332cc455ed53",
          "blockNumber": "0x114aabe",
          "transactionHash": "0x7f0dae643c0561a80bde8bea4e2e30817d49f2c951610564cc67fbec46c45955",
          "transactionIndex": "0x8",
          "logIndex": "0x1a",
          "removed": false
        },
        {
          "address": "0x036cbd53842c5426634e7929541ec2318f3dcf7e",
          "topics": [
            "0xddf252ad1be2c89b69c2b068fc378daa952ba7f163c4a11628f55a4df523b3ef",
            "0x000000000000000000000000a5f2066647d22dfbd2ed0dd43344db9dce4b4632",
            "0x000000000000000000000000f53b60f4006cab2b3c4688ce41fd5362427a2a66"
          ],
          "data": "0x0000000000000000000000000000000000000000000000000000000000000001",
          "blockHash": "0xadb1958db5dd8031126bc783c9404d33e2d693789f5cb42545ee332cc455ed53",
          "blockNumber": "0x114aabe",
          "transactionHash": "0x7f0dae643c0561a80bde8bea4e2e30817d49f2c951610564cc67fbec46c45955",
          "transactionIndex": "0x8",
          "logIndex": "0x1b",
          "removed": false
        },
        {
          "address": "0xf53b60f4006cab2b3c4688ce41fd5362427a2a66",
          "topics": [
            "0xddf252ad1be2c89b69c2b068fc378daa952ba7f163c4a11628f55a4df523b3ef",
            "0x0000000000000000000000000000000000000000000000000000000000000000",
            "0x000000000000000000000000a5f2066647d22dfbd2ed0dd43344db9dce4b4632"
          ],
          "data": "0x0000000000000000000000000000000000000000000000000000000000000078",
          "blockHash": "0xadb1958db5dd8031126bc783c9404d33e2d693789f5cb42545ee332cc455ed53",
          "blockNumber": "0x114aabe",
          "transactionHash": "0x7f0dae643c0561a80bde8bea4e2e30817d49f2c951610564cc67fbec46c45955",
          "transactionIndex": "0x8",
          "logIndex": "0x1c",
          "removed": false
        },
        {
          "address": "0xf53b60f4006cab2b3c4688ce41fd5362427a2a66",
          "topics": [
            "0x458f5fa412d0f69b08dd84872b0215675cc67bc1d5b6fd93300a1c3878b86196",
            "0x000000000000000000000000a5f2066647d22dfbd2ed0dd43344db9dce4b4632",
            "0x000000000000000000000000a5f2066647d22dfbd2ed0dd43344db9dce4b4632"
          ],
          "data": "0x00000000000000000000000000000000000000000000000000000000000000780000000000000000000000000000000000000000000000000000000000000077000000000000000000000000000000000000000003457c339625a5a63b025a1d",
          "blockHash": "0xadb1958db5dd8031126bc783c9404d33e2d693789f5cb42545ee332cc455ed53",
          "blockNumber": "0x114aabe",
          "transactionHash": "0x7f0dae643c0561a80bde8bea4e2e30817d49f2c951610564cc67fbec46c45955",
          "transactionIndex": "0x8",
          "logIndex": "0x1d",
          "removed": false
        },
        {
          "address": "0x07ea79f68b2b3df564d0a34f8e19d9b1e339814b",
          "topics": [
            "0x2b627736bca15cd5381dcf80b0bf11fd197d01a037c52b927a881a10fb73ba61",
            "0x000000000000000000000000036cbd53842c5426634e7929541ec2318f3dcf7e",
            "0x000000000000000000000000a5f2066647d22dfbd2ed0dd43344db9dce4b4632",
            "0x0000000000000000000000000000000000000000000000000000000000000000"
          ],
          "data": "0x000000000000000000000000a5f2066647d22dfbd2ed0dd43344db9dce4b46320000000000000000000000000000000000000000000000000000000000000001",
          "blockHash": "0xadb1958db5dd8031126bc783c9404d33e2d693789f5cb42545ee332cc455ed53",
          "blockNumber": "0x114aabe",
          "transactionHash": "0x7f0dae643c0561a80bde8bea4e2e30817d49f2c951610564cc67fbec46c45955",
          "transactionIndex": "0x8",
          "logIndex": "0x1e",
          "removed": false
        },
        {
          "address": "0x33bde9da6a2be8629eac8b5e59e5ecb1db8c7144",
          "topics": [
            "0xddf252ad1be2c89b69c2b068fc378daa952ba7f163c4a11628f55a4df523b3ef",
            "0x0000000000000000000000000000000000000000000000000000000000000000",
            "0x0000000000000000000000000000000000000000000000000000000000010001"
          ],
          "data": "0x0000000000000000000000000000000000000000000000000000000000000001",
          "blockHash": "0xadb1958db5dd8031126bc783c9404d33e2d693789f5cb42545ee332cc455ed53",
          "blockNumber": "0x114aabe",
          "transactionHash": "0x7f0dae643c0561a80bde8bea4e2e30817d49f2c951610564cc67fbec46c45955",
          "transactionIndex": "0x8",
          "logIndex": "0x1f",
          "removed": false
        },
        {
          "address": "0x33bde9da6a2be8629eac8b5e59e5ecb1db8c7144",
          "topics": [
            "0x1dd3ef30dcefc8c588a88fe8610a9b5946656cf752b640cff3e99b7dcfc287ba",
            "0x0000000000000000000000000000000000000000000000000000000000000000",
            "0x0000000000000000000000000000000000000000000000000000000000010001"
          ],
          "data": "0x0000000000000000000000000000000000000000000000000000000000000001",
          "blockHash": "0xadb1958db5dd8031126bc783c9404d33e2d693789f5cb42545ee332cc455ed53",
          "blockNumber": "0x114aabe",
          "transactionHash": "0x7f0dae643c0561a80bde8bea4e2e30817d49f2c951610564cc67fbec46c45955",
          "transactionIndex": "0x8",
          "logIndex": "0x20",
          "removed": false
        },
        {
          "address": "0x33bde9da6a2be8629eac8b5e59e5ecb1db8c7144",
          "topics": [
            "0x34c5394fa6fa162ceb662095cb2cb5706be845fcedb904f03adb00d1754c2ee3",
            "0x0000000000000000000000000000000000000000000000000000000000000000",
            "0x0000000000000000000000000000000000000000000000000000000000010001"
          ],
          "data": "0x0000000000000000000000000000000000000000000000000000000000000001",
          "blockHash": "0xadb1958db5dd8031126bc783c9404d33e2d693789f5cb42545ee332cc455ed53",
          "blockNumber": "0x114aabe",
          "transactionHash": "0x7f0dae643c0561a80bde8bea4e2e30817d49f2c951610564cc67fbec46c45955",
          "transactionIndex": "0x8",
          "logIndex": "0x21",
          "removed": false
        },
        {
          "address": "0xa5f2066647d22dfbd2ed0dd43344db9dce4b4632",
          "topics": [
            "0x5548c837ab068cf56a2c2479df0882a4922fd203edb7517321831d95078c5f62",
            "0x000000000000000000000000036cbd53842c5426634e7929541ec2318f3dcf7e",
            "0x0000000000000000000000000000000000000000000000000000000000010001"
          ],
          "data": "0x0000000000000000000000000000000000000000000000000000000000000001",
          "blockHash": "0xadb1958db5dd8031126bc783c9404d33e2d693789f5cb42545ee332cc455ed53",
          "blockNumber": "0x114aabe",
          "transactionHash": "0x7f0dae643c0561a80bde8bea4e2e30817d49f2c951610564cc67fbec46c45955",
          "transactionIndex": "0x8",
          "logIndex": "0x22",
          "removed": false
        }
      ],
      "logsBloom": "0x00800014044000000020000000000000000000000000000100000000000000010000000000000000000000000804000000000000008002000000000040200000800000000008000000000009000200000000000000000400010000040000000800000000020000000200000000000800002000000004000000000010000000000000000040040000020000000000000000000000000080000204802000000000020000000010000000000000000000000000000000000000100000000000410002000002040000000000002040000000000000001000000000000001000820000010000002000000000000000060000040000000000000000000400100000000",
      "type": "0x2",
      "transactionHash": "0x7f0dae643c0561a80bde8bea4e2e30817d49f2c951610564cc67fbec46c45955",
      "transactionIndex": "0x8",
      "blockHash": "0xadb1958db5dd8031126bc783c9404d33e2d693789f5cb42545ee332cc455ed53",
      "blockNumber": "0x114aabe",
      "gasUsed": "0x46308",
      "effectiveGasPrice": "0xe2e59",
      "from": "0xa7dbe6a016a082873ab6dc5efbea3dacb2238bfc",
      "to": "0xa5f2066647d22dfbd2ed0dd43344db9dce4b4632",
      "contractAddress": null,
      "l1BaseFeeScalar": "0x44d",
      "l1BlobBaseFee": "0x1",
      "l1BlobBaseFeeScalar": "0xa118b",
      "l1Fee": "0x1406e01a4d",
      "l1GasPrice": "0xb5e5a0329",
      "l1GasUsed": "0x640"
    },
    {
      "status": "0x1",
      "cumulativeGasUsed": "0x92dfb",
      "logs": [
        {
          "address": "0x036cbd53842c5426634e7929541ec2318f3dcf7e",
          "topics": [
            "0xddf252ad1be2c89b69c2b068fc378daa952ba7f163c4a11628f55a4df523b3ef",
            "0x000000000000000000000000a7dbe6a016a082873ab6dc5efbea3dacb2238bfc",
            "0x000000000000000000000000a5f2066647d22dfbd2ed0dd43344db9dce4b4632"
          ],
          "data": "0x0000000000000000000000000000000000000000000000000000000000000002",
          "blockHash": "0x041587cbd4cdc31efd9327581dc361ed8d949830c68551b8ebf7ef7a74a98cc3",
          "blockNumber": "0x114aac0",
          "transactionHash": "0x8c9047d7d5822b080dad3a71a8388b873c9bd8554667c4b1cfc390f9ed6ea390",
          "transactionIndex": "0x4",
          "logIndex": "0x6",
          "removed": false
        },
        {
          "address": "0x036cbd53842c5426634e7929541ec2318f3dcf7e",
          "topics": [
            "0x8c5be1e5ebec7d5bd14f71427d1e84f3dd0314c0f7b2291e5b200ac8c7c3b925",
            "0x000000000000000000000000a5f2066647d22dfbd2ed0dd43344db9dce4b4632",
            "0x00000000000000000000000007ea79f68b2b3df564d0a34f8e19d9b1e339814b"
          ],
          "data": "0x0000000000000000000000000000000000000000000000000000000000000002",
          "blockHash": "0x041587cbd4cdc31efd9327581dc361ed8d949830c68551b8ebf7ef7a74a98cc3",
          "blockNumber": "0x114aac0",
          "transactionHash": "0x8c9047d7d5822b080dad3a71a8388b873c9bd8554667c4b1cfc390f9ed6ea390",
          "transactionIndex": "0x4",
          "logIndex": "0x7",
          "removed": false
        },
        {
          "address": "0x07ea79f68b2b3df564d0a34f8e19d9b1e339814b",
          "topics": [
            "0x804c9b842b2748a22bb64b345453a3de7ca54a6ca45ce00d415894979e22897a",
            "0x000000000000000000000000036cbd53842c5426634e7929541ec2318f3dcf7e"
          ],
          "data": "0x0000000000000000000000000000000000000000000229b2020f137129a9bbc5000000000000000000000000000000000000000000456a227e844ec415b553b60000000000000000000000000000000000000000000b830ee3f845ca0fb553b6000000000000000000000000000000000000000003457c339ace97ec716314b50000000000000000000000000000000000000000034d60e3f0f0f66ce851d2de",
          "blockHash": "0x041587cbd4cdc31efd9327581dc361ed8d949830c68551b8ebf7ef7a74a98cc3",
          "blockNumber": "0x114aac0",
          "transactionHash": "0x8c9047d7d5822b080dad3a71a8388b873c9bd8554667c4b1cfc390f9ed6ea390",
          "transactionIndex": "0x4",
          "logIndex": "0x8",
          "removed": false
        },
        {
          "address": "0x036cbd53842c5426634e7929541ec2318f3dcf7e",
          "topics": [
            "0xddf252ad1be2c89b69c2b068fc378daa952ba7f163c4a11628f55a4df523b3ef",
            "0x000000000000000000000000a5f2066647d22dfbd2ed0dd43344db9dce4b4632",
            "0x000000000000000000000000f53b60f4006cab2b3c4688ce41fd5362427a2a66"
          ],
          "data": "0x0000000000000000000000000000000000000000000000000000000000000002",
          "blockHash": "0x041587cbd4cdc31efd9327581dc361ed8d949830c68551b8ebf7ef7a74a98cc3",
          "blockNumber": "0x114aac0",
          "transactionHash": "0x8c9047d7d5822b080dad3a71a8388b873c9bd8554667c4b1cfc390f9ed6ea390",
          "transactionIndex": "0x4",
          "logIndex": "0x9",
          "removed": false
        },
        {
          "address": "0xf53b60f4006cab2b3c4688ce41fd5362427a2a66",
          "topics": [
            "0xddf252ad1be2c89b69c2b068fc378daa952ba7f163c4a11628f55a4df523b3ef",
            "0x0000000000000000000000000000000000000000000000000000000000000000",
            "0x000000000000000000000000a5f2066647d22dfbd2ed0dd43344db9dce4b4632"
          ],
          "data": "0x0000000000000000000000000000000000000000000000000000000000000002",
          "blockHash": "0x041587cbd4cdc31efd9327581dc361ed8d949830c68551b8ebf7ef7a74a98cc3",
          "blockNumber": "0x114aac0",
          "transactionHash": "0x8c9047d7d5822b080dad3a71a8388b873c9bd8554667c4b1cfc390f9ed6ea390",
          "transactionIndex": "0x4",
          "logIndex": "0xa",
          "removed": false
        },
        {
          "address": "0xf53b60f4006cab2b3c4688ce41fd5362427a2a66",
          "topics": [
            "0x458f5fa412d0f69b08dd84872b0215675cc67bc1d5b6fd93300a1c3878b86196",
            "0x000000000000000000000000a5f2066647d22dfbd2ed0dd43344db9dce4b4632",
            "0x000000000000000000000000a5f2066647d22dfbd2ed0dd43344db9dce4b4632"
          ],
          "data": "0x00000000000000000000000000000000000000000000000000000000000000020000000000000000000000000000000000000000000000000000000000000000000000000000000000000000000000000000000003457c339ace97ec716314b5",
          "blockHash": "0x041587cbd4cdc31efd9327581dc361ed8d949830c68551b8ebf7ef7a74a98cc3",
          "blockNumber": "0x114aac0",
          "transactionHash": "0x8c9047d7d5822b080dad3a71a8388b873c9bd8554667c4b1cfc390f9ed6ea390",
          "transactionIndex": "0x4",
          "logIndex": "0xb",
          "removed": false
        },
        {
          "address": "0x07ea79f68b2b3df564d0a34f8e19d9b1e339814b",
          "topics": [
            "0x2b627736bca15cd5381dcf80b0bf11fd197d01a037c52b927a881a10fb73ba61",
            "0x000000000000000000000000036cbd53842c5426634e7929541ec2318f3dcf7e",
            "0x000000000000000000000000a5f2066647d22dfbd2ed0dd43344db9dce4b4632",
            "0x0000000000000000000000000000000000000000000000000000000000000000"
          ],
          "data": "0x000000000000000000000000a5f2066647d22dfbd2ed0dd43344db9dce4b46320000000000000000000000000000000000000000000000000000000000000002",
          "blockHash": "0x041587cbd4cdc31efd9327581dc361ed8d949830c68551b8ebf7ef7a74a98cc3",
          "blockNumber": "0x114aac0",
          "transactionHash": "0x8c9047d7d5822b080dad3a71a8388b873c9bd8554667c4b1cfc390f9ed6ea390",
          "transactionIndex": "0x4",
          "logIndex": "0xc",
          "removed": false
        },
        {
          "address": "0x33bde9da6a2be8629eac8b5e59e5ecb1db8c7144",
          "topics": [
            "0xddf252ad1be2c89b69c2b068fc378daa952ba7f163c4a11628f55a4df523b3ef",
            "0x0000000000000000000000000000000000000000000000000000000000000000",
            "0x0000000000000000000000000000000000000000000000000000000000010002"
          ],
          "data": "0x0000000000000000000000000000000000000000000000000000000000000002",
          "blockHash": "0x041587cbd4cdc31efd9327581dc361ed8d949830c68551b8ebf7ef7a74a98cc3",
          "blockNumber": "0x114aac0",
          "transactionHash": "0x8c9047d7d5822b080dad3a71a8388b873c9bd8554667c4b1cfc390f9ed6ea390",
          "transactionIndex": "0x4",
          "logIndex": "0xd",
          "removed": false
        },
        {
          "address": "0x33bde9da6a2be8629eac8b5e59e5ecb1db8c7144",
          "topics": [
            "0x1dd3ef30dcefc8c588a88fe8610a9b5946656cf752b640cff3e99b7dcfc287ba",
            "0x0000000000000000000000000000000000000000000000000000000000000000",
            "0x0000000000000000000000000000000000000000000000000000000000010002"
          ],
          "data": "0x0000000000000000000000000000000000000000000000000000000000000002",
          "blockHash": "0x041587cbd4cdc31efd9327581dc361ed8d949830c68551b8ebf7ef7a74a98cc3",
          "blockNumber": "0x114aac0",
          "transactionHash": "0x8c9047d7d5822b080dad3a71a8388b873c9bd8554667c4b1cfc390f9ed6ea390",
          "transactionIndex": "0x4",
          "logIndex": "0xe",
          "removed": false
        },
        {
          "address": "0x33bde9da6a2be8629eac8b5e59e5ecb1db8c7144",
          "topics": [
            "0x34c5394fa6fa162ceb662095cb2cb5706be845fcedb904f03adb00d1754c2ee3",
            "0x0000000000000000000000000000000000000000000000000000000000000000",
            "0x0000000000000000000000000000000000000000000000000000000000010002"
          ],
          "data": "0x0000000000000000000000000000000000000000000000000000000000000002",
          "blockHash": "0x041587cbd4cdc31efd9327581dc361ed8d949830c68551b8ebf7ef7a74a98cc3",
          "blockNumber": "0x114aac0",
          "transactionHash": "0x8c9047d7d5822b080dad3a71a8388b873c9bd8554667c4b1cfc390f9ed6ea390",
          "transactionIndex": "0x4",
          "logIndex": "0xf",
          "removed": false
        },
        {
          "address": "0xa5f2066647d22dfbd2ed0dd43344db9dce4b4632",
          "topics": [
            "0x5548c837ab068cf56a2c2479df0882a4922fd203edb7517321831d95078c5f62",
            "0x000000000000000000000000036cbd53842c5426634e7929541ec2318f3dcf7e",
            "0x0000000000000000000000000000000000000000000000000000000000010002"
          ],
          "data": "0x0000000000000000000000000000000000000000000000000000000000000002",
          "blockHash": "0x041587cbd4cdc31efd9327581dc361ed8d949830c68551b8ebf7ef7a74a98cc3",
          "blockNumber": "0x114aac0",
          "transactionHash": "0x8c9047d7d5822b080dad3a71a8388b873c9bd8554667c4b1cfc390f9ed6ea390",
          "transactionIndex": "0x4",
          "logIndex": "0x10",
          "removed": false
        }
      ],
      "logsBloom": "0x00800014044000000020000000000000000000000000000100000000000000010000000000000000000000000804000000000000008002000000000040200000800000000008004000000009000200000000000000000400010000040000000800000000020000000200000000000800002000000004000000000010000000000000000040040000000000000000000000000000000080000204802000000000020000000000000000000000000000000000000000000000100000000100410002000002040000000000002040000000000000001000000000000000000820000010000002000000001000000060000040000000000000000000400100000000",
      "type": "0x2",
      "transactionHash": "0x8c9047d7d5822b080dad3a71a8388b873c9bd8554667c4b1cfc390f9ed6ea390",
      "transactionIndex": "0x4",
      "blockHash": "0x041587cbd4cdc31efd9327581dc361ed8d949830c68551b8ebf7ef7a74a98cc3",
      "blockNumber": "0x114aac0",
      "gasUsed": "0x46308",
      "effectiveGasPrice": "0xe2e59",
      "from": "0xa7dbe6a016a082873ab6dc5efbea3dacb2238bfc",
      "to": "0xa5f2066647d22dfbd2ed0dd43344db9dce4b4632",
      "contractAddress": null,
      "l1BaseFeeScalar": "0x44d",
      "l1BlobBaseFee": "0x1",
      "l1BlobBaseFeeScalar": "0xa118b",
      "l1Fee": "0x1406e01a4d",
      "l1GasPrice": "0xb5e5a0329",
      "l1GasUsed": "0x640"
    },
    {
      "status": "0x1",
      "cumulativeGasUsed": "0xd6cfb",
      "logs": [
        {
          "address": "0x036cbd53842c5426634e7929541ec2318f3dcf7e",
          "topics": [
            "0xddf252ad1be2c89b69c2b068fc378daa952ba7f163c4a11628f55a4df523b3ef",
            "0x000000000000000000000000a7dbe6a016a082873ab6dc5efbea3dacb2238bfc",
            "0x000000000000000000000000a5f2066647d22dfbd2ed0dd43344db9dce4b4632"
          ],
          "data": "0x0000000000000000000000000000000000000000000000000000000000000003",
          "blockHash": "0x041587cbd4cdc31efd9327581dc361ed8d949830c68551b8ebf7ef7a74a98cc3",
          "blockNumber": "0x114aac0",
          "transactionHash": "0xbed9374cd53e025df67d7dc99316a27b8f43437e093691c4b460fe49190dcae7",
          "transactionIndex": "0x5",
          "logIndex": "0x11",
          "removed": false
        },
        {
          "address": "0x036cbd53842c5426634e7929541ec2318f3dcf7e",
          "topics": [
            "0x8c5be1e5ebec7d5bd14f71427d1e84f3dd0314c0f7b2291e5b200ac8c7c3b925",
            "0x000000000000000000000000a5f2066647d22dfbd2ed0dd43344db9dce4b4632",
            "0x00000000000000000000000007ea79f68b2b3df564d0a34f8e19d9b1e339814b"
          ],
          "data": "0x0000000000000000000000000000000000000000000000000000000000000003",
          "blockHash": "0x041587cbd4cdc31efd9327581dc361ed8d949830c68551b8ebf7ef7a74a98cc3",
          "blockNumber": "0x114aac0",
          "transactionHash": "0xbed9374cd53e025df67d7dc99316a27b8f43437e093691c4b460fe49190dcae7",
          "transactionIndex": "0x5",
          "logIndex": "0x12",
          "removed": false
        },
        {
          "address": "0x07ea79f68b2b3df564d0a34f8e19d9b1e339814b",
          "topics": [
            "0x804c9b842b2748a22bb64b345453a3de7ca54a6ca45ce00d415894979e22897a",
            "0x000000000000000000000000036cbd53842c5426634e7929541ec2318f3dcf7e"
          ],
          "data": "0x0000000000000000000000000000000000000000000229b2020efe99b07e105e000000000000000000000000000000000000000000456a227e84174cfc4a68f00000000000000000000000000000000000000000000b830ee3f80e52f64a68f0000000000000000000000000000000000000000003457c339ace97ec716314b50000000000000000000000000000000000000000034d60e3f0f0f66ce851d2de",
          "blockHash": "0x041587cbd4cdc31efd9327581dc361ed8d949830c68551b8ebf7ef7a74a98cc3",
          "blockNumber": "0x114aac0",
          "transactionHash": "0xbed9374cd53e025df67d7dc99316a27b8f43437e093691c4b460fe49190dcae7",
          "transactionIndex": "0x5",
          "logIndex": "0x13",
          "removed": false
        },
        {
          "address": "0x036cbd53842c5426634e7929541ec2318f3dcf7e",
          "topics": [
            "0xddf252ad1be2c89b69c2b068fc378daa952ba7f163c4a11628f55a4df523b3ef",
            "0x000000000000000000000000a5f2066647d22dfbd2ed0dd43344db9dce4b4632",
            "0x000000000000000000000000f53b60f4006cab2b3c4688ce41fd5362427a2a66"
          ],
          "data": "0x0000000000000000000000000000000000000000000000000000000000000003",
          "blockHash": "0x041587cbd4cdc31efd9327581dc361ed8d949830c68551b8ebf7ef7a74a98cc3",
          "blockNumber": "0x114aac0",
          "transactionHash": "0xbed9374cd53e025df67d7dc99316a27b8f43437e093691c4b460fe49190dcae7",
          "transactionIndex": "0x5",
          "logIndex": "0x14",
          "removed": false
        },
        {
          "address": "0xf53b60f4006cab2b3c4688ce41fd5362427a2a66",
          "topics": [
            "0xddf252ad1be2c89b69c2b068fc378daa952ba7f163c4a11628f55a4df523b3ef",
            "0x0000000000000000000000000000000000000000000000000000000000000000",
            "0x000000000000000000000000a5f2066647d22dfbd2ed0dd43344db9dce4b4632"
          ],
          "data": "0x0000000000000000000000000000000000000000000000000000000000000003",
          "blockHash": "0x041587cbd4cdc31efd9327581dc361ed8d949830c68551b8ebf7ef7a74a98cc3",
          "blockNumber": "0x114aac0",
          "transactionHash": "0xbed9374cd53e025df67d7dc99316a27b8f43437e093691c4b460fe49190dcae7",
          "transactionIndex": "0x5",
          "logIndex": "0x15",
          "removed": false
        },
        {
          "address": "0xf53b60f4006cab2b3c4688ce41fd5362427a2a66",
          "topics": [
            "0x458f5fa412d0f69b08dd84872b0215675cc67bc1d5b6fd93300a1c3878b86196",
            "0x000000000000000000000000a5f2066647d22dfbd2ed0dd43344db9dce4b4632",
            "0x000000000000000000000000a5f2066647d22dfbd2ed0dd43344db9dce4b4632"
          ],
          "data": "0x00000000000000000000000000000000000000000000000000000000000000030000000000000000000000000000000000000000000000000000000000000000000000000000000000000000000000000000000003457c339ace97ec716314b5",
          "blockHash": "0x041587cbd4cdc31efd9327581dc361ed8d949830c68551b8ebf7ef7a74a98cc3",
          "blockNumber": "0x114aac0",
          "transactionHash": "0xbed9374cd53e025df67d7dc99316a27b8f43437e093691c4b460fe49190dcae7",
          "transactionIndex": "0x5",
          "logIndex": "0x16",
          "removed": false
        },
        {
          "address": "0x07ea79f68b2b3df564d0a34f8e19d9b1e339814b",
          "topics": [
            "0x2b627736bca15cd5381dcf80b0bf11fd197d01a037c52b927a881a10fb73ba61",
            "0x000000000000000000000000036cbd53842c5426634e7929541ec2318f3dcf7e",
            "0x000000000000000000000000a5f2066647d22dfbd2ed0dd43344db9dce4b4632",
            "0x0000000000000000000000000000000000000000000000000000000000000000"
          ],
          "data": "0x000000000000000000000000a5f2066647d22dfbd2ed0dd43344db9dce4b46320000000000000000000000000000000000000000000000000000000000000003",
          "blockHash": "0x041587cbd4cdc31efd9327581dc361ed8d949830c68551b8ebf7ef7a74a98cc3",
          "blockNumber": "0x114aac0",
          "transactionHash": "0xbed9374cd53e025df67d7dc99316a27b8f43437e093691c4b460fe49190dcae7",
          "transactionIndex": "0x5",
          "logIndex": "0x17",
          "removed": false
        },
        {
          "address": "0x33bde9da6a2be8629eac8b5e59e5ecb1db8c7144",
          "topics": [
            "0xddf252ad1be2c89b69c2b068fc378daa952ba7f163c4a11628f55a4df523b3ef",
            "0x0000000000000000000000000000000000000000000000000000000000000000",
            "0x0000000000000000000000000000000000000000000000000000000000010003"
          ],
          "data": "0x0000000000000000000000000000000000000000000000000000000000000003",
          "blockHash": "0x041587cbd4cdc31efd9327581dc361ed8d949830c68551b8ebf7ef7a74a98cc3",
          "blockNumber": "0x114aac0",
          "transactionHash": "0xbed9374cd53e025df67d7dc99316a27b8f43437e093691c4b460fe49190dcae7",
          "transactionIndex": "0x5",
          "logIndex": "0x18",
          "removed": false
        },
        {
          "address": "0x33bde9da6a2be8629eac8b5e59e5ecb1db8c7144",
          "topics": [
            "0x1dd3ef30dcefc8c588a88fe8610a9b5946656cf752b640cff3e99b7dcfc287ba",
            "0x0000000000000000000000000000000000000000000000000000000000000000",
            "0x0000000000000000000000000000000000000000000000000000000000010003"
          ],
          "data": "0x0000000000000000000000000000000000000000000000000000000000000003",
          "blockHash": "0x041587cbd4cdc31efd9327581dc361ed8d949830c68551b8ebf7ef7a74a98cc3",
          "blockNumber": "0x114aac0",
          "transactionHash": "0xbed9374cd53e025df67d7dc99316a27b8f43437e093691c4b460fe49190dcae7",
          "transactionIndex": "0x5",
          "logIndex": "0x19",
          "removed": false
        },
        {
          "address": "0x33bde9da6a2be8629eac8b5e59e5ecb1db8c7144",
          "topics": [
            "0x34c5394fa6fa162ceb662095cb2cb5706be845fcedb904f03adb00d1754c2ee3",
            "0x0000000000000000000000000000000000000000000000000000000000000000",
            "0x0000000000000000000000000000000000000000000000000000000000010003"
          ],
          "data": "0x0000000000000000000000000000000000000000000000000000000000000003",
          "blockHash": "0x041587cbd4cdc31efd9327581dc361ed8d949830c68551b8ebf7ef7a74a98cc3",
          "blockNumber": "0x114aac0",
          "transactionHash": "0xbed9374cd53e025df67d7dc99316a27b8f43437e093691c4b460fe49190dcae7",
          "transactionIndex": "0x5",
          "logIndex": "0x1a",
          "removed": false
        },
        {
          "address": "0xa5f2066647d22dfbd2ed0dd43344db9dce4b4632",
          "topics": [
            "0x5548c837ab068cf56a2c2479df0882a4922fd203edb7517321831d95078c5f62",
            "0x000000000000000000000000036cbd53842c5426634e7929541ec2318f3dcf7e",
            "0x0000000000000000000000000000000000000000000000000000000000010003"
          ],
          "data": "0x0000000000000000000000000000000000000000000000000000000000000003",
          "blockHash": "0x041587cbd4cdc31efd9327581dc361ed8d949830c68551b8ebf7ef7a74a98cc3",
          "blockNumber": "0x114aac0",
          "transactionHash": "0xbed9374cd53e025df67d7dc99316a27b8f43437e093691c4b460fe49190dcae7",
          "transactionIndex": "0x5",
          "logIndex": "0x1b",
          "removed": false
        }
      ],
      "logsBloom": "0x00800014044000000020000000000000000000000000000100000000000000010000000000000000000000000804000000000000008002000000000040200000800000000008000000000009000200000000000000000400010000040000000800000000020000000200000000000800002000000004010000000010000000000001000040040000008000000000000000000000000080000204802000000000020000000000000000000000000000000000000000000000100000000000410002000002040000000000002040000000000000001000000000000000000820000010000002000000000000000060000040000000000000000000400100000000",
      "type": "0x2",
      "transactionHash": "0xbed9374cd53e025df67d7dc99316a27b8f43437e093691c4b460fe49190dcae7",
      "transactionIndex": "0x5",
      "blockHash": "0x041587cbd4cdc31efd9327581dc361ed8d949830c68551b8ebf7ef7a74a98cc3",
      "blockNumber": "0x114aac0",
      "gasUsed": "0x43f00",
      "effectiveGasPrice": "0xe2e59",
      "from": "0xa7dbe6a016a082873ab6dc5efbea3dacb2238bfc",
      "to": "0xa5f2066647d22dfbd2ed0dd43344db9dce4b4632",
      "contractAddress": null,
      "l1BaseFeeScalar": "0x44d",
      "l1BlobBaseFee": "0x1",
      "l1BlobBaseFeeScalar": "0xa118b",
      "l1Fee": "0x1406e01a4d",
      "l1GasPrice": "0xb5e5a0329",
      "l1GasUsed": "0x640"
    },
    {
      "status": "0x1",
      "cumulativeGasUsed": "0x11abfb",
      "logs": [
        {
          "address": "0x036cbd53842c5426634e7929541ec2318f3dcf7e",
          "topics": [
            "0xddf252ad1be2c89b69c2b068fc378daa952ba7f163c4a11628f55a4df523b3ef",
            "0x000000000000000000000000a7dbe6a016a082873ab6dc5efbea3dacb2238bfc",
            "0x000000000000000000000000a5f2066647d22dfbd2ed0dd43344db9dce4b4632"
          ],
          "data": "0x0000000000000000000000000000000000000000000000000000000000000004",
          "blockHash": "0x041587cbd4cdc31efd9327581dc361ed8d949830c68551b8ebf7ef7a74a98cc3",
          "blockNumber": "0x114aac0",
          "transactionHash": "0x353f9eb23f5c4dd86b1f38b833a3174389c5c5767b67328287c53662044a1b46",
          "transactionIndex": "0x6",
          "logIndex": "0x1c",
          "removed": false
        },
        {
          "address": "0x036cbd53842c5426634e7929541ec2318f3dcf7e",
          "topics": [
            "0x8c5be1e5ebec7d5bd14f71427d1e84f3dd0314c0f7b2291e5b200ac8c7c3b925",
            "0x000000000000000000000000a5f2066647d22dfbd2ed0dd43344db9dce4b4632",
            "0x00000000000000000000000007ea79f68b2b3df564d0a34f8e19d9b1e339814b"
          ],
          "data": "0x0000000000000000000000000000000000000000000000000000000000000004",
          "blockHash": "0x041587cbd4cdc31efd9327581dc361ed8d949830c68551b8ebf7ef7a74a98cc3",
          "blockNumber": "0x114aac0",
          "transactionHash": "0x353f9eb23f5c4dd86b1f38b833a3174389c5c5767b67328287c53662044a1b46",
          "transactionIndex": "0x6",
          "logIndex": "0x1d",
          "removed": false
        },
        {
          "address": "0x07ea79f68b2b3df564d0a34f8e19d9b1e339814b",
          "topics": [
            "0x804c9b842b2748a22bb64b345453a3de7ca54a6ca45ce00d415894979e22897a",
            "0x000000000000000000000000036cbd53842c5426634e7929541ec2318f3dcf7e"
          ],
          "data": "0x0000000000000000000000000000000000000000000229b2020ee2cfb98bcd9f000000000000000000000000000000000000000000456a227e83cd58da66887a0000000000000000000000000000000000000000000b830ee3f7c45ed466887a000000000000000000000000000000000000000003457c339ace97ec716314b50000000000000000000000000000000000000000034d60e3f0f0f66ce851d2de",
          "blockHash": "0x041587cbd4cdc31efd9327581dc361ed8d949830c68551b8ebf7ef7a74a98cc3",
          "blockNumber": "0x114aac0",
          "transactionHash": "0x353f9eb23f5c4dd86b1f38b833a3174389c5c5767b67328287c53662044a1b46",
          "transactionIndex": "0x6",
          "logIndex": "0x1e",
          "removed": false
        },
        {
          "address": "0x036cbd53842c5426634e7929541ec2318f3dcf7e",
          "topics": [
            "0xddf252ad1be2c89b69c2b068fc378daa952ba7f163c4a11628f55a4df523b3ef",
            "0x000000000000000000000000a5f2066647d22dfbd2ed0dd43344db9dce4b4632",
            "0x000000000000000000000000f53b60f4006cab2b3c4688ce41fd5362427a2a66"
          ],
          "data": "0x0000000000000000000000000000000000000000000000000000000000000004",
          "blockHash": "0x041587cbd4cdc31efd9327581dc361ed8d949830c68551b8ebf7ef7a74a98cc3",
          "blockNumber": "0x114aac0",
          "transactionHash": "0x353f9eb23f5c4dd86b1f38b833a3174389c5c5767b67328287c53662044a1b46",
          "transactionIndex": "0x6",
          "logIndex": "0x1f",
          "removed": false
        },
        {
          "address": "0xf53b60f4006cab2b3c4688ce41fd5362427a2a66",
          "topics": [
            "0xddf252ad1be2c89b69c2b068fc378daa952ba7f163c4a11628f55a4df523b3ef",
            "0x0000000000000000000000000000000000000000000000000000000000000000",
            "0x000000000000000000000000a5f2066647d22dfbd2ed0dd43344db9dce4b4632"
          ],
          "data": "0x0000000000000000000000000000000000000000000000000000000000000004",
          "blockHash": "0x041587cbd4cdc31efd9327581dc361ed8d949830c68551b8ebf7ef7a74a98cc3",
          "blockNumber": "0x114aac0",
          "transactionHash": "0x353f9eb23f5c4dd86b1f38b833a3174389c5c5767b67328287c53662044a1b46",
          "transactionIndex": "0x6",
          "logIndex": "0x20",
          "removed": false
        },
        {
          "address": "0xf53b60f4006cab2b3c4688ce41fd5362427a2a66",
          "topics": [
            "0x458f5fa412d0f69b08dd84872b0215675cc67bc1d5b6fd93300a1c3878b86196",
            "0x000000000000000000000000a5f2066647d22dfbd2ed0dd43344db9dce4b4632",
            "0x000000000000000000000000a5f2066647d22dfbd2ed0dd43344db9dce4b4632"
          ],
          "data": "0x00000000000000000000000000000000000000000000000000000000000000040000000000000000000000000000000000000000000000000000000000000000000000000000000000000000000000000000000003457c339ace97ec716314b5",
          "blockHash": "0x041587cbd4cdc31efd9327581dc361ed8d949830c68551b8ebf7ef7a74a98cc3",
          "blockNumber": "0x114aac0",
          "transactionHash": "0x353f9eb23f5c4dd86b1f38b833a3174389c5c5767b67328287c53662044a1b46",
          "transactionIndex": "0x6",
          "logIndex": "0x21",
          "removed": false
        },
        {
          "address": "0x07ea79f68b2b3df564d0a34f8e19d9b1e339814b",
          "topics": [
            "0x2b627736bca15cd5381dcf80b0bf11fd197d01a037c52b927a881a10fb73ba61",
            "0x000000000000000000000000036cbd53842c5426634e7929541ec2318f3dcf7e",
            "0x000000000000000000000000a5f2066647d22dfbd2ed0dd43344db9dce4b4632",
            "0x0000000000000000000000000000000000000000000000000000000000000000"
          ],
          "data": "0x000000000000000000000000a5f2066647d22dfbd2ed0dd43344db9dce4b46320000000000000000000000000000000000000000000000000000000000000004",
          "blockHash": "0x041587cbd4cdc31efd9327581dc361ed8d949830c68551b8ebf7ef7a74a98cc3",
          "blockNumber": "0x114aac0",
          "transactionHash": "0x353f9eb23f5c4dd86b1f38b833a3174389c5c5767b67328287c53662044a1b46",
          "transactionIndex": "0x6",
          "logIndex": "0x22",
          "removed": false
        },
        {
          "address": "0x33bde9da6a2be8629eac8b5e59e5ecb1db8c7144",
          "topics": [
            "0xddf252ad1be2c89b69c2b068fc378daa952ba7f163c4a11628f55a4df523b3ef",
            "0x0000000000000000000000000000000000000000000000000000000000000000",
            "0x0000000000000000000000000000000000000000000000000000000000010004"
          ],
          "data": "0x0000000000000000000000000000000000000000000000000000000000000004",
          "blockHash": "0x041587cbd4cdc31efd9327581dc361ed8d949830c68551b8ebf7ef7a74a98cc3",
          "blockNumber": "0x114aac0",
          "transactionHash": "0x353f9eb23f5c4dd86b1f38b833a3174389c5c5767b67328287c53662044a1b46",
          "transactionIndex": "0x6",
          "logIndex": "0x23",
          "removed": false
        },
        {
          "address": "0x33bde9da6a2be8629eac8b5e59e5ecb1db8c7144",
          "topics": [
            "0x1dd3ef30dcefc8c588a88fe8610a9b5946656cf752b640cff3e99b7dcfc287ba",
            "0x0000000000000000000000000000000000000000000000000000000000000000",
            "0x0000000000000000000000000000000000000000000000000000000000010004"
          ],
          "data": "0x0000000000000000000000000000000000000000000000000000000000000004",
          "blockHash": "0x041587cbd4cdc31efd9327581dc361ed8d949830c68551b8ebf7ef7a74a98cc3",
          "blockNumber": "0x114aac0",
          "transactionHash": "0x353f9eb23f5c4dd86b1f38b833a3174389c5c5767b67328287c53662044a1b46",
          "transactionIndex": "0x6",
          "logIndex": "0x24",
          "removed": false
        },
        {
          "address": "0x33bde9da6a2be8629eac8b5e59e5ecb1db8c7144",
          "topics": [
            "0x34c5394fa6fa162ceb662095cb2cb5706be845fcedb904f03adb00d1754c2ee3",
            "0x0000000000000000000000000000000000000000000000000000000000000000",
            "0x0000000000000000000000000000000000000000000000000000000000010004"
          ],
          "data": "0x0000000000000000000000000000000000000000000000000000000000000004",
          "blockHash": "0x041587cbd4cdc31efd9327581dc361ed8d949830c68551b8ebf7ef7a74a98cc3",
          "blockNumber": "0x114aac0",
          "transactionHash": "0x353f9eb23f5c4dd86b1f38b833a3174389c5c5767b67328287c53662044a1b46",
          "transactionIndex": "0x6",
          "logIndex": "0x25",
          "removed": false
        },
        {
          "address": "0xa5f2066647d22dfbd2ed0dd43344db9dce4b4632",
          "topics": [
            "0x5548c837ab068cf56a2c2479df0882a4922fd203edb7517321831d95078c5f62",
            "0x000000000000000000000000036cbd53842c5426634e7929541ec2318f3dcf7e",
            "0x0000000000000000000000000000000000000000000000000000000000010004"
          ],
          "data": "0x0000000000000000000000000000000000000000000000000000000000000004",
          "blockHash": "0x041587cbd4cdc31efd9327581dc361ed8d949830c68551b8ebf7ef7a74a98cc3",
          "blockNumber": "0x114aac0",
          "transactionHash": "0x353f9eb23f5c4dd86b1f38b833a3174389c5c5767b67328287c53662044a1b46",
          "transactionIndex": "0x6",
          "logIndex": "0x26",
          "removed": false
        }
      ],
      "logsBloom": "0x00800014044000000020000000000000000000010000000100000000000000010000000000000000000000000804000000000000008002000000000040200000800000000008000000000009000200000080000000000400010000040000000800000000020000000200000000000800002000000004000000000010000000000000000040040000000000000000000000000000000080000204802000000000020000000000000000000000000000000000000000000000100000000000410002000002040000000000002040000000000000001000000000000000000820000010000002000000400000000060000040000000000000000000400100000000",
      "type": "0x2",
      "transactionHash": "0x353f9eb23f5c4dd86b1f38b833a3174389c5c5767b67328287c53662044a1b46",
      "transactionIndex": "0x6",
      "blockHash": "0x041587cbd4cdc31efd9327581dc361ed8d949830c68551b8ebf7ef7a74a98cc3",
      "blockNumber": "0x114aac0",
      "gasUsed": "0x43f00",
      "effectiveGasPrice": "0xe2e59",
      "from": "0xa7dbe6a016a082873ab6dc5efbea3dacb2238bfc",
      "to": "0xa5f2066647d22dfbd2ed0dd43344db9dce4b4632",
      "contractAddress": null,
      "l1BaseFeeScalar": "0x44d",
      "l1BlobBaseFee": "0x1",
      "l1BlobBaseFeeScalar": "0xa118b",
      "l1Fee": "0x1406e01a4d",
      "l1GasPrice": "0xb5e5a0329",
      "l1GasUsed": "0x640"
    },
    {
      "status": "0x1",
      "cumulativeGasUsed": "0x15eafb",
      "logs": [
        {
          "address": "0x036cbd53842c5426634e7929541ec2318f3dcf7e",
          "topics": [
            "0xddf252ad1be2c89b69c2b068fc378daa952ba7f163c4a11628f55a4df523b3ef",
            "0x000000000000000000000000a7dbe6a016a082873ab6dc5efbea3dacb2238bfc",
            "0x000000000000000000000000a5f2066647d22dfbd2ed0dd43344db9dce4b4632"
          ],
          "data": "0x0000000000000000000000000000000000000000000000000000000000000005",
          "blockHash": "0x041587cbd4cdc31efd9327581dc361ed8d949830c68551b8ebf7ef7a74a98cc3",
          "blockNumber": "0x114aac0",
          "transactionHash": "0x54c643855861fde9998573aaf18e9eb2ae5d382df1274d91e6d38d34bf147e39",
          "transactionIndex": "0x7",
          "logIndex": "0x27",
          "removed": false
        },
        {
          "address": "0x036cbd53842c5426634e7929541ec2318f3dcf7e",
          "topics": [
            "0x8c5be1e5ebec7d5bd14f71427d1e84f3dd0314c0f7b2291e5b200ac8c7c3b925",
            "0x000000000000000000000000a5f2066647d22dfbd2ed0dd43344db9dce4b4632",
            "0x00000000000000000000000007ea79f68b2b3df564d0a34f8e19d9b1e339814b"
          ],
          "data": "0x0000000000000000000000000000000000000000000000000000000000000005",
          "blockHash": "0x041587cbd4cdc31efd9327581dc361ed8d949830c68551b8ebf7ef7a74a98cc3",
          "blockNumber": "0x114aac0",
          "transactionHash": "0x54c643855861fde9998573aaf18e9eb2ae5d382df1274d91e6d38d34bf147e39",
          "transactionIndex": "0x7",
          "logIndex": "0x28",
          "removed": false
        },
        {
          "address": "0x07ea79f68b2b3df564d0a34f8e19d9b1e339814b",
          "topics": [
            "0x804c9b842b2748a22bb64b345453a3de7ca54a6ca45ce00d415894979e22897a",
            "0x000000000000000000000000036cbd53842c5426634e7929541ec2318f3dcf7e"
          ],
          "data": "0x0000000000000000000000000000000000000000000229b2020ec01344e703b9000000000000000000000000000000000000000000456a227e8370e7b009b5200000000000000000000000000000000000000000000b830ee3f767edaa09b520000000000000000000000000000000000000000003457c339ace97ec716314b50000000000000000000000000000000000000000034d60e3f0f0f66ce851d2de",
          "blockHash": "0x041587cbd4cdc31efd9327581dc361ed8d949830c68551b8ebf7ef7a74a98cc3",
          "blockNumber": "0x114aac0",
          "transactionHash": "0x54c643855861fde9998573aaf18e9eb2ae5d382df1274d91e6d38d34bf147e39",
          "transactionIndex": "0x7",
          "logIndex": "0x29",
          "removed": false
        },
        {
          "address": "0x036cbd53842c5426634e7929541ec2318f3dcf7e",
          "topics": [
            "0xddf252ad1be2c89b69c2b068fc378daa952ba7f163c4a11628f55a4df523b3ef",
            "0x000000000000000000000000a5f2066647d22dfbd2ed0dd43344db9dce4b4632",
            "0x000000000000000000000000f53b60f4006cab2b3c4688ce41fd5362427a2a66"
          ],
          "data": "0x0000000000000000000000000000000000000000000000000000000000000005",
          "blockHash": "0x041587cbd4cdc31efd9327581dc361ed8d949830c68551b8ebf7ef7a74a98cc3",
          "blockNumber": "0x114aac0",
          "transactionHash": "0x54c643855861fde9998573aaf18e9eb2ae5d382df1274d91e6d38d34bf147e39",
          "transactionIndex": "0x7",
          "logIndex": "0x2a",
          "removed": false
        },
        {
          "address": "0xf53b60f4006cab2b3c4688ce41fd5362427a2a66",
          "topics": [
            "0xddf252ad1be2c89b69c2b068fc378daa952ba7f163c4a11628f55a4df523b3ef",
            "0x0000000000000000000000000000000000000000000000000000000000000000",
            "0x000000000000000000000000a5f2066647d22dfbd2ed0dd43344db9dce4b4632"
          ],
          "data": "0x0000000000000000000000000000000000000000000000000000000000000005",
          "blockHash": "0x041587cbd4cdc31efd9327581dc361ed8d949830c68551b8ebf7ef7a74a98cc3",
          "blockNumber": "0x114aac0",
          "transactionHash": "0x54c643855861fde9998573aaf18e9eb2ae5d382df1274d91e6d38d34bf147e39",
          "transactionIndex": "0x7",
          "logIndex": "0x2b",
          "removed": false
        },
        {
          "address": "0xf53b60f4006cab2b3c4688ce41fd5362427a2a66",
          "topics": [
            "0x458f5fa412d0f69b08dd84872b0215675cc67bc1d5b6fd93300a1c3878b86196",
            "0x000000000000000000000000a5f2066647d22dfbd2ed0dd43344db9dce4b4632",
            "0x000000000000000000000000a5f2066647d22dfbd2ed0dd43344db9dce4b4632"
          ],
          "data": "0x00000000000000000000000000000000000000000000000000000000000000050000000000000000000000000000000000000000000000000000000000000000000000000000000000000000000000000000000003457c339ace97ec716314b5",
          "blockHash": "0x041587cbd4cdc31efd9327581dc361ed8d949830c68551b8ebf7ef7a74a98cc3",
          "blockNumber": "0x114aac0",
          "transactionHash": "0x54c643855861fde9998573aaf18e9eb2ae5d382df1274d91e6d38d34bf147e39",
          "transactionIndex": "0x7",
          "logIndex": "0x2c",
          "removed": false
        },
        {
          "address": "0x07ea79f68b2b3df564d0a34f8e19d9b1e339814b",
          "topics": [
            "0x2b627736bca15cd5381dcf80b0bf11fd197d01a037c52b927a881a10fb73ba61",
            "0x000000000000000000000000036cbd53842c5426634e7929541ec2318f3dcf7e",
            "0x000000000000000000000000a5f2066647d22dfbd2ed0dd43344db9dce4b4632",
            "0x0000000000000000000000000000000000000000000000000000000000000000"
          ],
          "data": "0x000000000000000000000000a5f2066647d22dfbd2ed0dd43344db9dce4b46320000000000000000000000000000000000000000000000000000000000000005",
          "blockHash": "0x041587cbd4cdc31efd9327581dc361ed8d949830c68551b8ebf7ef7a74a98cc3",
          "blockNumber": "0x114aac0",
          "transactionHash": "0x54c643855861fde9998573aaf18e9eb2ae5d382df1274d91e6d38d34bf147e39",
          "transactionIndex": "0x7",
          "logIndex": "0x2d",
          "removed": false
        },
        {
          "address": "0x33bde9da6a2be8629eac8b5e59e5ecb1db8c7144",
          "topics": [
            "0xddf252ad1be2c89b69c2b068fc378daa952ba7f163c4a11628f55a4df523b3ef",
            "0x0000000000000000000000000000000000000000000000000000000000000000",
            "0x0000000000000000000000000000000000000000000000000000000000010005"
          ],
          "data": "0x0000000000000000000000000000000000000000000000000000000000000005",
          "blockHash": "0x041587cbd4cdc31efd9327581dc361ed8d949830c68551b8ebf7ef7a74a98cc3",
          "blockNumber": "0x114aac0",
          "transactionHash": "0x54c643855861fde9998573aaf18e9eb2ae5d382df1274d91e6d38d34bf147e39",
          "transactionIndex": "0x7",
          "logIndex": "0x2e",
          "removed": false
        },
        {
          "address": "0x33bde9da6a2be8629eac8b5e59e5ecb1db8c7144",
          "topics": [
            "0x1dd3ef30dcefc8c588a88fe8610a9b5946656cf752b640cff3e99b7dcfc287ba",
            "0x0000000000000000000000000000000000000000000000000000000000000000",
            "0x0000000000000000000000000000000000000000000000000000000000010005"
          ],
          "data": "0x0000000000000000000000000000000000000000000000000000000000000005",
          "blockHash": "0x041587cbd4cdc31efd9327581dc361ed8d949830c68551b8ebf7ef7a74a98cc3",
          "blockNumber": "0x114aac0",
          "transactionHash": "0x54c643855861fde9998573aaf18e9eb2ae5d382df1274d91e6d38d34bf147e39",
          "transactionIndex": "0x7",
          "logIndex": "0x2f",
          "removed": false
        },
        {
          "address": "0x33bde9da6a2be8629eac8b5e59e5ecb1db8c7144",
          "topics": [
            "0x34c5394fa6fa162ceb662095cb2cb5706be845fcedb904f03adb00d1754c2ee3",
            "0x0000000000000000000000000000000000000000000000000000000000000000",
            "0x0000000000000000000000000000000000000000000000000000000000010005"
          ],
          "data": "0x0000000000000000000000000000000000000000000000000000000000000005",
          "blockHash": "0x041587cbd4cdc31efd9327581dc361ed8d949830c68551b8ebf7ef7a74a98cc3",
          "blockNumber": "0x114aac0",
          "transactionHash": "0x54c643855861fde9998573aaf18e9eb2ae5d382df1274d91e6d38d34bf147e39",
          "transactionIndex": "0x7",
          "logIndex": "0x30",
          "removed": false
        },
        {
          "address": "0xa5f2066647d22dfbd2ed0dd43344db9dce4b4632",
          "topics": [
            "0x5548c837ab068cf56a2c2479df0882a4922fd203edb7517321831d95078c5f62",
            "0x000000000000000000000000036cbd53842c5426634e7929541ec2318f3dcf7e",
            "0x0000000000000000000000000000000000000000000000000000000000010005"
          ],
          "data": "0x0000000000000000000000000000000000000000000000000000000000000005",
          "blockHash": "0x041587cbd4cdc31efd9327581dc361ed8d949830c68551b8ebf7ef7a74a98cc3",
          "blockNumber": "0x114aac0",
          "transactionHash": "0x54c643855861fde9998573aaf18e9eb2ae5d382df1274d91e6d38d34bf147e39",
          "transactionIndex": "0x7",
          "logIndex": "0x31",
          "removed": false
        }
      ],
      "logsBloom": "0x00800014044000000020000000000000000000000000100100000000000000010000000000000000000000000804000000000000008002000000000040200000800000000008000000000409000200000000000000000400010000040000000800000000420000000200000000000800002000000004000000000010000000000000000040040000000000000000000000000000000080000204802000000000020000000000000000000000000000000000000000000000100000000000410002000002040000000000002040000000000000001000000000000000000820000010000002000000000000000060000040000000000000000000400100000000",
      "type": "0x2",
      "transactionHash": "0x54c643855861fde9998573aaf18e9eb2ae5d382df1274d91e6d38d34bf147e39",
      "transactionIndex": "0x7",
      "blockHash": "0x041587cbd4cdc31efd9327581dc361ed8d949830c68551b8ebf7ef7a74a98cc3",
      "blockNumber": "0x114aac0",
      "gasUsed": "0x43f00",
      "effectiveGasPrice": "0xe2e59",
      "from": "0xa7dbe6a016a082873ab6dc5efbea3dacb2238bfc",
      "to": "0xa5f2066647d22dfbd2ed0dd43344db9dce4b4632",
      "contractAddress": null,
      "l1BaseFeeScalar": "0x44d",
      "l1BlobBaseFee": "0x1",
      "l1BlobBaseFeeScalar": "0xa118b",
      "l1Fee": "0x1406e01a4d",
      "l1GasPrice": "0xb5e5a0329",
      "l1GasUsed": "0x640"
    },
    {
      "status": "0x1",
      "cumulativeGasUsed": "0x1a29fb",
      "logs": [
        {
          "address": "0x036cbd53842c5426634e7929541ec2318f3dcf7e",
          "topics": [
            "0xddf252ad1be2c89b69c2b068fc378daa952ba7f163c4a11628f55a4df523b3ef",
            "0x000000000000000000000000a7dbe6a016a082873ab6dc5efbea3dacb2238bfc",
            "0x000000000000000000000000a5f2066647d22dfbd2ed0dd43344db9dce4b4632"
          ],
          "data": "0x0000000000000000000000000000000000000000000000000000000000000006",
          "blockHash": "0x041587cbd4cdc31efd9327581dc361ed8d949830c68551b8ebf7ef7a74a98cc3",
          "blockNumber": "0x114aac0",
          "transactionHash": "0x4e8e37f58e65fea0712255b1ad291c43c15dce62064b6497c3a7260193e46d64",
          "transactionIndex": "0x8",
          "logIndex": "0x32",
          "removed": false
        },
        {
          "address": "0x036cbd53842c5426634e7929541ec2318f3dcf7e",
          "topics": [
            "0x8c5be1e5ebec7d5bd14f71427d1e84f3dd0314c0f7b2291e5b200ac8c7c3b925",
            "0x000000000000000000000000a5f2066647d22dfbd2ed0dd43344db9dce4b4632",
            "0x00000000000000000000000007ea79f68b2b3df564d0a34f8e19d9b1e339814b"
          ],
          "data": "0x0000000000000000000000000000000000000000000000000000000000000006",
          "blockHash": "0x041587cbd4cdc31efd9327581dc361ed8d949830c68551b8ebf7ef7a74a98cc3",
          "blockNumber": "0x114aac0",
          "transactionHash": "0x4e8e37f58e65fea0712255b1ad291c43c15dce62064b6497c3a7260193e46d64",
          "transactionIndex": "0x8",
          "logIndex": "0x33",
          "removed": false
        },
        {
          "address": "0x07ea79f68b2b3df564d0a34f8e19d9b1e339814b",
          "topics": [
            "0x804c9b842b2748a22bb64b345453a3de7ca54a6ca45ce00d415894979e22897a",
            "0x000000000000000000000000036cbd53842c5426634e7929541ec2318f3dcf7e"
          ],
          "data": "0x0000000000000000000000000000000000000000000229b2020e9664528fb3fc000000000000000000000000000000000000000000456a227e8301f97d33f25d0000000000000000000000000000000000000000000b830ee3f6f8ff7733f25d000000000000000000000000000000000000000003457c339ace97ec716314b50000000000000000000000000000000000000000034d60e3f0f0f66ce851d2de",
          "blockHash": "0x041587cbd4cdc31efd9327581dc361ed8d949830c68551b8ebf7ef7a74a98cc3",
          "blockNumber": "0x114aac0",
          "transactionHash": "0x4e8e37f58e65fea0712255b1ad291c43c15dce62064b6497c3a7260193e46d64",
          "transactionIndex": "0x8",
          "logIndex": "0x34",
          "removed": false
        },
        {
          "address": "0x036cbd53842c5426634e7929541ec2318f3dcf7e",
          "topics": [
            "0xddf252ad1be2c89b69c2b068fc378daa952ba7f163c4a11628f55a4df523b3ef",
            "0x000000000000000000000000a5f2066647d22dfbd2ed0dd43344db9dce4b4632",
            "0x000000000000000000000000f53b60f4006cab2b3c4688ce41fd5362427a2a66"
          ],
          "data": "0x0000000000000000000000000000000000000000000000000000000000000006",
          "blockHash": "0x041587cbd4cdc31efd9327581dc361ed8d949830c68551b8ebf7ef7a74a98cc3",
          "blockNumber": "0x114aac0",
          "transactionHash": "0x4e8e37f58e65fea0712255b1ad291c43c15dce62064b6497c3a7260193e46d64",
          "transactionIndex": "0x8",
          "logIndex": "0x35",
          "removed": false
        },
        {
          "address": "0xf53b60f4006cab2b3c4688ce41fd5362427a2a66",
          "topics": [
            "0xddf252ad1be2c89b69c2b068fc378daa952ba7f163c4a11628f55a4df523b3ef",
            "0x0000000000000000000000000000000000000000000000000000000000000000",
            "0x000000000000000000000000a5f2066647d22dfbd2ed0dd43344db9dce4b4632"
          ],
          "data": "0x0000000000000000000000000000000000000000000000000000000000000006",
          "blockHash": "0x041587cbd4cdc31efd9327581dc361ed8d949830c68551b8ebf7ef7a74a98cc3",
          "blockNumber": "0x114aac0",
          "transactionHash": "0x4e8e37f58e65fea0712255b1ad291c43c15dce62064b6497c3a7260193e46d64",
          "transactionIndex": "0x8",
          "logIndex": "0x36",
          "removed": false
        },
        {
          "address": "0xf53b60f4006cab2b3c4688ce41fd5362427a2a66",
          "topics": [
            "0x458f5fa412d0f69b08dd84872b0215675cc67bc1d5b6fd93300a1c3878b86196",
            "0x000000000000000000000000a5f2066647d22dfbd2ed0dd43344db9dce4b4632",
            "0x000000000000000000000000a5f2066647d22dfbd2ed0dd43344db9dce4b4632"
          ],
          "data": "0x00000000000000000000000000000000000000000000000000000000000000060000000000000000000000000000000000000000000000000000000000000000000000000000000000000000000000000000000003457c339ace97ec716314b5",
          "blockHash": "0x041587cbd4cdc31efd9327581dc361ed8d949830c68551b8ebf7ef7a74a98cc3",
          "blockNumber": "0x114aac0",
          "transactionHash": "0x4e8e37f58e65fea0712255b1ad291c43c15dce62064b6497c3a7260193e46d64",
          "transactionIndex": "0x8",
          "logIndex": "0x37",
          "removed": false
        },
        {
          "address": "0x07ea79f68b2b3df564d0a34f8e19d9b1e339814b",
          "topics": [
            "0x2b627736bca15cd5381dcf80b0bf11fd197d01a037c52b927a881a10fb73ba61",
            "0x000000000000000000000000036cbd53842c5426634e7929541ec2318f3dcf7e",
            "0x000000000000000000000000a5f2066647d22dfbd2ed0dd43344db9dce4b4632",
            "0x0000000000000000000000000000000000000000000000000000000000000000"
          ],
          "data": "0x000000000000000000000000a5f2066647d22dfbd2ed0dd43344db9dce4b46320000000000000000000000000000000000000000000000000000000000000006",
          "blockHash": "0x041587cbd4cdc31efd9327581dc361ed8d949830c68551b8ebf7ef7a74a98cc3",
          "blockNumber": "0x114aac0",
          "transactionHash": "0x4e8e37f58e65fea0712255b1ad291c43c15dce62064b6497c3a7260193e46d64",
          "transactionIndex": "0x8",
          "logIndex": "0x38",
          "removed": false
        },
        {
          "address": "0x33bde9da6a2be8629eac8b5e59e5ecb1db8c7144",
          "topics": [
            "0xddf252ad1be2c89b69c2b068fc378daa952ba7f163c4a11628f55a4df523b3ef",
            "0x0000000000000000000000000000000000000000000000000000000000000000",
            "0x0000000000000000000000000000000000000000000000000000000000010006"
          ],
          "data": "0x0000000000000000000000000000000000000000000000000000000000000006",
          "blockHash": "0x041587cbd4cdc31efd9327581dc361ed8d949830c68551b8ebf7ef7a74a98cc3",
          "blockNumber": "0x114aac0",
          "transactionHash": "0x4e8e37f58e65fea0712255b1ad291c43c15dce62064b6497c3a7260193e46d64",
          "transactionIndex": "0x8",
          "logIndex": "0x39",
          "removed": false
        },
        {
          "address": "0x33bde9da6a2be8629eac8b5e59e5ecb1db8c7144",
          "topics": [
            "0x1dd3ef30dcefc8c588a88fe8610a9b5946656cf752b640cff3e99b7dcfc287ba",
            "0x0000000000000000000000000000000000000000000000000000000000000000",
            "0x0000000000000000000000000000000000000000000000000000000000010006"
          ],
          "data": "0x0000000000000000000000000000000000000000000000000000000000000006",
          "blockHash": "0x041587cbd4cdc31efd9327581dc361ed8d949830c68551b8ebf7ef7a74a98cc3",
          "blockNumber": "0x114aac0",
          "transactionHash": "0x4e8e37f58e65fea0712255b1ad291c43c15dce62064b6497c3a7260193e46d64",
          "transactionIndex": "0x8",
          "logIndex": "0x3a",
          "removed": false
        },
        {
          "address": "0x33bde9da6a2be8629eac8b5e59e5ecb1db8c7144",
          "topics": [
            "0x34c5394fa6fa162ceb662095cb2cb5706be845fcedb904f03adb00d1754c2ee3",
            "0x0000000000000000000000000000000000000000000000000000000000000000",
            "0x0000000000000000000000000000000000000000000000000000000000010006"
          ],
          "data": "0x0000000000000000000000000000000000000000000000000000000000000006",
          "blockHash": "0x041587cbd4cdc31efd9327581dc361ed8d949830c68551b8ebf7ef7a74a98cc3",
          "blockNumber": "0x114aac0",
          "transactionHash": "0x4e8e37f58e65fea0712255b1ad291c43c15dce62064b6497c3a7260193e46d64",
          "transactionIndex": "0x8",
          "logIndex": "0x3b",
          "removed": false
        },
        {
          "address": "0xa5f2066647d22dfbd2ed0dd43344db9dce4b4632",
          "topics": [
            "0x5548c837ab068cf56a2c2479df0882a4922fd203edb7517321831d95078c5f62",
            "0x000000000000000000000000036cbd53842c5426634e7929541ec2318f3dcf7e",
            "0x0000000000000000000000000000000000000000000000000000000000010006"
          ],
          "data": "0x0000000000000000000000000000000000000000000000000000000000000006",
          "blockHash": "0x041587cbd4cdc31efd9327581dc361ed8d949830c68551b8ebf7ef7a74a98cc3",
          "blockNumber": "0x114aac0",
          "transactionHash": "0x4e8e37f58e65fea0712255b1ad291c43c15dce62064b6497c3a7260193e46d64",
          "transactionIndex": "0x8",
          "logIndex": "0x3c",
          "removed": false
        }
      ],
      "logsBloom": "0x00800014044000000020000000000000000000000000000100000000000000010000000000000000000000000804000000000000008002000000000040200000800000000008000000000009400200000000000000000400010000040000000800000000020000000200000000000800002000000004000000000010000002000000000040040000000000000000000000000000000080000204802000000000020000000000000000000000000000000000000000000000100000000000410002000002040000000000002040000000000000001000000000000000000820000010000002000000000000000060000040000000000000000000400100000000",
      "type": "0x2",
      "transactionHash": "0x4e8e37f58e65fea0712255b1ad291c43c15dce62064b6497c3a7260193e46d64",
      "transactionIndex": "0x8",
      "blockHash": "0x041587cbd4cdc31efd9327581dc361ed8d949830c68551b8ebf7ef7a74a98cc3",
      "blockNumber": "0x114aac0",
      "gasUsed": "0x43f00",
      "effectiveGasPrice": "0xe2e59",
      "from": "0xa7dbe6a016a082873ab6dc5efbea3dacb2238bfc",
      "to": "0xa5f2066647d22dfbd2ed0dd43344db9dce4b4632",
      "contractAddress": null,
      "l1BaseFeeScalar": "0x44d",
      "l1BlobBaseFee": "0x1",
      "l1BlobBaseFeeScalar": "0xa118b",
      "l1Fee": "0x1406e01a4d",
      "l1GasPrice": "0xb5e5a0329",
      "l1GasUsed": "0x640"
    },
    {
      "status": "0x1",
      "cumulativeGasUsed": "0x1e68fb",
      "logs": [
        {
          "address": "0x036cbd53842c5426634e7929541ec2318f3dcf7e",
          "topics": [
            "0xddf252ad1be2c89b69c2b068fc378daa952ba7f163c4a11628f55a4df523b3ef",
            "0x000000000000000000000000a7dbe6a016a082873ab6dc5efbea3dacb2238bfc",
            "0x000000000000000000000000a5f2066647d22dfbd2ed0dd43344db9dce4b4632"
          ],
          "data": "0x0000000000000000000000000000000000000000000000000000000000000007",
          "blockHash": "0x041587cbd4cdc31efd9327581dc361ed8d949830c68551b8ebf7ef7a74a98cc3",
          "blockNumber": "0x114aac0",
          "transactionHash": "0x198e898fa4c32370d8049635b0b9723d3cd2c00dd566ab93412c9ef95207f80f",
          "transactionIndex": "0x9",
          "logIndex": "0x3d",
          "removed": false
        },
        {
          "address": "0x036cbd53842c5426634e7929541ec2318f3dcf7e",
          "topics": [
            "0x8c5be1e5ebec7d5bd14f71427d1e84f3dd0314c0f7b2291e5b200ac8c7c3b925",
            "0x000000000000000000000000a5f2066647d22dfbd2ed0dd43344db9dce4b4632",
            "0x00000000000000000000000007ea79f68b2b3df564d0a34f8e19d9b1e339814b"
          ],
          "data": "0x0000000000000000000000000000000000000000000000000000000000000007",
          "blockHash": "0x041587cbd4cdc31efd9327581dc361ed8d949830c68551b8ebf7ef7a74a98cc3",
          "blockNumber": "0x114aac0",
          "transactionHash": "0x198e898fa4c32370d8049635b0b9723d3cd2c00dd566ab93412c9ef95207f80f",
          "transactionIndex": "0x9",
          "logIndex": "0x3e",
          "removed": false
        },
        {
          "address": "0x07ea79f68b2b3df564d0a34f8e19d9b1e339814b",
          "topics": [
            "0x804c9b842b2748a22bb64b345453a3de7ca54a6ca45ce00d415894979e22897a",
            "0x000000000000000000000000036cbd53842c5426634e7929541ec2318f3dcf7e"
          ],
          "data": "0x0000000000000000000000000000000000000000000229b2020e65c2e285dff9000000000000000000000000000000000000000000456a227e82808e41e5445b0000000000000000000000000000000000000000000b830ee3f677943be5445b000000000000000000000000000000000000000003457c339ace97ec716314b50000000000000000000000000000000000000000034d60e3f0f0f66ce851d2de",
          "blockHash": "0x041587cbd4cdc31efd9327581dc361ed8d949830c68551b8ebf7ef7a74a98cc3",
          "blockNumber": "0x114aac0",
          "transactionHash": "0x198e898fa4c32370d8049635b0b9723d3cd2c00dd566ab93412c9ef95207f80f",
          "transactionIndex": "0x9",
          "logIndex": "0x3f",
          "removed": false
        },
        {
          "address": "0x036cbd53842c5426634e7929541ec2318f3dcf7e",
          "topics": [
            "0xddf252ad1be2c89b69c2b068fc378daa952ba7f163c4a11628f55a4df523b3ef",
            "0x000000000000000000000000a5f2066647d22dfbd2ed0dd43344db9dce4b4632",
            "0x000000000000000000000000f53b60f4006cab2b3c4688ce41fd5362427a2a66"
          ],
          "data": "0x0000000000000000000000000000000000000000000000000000000000000007",
          "blockHash": "0x041587cbd4cdc31efd9327581dc361ed8d949830c68551b8ebf7ef7a74a98cc3",
          "blockNumber": "0x114aac0",
          "transactionHash": "0x198e898fa4c32370d8049635b0b9723d3cd2c00dd566ab93412c9ef95207f80f",
          "transactionIndex": "0x9",
          "logIndex": "0x40",
          "removed": false
        },
        {
          "address": "0xf53b60f4006cab2b3c4688ce41fd5362427a2a66",
          "topics": [
            "0xddf252ad1be2c89b69c2b068fc378daa952ba7f163c4a11628f55a4df523b3ef",
            "0x0000000000000000000000000000000000000000000000000000000000000000",
            "0x000000000000000000000000a5f2066647d22dfbd2ed0dd43344db9dce4b4632"
          ],
          "data": "0x0000000000000000000000000000000000000000000000000000000000000007",
          "blockHash": "0x041587cbd4cdc31efd9327581dc361ed8d949830c68551b8ebf7ef7a74a98cc3",
          "blockNumber": "0x114aac0",
          "transactionHash": "0x198e898fa4c32370d8049635b0b9723d3cd2c00dd566ab93412c9ef95207f80f",
          "transactionIndex": "0x9",
          "logIndex": "0x41",
          "removed": false
        },
        {
          "address": "0xf53b60f4006cab2b3c4688ce41fd5362427a2a66",
          "topics": [
            "0x458f5fa412d0f69b08dd84872b0215675cc67bc1d5b6fd93300a1c3878b86196",
            "0x000000000000000000000000a5f2066647d22dfbd2ed0dd43344db9dce4b4632",
            "0x000000000000000000000000a5f2066647d22dfbd2ed0dd43344db9dce4b4632"
          ],
          "data": "0x00000000000000000000000000000000000000000000000000000000000000070000000000000000000000000000000000000000000000000000000000000000000000000000000000000000000000000000000003457c339ace97ec716314b5",
          "blockHash": "0x041587cbd4cdc31efd9327581dc361ed8d949830c68551b8ebf7ef7a74a98cc3",
          "blockNumber": "0x114aac0",
          "transactionHash": "0x198e898fa4c32370d8049635b0b9723d3cd2c00dd566ab93412c9ef95207f80f",
          "transactionIndex": "0x9",
          "logIndex": "0x42",
          "removed": false
        },
        {
          "address": "0x07ea79f68b2b3df564d0a34f8e19d9b1e339814b",
          "topics": [
            "0x2b627736bca15cd5381dcf80b0bf11fd197d01a037c52b927a881a10fb73ba61",
            "0x000000000000000000000000036cbd53842c5426634e7929541ec2318f3dcf7e",
            "0x000000000000000000000000a5f2066647d22dfbd2ed0dd43344db9dce4b4632",
            "0x0000000000000000000000000000000000000000000000000000000000000000"
          ],
          "data": "0x000000000000000000000000a5f2066647d22dfbd2ed0dd43344db9dce4b46320000000000000000000000000000000000000000000000000000000000000007",
          "blockHash": "0x041587cbd4cdc31efd9327581dc361ed8d949830c68551b8ebf7ef7a74a98cc3",
          "blockNumber": "0x114aac0",
          "transactionHash": "0x198e898fa4c32370d8049635b0b9723d3cd2c00dd566ab93412c9ef95207f80f",
          "transactionIndex": "0x9",
          "logIndex": "0x43",
          "removed": false
        },
        {
          "address": "0x33bde9da6a2be8629eac8b5e59e5ecb1db8c7144",
          "topics": [
            "0xddf252ad1be2c89b69c2b068fc378daa952ba7f163c4a11628f55a4df523b3ef",
            "0x0000000000000000000000000000000000000000000000000000000000000000",
            "0x0000000000000000000000000000000000000000000000000000000000010007"
          ],
          "data": "0x0000000000000000000000000000000000000000000000000000000000000007",
          "blockHash": "0x041587cbd4cdc31efd9327581dc361ed8d949830c68551b8ebf7ef7a74a98cc3",
          "blockNumber": "0x114aac0",
          "transactionHash": "0x198e898fa4c32370d8049635b0b9723d3cd2c00dd566ab93412c9ef95207f80f",
          "transactionIndex": "0x9",
          "logIndex": "0x44",
          "removed": false
        },
        {
          "address": "0x33bde9da6a2be8629eac8b5e59e5ecb1db8c7144",
          "topics": [
            "0x1dd3ef30dcefc8c588a88fe8610a9b5946656cf752b640cff3e99b7dcfc287ba",
            "0x0000000000000000000000000000000000000000000000000000000000000000",
            "0x0000000000000000000000000000000000000000000000000000000000010007"
          ],
          "data": "0x0000000000000000000000000000000000000000000000000000000000000007",
          "blockHash": "0x041587cbd4cdc31efd9327581dc361ed8d949830c68551b8ebf7ef7a74a98cc3",
          "blockNumber": "0x114aac0",
          "transactionHash": "0x198e898fa4c32370d8049635b0b9723d3cd2c00dd566ab93412c9ef95207f80f",
          "transactionIndex": "0x9",
          "logIndex": "0x45",
          "removed": false
        },
        {
          "address": "0x33bde9da6a2be8629eac8b5e59e5ecb1db8c7144",
          "topics": [
            "0x34c5394fa6fa162ceb662095cb2cb5706be845fcedb904f03adb00d1754c2ee3",
            "0x0000000000000000000000000000000000000000000000000000000000000000",
            "0x0000000000000000000000000000000000000000000000000000000000010007"
          ],
          "data": "0x0000000000000000000000000000000000000000000000000000000000000007",
          "blockHash": "0x041587cbd4cdc31efd9327581dc361ed8d949830c68551b8ebf7ef7a74a98cc3",
          "blockNumber": "0x114aac0",
          "transactionHash": "0x198e898fa4c32370d8049635b0b9723d3cd2c00dd566ab93412c9ef95207f80f",
          "transactionIndex": "0x9",
          "logIndex": "0x46",
          "removed": false
        },
        {
          "address": "0xa5f2066647d22dfbd2ed0dd43344db9dce4b4632",
          "topics": [
            "0x5548c837ab068cf56a2c2479df0882a4922fd203edb7517321831d95078c5f62",
            "0x000000000000000000000000036cbd53842c5426634e7929541ec2318f3dcf7e",
            "0x0000000000000000000000000000000000000000000000000000000000010007"
          ],
          "data": "0x0000000000000000000000000000000000000000000000000000000000000007",
          "blockHash": "0x041587cbd4cdc31efd9327581dc361ed8d949830c68551b8ebf7ef7a74a98cc3",
          "blockNumber": "0x114aac0",
          "transactionHash": "0x198e898fa4c32370d8049635b0b9723d3cd2c00dd566ab93412c9ef95207f80f",
          "transactionIndex": "0x9",
          "logIndex": "0x47",
          "removed": false
        }
      ],
      "logsBloom": "0x00800014044000000020000000200000000000000000000100000000000000010000000000000000000000000804000000000000008002000000000040200000800000000008000000000009000200000000000000000400010000040000000800000000020000000200000000000800002000000004000000000010000000000000000040040000000000000000000000000000000080000204802000000000020000000000000000000000000000000000000000000000100008000000410002000002040000000000002040000000000000001000000000000000000820000010000002000000000000000060000040000000000000000002400100000000",
      "type": "0x2",
      "transactionHash": "0x198e898fa4c32370d8049635b0b9723d3cd2c00dd566ab93412c9ef95207f80f",
      "transactionIndex": "0x9",
      "blockHash": "0x041587cbd4cdc31efd9327581dc361ed8d949830c68551b8ebf7ef7a74a98cc3",
      "blockNumber": "0x114aac0",
      "gasUsed": "0x43f00",
      "effectiveGasPrice": "0xe2e59",
      "from": "0xa7dbe6a016a082873ab6dc5efbea3dacb2238bfc",
      "to": "0xa5f2066647d22dfbd2ed0dd43344db9dce4b4632",
      "contractAddress": null,
      "l1BaseFeeScalar": "0x44d",
      "l1BlobBaseFee": "0x1",
      "l1BlobBaseFeeScalar": "0xa118b",
      "l1Fee": "0x1406e01a4d",
      "l1GasPrice": "0xb5e5a0329",
      "l1GasUsed": "0x640"
    },
    {
      "status": "0x1",
      "cumulativeGasUsed": "0x22a7fb",
      "logs": [
        {
          "address": "0x036cbd53842c5426634e7929541ec2318f3dcf7e",
          "topics": [
            "0xddf252ad1be2c89b69c2b068fc378daa952ba7f163c4a11628f55a4df523b3ef",
            "0x000000000000000000000000a7dbe6a016a082873ab6dc5efbea3dacb2238bfc",
            "0x000000000000000000000000a5f2066647d22dfbd2ed0dd43344db9dce4b4632"
          ],
          "data": "0x0000000000000000000000000000000000000000000000000000000000000008",
          "blockHash": "0x041587cbd4cdc31efd9327581dc361ed8d949830c68551b8ebf7ef7a74a98cc3",
          "blockNumber": "0x114aac0",
          "transactionHash": "0x70842ab5a14f4b333e95621bbbf8001e483d6cbf6e51755fb4613d6286daef75",
          "transactionIndex": "0xa",
          "logIndex": "0x48",
          "removed": false
        },
        {
          "address": "0x036cbd53842c5426634e7929541ec2318f3dcf7e",
          "topics": [
            "0x8c5be1e5ebec7d5bd14f71427d1e84f3dd0314c0f7b2291e5b200ac8c7c3b925",
            "0x000000000000000000000000a5f2066647d22dfbd2ed0dd43344db9dce4b4632",
            "0x00000000000000000000000007ea79f68b2b3df564d0a34f8e19d9b1e339814b"
          ],
          "data": "0x0000000000000000000000000000000000000000000000000000000000000008",
          "blockHash": "0x041587cbd4cdc31efd9327581dc361ed8d949830c68551b8ebf7ef7a74a98cc3",
          "blockNumber": "0x114aac0",
          "transactionHash": "0x70842ab5a14f4b333e95621bbbf8001e483d6cbf6e51755fb4613d6286daef75",
          "transactionIndex": "0xa",
          "logIndex": "0x49",
          "removed": false
        },
        {
          "address": "0x07ea79f68b2b3df564d0a34f8e19d9b1e339814b",
          "topics": [
            "0x804c9b842b2748a22bb64b345453a3de7ca54a6ca45ce00d415894979e22897a",
            "0x000000000000000000000000036cbd53842c5426634e7929541ec2318f3dcf7e"
          ],
          "data": "0x0000000000000000000000000000000000000000000229b2020e2e2ef4b57a5d000000000000000000000000000000000000000000456a227e81eca5fe1daffc0000000000000000000000000000000000000000000b830ee3f5e3abf81daffc000000000000000000000000000000000000000003457c339ace97ec716314b50000000000000000000000000000000000000000034d60e3f0f0f66ce851d2de",
          "blockHash": "0x041587cbd4cdc31efd9327581dc361ed8d949830c68551b8ebf7ef7a74a98cc3",
          "blockNumber": "0x114aac0",
          "transactionHash": "0x70842ab5a14f4b333e95621bbbf8001e483d6cbf6e51755fb4613d6286daef75",
          "transactionIndex": "0xa",
          "logIndex": "0x4a",
          "removed": false
        },
        {
          "address": "0x036cbd53842c5426634e7929541ec2318f3dcf7e",
          "topics": [
            "0xddf252ad1be2c89b69c2b068fc378daa952ba7f163c4a11628f55a4df523b3ef",
            "0x000000000000000000000000a5f2066647d22dfbd2ed0dd43344db9dce4b4632",
            "0x000000000000000000000000f53b60f4006cab2b3c4688ce41fd5362427a2a66"
          ],
          "data": "0x0000000000000000000000000000000000000000000000000000000000000008",
          "blockHash": "0x041587cbd4cdc31efd9327581dc361ed8d949830c68551b8ebf7ef7a74a98cc3",
          "blockNumber": "0x114aac0",
          "transactionHash": "0x70842ab5a14f4b333e95621bbbf8001e483d6cbf6e51755fb4613d6286daef75",
          "transactionIndex": "0xa",
          "logIndex": "0x4b",
          "removed": false
        },
        {
          "address": "0xf53b60f4006cab2b3c4688ce41fd5362427a2a66",
          "topics": [
            "0xddf252ad1be2c89b69c2b068fc378daa952ba7f163c4a11628f55a4df523b3ef",
            "0x0000000000000000000000000000000000000000000000000000000000000000",
            "0x000000000000000000000000a5f2066647d22dfbd2ed0dd43344db9dce4b4632"
          ],
          "data": "0x0000000000000000000000000000000000000000000000000000000000000008",
          "blockHash": "0x041587cbd4cdc31efd9327581dc361ed8d949830c68551b8ebf7ef7a74a98cc3",
          "blockNumber": "0x114aac0",
          "transactionHash": "0x70842ab5a14f4b333e95621bbbf8001e483d6cbf6e51755fb4613d6286daef75",
          "transactionIndex": "0xa",
          "logIndex": "0x4c",
          "removed": false
        },
        {
          "address": "0xf53b60f4006cab2b3c4688ce41fd5362427a2a66",
          "topics": [
            "0x458f5fa412d0f69b08dd84872b0215675cc67bc1d5b6fd93300a1c3878b86196",
            "0x000000000000000000000000a5f2066647d22dfbd2ed0dd43344db9dce4b4632",
            "0x000000000000000000000000a5f2066647d22dfbd2ed0dd43344db9dce4b4632"
          ],
          "data": "0x00000000000000000000000000000000000000000000000000000000000000080000000000000000000000000000000000000000000000000000000000000000000000000000000000000000000000000000000003457c339ace97ec716314b5",
          "blockHash": "0x041587cbd4cdc31efd9327581dc361ed8d949830c68551b8ebf7ef7a74a98cc3",
          "blockNumber": "0x114aac0",
          "transactionHash": "0x70842ab5a14f4b333e95621bbbf8001e483d6cbf6e51755fb4613d6286daef75",
          "transactionIndex": "0xa",
          "logIndex": "0x4d",
          "removed": false
        },
        {
          "address": "0x07ea79f68b2b3df564d0a34f8e19d9b1e339814b",
          "topics": [
            "0x2b627736bca15cd5381dcf80b0bf11fd197d01a037c52b927a881a10fb73ba61",
            "0x000000000000000000000000036cbd53842c5426634e7929541ec2318f3dcf7e",
            "0x000000000000000000000000a5f2066647d22dfbd2ed0dd43344db9dce4b4632",
            "0x0000000000000000000000000000000000000000000000000000000000000000"
          ],
          "data": "0x000000000000000000000000a5f2066647d22dfbd2ed0dd43344db9dce4b46320000000000000000000000000000000000000000000000000000000000000008",
          "blockHash": "0x041587cbd4cdc31efd9327581dc361ed8d949830c68551b8ebf7ef7a74a98cc3",
          "blockNumber": "0x114aac0",
          "transactionHash": "0x70842ab5a14f4b333e95621bbbf8001e483d6cbf6e51755fb4613d6286daef75",
          "transactionIndex": "0xa",
          "logIndex": "0x4e",
          "removed": false
        },
        {
          "address": "0x33bde9da6a2be8629eac8b5e59e5ecb1db8c7144",
          "topics": [
            "0xddf252ad1be2c89b69c2b068fc378daa952ba7f163c4a11628f55a4df523b3ef",
            "0x0000000000000000000000000000000000000000000000000000000000000000",
            "0x0000000000000000000000000000000000000000000000000000000000010008"
          ],
          "data": "0x0000000000000000000000000000000000000000000000000000000000000008",
          "blockHash": "0x041587cbd4cdc31efd9327581dc361ed8d949830c68551b8ebf7ef7a74a98cc3",
          "blockNumber": "0x114aac0",
          "transactionHash": "0x70842ab5a14f4b333e95621bbbf8001e483d6cbf6e51755fb4613d6286daef75",
          "transactionIndex": "0xa",
          "logIndex": "0x4f",
          "removed": false
        },
        {
          "address": "0x33bde9da6a2be8629eac8b5e59e5ecb1db8c7144",
          "topics": [
            "0x1dd3ef30dcefc8c588a88fe8610a9b5946656cf752b640cff3e99b7dcfc287ba",
            "0x0000000000000000000000000000000000000000000000000000000000000000",
            "0x0000000000000000000000000000000000000000000000000000000000010008"
          ],
          "data": "0x0000000000000000000000000000000000000000000000000000000000000008",
          "blockHash": "0x041587cbd4cdc31efd9327581dc361ed8d949830c68551b8ebf7ef7a74a98cc3",
          "blockNumber": "0x114aac0",
          "transactionHash": "0x70842ab5a14f4b333e95621bbbf8001e483d6cbf6e51755fb4613d6286daef75",
          "transactionIndex": "0xa",
          "logIndex": "0x50",
          "removed": false
        },
        {
          "address": "0x33bde9da6a2be8629eac8b5e59e5ecb1db8c7144",
          "topics": [
            "0x34c5394fa6fa162ceb662095cb2cb5706be845fcedb904f03adb00d1754c2ee3",
            "0x0000000000000000000000000000000000000000000000000000000000000000",
            "0x0000000000000000000000000000000000000000000000000000000000010008"
          ],
          "data": "0x0000000000000000000000000000000000000000000000000000000000000008",
          "blockHash": "0x041587cbd4cdc31efd9327581dc361ed8d949830c68551b8ebf7ef7a74a98cc3",
          "blockNumber": "0x114aac0",
          "transactionHash": "0x70842ab5a14f4b333e95621bbbf8001e483d6cbf6e51755fb4613d6286daef75",
          "transactionIndex": "0xa",
          "logIndex": "0x51",
          "removed": false
        },
        {
          "address": "0xa5f2066647d22dfbd2ed0dd43344db9dce4b4632",
          "topics": [
            "0x5548c837ab068cf56a2c2479df0882a4922fd203edb7517321831d95078c5f62",
            "0x000000000000000000000000036cbd53842c5426634e7929541ec2318f3dcf7e",
            "0x0000000000000000000000000000000000000000000000000000000000010008"
          ],
          "data": "0x0000000000000000000000000000000000000000000000000000000000000008",
          "blockHash": "0x041587cbd4cdc31efd9327581dc361ed8d949830c68551b8ebf7ef7a74a98cc3",
          "blockNumber": "0x114aac0",
          "transactionHash": "0x70842ab5a14f4b333e95621bbbf8001e483d6cbf6e51755fb4613d6286daef75",
          "transactionIndex": "0xa",
          "logIndex": "0x52",
          "removed": false
        }
      ],
      "logsBloom": "0x04800014044000000020000000000000000000000000000100000000200000010000000000000000000000000804000000000000008002000000000040200000800000000008000000000009000200000000000000000400010000040000000800000000020000000200000000000800002000000004000000000010000000000000000040040000000000000000000000000000000080000204802000000000020000000000000000000000000000000000000000000000100000000000410002000002040000000000002040000000000000001800000000000000000820000010000002000000000000000060000040000000000000000000400100000000",
      "type": "0x2",
      "transactionHash": "0x70842ab5a14f4b333e95621bbbf8001e483d6cbf6e51755fb4613d6286daef75",
      "transactionIndex": "0xa",
      "blockHash": "0x041587cbd4cdc31efd9327581dc361ed8d949830c68551b8ebf7ef7a74a98cc3",
      "blockNumber": "0x114aac0",
      "gasUsed": "0x43f00",
      "effectiveGasPrice": "0xe2e59",
      "from": "0xa7dbe6a016a082873ab6dc5efbea3dacb2238bfc",
      "to": "0xa5f2066647d22dfbd2ed0dd43344db9dce4b4632",
      "contractAddress": null,
      "l1BaseFeeScalar": "0x44d",
      "l1BlobBaseFee": "0x1",
      "l1BlobBaseFeeScalar": "0xa118b",
      "l1Fee": "0x1406e01a4d",
      "l1GasPrice": "0xb5e5a0329",
      "l1GasUsed": "0x640"
    },
    {
      "status": "0x1",
      "cumulativeGasUsed": "0x26e6fb",
      "logs": [
        {
          "address": "0x036cbd53842c5426634e7929541ec2318f3dcf7e",
          "topics": [
            "0xddf252ad1be2c89b69c2b068fc378daa952ba7f163c4a11628f55a4df523b3ef",
            "0x000000000000000000000000a7dbe6a016a082873ab6dc5efbea3dacb2238bfc",
            "0x000000000000000000000000a5f2066647d22dfbd2ed0dd43344db9dce4b4632"
          ],
          "data": "0x0000000000000000000000000000000000000000000000000000000000000009",
          "blockHash": "0x041587cbd4cdc31efd9327581dc361ed8d949830c68551b8ebf7ef7a74a98cc3",
          "blockNumber": "0x114aac0",
          "transactionHash": "0xe9a302e1759041d9156d76a9a45ea8c182e3c52b8f47c926867c09edd6adabe3",
          "transactionIndex": "0xb",
          "logIndex": "0x53",
          "removed": false
        },
        {
          "address": "0x036cbd53842c5426634e7929541ec2318f3dcf7e",
          "topics": [
            "0x8c5be1e5ebec7d5bd14f71427d1e84f3dd0314c0f7b2291e5b200ac8c7c3b925",
            "0x000000000000000000000000a5f2066647d22dfbd2ed0dd43344db9dce4b4632",
            "0x00000000000000000000000007ea79f68b2b3df564d0a34f8e19d9b1e339814b"
          ],
          "data": "0x0000000000000000000000000000000000000000000000000000000000000009",
          "blockHash": "0x041587cbd4cdc31efd9327581dc361ed8d949830c68551b8ebf7ef7a74a98cc3",
          "blockNumber": "0x114aac0",
          "transactionHash": "0xe9a302e1759041d9156d76a9a45ea8c182e3c52b8f47c926867c09edd6adabe3",
          "transactionIndex": "0xb",
          "logIndex": "0x54",
          "removed": false
        },
        {
          "address": "0x07ea79f68b2b3df564d0a34f8e19d9b1e339814b",
          "topics": [
            "0x804c9b842b2748a22bb64b345453a3de7ca54a6ca45ce00d415894979e22897a",
            "0x000000000000000000000000036cbd53842c5426634e7929541ec2318f3dcf7e"
          ],
          "data": "0x0000000000000000000000000000000000000000000229b2020defa8891e8540000000000000000000000000000000000000000000456a227e814640b1dd3acf0000000000000000000000000000000000000000000b830ee3f53d46abdd3acf000000000000000000000000000000000000000003457c339ace97ec716314b50000000000000000000000000000000000000000034d60e3f0f0f66ce851d2de",
          "blockHash": "0x041587cbd4cdc31efd9327581dc361ed8d949830c68551b8ebf7ef7a74a98cc3",
          "blockNumber": "0x114aac0",
          "transactionHash": "0xe9a302e1759041d9156d76a9a45ea8c182e3c52b8f47c926867c09edd6adabe3",
          "transactionIndex": "0xb",
          "logIndex": "0x55",
          "removed": false
        },
        {
          "address": "0x036cbd53842c5426634e7929541ec2318f3dcf7e",
          "topics": [
            "0xddf252ad1be2c89b69c2b068fc378daa952ba7f163c4a11628f55a4df523b3ef",
            "0x000000000000000000000000a5f2066647d22dfbd2ed0dd43344db9dce4b4632",
            "0x000000000000000000000000f53b60f4006cab2b3c4688ce41fd5362427a2a66"
          ],
          "data": "0x0000000000000000000000000000000000000000000000000000000000000009",
          "blockHash": "0x041587cbd4cdc31efd9327581dc361ed8d949830c68551b8ebf7ef7a74a98cc3",
          "blockNumber": "0x114aac0",
          "transactionHash": "0xe9a302e1759041d9156d76a9a45ea8c182e3c52b8f47c926867c09edd6adabe3",
          "transactionIndex": "0xb",
          "logIndex": "0x56",
          "removed": false
        },
        {
          "address": "0xf53b60f4006cab2b3c4688ce41fd5362427a2a66",
          "topics": [
            "0xddf252ad1be2c89b69c2b068fc378daa952ba7f163c4a11628f55a4df523b3ef",
            "0x0000000000000000000000000000000000000000000000000000000000000000",
            "0x000000000000000000000000a5f2066647d22dfbd2ed0dd43344db9dce4b4632"
          ],
          "data": "0x0000000000000000000000000000000000000000000000000000000000000009",
          "blockHash": "0x041587cbd4cdc31efd9327581dc361ed8d949830c68551b8ebf7ef7a74a98cc3",
          "blockNumber": "0x114aac0",
          "transactionHash": "0xe9a302e1759041d9156d76a9a45ea8c182e3c52b8f47c926867c09edd6adabe3",
          "transactionIndex": "0xb",
          "logIndex": "0x57",
          "removed": false
        },
        {
          "address": "0xf53b60f4006cab2b3c4688ce41fd5362427a2a66",
          "topics": [
            "0x458f5fa412d0f69b08dd84872b0215675cc67bc1d5b6fd93300a1c3878b86196",
            "0x000000000000000000000000a5f2066647d22dfbd2ed0dd43344db9dce4b4632",
            "0x000000000000000000000000a5f2066647d22dfbd2ed0dd43344db9dce4b4632"
          ],
          "data": "0x00000000000000000000000000000000000000000000000000000000000000090000000000000000000000000000000000000000000000000000000000000000000000000000000000000000000000000000000003457c339ace97ec716314b5",
          "blockHash": "0x041587cbd4cdc31efd9327581dc361ed8d949830c68551b8ebf7ef7a74a98cc3",
          "blockNumber": "0x114aac0",
          "transactionHash": "0xe9a302e1759041d9156d76a9a45ea8c182e3c52b8f47c926867c09edd6adabe3",
          "transactionIndex": "0xb",
          "logIndex": "0x58",
          "removed": false
        },
        {
          "address": "0x07ea79f68b2b3df564d0a34f8e19d9b1e339814b",
          "topics": [
            "0x2b627736bca15cd5381dcf80b0bf11fd197d01a037c52b927a881a10fb73ba61",
            "0x000000000000000000000000036cbd53842c5426634e7929541ec2318f3dcf7e",
            "0x000000000000000000000000a5f2066647d22dfbd2ed0dd43344db9dce4b4632",
            "0x0000000000000000000000000000000000000000000000000000000000000000"
          ],
          "data": "0x000000000000000000000000a5f2066647d22dfbd2ed0dd43344db9dce4b46320000000000000000000000000000000000000000000000000000000000000009",
          "blockHash": "0x041587cbd4cdc31efd9327581dc361ed8d949830c68551b8ebf7ef7a74a98cc3",
          "blockNumber": "0x114aac0",
          "transactionHash": "0xe9a302e1759041d9156d76a9a45ea8c182e3c52b8f47c926867c09edd6adabe3",
          "transactionIndex": "0xb",
          "logIndex": "0x59",
          "removed": false
        },
        {
          "address": "0x33bde9da6a2be8629eac8b5e59e5ecb1db8c7144",
          "topics": [
            "0xddf252ad1be2c89b69c2b068fc378daa952ba7f163c4a11628f55a4df523b3ef",
            "0x0000000000000000000000000000000000000000000000000000000000000000",
            "0x0000000000000000000000000000000000000000000000000000000000010009"
          ],
          "data": "0x0000000000000000000000000000000000000000000000000000000000000009",
          "blockHash": "0x041587cbd4cdc31efd9327581dc361ed8d949830c68551b8ebf7ef7a74a98cc3",
          "blockNumber": "0x114aac0",
          "transactionHash": "0xe9a302e1759041d9156d76a9a45ea8c182e3c52b8f47c926867c09edd6adabe3",
          "transactionIndex": "0xb",
          "logIndex": "0x5a",
          "removed": false
        },
        {
          "address": "0x33bde9da6a2be8629eac8b5e59e5ecb1db8c7144",
          "topics": [
            "0x1dd3ef30dcefc8c588a88fe8610a9b5946656cf752b640cff3e99b7dcfc287ba",
            "0x0000000000000000000000000000000000000000000000000000000000000000",
            "0x0000000000000000000000000000000000000000000000000000000000010009"
          ],
          "data": "0x0000000000000000000000000000000000000000000000000000000000000009",
          "blockHash": "0x041587cbd4cdc31efd9327581dc361ed8d949830c68551b8ebf7ef7a74a98cc3",
          "blockNumber": "0x114aac0",
          "transactionHash": "0xe9a302e1759041d9156d76a9a45ea8c182e3c52b8f47c926867c09edd6adabe3",
          "transactionIndex": "0xb",
          "logIndex": "0x5b",
          "removed": false
        },
        {
          "address": "0x33bde9da6a2be8629eac8b5e59e5ecb1db8c7144",
          "topics": [
            "0x34c5394fa6fa162ceb662095cb2cb5706be845fcedb904f03adb00d1754c2ee3",
            "0x0000000000000000000000000000000000000000000000000000000000000000",
            "0x0000000000000000000000000000000000000000000000000000000000010009"
          ],
          "data": "0x0000000000000000000000000000000000000000000000000000000000000009",
          "blockHash": "0x041587cbd4cdc31efd9327581dc361ed8d949830c68551b8ebf7ef7a74a98cc3",
          "blockNumber": "0x114aac0",
          "transactionHash": "0xe9a302e1759041d9156d76a9a45ea8c182e3c52b8f47c926867c09edd6adabe3",
          "transactionIndex": "0xb",
          "logIndex": "0x5c",
          "removed": false
        },
        {
          "address": "0xa5f2066647d22dfbd2ed0dd43344db9dce4b4632",
          "topics": [
            "0x5548c837ab068cf56a2c2479df0882a4922fd203edb7517321831d95078c5f62",
            "0x000000000000000000000000036cbd53842c5426634e7929541ec2318f3dcf7e",
            "0x0000000000000000000000000000000000000000000000000000000000010009"
          ],
          "data": "0x0000000000000000000000000000000000000000000000000000000000000009",
          "blockHash": "0x041587cbd4cdc31efd9327581dc361ed8d949830c68551b8ebf7ef7a74a98cc3",
          "blockNumber": "0x114aac0",
          "transactionHash": "0xe9a302e1759041d9156d76a9a45ea8c182e3c52b8f47c926867c09edd6adabe3",
          "transactionIndex": "0xb",
          "logIndex": "0x5d",
          "removed": false
        }
      ],
      "logsBloom": "0x00800014044000000020000000000000000000000000000100000000000000010000000000000000000000008804000000000000008002000000000040200000800000000008000000000009000200000000000000000400010000040000000800000000020000000200000000000800002000000004000000000010000000000000000040040000000000000000000000000000000080000204802000000000020000000000000000000000000000000000000000000000100000000000410002000002040000000000002040000000080000001000000000000000000820010010000002000000000000000060000040000000000000000000400100000000",
      "type": "0x2",
      "transactionHash": "0xe9a302e1759041d9156d76a9a45ea8c182e3c52b8f47c926867c09edd6adabe3",
      "transactionIndex": "0xb",
      "blockHash": "0x041587cbd4cdc31efd9327581dc361ed8d949830c68551b8ebf7ef7a74a98cc3",
      "blockNumber": "0x114aac0",
      "gasUsed": "0x43f00",
      "effectiveGasPrice": "0xe2e59",
      "from": "0xa7dbe6a016a082873ab6dc5efbea3dacb2238bfc",
      "to": "0xa5f2066647d22dfbd2ed0dd43344db9dce4b4632",
      "contractAddress": null,
      "l1BaseFeeScalar": "0x44d",
      "l1BlobBaseFee": "0x1",
      "l1BlobBaseFeeScalar": "0xa118b",
      "l1Fee": "0x1406e01a4d",
      "l1GasPrice": "0xb5e5a0329",
      "l1GasUsed": "0x640"
    },
    {
      "status": "0x1",
      "cumulativeGasUsed": "0x2c7ec9",
      "logs": [
        {
          "address": "0x036cbd53842c5426634e7929541ec2318f3dcf7e",
          "topics": [
            "0xddf252ad1be2c89b69c2b068fc378daa952ba7f163c4a11628f55a4df523b3ef",
            "0x000000000000000000000000a7dbe6a016a082873ab6dc5efbea3dacb2238bfc",
            "0x000000000000000000000000a5f2066647d22dfbd2ed0dd43344db9dce4b4632"
          ],
          "data": "0x000000000000000000000000000000000000000000000000000000000000000a",
          "blockHash": "0x041587cbd4cdc31efd9327581dc361ed8d949830c68551b8ebf7ef7a74a98cc3",
          "blockNumber": "0x114aac0",
          "transactionHash": "0xdcb8663f04a64af5976e45eca682c2b6974bdba5c2b96c450b88205c1520b6d3",
          "transactionIndex": "0xd",
          "logIndex": "0x60",
          "removed": false
        },
        {
          "address": "0x036cbd53842c5426634e7929541ec2318f3dcf7e",
          "topics": [
            "0x8c5be1e5ebec7d5bd14f71427d1e84f3dd0314c0f7b2291e5b200ac8c7c3b925",
            "0x000000000000000000000000a5f2066647d22dfbd2ed0dd43344db9dce4b4632",
            "0x00000000000000000000000007ea79f68b2b3df564d0a34f8e19d9b1e339814b"
          ],
          "data": "0x000000000000000000000000000000000000000000000000000000000000000a",
          "blockHash": "0x041587cbd4cdc31efd9327581dc361ed8d949830c68551b8ebf7ef7a74a98cc3",
          "blockNumber": "0x114aac0",
          "transactionHash": "0xdcb8663f04a64af5976e45eca682c2b6974bdba5c2b96c450b88205c1520b6d3",
          "transactionIndex": "0xd",
          "logIndex": "0x61",
          "removed": false
        },
        {
          "address": "0x07ea79f68b2b3df564d0a34f8e19d9b1e339814b",
          "topics": [
            "0x804c9b842b2748a22bb64b345453a3de7ca54a6ca45ce00d415894979e22897a",
            "0x000000000000000000000000036cbd53842c5426634e7929541ec2318f3dcf7e"
          ],
          "data": "0x0000000000000000000000000000000000000000000229b2020daa2f9fe9214d000000000000000000000000000000000000000000456a227e808d5e5d23eb190000000000000000000000000000000000000000000b830ee3f484645723eb19000000000000000000000000000000000000000003457c339ace97ec716314b50000000000000000000000000000000000000000034d60e3f0f0f66ce851d2de",
          "blockHash": "0x041587cbd4cdc31efd9327581dc361ed8d949830c68551b8ebf7ef7a74a98cc3",
          "blockNumber": "0x114aac0",
          "transactionHash": "0xdcb8663f04a64af5976e45eca682c2b6974bdba5c2b96c450b88205c1520b6d3",
          "transactionIndex": "0xd",
          "logIndex": "0x62",
          "removed": false
        },
        {
          "address": "0x036cbd53842c5426634e7929541ec2318f3dcf7e",
          "topics": [
            "0xddf252ad1be2c89b69c2b068fc378daa952ba7f163c4a11628f55a4df523b3ef",
            "0x000000000000000000000000a5f2066647d22dfbd2ed0dd43344db9dce4b4632",
            "0x000000000000000000000000f53b60f4006cab2b3c4688ce41fd5362427a2a66"
          ],
          "data": "0x000000000000000000000000000000000000000000000000000000000000000a",
          "blockHash": "0x041587cbd4cdc31efd9327581dc361ed8d949830c68551b8ebf7ef7a74a98cc3",
          "blockNumber": "0x114aac0",
          "transactionHash": "0xdcb8663f04a64af5976e45eca682c2b6974bdba5c2b96c450b88205c1520b6d3",
          "transactionIndex": "0xd",
          "logIndex": "0x63",
          "removed": false
        },
        {
          "address": "0xf53b60f4006cab2b3c4688ce41fd5362427a2a66",
          "topics": [
            "0xddf252ad1be2c89b69c2b068fc378daa952ba7f163c4a11628f55a4df523b3ef",
            "0x0000000000000000000000000000000000000000000000000000000000000000",
            "0x000000000000000000000000a5f2066647d22dfbd2ed0dd43344db9dce4b4632"
          ],
          "data": "0x000000000000000000000000000000000000000000000000000000000000000a",
          "blockHash": "0x041587cbd4cdc31efd9327581dc361ed8d949830c68551b8ebf7ef7a74a98cc3",
          "blockNumber": "0x114aac0",
          "transactionHash": "0xdcb8663f04a64af5976e45eca682c2b6974bdba5c2b96c450b88205c1520b6d3",
          "transactionIndex": "0xd",
          "logIndex": "0x64",
          "removed": false
        },
        {
          "address": "0xf53b60f4006cab2b3c4688ce41fd5362427a2a66",
          "topics": [
            "0x458f5fa412d0f69b08dd84872b0215675cc67bc1d5b6fd93300a1c3878b86196",
            "0x000000000000000000000000a5f2066647d22dfbd2ed0dd43344db9dce4b4632",
            "0x000000000000000000000000a5f2066647d22dfbd2ed0dd43344db9dce4b4632"
          ],
          "data": "0x000000000000000000000000000000000000000000000000000000000000000a0000000000000000000000000000000000000000000000000000000000000000000000000000000000000000000000000000000003457c339ace97ec716314b5",
          "blockHash": "0x041587cbd4cdc31efd9327581dc361ed8d949830c68551b8ebf7ef7a74a98cc3",
          "blockNumber": "0x114aac0",
          "transactionHash": "0xdcb8663f04a64af5976e45eca682c2b6974bdba5c2b96c450b88205c1520b6d3",
          "transactionIndex": "0xd",
          "logIndex": "0x65",
          "removed": false
        },
        {
          "address": "0x07ea79f68b2b3df564d0a34f8e19d9b1e339814b",
          "topics": [
            "0x2b627736bca15cd5381dcf80b0bf11fd197d01a037c52b927a881a10fb73ba61",
            "0x000000000000000000000000036cbd53842c5426634e7929541ec2318f3dcf7e",
            "0x000000000000000000000000a5f2066647d22dfbd2ed0dd43344db9dce4b4632",
            "0x0000000000000000000000000000000000000000000000000000000000000000"
          ],
          "data": "0x000000000000000000000000a5f2066647d22dfbd2ed0dd43344db9dce4b4632000000000000000000000000000000000000000000000000000000000000000a",
          "blockHash": "0x041587cbd4cdc31efd9327581dc361ed8d949830c68551b8ebf7ef7a74a98cc3",
          "blockNumber": "0x114aac0",
          "transactionHash": "0xdcb8663f04a64af5976e45eca682c2b6974bdba5c2b96c450b88205c1520b6d3",
          "transactionIndex": "0xd",
          "logIndex": "0x66",
          "removed": false
        },
        {
          "address": "0x33bde9da6a2be8629eac8b5e59e5ecb1db8c7144",
          "topics": [
            "0xddf252ad1be2c89b69c2b068fc378daa952ba7f163c4a11628f55a4df523b3ef",
            "0x0000000000000000000000000000000000000000000000000000000000000000",
            "0x000000000000000000000000000000000000000000000000000000000001000a"
          ],
          "data": "0x000000000000000000000000000000000000000000000000000000000000000a",
          "blockHash": "0x041587cbd4cdc31efd9327581dc361ed8d949830c68551b8ebf7ef7a74a98cc3",
          "blockNumber": "0x114aac0",
          "transactionHash": "0xdcb8663f04a64af5976e45eca682c2b6974bdba5c2b96c450b88205c1520b6d3",
          "transactionIndex": "0xd",
          "logIndex": "0x67",
          "removed": false
        },
        {
          "address": "0x33bde9da6a2be8629eac8b5e59e5ecb1db8c7144",
          "topics": [
            "0x1dd3ef30dcefc8c588a88fe8610a9b5946656cf752b640cff3e99b7dcfc287ba",
            "0x0000000000000000000000000000000000000000000000000000000000000000",
            "0x000000000000000000000000000000000000000000000000000000000001000a"
          ],
          "data": "0x000000000000000000000000000000000000000000000000000000000000000a",
          "blockHash": "0x041587cbd4cdc31efd9327581dc361ed8d949830c68551b8ebf7ef7a74a98cc3",
          "blockNumber": "0x114aac0",
          "transactionHash": "0xdcb8663f04a64af5976e45eca682c2b6974bdba5c2b96c450b88205c1520b6d3",
          "transactionIndex": "0xd",
          "logIndex": "0x68",
          "removed": false
        },
        {
          "address": "0x33bde9da6a2be8629eac8b5e59e5ecb1db8c7144",
          "topics": [
            "0x34c5394fa6fa162ceb662095cb2cb5706be845fcedb904f03adb00d1754c2ee3",
            "0x0000000000000000000000000000000000000000000000000000000000000000",
            "0x000000000000000000000000000000000000000000000000000000000001000a"
          ],
          "data": "0x000000000000000000000000000000000000000000000000000000000000000a",
          "blockHash": "0x041587cbd4cdc31efd9327581dc361ed8d949830c68551b8ebf7ef7a74a98cc3",
          "blockNumber": "0x114aac0",
          "transactionHash": "0xdcb8663f04a64af5976e45eca682c2b6974bdba5c2b96c450b88205c1520b6d3",
          "transactionIndex": "0xd",
          "logIndex": "0x69",
          "removed": false
        },
        {
          "address": "0xa5f2066647d22dfbd2ed0dd43344db9dce4b4632",
          "topics": [
            "0x5548c837ab068cf56a2c2479df0882a4922fd203edb7517321831d95078c5f62",
            "0x000000000000000000000000036cbd53842c5426634e7929541ec2318f3dcf7e",
            "0x000000000000000000000000000000000000000000000000000000000001000a"
          ],
          "data": "0x000000000000000000000000000000000000000000000000000000000000000a",
          "blockHash": "0x041587cbd4cdc31efd9327581dc361ed8d949830c68551b8ebf7ef7a74a98cc3",
          "blockNumber": "0x114aac0",
          "transactionHash": "0xdcb8663f04a64af5976e45eca682c2b6974bdba5c2b96c450b88205c1520b6d3",
          "transactionIndex": "0xd",
          "logIndex": "0x6a",
          "removed": false
        }
      ],
      "logsBloom": "0x00800014044000000020000000000000000000000000000100000000000000010000000000000000000000000804000000000000008002000000000040200000800000000008000000000109000200000000000000000400010000040000000800000000020000000200000000000800002000000004000000000010000000000000000040040000000000000000000000400000000080000204802000000000020000000000000000000000010000000000000000000000100000000000410002000002040000000000002040000000000000001000000000000000000820000010000002000000000000000060000040000000000000000000400100000000",
      "type": "0x2",
      "transactionHash": "0xdcb8663f04a64af5976e45eca682c2b6974bdba5c2b96c450b88205c1520b6d3",
      "transactionIndex": "0xd",
      "blockHash": "0x041587cbd4cdc31efd9327581dc361ed8d949830c68551b8ebf7ef7a74a98cc3",
      "blockNumber": "0x114aac0",
      "gasUsed": "0x43f00",
      "effectiveGasPrice": "0xe2e59",
      "from": "0xa7dbe6a016a082873ab6dc5efbea3dacb2238bfc",
      "to": "0xa5f2066647d22dfbd2ed0dd43344db9dce4b4632",
      "contractAddress": null,
      "l1BaseFeeScalar": "0x44d",
      "l1BlobBaseFee": "0x1",
      "l1BlobBaseFeeScalar": "0xa118b",
      "l1Fee": "0x1406e01a4d",
      "l1GasPrice": "0xb5e5a0329",
      "l1GasUsed": "0x640"
    }
  ],
  "libraries": [],
  "pending": [],
  "returns": {},
  "timestamp": 1732031586,
  "chain": 84532,
  "commit": "7ce4aa3"
}