{
  "transactions": [
    {
      "hash": "0xed72201544890c0854edcd9ba39b55cb269edb90633d73eba8ef639ca06462b0",
      "transactionType": "CALL",
      "contractName": null,
      "contractAddress": "0xcf62030BFd6c0c64B5569b7C76b03F97E9A31352",
      "function": "repay((uint256,uint256))",
      "arguments": [
        "(0, 1000000)"
      ],
      "transaction": {
        "type": "0x02",
        "from": "0xd20baeccd9f77faa9e2c2b185f33483d7911f9c8",
        "to": "0xcf62030bfd6c0c64b5569b7c76b03f97e9a31352",
        "gas": "0x4f9b7",
        "value": "0x0",
        "data": "0xaff25c0c000000000000000000000000000000000000000000000000000000000000000000000000000000000000000000000000000000000000000000000000000f4240",
        "nonce": "0x62",
        "accessList": []
      },
      "additionalContracts": [],
      "isFixedGasLimit": false
    }
  ],
  "receipts": [],
  "libraries": [],
  "pending": [
    "0xed72201544890c0854edcd9ba39b55cb269edb90633d73eba8ef639ca06462b0"
  ],
  "returns": {},
  "timestamp": 1707237105,
  "chain": 11155111,
  "multi": false,
  "commit": "4046cff"
}