{
  "transactions": [
    {
      "hash": "0xdd966d271b159a03c152d645bd30c74891b7d0762f076df5b33f4c9dce77d249",
      "transactionType": "CALL",
      "contractName": null,
      "contractAddress": "0xcf62030BFd6c0c64B5569b7C76b03F97E9A31352",
      "function": "repay((uint256,uint256))",
      "arguments": [
        "(0, 11817614)"
      ],
      "transaction": {
        "type": "0x02",
        "from": "0xd20baeccd9f77faa9e2c2b185f33483d7911f9c8",
        "to": "0xcf62030bfd6c0c64b5569b7c76b03f97e9a31352",
        "gas": "0x558a1",
        "value": "0x0",
        "data": "0xaff25c0c00000000000000000000000000000000000000000000000000000000000000000000000000000000000000000000000000000000000000000000000000b4528e",
        "nonce": "0x63",
        "accessList": []
      },
      "additionalContracts": [],
      "isFixedGasLimit": false
    }
  ],
  "receipts": [
    {
      "transactionHash": "0xdd966d271b159a03c152d645bd30c74891b7d0762f076df5b33f4c9dce77d249",
      "transactionIndex": "0x24",
      "blockHash": "0x104ab83aba02f1650b92ea995e469c4a0b86949ef576646acd5d9aa3dd86f3bc",
      "blockNumber": "0x4fdae1",
      "from": "0xD20baecCd9F77fAA9E2C2B185F33483D7911f9C8",
      "to": "0xcf62030BFd6c0c64B5569b7C76b03F97E9A31352",
      "cumulativeGasUsed": "0x347b4b",
      "gasUsed": "0x3a7d1",
      "contractAddress": null,
      "logs": [
        {
          "address": "0x4409c5da8144738484188a1C9C9B6A95816caDE8",
          "topics": [
            "0xddf252ad1be2c89b69c2b068fc378daa952ba7f163c4a11628f55a4df523b3ef",
            "0x000000000000000000000000d20baeccd9f77faa9e2c2b185f33483d7911f9c8",
            "0x000000000000000000000000ab64885b2368a60a9aa19d8a0583d0fd81ac2f30"
          ],
          "data": "0x0000000000000000000000000000000000000000000000000000000078c14499",
          "blockHash": "0x104ab83aba02f1650b92ea995e469c4a0b86949ef576646acd5d9aa3dd86f3bc",
          "blockNumber": "0x4fdae1",
          "transactionHash": "0xdd966d271b159a03c152d645bd30c74891b7d0762f076df5b33f4c9dce77d249",
          "transactionIndex": "0x24",
          "logIndex": "0x7",
          "removed": false
        },
        {
          "address": "0x8c7fBeB9F92D40E8F9A3634f62f35F522997E68B",
          "topics": [
            "0xddf252ad1be2c89b69c2b068fc378daa952ba7f163c4a11628f55a4df523b3ef",
            "0x000000000000000000000000d20baeccd9f77faa9e2c2b185f33483d7911f9c8",
            "0x0000000000000000000000000000000000000000000000000000000000000000"
          ],
          "data": "0x00000000000000000000000000000000000000000000000000000000000000a1",
          "blockHash": "0x104ab83aba02f1650b92ea995e469c4a0b86949ef576646acd5d9aa3dd86f3bc",
          "blockNumber": "0x4fdae1",
          "transactionHash": "0xdd966d271b159a03c152d645bd30c74891b7d0762f076df5b33f4c9dce77d249",
          "transactionIndex": "0x24",
          "logIndex": "0x8",
          "removed": false
        },
        {
          "address": "0x6031f0512e86164c278bEBF8a59E733ec6FA92D9",
          "topics": [
            "0xddf252ad1be2c89b69c2b068fc378daa952ba7f163c4a11628f55a4df523b3ef",
            "0x000000000000000000000000236955b5ce6d975a1655f10dba30726c65cb2f35",
            "0x0000000000000000000000000f9d491b7f82300893df1fca5abab23cf1e1a00f"
          ],
          "data": "0x0000000000000000000000000000000000000000000000000000000000b4528e",
          "blockHash": "0x104ab83aba02f1650b92ea995e469c4a0b86949ef576646acd5d9aa3dd86f3bc",
          "blockNumber": "0x4fdae1",
          "transactionHash": "0xdd966d271b159a03c152d645bd30c74891b7d0762f076df5b33f4c9dce77d249",
          "transactionIndex": "0x24",
          "logIndex": "0x9",
          "removed": false
        },
        {
          "address": "0x6031f0512e86164c278bEBF8a59E733ec6FA92D9",
          "topics": [
            "0x4beccb90f994c31aced7a23b5611020728a23d8ec5cddd1a3e9d97b96fda8666",
            "0x000000000000000000000000236955b5ce6d975a1655f10dba30726c65cb2f35",
            "0x0000000000000000000000000f9d491b7f82300893df1fca5abab23cf1e1a00f"
          ],
          "data": "0x0000000000000000000000000000000000000000000000000000000000b4528e0000000000000000000000000000000000000000033b2e3c9fd0803ce8000000",
          "blockHash": "0x104ab83aba02f1650b92ea995e469c4a0b86949ef576646acd5d9aa3dd86f3bc",
          "blockNumber": "0x4fdae1",
          "transactionHash": "0xdd966d271b159a03c152d645bd30c74891b7d0762f076df5b33f4c9dce77d249",
          "transactionIndex": "0x24",
          "logIndex": "0xa",
          "removed": false
        },
        {
          "address": "0x8c7fBeB9F92D40E8F9A3634f62f35F522997E68B",
          "topics": [
            "0xddf252ad1be2c89b69c2b068fc378daa952ba7f163c4a11628f55a4df523b3ef",
            "0x000000000000000000000000d20baeccd9f77faa9e2c2b185f33483d7911f9c8",
            "0x0000000000000000000000000000000000000000000000000000000000000000"
          ],
          "data": "0x0000000000000000000000000000000000000000000000000000000000b4528e",
          "blockHash": "0x104ab83aba02f1650b92ea995e469c4a0b86949ef576646acd5d9aa3dd86f3bc",
          "blockNumber": "0x4fdae1",
          "transactionHash": "0xdd966d271b159a03c152d645bd30c74891b7d0762f076df5b33f4c9dce77d249",
          "transactionIndex": "0x24",
          "logIndex": "0xb",
          "removed": false
        },
        {
          "address": "0xcf62030BFd6c0c64B5569b7C76b03F97E9A31352",
          "topics": [
            "0x552544cb36551120f07c66c5cd4b2987725a0c72198587f2ce796099bb66c58c",
            "0x0000000000000000000000000000000000000000000000000000000000000000"
          ],
          "data": "0x0000000000000000000000000000000000000000000000000000000000b4528e",
          "blockHash": "0x104ab83aba02f1650b92ea995e469c4a0b86949ef576646acd5d9aa3dd86f3bc",
          "blockNumber": "0x4fdae1",
          "transactionHash": "0xdd966d271b159a03c152d645bd30c74891b7d0762f076df5b33f4c9dce77d249",
          "transactionIndex": "0x24",
          "logIndex": "0xc",
          "removed": false
        }
      ],
      "status": "0x1",
      "logsBloom": "0x00000000000200000000000000000000004000000000080002000000000000000000000000200000000000000000000000000000200000000000000000000100000000000000000000000008000000000000000000000000000800004000004001000000020000002000100000000800000004000000000000000010000000000001010000000000000000000000000000000000000000088000000000000000000000000000000000000000000000000000000000000000000000000000100000000402000000100000000010010000000100000000000000001000000020000044000000000000000000000000000000000000200100000000000000020000",
      "type": "0x2",
      "effectiveGasPrice": "0xf16410243"
    }
  ],
  "libraries": [],
  "pending": [],
  "returns": {},
  "timestamp": 1707237325,
  "chain": 11155111,
  "multi": false,
  "commit": "4046cff"
}