{
  "transactions": [
    {
      "hash": "0xff1a030ab28e15b470bd3d663bbd945ef8e59b1bb449e21823dde3e37e0c0556",
      "transactionType": "CALL",
      "contractName": null,
      "contractAddress": "0xa4c5c0390e8becab681b047345af524ad038265f",
      "function": "updateConfig((string,uint256))",
      "arguments": [
        "(priceFeed, 540619386573696598874753583539003324229989980070)"
      ],
      "transaction": {
        "from": "0xa5040d66a8e609fce17d115f4726a2311331bb21",
        "to": "0xa4c5c0390e8becab681b047345af524ad038265f",
        "gas": "0x1ba1d",
        "value": "0x0",
        "input": "0x0317b9df000000000000000000000000000000000000000000000000000000000000002000000000000000000000000000000000000000000000000000000000000000400000000000000000000000005eb2363327ee1aed9dabdf6fd65c54562aa057a600000000000000000000000000000000000000000000000000000000000000097072696365466565640000000000000000000000000000000000000000000000",
        "nonce": "0x7c",
        "chainId": "0xf4241"
      },
      "additionalContracts": [],
      "isFixedGasLimit": false
    }
  ],
  "receipts": [
    {
      "status": "0x1",
      "cumulativeGasUsed": "0x14016",
      "logs": [
        {
          "address": "0xa4c5c0390e8becab681b047345af524ad038265f",
          "topics": [
            "0xc03d31d4f53ee33ed4dcaa3100cf44ee6186b00311292cb57f873a5a19dec898",
            "0x000000000000000000000000a5040d66a8e609fce17d115f4726a2311331bb21",
            "0x0dd34c1993c76a361b071ba90e44dc515b5df3241f2c2ced1a879e574121757b"
          ],
          "data": "0x0000000000000000000000005eb2363327ee1aed9dabdf6fd65c54562aa057a6",
          "blockHash": "0x11d996ffa32eca09ee5767daa84c3fd6319c05eca7e51dcb37513453cc13ed3a",
          "blockNumber": "0x151cf51",
          "transactionHash": "0xff1a030ab28e15b470bd3d663bbd945ef8e59b1bb449e21823dde3e37e0c0556",
          "transactionIndex": "0x0",
          "logIndex": "0x0",
          "removed": false
        }
      ],
      "logsBloom": "0x00000000000000001000000010004000000000000000000000000000000000000000200000000000000000000000000000000000000000004000000000000000000000000000000000000000000000000000000000000000000000000000000000000000000000000000000000000000000000000000000004000000000000000000000000000000000000000000000000000010000000000000000000000400000000100000000000000000200000000000000000000000000000000000100000000000000000000000000000000080000000000000000000000000000000000000000000000000000000000000000000000000000000000000000000000000",
      "type": "0x2",
      "transactionHash": "0xff1a030ab28e15b470bd3d663bbd945ef8e59b1bb449e21823dde3e37e0c0556",
      "transactionIndex": "0x0",
      "blockHash": "0x11d996ffa32eca09ee5767daa84c3fd6319c05eca7e51dcb37513453cc13ed3a",
      "blockNumber": "0x151cf51",
      "gasUsed": "0x14016",
      "effectiveGasPrice": "0x3",
      "blobGasUsed": "0x0",
      "from": "0xa5040d66a8e609fce17d115f4726a2311331bb21",
      "to": "0xa4c5c0390e8becab681b047345af524ad038265f",
      "contractAddress": null
    }
  ],
  "libraries": [],
  "pending": [],
  "returns": {},
  "timestamp": 1743103284,
  "chain": 1000001,
  "commit": "f882e43b"
}