{
  "transactions": [
    {
      "hash": "0xcdde67e83966fa8a0b5020c1e61c9729f2c27d3a2901cf2790c827cf40011540",
      "transactionType": "CALL",
      "contractName": null,
      "contractAddress": "0xcf62030BFd6c0c64B5569b7C76b03F97E9A31352",
      "function": "borrowAsLimitOrder((uint256,(uint256[],uint256[],int256[])))",
      "arguments": [
        "(1, ([360000, 72000000], [1000000000000000000, 2000000000000000000], [0, 0]))"
      ],
      "transaction": {
        "type": "0x02",
        "from": "0x979af411d048b453e3334c95f392012b3bbd6215",
        "to": "0xcf62030bfd6c0c64b5569b7c76b03f97e9a31352",
        "gas": "0x19fd7",
        "value": "0x0",
        "data": "0x09931b09000000000000000000000000000000000000000000000000000000000000002000000000000000000000000000000000000000000000000000000000000000010000000000000000000000000000000000000000000000000000000000000040000000000000000000000000000000000000000000000000000000000000006000000000000000000000000000000000000000000000000000000000000000c0000000000000000000000000000000000000000000000000000000000000012000000000000000000000000000000000000000000000000000000000000000020000000000000000000000000000000000000000000000000000000000057e4000000000000000000000000000000000000000000000000000000000044aa20000000000000000000000000000000000000000000000000000000000000000020000000000000000000000000000000000000000000000000de0b6b3a76400000000000000000000000000000000000000000000000000001bc16d674ec80000000000000000000000000000000000000000000000000000000000000000000200000000000000000000000000000000000000000000000000000000000000000000000000000000000000000000000000000000000000000000000000000000",
        "nonce": "0x8",
        "accessList": []
      },
      "additionalContracts": [],
      "isFixedGasLimit": false
    }
  ],
  "receipts": [
    {
      "transactionHash": "0xcdde67e83966fa8a0b5020c1e61c9729f2c27d3a2901cf2790c827cf40011540",
      "transactionIndex": "0x4a",
      "blockHash": "0x3bdbb5e3353cbe5ebb1638933fe64db51f1f9b0ed902a2aba31f45b76d4a7d62",
      "blockNumber": "0x4fc230",
      "from": "0x979Af411D048b453E3334C95F392012B3BbD6215",
      "to": "0xcf62030BFd6c0c64B5569b7C76b03F97E9A31352",
      "cumulativeGasUsed": "0x66e7f3",
      "gasUsed": "0x12d10",
      "contractAddress": null,
      "logs": [
        {
          "address": "0xcf62030BFd6c0c64B5569b7C76b03F97E9A31352",
          "topics": [
            "0xe6ec541f182a34960ff4f7605f24e26b07c70b3f6fa7bc7704818e29eff8e667"
          ],
          "data": "0x0000000000000000000000000000000000000000000000000000000000000020000000000000000000000000000000000000000000000000000000000000006000000000000000000000000000000000000000000000000000000000000000c0000000000000000000000000000000000000000000000000000000000000012000000000000000000000000000000000000000000000000000000000000000020000000000000000000000000000000000000000000000000000000000057e4000000000000000000000000000000000000000000000000000000000044aa20000000000000000000000000000000000000000000000000000000000000000020000000000000000000000000000000000000000000000000de0b6b3a76400000000000000000000000000000000000000000000000000001bc16d674ec80000000000000000000000000000000000000000000000000000000000000000000200000000000000000000000000000000000000000000000000000000000000000000000000000000000000000000000000000000000000000000000000000000",
          "blockHash": "0x3bdbb5e3353cbe5ebb1638933fe64db51f1f9b0ed902a2aba31f45b76d4a7d62",
          "blockNumber": "0x4fc230",
          "transactionHash": "0xcdde67e83966fa8a0b5020c1e61c9729f2c27d3a2901cf2790c827cf40011540",
          "transactionIndex": "0x4a",
          "logIndex": "0x7e",
          "removed": false
        }
      ],
      "status": "0x1",
      "logsBloom": "0x00000000000000200000000000000000004000000000080000000000000000000000000000000000000000000000000000000000000000000000000000000100000000000000000000000000800000000000000000000000000000000000000000000000000000000000000000000000000000000000000000000000000000000000000000000000000000000000000000000000000000000000000000000000000000000000000000000000000000000000000000000000000000000000000000000000000000000000000000000000000000000000000000000000000000000000000000000000000000000000000000000000200000000000000000000000",
      "type": "0x2",
      "effectiveGasPrice": "0x87aa3a100"
    }
  ],
  "libraries": [],
  "pending": [],
  "returns": {},
  "timestamp": 1707160561,
  "chain": 11155111,
  "multi": false,
  "commit": "73dc280"
}