{
  "transactions": [
    {
      "hash": "0x9746985a954c0125941504c8036a8573cffd44f4ac8d52515229f3c3414b5d1b",
      "transactionType": "CALL",
      "contractName": null,
      "contractAddress": "0xcf62030BFd6c0c64B5569b7C76b03F97E9A31352",
      "function": "borrowAsLimitOrder((uint256,(uint256[],uint256[],int256[])))",
      "arguments": [
        "(0, ([3600, 7200], [1000000000000000000, 2000000000000000000], [0, 0]))"
      ],
      "transaction": {
        "type": "0x02",
        "from": "0xd20baeccd9f77faa9e2c2b185f33483d7911f9c8",
        "to": "0xcf62030bfd6c0c64b5569b7c76b03f97e9a31352",
        "gas": "0x1816e",
        "value": "0x0",
        "data": "0x09931b09000000000000000000000000000000000000000000000000000000000000002000000000000000000000000000000000000000000000000000000000000000000000000000000000000000000000000000000000000000000000000000000040000000000000000000000000000000000000000000000000000000000000006000000000000000000000000000000000000000000000000000000000000000c0000000000000000000000000000000000000000000000000000000000000012000000000000000000000000000000000000000000000000000000000000000020000000000000000000000000000000000000000000000000000000000000e100000000000000000000000000000000000000000000000000000000000001c2000000000000000000000000000000000000000000000000000000000000000020000000000000000000000000000000000000000000000000de0b6b3a76400000000000000000000000000000000000000000000000000001bc16d674ec80000000000000000000000000000000000000000000000000000000000000000000200000000000000000000000000000000000000000000000000000000000000000000000000000000000000000000000000000000000000000000000000000000",
        "nonce": "0x42",
        "accessList": []
      },
      "additionalContracts": [],
      "isFixedGasLimit": false
    }
  ],
  "receipts": [
    {
      "transactionHash": "0x9746985a954c0125941504c8036a8573cffd44f4ac8d52515229f3c3414b5d1b",
      "transactionIndex": "0x22",
      "blockHash": "0xe5cd18765f02a615baab0e0a61083219498859390bf21d113e59aa086fd698ac",
      "blockNumber": "0x4fbee7",
      "from": "0xD20baecCd9F77fAA9E2C2B185F33483D7911f9C8",
      "to": "0xcf62030BFd6c0c64B5569b7C76b03F97E9A31352",
      "cumulativeGasUsed": "0x2692ad",
      "gasUsed": "0x1170c",
      "contractAddress": null,
      "logs": [
        {
          "address": "0xcf62030BFd6c0c64B5569b7C76b03F97E9A31352",
          "topics": [
            "0xe6ec541f182a34960ff4f7605f24e26b07c70b3f6fa7bc7704818e29eff8e667"
          ],
          "data": "0x0000000000000000000000000000000000000000000000000000000000000020000000000000000000000000000000000000000000000000000000000000006000000000000000000000000000000000000000000000000000000000000000c0000000000000000000000000000000000000000000000000000000000000012000000000000000000000000000000000000000000000000000000000000000020000000000000000000000000000000000000000000000000000000000000e100000000000000000000000000000000000000000000000000000000000001c2000000000000000000000000000000000000000000000000000000000000000020000000000000000000000000000000000000000000000000de0b6b3a76400000000000000000000000000000000000000000000000000001bc16d674ec80000000000000000000000000000000000000000000000000000000000000000000200000000000000000000000000000000000000000000000000000000000000000000000000000000000000000000000000000000000000000000000000000000",
          "blockHash": "0xe5cd18765f02a615baab0e0a61083219498859390bf21d113e59aa086fd698ac",
          "blockNumber": "0x4fbee7",
          "transactionHash": "0x9746985a954c0125941504c8036a8573cffd44f4ac8d52515229f3c3414b5d1b",
          "transactionIndex": "0x22",
          "logIndex": "0x29",
          "removed": false
        }
      ],
      "status": "0x1",
      "logsBloom": "0x00000000000000200000000000000000004000000000080000000000000000000000000000000000000000000000000000000000000000000000000000000100000000000000000000000000800000000000000000000000000000000000000000000000000000000000000000000000000000000000000000000000000000000000000000000000000000000000000000000000000000000000000000000000000000000000000000000000000000000000000000000000000000000000000000000000000000000000000000000000000000000000000000000000000000000000000000000000000000000000000000000000200000000000000000000000",
      "type": "0x2",
      "effectiveGasPrice": "0x61985ea81"
    }
  ],
  "libraries": [],
  "pending": [],
  "returns": {},
  "timestamp": 1707150437,
  "chain": 11155111,
  "multi": false,
  "commit": "73dc280"
}