{
  "transactions": [
    {
      "hash": "0x214a82154dd1f0eb45f3e7ae0b1be203832d18d7e9dabc6f9a70cc8e20eafdfa",
      "transactionType": "CALL",
      "contractName": null,
      "contractAddress": "0xcf62030BFd6c0c64B5569b7C76b03F97E9A31352",
      "function": "borrowAsLimitOrder((uint256,(uint256[],uint256[],int256[])))",
      "arguments": [
        "(1, ([3600, 7200], [1000000000000000000, 2000000000000000000], [0, 0]))"
      ],
      "transaction": {
        "type": "0x02",
        "from": "0xd20baeccd9f77faa9e2c2b185f33483d7911f9c8",
        "to": "0xcf62030bfd6c0c64b5569b7c76b03f97e9a31352",
        "gas": "0x1817e",
        "value": "0x0",
        "data": "0x09931b09000000000000000000000000000000000000000000000000000000000000002000000000000000000000000000000000000000000000000000000000000000010000000000000000000000000000000000000000000000000000000000000040000000000000000000000000000000000000000000000000000000000000006000000000000000000000000000000000000000000000000000000000000000c0000000000000000000000000000000000000000000000000000000000000012000000000000000000000000000000000000000000000000000000000000000020000000000000000000000000000000000000000000000000000000000000e100000000000000000000000000000000000000000000000000000000000001c2000000000000000000000000000000000000000000000000000000000000000020000000000000000000000000000000000000000000000000de0b6b3a76400000000000000000000000000000000000000000000000000001bc16d674ec80000000000000000000000000000000000000000000000000000000000000000000200000000000000000000000000000000000000000000000000000000000000000000000000000000000000000000000000000000000000000000000000000000",
        "nonce": "0x46",
        "accessList": []
      },
      "additionalContracts": [],
      "isFixedGasLimit": false
    }
  ],
  "receipts": [
    {
      "transactionHash": "0x214a82154dd1f0eb45f3e7ae0b1be203832d18d7e9dabc6f9a70cc8e20eafdfa",
      "transactionIndex": "0x2a",
      "blockHash": "0x5fbbb62486617449bbc06a40608f8996040ffd54860baaa71700350533f4e310",
      "blockNumber": "0x4fc18e",
      "from": "0xD20baecCd9F77fAA9E2C2B185F33483D7911f9C8",
      "to": "0xcf62030BFd6c0c64B5569b7C76b03F97E9A31352",
      "cumulativeGasUsed": "0x3cd528",
      "gasUsed": "0x11718",
      "contractAddress": null,
      "logs": [
        {
          "address": "0xcf62030BFd6c0c64B5569b7C76b03F97E9A31352",
          "topics": [
            "0xe6ec541f182a34960ff4f7605f24e26b07c70b3f6fa7bc7704818e29eff8e667"
          ],
          "data": "0x0000000000000000000000000000000000000000000000000000000000000020000000000000000000000000000000000000000000000000000000000000006000000000000000000000000000000000000000000000000000000000000000c0000000000000000000000000000000000000000000000000000000000000012000000000000000000000000000000000000000000000000000000000000000020000000000000000000000000000000000000000000000000000000000000e100000000000000000000000000000000000000000000000000000000000001c2000000000000000000000000000000000000000000000000000000000000000020000000000000000000000000000000000000000000000000de0b6b3a76400000000000000000000000000000000000000000000000000001bc16d674ec80000000000000000000000000000000000000000000000000000000000000000000200000000000000000000000000000000000000000000000000000000000000000000000000000000000000000000000000000000000000000000000000000000",
          "blockHash": "0x5fbbb62486617449bbc06a40608f8996040ffd54860baaa71700350533f4e310",
          "blockNumber": "0x4fc18e",
          "transactionHash": "0x214a82154dd1f0eb45f3e7ae0b1be203832d18d7e9dabc6f9a70cc8e20eafdfa",
          "transactionIndex": "0x2a",
          "logIndex": "0x4a",
          "removed": false
        }
      ],
      "status": "0x1",
      "logsBloom": "0x00000000000000200000000000000000004000000000080000000000000000000000000000000000000000000000000000000000000000000000000000000100000000000000000000000000800000000000000000000000000000000000000000000000000000000000000000000000000000000000000000000000000000000000000000000000000000000000000000000000000000000000000000000000000000000000000000000000000000000000000000000000000000000000000000000000000000000000000000000000000000000000000000000000000000000000000000000000000000000000000000000000200000000000000000000000",
      "type": "0x2",
      "effectiveGasPrice": "0x29db539d1"
    }
  ],
  "libraries": [],
  "pending": [],
  "returns": {},
  "timestamp": 1707158620,
  "chain": 11155111,
  "multi": false,
  "commit": "73dc280"
}