{
  "transactions": [
    {
      "hash": "0x6caf2780f3e53e28b69338cb9c83c7e40c26b81433a8758d6518791c91fb9205",
      "transactionType": "CALL",
      "contractName": null,
      "contractAddress": "0xcf62030BFd6c0c64B5569b7C76b03F97E9A31352",
      "function": "borrowAsLimitOrder((uint256,(uint256[],uint256[],int256[])))",
      "arguments": [
        "(1, ([86400, 72000000], [1000000000000000000, 2000000000000000000], [0, 0]))"
      ],
      "transaction": {
        "type": "0x02",
        "from": "0x979af411d048b453e3334c95f392012b3bbd6215",
        "to": "0xcf62030bfd6c0c64b5569b7c76b03f97e9a31352",
        "gas": "0x190bc",
        "value": "0x0",
        "data": "0x09931b09000000000000000000000000000000000000000000000000000000000000002000000000000000000000000000000000000000000000000000000000000000010000000000000000000000000000000000000000000000000000000000000040000000000000000000000000000000000000000000000000000000000000006000000000000000000000000000000000000000000000000000000000000000c000000000000000000000000000000000000000000000000000000000000001200000000000000000000000000000000000000000000000000000000000000002000000000000000000000000000000000000000000000000000000000001518000000000000000000000000000000000000000000000000000000000044aa20000000000000000000000000000000000000000000000000000000000000000020000000000000000000000000000000000000000000000000de0b6b3a76400000000000000000000000000000000000000000000000000001bc16d674ec80000000000000000000000000000000000000000000000000000000000000000000200000000000000000000000000000000000000000000000000000000000000000000000000000000000000000000000000000000000000000000000000000000",
        "nonce": "0xd",
        "accessList": []
      },
      "additionalContracts": [],
      "isFixedGasLimit": false
    }
  ],
  "receipts": [
    {
      "transactionHash": "0x6caf2780f3e53e28b69338cb9c83c7e40c26b81433a8758d6518791c91fb9205",
      "transactionIndex": "0x2f",
      "blockHash": "0x06e7253b2fc6af51e67c46d5b7540f2a644f8351f41e37588d1e0b3c60911054",
      "blockNumber": "0x4fd5de",
      "from": "0x979Af411D048b453E3334C95F392012B3BbD6215",
      "to": "0xcf62030BFd6c0c64B5569b7C76b03F97E9A31352",
      "cumulativeGasUsed": "0x3d5018",
      "gasUsed": "0x12220",
      "contractAddress": null,
      "logs": [
        {
          "address": "0xcf62030BFd6c0c64B5569b7C76b03F97E9A31352",
          "topics": [
            "0xe6ec541f182a34960ff4f7605f24e26b07c70b3f6fa7bc7704818e29eff8e667"
          ],
          "data": "0x0000000000000000000000000000000000000000000000000000000000000020000000000000000000000000000000000000000000000000000000000000006000000000000000000000000000000000000000000000000000000000000000c000000000000000000000000000000000000000000000000000000000000001200000000000000000000000000000000000000000000000000000000000000002000000000000000000000000000000000000000000000000000000000001518000000000000000000000000000000000000000000000000000000000044aa20000000000000000000000000000000000000000000000000000000000000000020000000000000000000000000000000000000000000000000de0b6b3a76400000000000000000000000000000000000000000000000000001bc16d674ec80000000000000000000000000000000000000000000000000000000000000000000200000000000000000000000000000000000000000000000000000000000000000000000000000000000000000000000000000000000000000000000000000000",
          "blockHash": "0x06e7253b2fc6af51e67c46d5b7540f2a644f8351f41e37588d1e0b3c60911054",
          "blockNumber": "0x4fd5de",
          "transactionHash": "0x6caf2780f3e53e28b69338cb9c83c7e40c26b81433a8758d6518791c91fb9205",
          "transactionIndex": "0x2f",
          "logIndex": "0x3d",
          "removed": false
        }
      ],
      "status": "0x1",
      "logsBloom": "0x00000000000000200000000000000000004000000000080000000000000000000000000000000000000000000000000000000000000000000000000000000100000000000000000000000000800000000000000000000000000000000000000000000000000000000000000000000000000000000000000000000000000000000000000000000000000000000000000000000000000000000000000000000000000000000000000000000000000000000000000000000000000000000000000000000000000000000000000000000000000000000000000000000000000000000000000000000000000000000000000000000000200000000000000000000000",
      "type": "0x2",
      "effectiveGasPrice": "0xd0f3e3c4a"
    }
  ],
  "libraries": [],
  "pending": [],
  "returns": {},
  "timestamp": 1707221332,
  "chain": 11155111,
  "multi": false,
  "commit": "be388e0"
}