{
  "transactions": [
    {
      "hash": "0xd93c095c383fd168bbd43b958b809ae4dca8e6e331a4a1af88f472e869bcd967",
      "transactionType": "CALL",
      "contractName": null,
      "contractAddress": "0xcf62030BFd6c0c64B5569b7C76b03F97E9A31352",
      "function": "deposit((address,uint256,address))",
      "arguments": [
        "(0x94a9D9AC8a22534E3FaCa9F4e7F2E2cf85d5E4C8, 100000000, 0xcf62030BFd6c0c64B5569b7C76b03F97E9A31352)"
      ],
      "transaction": {
        "type": "0x02",
        "from": "0x979af411d048b453e3334c95f392012b3bbd6215",
        "to": "0xcf62030bfd6c0c64b5569b7c76b03f97e9a31352",
        "gas": "0x30ab5",
        "value": "0x0",
        "data": "0x0cf8542f00000000000000000000000094a9d9ac8a22534e3faca9f4e7f2e2cf85d5e4c80000000000000000000000000000000000000000000000000000000005f5e100000000000000000000000000cf62030bfd6c0c64b5569b7c76b03f97e9a31352",
        "nonce": "0xa",
        "accessList": []
      },
      "additionalContracts": [],
      "isFixedGasLimit": false
    }
  ],
  "receipts": [],
  "libraries": [],
  "pending": [
    "0xd93c095c383fd168bbd43b958b809ae4dca8e6e331a4a1af88f472e869bcd967"
  ],
  "returns": {},
  "timestamp": 1707221076,
  "chain": 11155111,
  "multi": false,
  "commit": "be388e0"
}