{
  "transactions": [
    {
      "hash": "0xc1eeb505a80cdaae039db4bcbc2e005c1871e88f9cc0460484e9f9b01750551a",
      "transactionType": "CALL",
      "contractName": null,
      "contractAddress": "0xcf62030BFd6c0c64B5569b7C76b03F97E9A31352",
      "function": "deposit((address,uint256,address))",
      "arguments": [
        "(0x94a9D9AC8a22534E3FaCa9F4e7F2E2cf85d5E4C8, 100000000, 0x979Af411D048b453E3334C95F392012B3BbD6215)"
      ],
      "transaction": {
        "type": "0x02",
        "from": "0xd20baeccd9f77faa9e2c2b185f33483d7911f9c8",
        "to": "0xcf62030bfd6c0c64b5569b7c76b03f97e9a31352",
        "gas": "0x30ab5",
        "value": "0x0",
        "data": "0x0cf8542f00000000000000000000000094a9d9ac8a22534e3faca9f4e7f2e2cf85d5e4c80000000000000000000000000000000000000000000000000000000005f5e100000000000000000000000000979af411d048b453e3334c95f392012b3bbd6215",
        "nonce": "0x61",
        "accessList": []
      },
      "additionalContracts": [],
      "isFixedGasLimit": false
    }
  ],
  "receipts": [
    {
      "transactionHash": "0xc1eeb505a80cdaae039db4bcbc2e005c1871e88f9cc0460484e9f9b01750551a",
      "transactionIndex": "0x59",
      "blockHash": "0x0e95f8e07f2c749c0d9c9690cdf6699bc1963ffc634c03bdf5c1efd1e69ec27c",
      "blockNumber": "0x4fda25",
      "from": "0xD20baecCd9F77fAA9E2C2B185F33483D7911f9C8",
      "to": "0xcf62030BFd6c0c64B5569b7C76b03F97E9A31352",
      "cumulativeGasUsed": "0x6a73fc",
      "gasUsed": "0x233c6",
      "contractAddress": null,
      "logs": [
        {
          "address": "0x94a9D9AC8a22534E3FaCa9F4e7F2E2cf85d5E4C8",
          "topics": [
            "0xddf252ad1be2c89b69c2b068fc378daa952ba7f163c4a11628f55a4df523b3ef",
            "0x000000000000000000000000d20baeccd9f77faa9e2c2b185f33483d7911f9c8",
            "0x000000000000000000000000cf62030bfd6c0c64b5569b7c76b03f97e9a31352"
          ],
          "data": "0x0000000000000000000000000000000000000000000000000000000005f5e100",
          "blockHash": "0x0e95f8e07f2c749c0d9c9690cdf6699bc1963ffc634c03bdf5c1efd1e69ec27c",
          "blockNumber": "0x4fda25",
          "transactionHash": "0xc1eeb505a80cdaae039db4bcbc2e005c1871e88f9cc0460484e9f9b01750551a",
          "transactionIndex": "0x59",
          "logIndex": "0x79",
          "removed": false
        },
        {
          "address": "0x94a9D9AC8a22534E3FaCa9F4e7F2E2cf85d5E4C8",
          "topics": [
            "0x8c5be1e5ebec7d5bd14f71427d1e84f3dd0314c0f7b2291e5b200ac8c7c3b925",
            "0x000000000000000000000000d20baeccd9f77faa9e2c2b185f33483d7911f9c8",
            "0x000000000000000000000000cf62030bfd6c0c64b5569b7c76b03f97e9a31352"
          ],
          "data": "0x00000000000000000000000000000000000000000000021e19e0c9ba58c88ec0",
          "blockHash": "0x0e95f8e07f2c749c0d9c9690cdf6699bc1963ffc634c03bdf5c1efd1e69ec27c",
          "blockNumber": "0x4fda25",
          "transactionHash": "0xc1eeb505a80cdaae039db4bcbc2e005c1871e88f9cc0460484e9f9b01750551a",
          "transactionIndex": "0x59",
          "logIndex": "0x7a",
          "removed": false
        },
        {
          "address": "0x94a9D9AC8a22534E3FaCa9F4e7F2E2cf85d5E4C8",
          "topics": [
            "0x8c5be1e5ebec7d5bd14f71427d1e84f3dd0314c0f7b2291e5b200ac8c7c3b925",
            "0x000000000000000000000000cf62030bfd6c0c64b5569b7c76b03f97e9a31352",
            "0x000000000000000000000000293cb72ac443b021652e0900e7ea8a2007d769d7"
          ],
          "data": "0x0000000000000000000000000000000000000000000000000000000005f5e100",
          "blockHash": "0x0e95f8e07f2c749c0d9c9690cdf6699bc1963ffc634c03bdf5c1efd1e69ec27c",
          "blockNumber": "0x4fda25",
          "transactionHash": "0xc1eeb505a80cdaae039db4bcbc2e005c1871e88f9cc0460484e9f9b01750551a",
          "transactionIndex": "0x59",
          "logIndex": "0x7b",
          "removed": false
        },
        {
          "address": "0x94a9D9AC8a22534E3FaCa9F4e7F2E2cf85d5E4C8",
          "topics": [
            "0xddf252ad1be2c89b69c2b068fc378daa952ba7f163c4a11628f55a4df523b3ef",
            "0x000000000000000000000000cf62030bfd6c0c64b5569b7c76b03f97e9a31352",
            "0x000000000000000000000000293cb72ac443b021652e0900e7ea8a2007d769d7"
          ],
          "data": "0x0000000000000000000000000000000000000000000000000000000005f5e100",
          "blockHash": "0x0e95f8e07f2c749c0d9c9690cdf6699bc1963ffc634c03bdf5c1efd1e69ec27c",
          "blockNumber": "0x4fda25",
          "transactionHash": "0xc1eeb505a80cdaae039db4bcbc2e005c1871e88f9cc0460484e9f9b01750551a",
          "transactionIndex": "0x59",
          "logIndex": "0x7c",
          "removed": false
        },
        {
          "address": "0x94a9D9AC8a22534E3FaCa9F4e7F2E2cf85d5E4C8",
          "topics": [
            "0x8c5be1e5ebec7d5bd14f71427d1e84f3dd0314c0f7b2291e5b200ac8c7c3b925",
            "0x000000000000000000000000cf62030bfd6c0c64b5569b7c76b03f97e9a31352",
            "0x000000000000000000000000293cb72ac443b021652e0900e7ea8a2007d769d7"
          ],
          "data": "0x0000000000000000000000000000000000000000000000000000000000000000",
          "blockHash": "0x0e95f8e07f2c749c0d9c9690cdf6699bc1963ffc634c03bdf5c1efd1e69ec27c",
          "blockNumber": "0x4fda25",
          "transactionHash": "0xc1eeb505a80cdaae039db4bcbc2e005c1871e88f9cc0460484e9f9b01750551a",
          "transactionIndex": "0x59",
          "logIndex": "0x7d",
          "removed": false
        },
        {
          "address": "0x6031f0512e86164c278bEBF8a59E733ec6FA92D9",
          "topics": [
            "0xddf252ad1be2c89b69c2b068fc378daa952ba7f163c4a11628f55a4df523b3ef",
            "0x0000000000000000000000000000000000000000000000000000000000000000",
            "0x000000000000000000000000fd1e0e7b6afd10703a47c2e2ac233dd6486b6825"
          ],
          "data": "0x0000000000000000000000000000000000000000000000000000000005f5e100",
          "blockHash": "0x0e95f8e07f2c749c0d9c9690cdf6699bc1963ffc634c03bdf5c1efd1e69ec27c",
          "blockNumber": "0x4fda25",
          "transactionHash": "0xc1eeb505a80cdaae039db4bcbc2e005c1871e88f9cc0460484e9f9b01750551a",
          "transactionIndex": "0x59",
          "logIndex": "0x7e",
          "removed": false
        },
        {
          "address": "0x6031f0512e86164c278bEBF8a59E733ec6FA92D9",
          "topics": [
            "0x458f5fa412d0f69b08dd84872b0215675cc67bc1d5b6fd93300a1c3878b86196",
            "0x000000000000000000000000293cb72ac443b021652e0900e7ea8a2007d769d7",
            "0x000000000000000000000000fd1e0e7b6afd10703a47c2e2ac233dd6486b6825"
          ],
          "data": "0x0000000000000000000000000000000000000000000000000000000005f5e10000000000000000000000000000000000000000000000000000000000000000000000000000000000000000000000000000000000033b2e3c9fd0803ce8000000",
          "blockHash": "0x0e95f8e07f2c749c0d9c9690cdf6699bc1963ffc634c03bdf5c1efd1e69ec27c",
          "blockNumber": "0x4fda25",
          "transactionHash": "0xc1eeb505a80cdaae039db4bcbc2e005c1871e88f9cc0460484e9f9b01750551a",
          "transactionIndex": "0x59",
          "logIndex": "0x7f",
          "removed": false
        },
        {
          "address": "0xcf62030BFd6c0c64B5569b7C76b03F97E9A31352",
          "topics": [
            "0x5548c837ab068cf56a2c2479df0882a4922fd203edb7517321831d95078c5f62",
            "0x00000000000000000000000094a9d9ac8a22534e3faca9f4e7f2e2cf85d5e4c8",
            "0x000000000000000000000000979af411d048b453e3334c95f392012b3bbd6215"
          ],
          "data": "0x0000000000000000000000000000000000000000000000000000000005f5e100",
          "blockHash": "0x0e95f8e07f2c749c0d9c9690cdf6699bc1963ffc634c03bdf5c1efd1e69ec27c",
          "blockNumber": "0x4fda25",
          "transactionHash": "0xc1eeb505a80cdaae039db4bcbc2e005c1871e88f9cc0460484e9f9b01750551a",
          "transactionIndex": "0x59",
          "logIndex": "0x80",
          "removed": false
        }
      ],
      "status": "0x1",
      "logsBloom": "0x00800000000000000200000000000000004000000000080000000000000000000000000000200000000100000004000000000000000002000100000040200000000000000008000000000008000000000000000000000000000808044000000001000000020000002000101000000800000000000000000000000010000000000000000000000000000000000000000000000000000080400000000000000000020000000100000000004000001000000000000010000000000000000000000002000002000000000000000010000000000000000000020000000000001020000010000000000000000000000000000001000000200000000000000020000000",
      "type": "0x2",
      "effectiveGasPrice": "0x23774b4222"
    }
  ],
  "libraries": [],
  "pending": [],
  "returns": {},
  "timestamp": 1707235024,
  "chain": 11155111,
  "multi": false,
  "commit": "4046cff"
}