{
  "transactions": [
    {
      "hash": "0xef777d69ef5016b20b3c43afddbb4120361167cb802928b7974702d4db5cc251",
      "transactionType": "CALL",
      "contractName": null,
      "contractAddress": "0xcf62030BFd6c0c64B5569b7C76b03F97E9A31352",
      "function": "deposit((address,uint256,address))",
      "arguments": [
        "(0x94a9D9AC8a22534E3FaCa9F4e7F2E2cf85d5E4C8, 100000000, 0x979Af411D048b453E3334C95F392012B3BbD6215)"
      ],
      "transaction": {
        "type": "0x02",
        "from": "0xd20baeccd9f77faa9e2c2b185f33483d7911f9c8",
        "to": "0xcf62030bfd6c0c64b5569b7c76b03f97e9a31352",
        "gas": "0x61dbf",
        "value": "0x0",
        "data": "0x0cf8542f00000000000000000000000094a9d9ac8a22534e3faca9f4e7f2e2cf85d5e4c80000000000000000000000000000000000000000000000000000000005f5e100000000000000000000000000979af411d048b453e3334c95f392012b3bbd6215",
        "nonce": "0x5a",
        "accessList": []
      },
      "additionalContracts": [
        {
          "transactionType": "CREATE",
          "address": "0xFD1E0e7B6aFd10703A47C2e2Ac233DD6486B6825",
          "initCode": "0x3d602d80600a3d3981f3363d3d373d3d3d363d73a3541ee3074eeb38baf74fb5c37c47c21c027bcf5af43d82803e903d91602b57fd5bf3"
        }
      ],
      "isFixedGasLimit": false
    }
  ],
  "receipts": [
    {
      "transactionHash": "0xef777d69ef5016b20b3c43afddbb4120361167cb802928b7974702d4db5cc251",
      "transactionIndex": "0x36",
      "blockHash": "0x708bf6b08a66cb46481a4b3665d085edb30b6994d8176a2ff67d26f10e681d14",
      "blockNumber": "0x4fd805",
      "from": "0xD20baecCd9F77fAA9E2C2B185F33483D7911f9C8",
      "to": "0xcf62030BFd6c0c64B5569b7C76b03F97E9A31352",
      "cumulativeGasUsed": "0x4dce69",
      "gasUsed": "0x42e9d",
      "contractAddress": null,
      "logs": [
        {
          "address": "0x94a9D9AC8a22534E3FaCa9F4e7F2E2cf85d5E4C8",
          "topics": [
            "0xddf252ad1be2c89b69c2b068fc378daa952ba7f163c4a11628f55a4df523b3ef",
            "0x000000000000000000000000d20baeccd9f77faa9e2c2b185f33483d7911f9c8",
            "0x000000000000000000000000cf62030bfd6c0c64b5569b7c76b03f97e9a31352"
          ],
          "data": "0x0000000000000000000000000000000000000000000000000000000005f5e100",
          "blockHash": "0x708bf6b08a66cb46481a4b3665d085edb30b6994d8176a2ff67d26f10e681d14",
          "blockNumber": "0x4fd805",
          "transactionHash": "0xef777d69ef5016b20b3c43afddbb4120361167cb802928b7974702d4db5cc251",
          "transactionIndex": "0x36",
          "logIndex": "0x58",
          "removed": false
        },
        {
          "address": "0x94a9D9AC8a22534E3FaCa9F4e7F2E2cf85d5E4C8",
          "topics": [
            "0x8c5be1e5ebec7d5bd14f71427d1e84f3dd0314c0f7b2291e5b200ac8c7c3b925",
            "0x000000000000000000000000d20baeccd9f77faa9e2c2b185f33483d7911f9c8",
            "0x000000000000000000000000cf62030bfd6c0c64b5569b7c76b03f97e9a31352"
          ],
          "data": "0x00000000000000000000000000000000000000000000021e19e0c9ba5ebe6fc0",
          "blockHash": "0x708bf6b08a66cb46481a4b3665d085edb30b6994d8176a2ff67d26f10e681d14",
          "blockNumber": "0x4fd805",
          "transactionHash": "0xef777d69ef5016b20b3c43afddbb4120361167cb802928b7974702d4db5cc251",
          "transactionIndex": "0x36",
          "logIndex": "0x59",
          "removed": false
        },
        {
          "address": "0xcf62030BFd6c0c64B5569b7C76b03F97E9A31352",
          "topics": [
            "0x61d77434230bc4628b3ed22c0c8e26455cdc6f3cafeb2f032ea3b8e375822ab1",
            "0x000000000000000000000000979af411d048b453e3334c95f392012b3bbd6215",
            "0x000000000000000000000000fd1e0e7b6afd10703a47c2e2ac233dd6486b6825"
          ],
          "data": "0x",
          "blockHash": "0x708bf6b08a66cb46481a4b3665d085edb30b6994d8176a2ff67d26f10e681d14",
          "blockNumber": "0x4fd805",
          "transactionHash": "0xef777d69ef5016b20b3c43afddbb4120361167cb802928b7974702d4db5cc251",
          "transactionIndex": "0x36",
          "logIndex": "0x5a",
          "removed": false
        },
        {
          "address": "0xFD1E0e7B6aFd10703A47C2e2Ac233DD6486B6825",
          "topics": [
            "0x8be0079c531659141344cd1fd0a4f28419497f9722a3daafe3b4186f6b6457e0",
            "0x0000000000000000000000000000000000000000000000000000000000000000",
            "0x000000000000000000000000cf62030bfd6c0c64b5569b7c76b03f97e9a31352"
          ],
          "data": "0x",
          "blockHash": "0x708bf6b08a66cb46481a4b3665d085edb30b6994d8176a2ff67d26f10e681d14",
          "blockNumber": "0x4fd805",
          "transactionHash": "0xef777d69ef5016b20b3c43afddbb4120361167cb802928b7974702d4db5cc251",
          "transactionIndex": "0x36",
          "logIndex": "0x5b",
          "removed": false
        },
        {
          "address": "0xFD1E0e7B6aFd10703A47C2e2Ac233DD6486B6825",
          "topics": [
            "0xc7f505b2f371ae2175ee4913f4499e1f2633a7b5936321eed1cdaeb6115181d2"
          ],
          "data": "0x0000000000000000000000000000000000000000000000000000000000000001",
          "blockHash": "0x708bf6b08a66cb46481a4b3665d085edb30b6994d8176a2ff67d26f10e681d14",
          "blockNumber": "0x4fd805",
          "transactionHash": "0xef777d69ef5016b20b3c43afddbb4120361167cb802928b7974702d4db5cc251",
          "transactionIndex": "0x36",
          "logIndex": "0x5c",
          "removed": false
        },
        {
          "address": "0x94a9D9AC8a22534E3FaCa9F4e7F2E2cf85d5E4C8",
          "topics": [
            "0x8c5be1e5ebec7d5bd14f71427d1e84f3dd0314c0f7b2291e5b200ac8c7c3b925",
            "0x000000000000000000000000cf62030bfd6c0c64b5569b7c76b03f97e9a31352",
            "0x000000000000000000000000293cb72ac443b021652e0900e7ea8a2007d769d7"
          ],
          "data": "0x0000000000000000000000000000000000000000000000000000000005f5e100",
          "blockHash": "0x708bf6b08a66cb46481a4b3665d085edb30b6994d8176a2ff67d26f10e681d14",
          "blockNumber": "0x4fd805",
          "transactionHash": "0xef777d69ef5016b20b3c43afddbb4120361167cb802928b7974702d4db5cc251",
          "transactionIndex": "0x36",
          "logIndex": "0x5d",
          "removed": false
        },
        {
          "address": "0x94a9D9AC8a22534E3FaCa9F4e7F2E2cf85d5E4C8",
          "topics": [
            "0xddf252ad1be2c89b69c2b068fc378daa952ba7f163c4a11628f55a4df523b3ef",
            "0x000000000000000000000000cf62030bfd6c0c64b5569b7c76b03f97e9a31352",
            "0x000000000000000000000000293cb72ac443b021652e0900e7ea8a2007d769d7"
          ],
          "data": "0x0000000000000000000000000000000000000000000000000000000005f5e100",
          "blockHash": "0x708bf6b08a66cb46481a4b3665d085edb30b6994d8176a2ff67d26f10e681d14",
          "blockNumber": "0x4fd805",
          "transactionHash": "0xef777d69ef5016b20b3c43afddbb4120361167cb802928b7974702d4db5cc251",
          "transactionIndex": "0x36",
          "logIndex": "0x5e",
          "removed": false
        },
        {
          "address": "0x94a9D9AC8a22534E3FaCa9F4e7F2E2cf85d5E4C8",
          "topics": [
            "0x8c5be1e5ebec7d5bd14f71427d1e84f3dd0314c0f7b2291e5b200ac8c7c3b925",
            "0x000000000000000000000000cf62030bfd6c0c64b5569b7c76b03f97e9a31352",
            "0x000000000000000000000000293cb72ac443b021652e0900e7ea8a2007d769d7"
          ],
          "data": "0x0000000000000000000000000000000000000000000000000000000000000000",
          "blockHash": "0x708bf6b08a66cb46481a4b3665d085edb30b6994d8176a2ff67d26f10e681d14",
          "blockNumber": "0x4fd805",
          "transactionHash": "0xef777d69ef5016b20b3c43afddbb4120361167cb802928b7974702d4db5cc251",
          "transactionIndex": "0x36",
          "logIndex": "0x5f",
          "removed": false
        },
        {
          "address": "0x6031f0512e86164c278bEBF8a59E733ec6FA92D9",
          "topics": [
            "0xddf252ad1be2c89b69c2b068fc378daa952ba7f163c4a11628f55a4df523b3ef",
            "0x0000000000000000000000000000000000000000000000000000000000000000",
            "0x000000000000000000000000fd1e0e7b6afd10703a47c2e2ac233dd6486b6825"
          ],
          "data": "0x0000000000000000000000000000000000000000000000000000000005f5e100",
          "blockHash": "0x708bf6b08a66cb46481a4b3665d085edb30b6994d8176a2ff67d26f10e681d14",
          "blockNumber": "0x4fd805",
          "transactionHash": "0xef777d69ef5016b20b3c43afddbb4120361167cb802928b7974702d4db5cc251",
          "transactionIndex": "0x36",
          "logIndex": "0x60",
          "removed": false
        },
        {
          "address": "0x6031f0512e86164c278bEBF8a59E733ec6FA92D9",
          "topics": [
            "0x458f5fa412d0f69b08dd84872b0215675cc67bc1d5b6fd93300a1c3878b86196",
            "0x000000000000000000000000293cb72ac443b021652e0900e7ea8a2007d769d7",
            "0x000000000000000000000000fd1e0e7b6afd10703a47c2e2ac233dd6486b6825"
          ],
          "data": "0x0000000000000000000000000000000000000000000000000000000005f5e10000000000000000000000000000000000000000000000000000000000000000000000000000000000000000000000000000000000033b2e3c9fd0803ce8000000",
          "blockHash": "0x708bf6b08a66cb46481a4b3665d085edb30b6994d8176a2ff67d26f10e681d14",
          "blockNumber": "0x4fd805",
          "transactionHash": "0xef777d69ef5016b20b3c43afddbb4120361167cb802928b7974702d4db5cc251",
          "transactionIndex": "0x36",
          "logIndex": "0x61",
          "removed": false
        },
        {
          "address": "0xcf62030BFd6c0c64B5569b7C76b03F97E9A31352",
          "topics": [
            "0x5548c837ab068cf56a2c2479df0882a4922fd203edb7517321831d95078c5f62",
            "0x00000000000000000000000094a9d9ac8a22534e3faca9f4e7f2e2cf85d5e4c8",
            "0x000000000000000000000000979af411d048b453e3334c95f392012b3bbd6215"
          ],
          "data": "0x0000000000000000000000000000000000000000000000000000000005f5e100",
          "blockHash": "0x708bf6b08a66cb46481a4b3665d085edb30b6994d8176a2ff67d26f10e681d14",
          "blockNumber": "0x4fd805",
          "transactionHash": "0xef777d69ef5016b20b3c43afddbb4120361167cb802928b7974702d4db5cc251",
          "transactionIndex": "0x36",
          "logIndex": "0x62",
          "removed": false
        }
      ],
      "status": "0x1",
      "logsBloom": "0x00800000000000000200000000000000004000000000080000800000000000000000000000200000000100200004000000000000001002000100000040200000000000000008000000000008000000000001000000000000000808044000000001000000020000002000101000000800000000000000000000000010000000400000000000000000000800000000000000000000000280400000000000000000020000000100000000004000001000000200000010000000000000000000000002000002000000000000000010000000000001000004020000000000001020000010000000000000000000000000000001080000200000000000000020000000",
      "type": "0x2",
      "effectiveGasPrice": "0xfc570e519"
    }
  ],
  "libraries": [],
  "pending": [],
  "returns": {},
  "timestamp": 1707228015,
  "chain": 11155111,
  "multi": false,
  "commit": "5feec6f"
}