{
  "transactions": [
    {
      "hash": "0xd2b32ac9a53df596629379fc8d75ff899471d8150c6de1972dd93e971784c192",
      "transactionType": "CALL",
      "contractName": null,
      "contractAddress": "0xcf62030BFd6c0c64B5569b7C76b03F97E9A31352",
      "function": "deposit((address,uint256,address))",
      "arguments": [
        "(0x94a9D9AC8a22534E3FaCa9F4e7F2E2cf85d5E4C8, 1000000000, 0xcf62030BFd6c0c64B5569b7C76b03F97E9A31352)"
      ],
      "transaction": {
        "type": "0x02",
        "from": "0x979af411d048b453e3334c95f392012b3bbd6215",
        "to": "0xcf62030bfd6c0c64b5569b7c76b03f97e9a31352",
        "gas": "0x30ab5",
        "value": "0x0",
        "data": "0x0cf8542f00000000000000000000000094a9d9ac8a22534e3faca9f4e7f2e2cf85d5e4c8000000000000000000000000000000000000000000000000000000003b9aca00000000000000000000000000cf62030bfd6c0c64b5569b7c76b03f97e9a31352",
        "nonce": "0x17",
        "accessList": []
      },
      "additionalContracts": [],
      "isFixedGasLimit": false
    }
  ],
  "receipts": [
    {
      "transactionHash": "0xd2b32ac9a53df596629379fc8d75ff899471d8150c6de1972dd93e971784c192",
      "transactionIndex": "0x1d",
      "blockHash": "0x9582f6dc411ec75959aa2f50c53e3ce5df18ccbb74f6b449acf50d2c16d4c4d6",
      "blockNumber": "0x4fd6a9",
      "from": "0x979Af411D048b453E3334C95F392012B3BbD6215",
      "to": "0xcf62030BFd6c0c64B5569b7C76b03F97E9A31352",
      "cumulativeGasUsed": "0x16e062",
      "gasUsed": "0x233c6",
      "contractAddress": null,
      "logs": [
        {
          "address": "0x94a9D9AC8a22534E3FaCa9F4e7F2E2cf85d5E4C8",
          "topics": [
            "0xddf252ad1be2c89b69c2b068fc378daa952ba7f163c4a11628f55a4df523b3ef",
            "0x000000000000000000000000979af411d048b453e3334c95f392012b3bbd6215",
            "0x000000000000000000000000cf62030bfd6c0c64b5569b7c76b03f97e9a31352"
          ],
          "data": "0x000000000000000000000000000000000000000000000000000000003b9aca00",
          "blockHash": "0x9582f6dc411ec75959aa2f50c53e3ce5df18ccbb74f6b449acf50d2c16d4c4d6",
          "blockNumber": "0x4fd6a9",
          "transactionHash": "0xd2b32ac9a53df596629379fc8d75ff899471d8150c6de1972dd93e971784c192",
          "transactionIndex": "0x1d",
          "logIndex": "0x12",
          "removed": false
        },
        {
          "address": "0x94a9D9AC8a22534E3FaCa9F4e7F2E2cf85d5E4C8",
          "topics": [
            "0x8c5be1e5ebec7d5bd14f71427d1e84f3dd0314c0f7b2291e5b200ac8c7c3b925",
            "0x000000000000000000000000979af411d048b453e3334c95f392012b3bbd6215",
            "0x000000000000000000000000cf62030bfd6c0c64b5569b7c76b03f97e9a31352"
          ],
          "data": "0x00000000000000000000000000000000000000000000003635c9adc55588c900",
          "blockHash": "0x9582f6dc411ec75959aa2f50c53e3ce5df18ccbb74f6b449acf50d2c16d4c4d6",
          "blockNumber": "0x4fd6a9",
          "transactionHash": "0xd2b32ac9a53df596629379fc8d75ff899471d8150c6de1972dd93e971784c192",
          "transactionIndex": "0x1d",
          "logIndex": "0x13",
          "removed": false
        },
        {
          "address": "0x94a9D9AC8a22534E3FaCa9F4e7F2E2cf85d5E4C8",
          "topics": [
            "0x8c5be1e5ebec7d5bd14f71427d1e84f3dd0314c0f7b2291e5b200ac8c7c3b925",
            "0x000000000000000000000000cf62030bfd6c0c64b5569b7c76b03f97e9a31352",
            "0x000000000000000000000000293cb72ac443b021652e0900e7ea8a2007d769d7"
          ],
          "data": "0x000000000000000000000000000000000000000000000000000000003b9aca00",
          "blockHash": "0x9582f6dc411ec75959aa2f50c53e3ce5df18ccbb74f6b449acf50d2c16d4c4d6",
          "blockNumber": "0x4fd6a9",
          "transactionHash": "0xd2b32ac9a53df596629379fc8d75ff899471d8150c6de1972dd93e971784c192",
          "transactionIndex": "0x1d",
          "logIndex": "0x14",
          "removed": false
        },
        {
          "address": "0x94a9D9AC8a22534E3FaCa9F4e7F2E2cf85d5E4C8",
          "topics": [
            "0xddf252ad1be2c89b69c2b068fc378daa952ba7f163c4a11628f55a4df523b3ef",
            "0x000000000000000000000000cf62030bfd6c0c64b5569b7c76b03f97e9a31352",
            "0x000000000000000000000000293cb72ac443b021652e0900e7ea8a2007d769d7"
          ],
          "data": "0x000000000000000000000000000000000000000000000000000000003b9aca00",
          "blockHash": "0x9582f6dc411ec75959aa2f50c53e3ce5df18ccbb74f6b449acf50d2c16d4c4d6",
          "blockNumber": "0x4fd6a9",
          "transactionHash": "0xd2b32ac9a53df596629379fc8d75ff899471d8150c6de1972dd93e971784c192",
          "transactionIndex": "0x1d",
          "logIndex": "0x15",
          "removed": false
        },
        {
          "address": "0x94a9D9AC8a22534E3FaCa9F4e7F2E2cf85d5E4C8",
          "topics": [
            "0x8c5be1e5ebec7d5bd14f71427d1e84f3dd0314c0f7b2291e5b200ac8c7c3b925",
            "0x000000000000000000000000cf62030bfd6c0c64b5569b7c76b03f97e9a31352",
            "0x000000000000000000000000293cb72ac443b021652e0900e7ea8a2007d769d7"
          ],
          "data": "0x0000000000000000000000000000000000000000000000000000000000000000",
          "blockHash": "0x9582f6dc411ec75959aa2f50c53e3ce5df18ccbb74f6b449acf50d2c16d4c4d6",
          "blockNumber": "0x4fd6a9",
          "transactionHash": "0xd2b32ac9a53df596629379fc8d75ff899471d8150c6de1972dd93e971784c192",
          "transactionIndex": "0x1d",
          "logIndex": "0x16",
          "removed": false
        },
        {
          "address": "0x6031f0512e86164c278bEBF8a59E733ec6FA92D9",
          "topics": [
            "0xddf252ad1be2c89b69c2b068fc378daa952ba7f163c4a11628f55a4df523b3ef",
            "0x0000000000000000000000000000000000000000000000000000000000000000",
            "0x0000000000000000000000000f9d491b7f82300893df1fca5abab23cf1e1a00f"
          ],
          "data": "0x000000000000000000000000000000000000000000000000000000003b9aca00",
          "blockHash": "0x9582f6dc411ec75959aa2f50c53e3ce5df18ccbb74f6b449acf50d2c16d4c4d6",
          "blockNumber": "0x4fd6a9",
          "transactionHash": "0xd2b32ac9a53df596629379fc8d75ff899471d8150c6de1972dd93e971784c192",
          "transactionIndex": "0x1d",
          "logIndex": "0x17",
          "removed": false
        },
        {
          "address": "0x6031f0512e86164c278bEBF8a59E733ec6FA92D9",
          "topics": [
            "0x458f5fa412d0f69b08dd84872b0215675cc67bc1d5b6fd93300a1c3878b86196",
            "0x000000000000000000000000293cb72ac443b021652e0900e7ea8a2007d769d7",
            "0x0000000000000000000000000f9d491b7f82300893df1fca5abab23cf1e1a00f"
          ],
          "data": "0x000000000000000000000000000000000000000000000000000000003b9aca0000000000000000000000000000000000000000000000000000000000000000000000000000000000000000000000000000000000033b2e3c9fd0803ce8000000",
          "blockHash": "0x9582f6dc411ec75959aa2f50c53e3ce5df18ccbb74f6b449acf50d2c16d4c4d6",
          "blockNumber": "0x4fd6a9",
          "transactionHash": "0xd2b32ac9a53df596629379fc8d75ff899471d8150c6de1972dd93e971784c192",
          "transactionIndex": "0x1d",
          "logIndex": "0x18",
          "removed": false
        },
        {
          "address": "0xcf62030BFd6c0c64B5569b7C76b03F97E9A31352",
          "topics": [
            "0x5548c837ab068cf56a2c2479df0882a4922fd203edb7517321831d95078c5f62",
            "0x00000000000000000000000094a9d9ac8a22534e3faca9f4e7f2e2cf85d5e4c8",
            "0x000000000000000000000000cf62030bfd6c0c64b5569b7c76b03f97e9a31352"
          ],
          "data": "0x000000000000000000000000000000000000000000000000000000003b9aca00",
          "blockHash": "0x9582f6dc411ec75959aa2f50c53e3ce5df18ccbb74f6b449acf50d2c16d4c4d6",
          "blockNumber": "0x4fd6a9",
          "transactionHash": "0xd2b32ac9a53df596629379fc8d75ff899471d8150c6de1972dd93e971784c192",
          "transactionIndex": "0x1d",
          "logIndex": "0x19",
          "removed": false
        }
      ],
      "status": "0x1",
      "logsBloom": "0x00800000000000000200000000000000004000000000080000000000000000000000000000200000000100000004000000000000000002000100000040200100000000000008000000000008000000000000000000000000000008040000000001000000020000000000001000000800000000000000000000000010000000000000000000000000000000000000000000000000000080400000000000000000020000000100000000004000001000000000000010000000000000000000000002000002000000000000000010000000000100000000020000001000000020000010000000000000000000000000000001000000200000000000000000000000",
      "type": "0x2",
      "effectiveGasPrice": "0xabea34b87"
    }
  ],
  "libraries": [],
  "pending": [],
  "returns": {},
  "timestamp": 1707223783,
  "chain": 11155111,
  "multi": false,
  "commit": "be388e0"
}