{
  "transactions": [
    {
      "hash": "0xee8f5958b65acb3559a253471e8b9271f0469c3346dcfc4e9de5404f872f7acb",
      "transactionType": "CALL",
      "contractName": null,
      "contractAddress": "0xcf62030BFd6c0c64B5569b7C76b03F97E9A31352",
      "function": "deposit((address,uint256,address))",
      "arguments": [
        "(0x94a9D9AC8a22534E3FaCa9F4e7F2E2cf85d5E4C8, 100000000, 0xD20baecCd9F77fAA9E2C2B185F33483D7911f9C8)"
      ],
      "transaction": {
        "type": "0x02",
        "from": "0x979af411d048b453e3334c95f392012b3bbd6215",
        "to": "0xcf62030bfd6c0c64b5569b7c76b03f97e9a31352",
        "gas": "0x61dbf",
        "value": "0x0",
        "data": "0x0cf8542f00000000000000000000000094a9d9ac8a22534e3faca9f4e7f2e2cf85d5e4c80000000000000000000000000000000000000000000000000000000005f5e100000000000000000000000000d20baeccd9f77faa9e2c2b185f33483d7911f9c8",
        "nonce": "0x19",
        "accessList": []
      },
      "additionalContracts": [
        {
          "transactionType": "CREATE",
          "address": "0x236955b5CE6d975A1655f10dBa30726C65Cb2f35",
          "initCode": "0x3d602d80600a3d3981f3363d3d373d3d3d363d73a3541ee3074eeb38baf74fb5c37c47c21c027bcf5af43d82803e903d91602b57fd5bf3"
        }
      ],
      "isFixedGasLimit": false
    }
  ],
  "receipts": [],
  "libraries": [],
  "pending": [
    "0xee8f5958b65acb3559a253471e8b9271f0469c3346dcfc4e9de5404f872f7acb"
  ],
  "returns": {},
  "timestamp": 1707227771,
  "chain": 11155111,
  "multi": false,
  "commit": "5feec6f"
}