{
  "transactions": [
    {
      "hash": "0x8f51532fb0221fc8998d4fa2ab2f608bacbcba302666e72e8880e5a5e4b47609",
      "transactionType": "CALL",
      "contractName": null,
      "contractAddress": "0xcf62030BFd6c0c64B5569b7C76b03F97E9A31352",
      "function": "deposit((address,uint256,address))",
      "arguments": [
        "(0x94a9D9AC8a22534E3FaCa9F4e7F2E2cf85d5E4C8, 1000000000, 0xcf62030BFd6c0c64B5569b7C76b03F97E9A31352)"
      ],
      "transaction": {
        "type": "0x02",
        "from": "0x979af411d048b453e3334c95f392012b3bbd6215",
        "to": "0xcf62030bfd6c0c64b5569b7c76b03f97e9a31352",
        "gas": "0x30ab5",
        "value": "0x0",
        "data": "0x0cf8542f00000000000000000000000094a9d9ac8a22534e3faca9f4e7f2e2cf85d5e4c8000000000000000000000000000000000000000000000000000000003b9aca00000000000000000000000000cf62030bfd6c0c64b5569b7c76b03f97e9a31352",
        "nonce": "0x13",
        "accessList": []
      },
      "additionalContracts": [],
      "isFixedGasLimit": false
    }
  ],
  "receipts": [
    {
      "transactionHash": "0x8f51532fb0221fc8998d4fa2ab2f608bacbcba302666e72e8880e5a5e4b47609",
      "transactionIndex": "0x2b",
      "blockHash": "0xd241f8202d031347ab3a5548552fd4c1af07681acdea354d711f84f77d3b8450",
      "blockNumber": "0x4fd684",
      "from": "0x979Af411D048b453E3334C95F392012B3BbD6215",
      "to": "0xcf62030BFd6c0c64B5569b7C76b03F97E9A31352",
      "cumulativeGasUsed": "0x29ff09",
      "gasUsed": "0x233c6",
      "contractAddress": null,
      "logs": [
        {
          "address": "0x94a9D9AC8a22534E3FaCa9F4e7F2E2cf85d5E4C8",
          "topics": [
            "0xddf252ad1be2c89b69c2b068fc378daa952ba7f163c4a11628f55a4df523b3ef",
            "0x000000000000000000000000979af411d048b453e3334c95f392012b3bbd6215",
            "0x000000000000000000000000cf62030bfd6c0c64b5569b7c76b03f97e9a31352"
          ],
          "data": "0x000000000000000000000000000000000000000000000000000000003b9aca00",
          "blockHash": "0xd241f8202d031347ab3a5548552fd4c1af07681acdea354d711f84f77d3b8450",
          "blockNumber": "0x4fd684",
          "transactionHash": "0x8f51532fb0221fc8998d4fa2ab2f608bacbcba302666e72e8880e5a5e4b47609",
          "transactionIndex": "0x2b",
          "logIndex": "0x27",
          "removed": false
        },
        {
          "address": "0x94a9D9AC8a22534E3FaCa9F4e7F2E2cf85d5E4C8",
          "topics": [
            "0x8c5be1e5ebec7d5bd14f71427d1e84f3dd0314c0f7b2291e5b200ac8c7c3b925",
            "0x000000000000000000000000979af411d048b453e3334c95f392012b3bbd6215",
            "0x000000000000000000000000cf62030bfd6c0c64b5569b7c76b03f97e9a31352"
          ],
          "data": "0x00000000000000000000000000000000000000000000003635c9adc591239300",
          "blockHash": "0xd241f8202d031347ab3a5548552fd4c1af07681acdea354d711f84f77d3b8450",
          "blockNumber": "0x4fd684",
          "transactionHash": "0x8f51532fb0221fc8998d4fa2ab2f608bacbcba302666e72e8880e5a5e4b47609",
          "transactionIndex": "0x2b",
          "logIndex": "0x28",
          "removed": false
        },
        {
          "address": "0x94a9D9AC8a22534E3FaCa9F4e7F2E2cf85d5E4C8",
          "topics": [
            "0x8c5be1e5ebec7d5bd14f71427d1e84f3dd0314c0f7b2291e5b200ac8c7c3b925",
            "0x000000000000000000000000cf62030bfd6c0c64b5569b7c76b03f97e9a31352",
            "0x000000000000000000000000293cb72ac443b021652e0900e7ea8a2007d769d7"
          ],
          "data": "0x000000000000000000000000000000000000000000000000000000003b9aca00",
          "blockHash": "0xd241f8202d031347ab3a5548552fd4c1af07681acdea354d711f84f77d3b8450",
          "blockNumber": "0x4fd684",
          "transactionHash": "0x8f51532fb0221fc8998d4fa2ab2f608bacbcba302666e72e8880e5a5e4b47609",
          "transactionIndex": "0x2b",
          "logIndex": "0x29",
          "removed": false
        },
        {
          "address": "0x94a9D9AC8a22534E3FaCa9F4e7F2E2cf85d5E4C8",
          "topics": [
            "0xddf252ad1be2c89b69c2b068fc378daa952ba7f163c4a11628f55a4df523b3ef",
            "0x000000000000000000000000cf62030bfd6c0c64b5569b7c76b03f97e9a31352",
            "0x000000000000000000000000293cb72ac443b021652e0900e7ea8a2007d769d7"
          ],
          "data": "0x000000000000000000000000000000000000000000000000000000003b9aca00",
          "blockHash": "0xd241f8202d031347ab3a5548552fd4c1af07681acdea354d711f84f77d3b8450",
          "blockNumber": "0x4fd684",
          "transactionHash": "0x8f51532fb0221fc8998d4fa2ab2f608bacbcba302666e72e8880e5a5e4b47609",
          "transactionIndex": "0x2b",
          "logIndex": "0x2a",
          "removed": false
        },
        {
          "address": "0x94a9D9AC8a22534E3FaCa9F4e7F2E2cf85d5E4C8",
          "topics": [
            "0x8c5be1e5ebec7d5bd14f71427d1e84f3dd0314c0f7b2291e5b200ac8c7c3b925",
            "0x000000000000000000000000cf62030bfd6c0c64b5569b7c76b03f97e9a31352",
            "0x000000000000000000000000293cb72ac443b021652e0900e7ea8a2007d769d7"
          ],
          "data": "0x0000000000000000000000000000000000000000000000000000000000000000",
          "blockHash": "0xd241f8202d031347ab3a5548552fd4c1af07681acdea354d711f84f77d3b8450",
          "blockNumber": "0x4fd684",
          "transactionHash": "0x8f51532fb0221fc8998d4fa2ab2f608bacbcba302666e72e8880e5a5e4b47609",
          "transactionIndex": "0x2b",
          "logIndex": "0x2b",
          "removed": false
        },
        {
          "address": "0x6031f0512e86164c278bEBF8a59E733ec6FA92D9",
          "topics": [
            "0xddf252ad1be2c89b69c2b068fc378daa952ba7f163c4a11628f55a4df523b3ef",
            "0x0000000000000000000000000000000000000000000000000000000000000000",
            "0x0000000000000000000000000f9d491b7f82300893df1fca5abab23cf1e1a00f"
          ],
          "data": "0x000000000000000000000000000000000000000000000000000000003b9aca00",
          "blockHash": "0xd241f8202d031347ab3a5548552fd4c1af07681acdea354d711f84f77d3b8450",
          "blockNumber": "0x4fd684",
          "transactionHash": "0x8f51532fb0221fc8998d4fa2ab2f608bacbcba302666e72e8880e5a5e4b47609",
          "transactionIndex": "0x2b",
          "logIndex": "0x2c",
          "removed": false
        },
        {
          "address": "0x6031f0512e86164c278bEBF8a59E733ec6FA92D9",
          "topics": [
            "0x458f5fa412d0f69b08dd84872b0215675cc67bc1d5b6fd93300a1c3878b86196",
            "0x000000000000000000000000293cb72ac443b021652e0900e7ea8a2007d769d7",
            "0x0000000000000000000000000f9d491b7f82300893df1fca5abab23cf1e1a00f"
          ],
          "data": "0x000000000000000000000000000000000000000000000000000000003b9aca0000000000000000000000000000000000000000000000000000000000000000000000000000000000000000000000000000000000033b2e3c9fd0803ce8000000",
          "blockHash": "0xd241f8202d031347ab3a5548552fd4c1af07681acdea354d711f84f77d3b8450",
          "blockNumber": "0x4fd684",
          "transactionHash": "0x8f51532fb0221fc8998d4fa2ab2f608bacbcba302666e72e8880e5a5e4b47609",
          "transactionIndex": "0x2b",
          "logIndex": "0x2d",
          "removed": false
        },
        {
          "address": "0xcf62030BFd6c0c64B5569b7C76b03F97E9A31352",
          "topics": [
            "0x5548c837ab068cf56a2c2479df0882a4922fd203edb7517321831d95078c5f62",
            "0x00000000000000000000000094a9d9ac8a22534e3faca9f4e7f2e2cf85d5e4c8",
            "0x000000000000000000000000cf62030bfd6c0c64b5569b7c76b03f97e9a31352"
          ],
          "data": "0x000000000000000000000000000000000000000000000000000000003b9aca00",
          "blockHash": "0xd241f8202d031347ab3a5548552fd4c1af07681acdea354d711f84f77d3b8450",
          "blockNumber": "0x4fd684",
          "transactionHash": "0x8f51532fb0221fc8998d4fa2ab2f608bacbcba302666e72e8880e5a5e4b47609",
          "transactionIndex": "0x2b",
          "logIndex": "0x2e",
          "removed": false
        }
      ],
      "status": "0x1",
      "logsBloom": "0x00800000000000000200000000000000004000000000080000000000000000000000000000200000000100000004000000000000000002000100000040200100000000000008000000000008000000000000000000000000000008040000000001000000020000000000001000000800000000000000000000000010000000000000000000000000000000000000000000000000000080400000000000000000020000000100000000004000001000000000000010000000000000000000000002000002000000000000000010000000000100000000020000001000000020000010000000000000000000000000000001000000200000000000000000000000",
      "type": "0x2",
      "effectiveGasPrice": "0xc376e5cc7"
    }
  ],
  "libraries": [],
  "pending": [],
  "returns": {},
  "timestamp": 1707223336,
  "chain": 11155111,
  "multi": false,
  "commit": "be388e0"
}