{
  "transactions": [
    {
      "hash": "0xf1bea06c556d9c482501684afd5f1f71ba0915c2ea0aa1478e13ba18c00aefa8",
      "transactionType": "CALL",
      "contractName": null,
      "contractAddress": "0xcf62030BFd6c0c64B5569b7C76b03F97E9A31352",
      "function": "lendAsLimitOrder((uint256,(uint256[],uint256[],int256[])))",
      "arguments": [
        "(1707431004, ([36000, 72000], [1000000000000000000, 2000000000000000000], [12, 12]))"
      ],
      "transaction": {
        "type": "0x02",
        "from": "0xd20baeccd9f77faa9e2c2b185f33483d7911f9c8",
        "to": "0xcf62030bfd6c0c64b5569b7c76b03f97e9a31352",
        "gas": "0x192eb",
        "value": "0x0",
        "data": "0x83ea6c3f00000000000000000000000000000000000000000000000000000000000000200000000000000000000000000000000000000000000000000000000065c5545c0000000000000000000000000000000000000000000000000000000000000040000000000000000000000000000000000000000000000000000000000000006000000000000000000000000000000000000000000000000000000000000000c0000000000000000000000000000000000000000000000000000000000000012000000000000000000000000000000000000000000000000000000000000000020000000000000000000000000000000000000000000000000000000000008ca0000000000000000000000000000000000000000000000000000000000001194000000000000000000000000000000000000000000000000000000000000000020000000000000000000000000000000000000000000000000de0b6b3a76400000000000000000000000000000000000000000000000000001bc16d674ec800000000000000000000000000000000000000000000000000000000000000000002000000000000000000000000000000000000000000000000000000000000000c000000000000000000000000000000000000000000000000000000000000000c",
        "nonce": "0x4c",
        "accessList": []
      },
      "additionalContracts": [],
      "isFixedGasLimit": false
    }
  ],
  "receipts": [
    {
      "transactionHash": "0xf1bea06c556d9c482501684afd5f1f71ba0915c2ea0aa1478e13ba18c00aefa8",
      "transactionIndex": "0x39",
      "blockHash": "0xc11b9d98a1a840da65e4600cf5e4865b0ab334a9bd0dec7f8f31cdb2c6029a18",
      "blockNumber": "0x4fc5da",
      "from": "0xD20baecCd9F77fAA9E2C2B185F33483D7911f9C8",
      "to": "0xcf62030BFd6c0c64B5569b7C76b03F97E9A31352",
      "cumulativeGasUsed": "0x7e0a30",
      "gasUsed": "0x123b5",
      "contractAddress": null,
      "logs": [
        {
          "address": "0xcf62030BFd6c0c64B5569b7C76b03F97E9A31352",
          "topics": [
            "0x3b6874996459151f1c04500f7b7e26319353d737f30bea4c388be1a6fce94b0e"
          ],
          "data": "0x0000000000000000000000000000000000000000000000000000000065c5545c0000000000000000000000000000000000000000000000000000000000000040000000000000000000000000000000000000000000000000000000000000006000000000000000000000000000000000000000000000000000000000000000c0000000000000000000000000000000000000000000000000000000000000012000000000000000000000000000000000000000000000000000000000000000020000000000000000000000000000000000000000000000000000000000008ca0000000000000000000000000000000000000000000000000000000000001194000000000000000000000000000000000000000000000000000000000000000020000000000000000000000000000000000000000000000000de0b6b3a76400000000000000000000000000000000000000000000000000001bc16d674ec800000000000000000000000000000000000000000000000000000000000000000002000000000000000000000000000000000000000000000000000000000000000c000000000000000000000000000000000000000000000000000000000000000c",
          "blockHash": "0xc11b9d98a1a840da65e4600cf5e4865b0ab334a9bd0dec7f8f31cdb2c6029a18",
          "blockNumber": "0x4fc5da",
          "transactionHash": "0xf1bea06c556d9c482501684afd5f1f71ba0915c2ea0aa1478e13ba18c00aefa8",
          "transactionIndex": "0x39",
          "logIndex": "0x8d",
          "removed": false
        }
      ],
      "status": "0x1",
      "logsBloom": "0x00000000000000000000000000000000004000000000080000000000000000000000000020000000000000000000000000000000000080000000000000000000000000000000000000000000000000000000000000000000000000000000000000000000000000000000000000000000000000000000000000000000000000000000000000000000000000000000000000000000000000000000000000000000000000000000000000000000000000000000000000000000000000000000000000000000000000000000000000000000000000000000000000000000000000800000000000000000000000000000000000000000200000000000000000000000",
      "type": "0x2",
      "effectiveGasPrice": "0x166d5dc66"
    }
  ],
  "libraries": [],
  "pending": [],
  "returns": {},
  "timestamp": 1707171848,
  "chain": 11155111,
  "multi": false,
  "commit": "f334166"
}