{
  "transactions": [
    {
      "hash": "0xf424bdb9a8b2f7e186ba4a7f1a06d3f0f61c6ee4048bf1fb019bf34c9369d2c5",
      "transactionType": "CALL",
      "contractName": null,
      "contractAddress": "0xcf62030BFd6c0c64B5569b7C76b03F97E9A31352",
      "function": "lendAsLimitOrder((uint256,(uint256[],uint256[],int256[])))",
      "arguments": [
        "(1707480468, ([86400, 720000], [1000000000000000000, 2000000000000000000], [12, 12]))"
      ],
      "transaction": {
        "type": "0x02",
        "from": "0x979af411d048b453e3334c95f392012b3bbd6215",
        "to": "0xcf62030bfd6c0c64b5569b7c76b03f97e9a31352",
        "gas": "0x1caae",
        "value": "0x0",
        "data": "0x83ea6c3f00000000000000000000000000000000000000000000000000000000000000200000000000000000000000000000000000000000000000000000000065c615940000000000000000000000000000000000000000000000000000000000000040000000000000000000000000000000000000000000000000000000000000006000000000000000000000000000000000000000000000000000000000000000c000000000000000000000000000000000000000000000000000000000000001200000000000000000000000000000000000000000000000000000000000000002000000000000000000000000000000000000000000000000000000000001518000000000000000000000000000000000000000000000000000000000000afc8000000000000000000000000000000000000000000000000000000000000000020000000000000000000000000000000000000000000000000de0b6b3a76400000000000000000000000000000000000000000000000000001bc16d674ec800000000000000000000000000000000000000000000000000000000000000000002000000000000000000000000000000000000000000000000000000000000000c000000000000000000000000000000000000000000000000000000000000000c",
        "nonce": "0xc",
        "accessList": []
      },
      "additionalContracts": [],
      "isFixedGasLimit": false
    }
  ],
  "receipts": [
    {
      "transactionHash": "0xf424bdb9a8b2f7e186ba4a7f1a06d3f0f61c6ee4048bf1fb019bf34c9369d2c5",
      "transactionIndex": "0x3a",
      "blockHash": "0x62a19a399061dedd0b798cdc28f10afba315d28b559f348e25ba47dc6e9f907b",
      "blockNumber": "0x4fd5db",
      "from": "0x979Af411D048b453E3334C95F392012B3BbD6215",
      "to": "0xcf62030BFd6c0c64B5569b7C76b03F97E9A31352",
      "cumulativeGasUsed": "0x5c69b9",
      "gasUsed": "0x139a1",
      "contractAddress": null,
      "logs": [
        {
          "address": "0xcf62030BFd6c0c64B5569b7C76b03F97E9A31352",
          "topics": [
            "0x3b6874996459151f1c04500f7b7e26319353d737f30bea4c388be1a6fce94b0e"
          ],
          "data": "0x0000000000000000000000000000000000000000000000000000000065c615940000000000000000000000000000000000000000000000000000000000000040000000000000000000000000000000000000000000000000000000000000006000000000000000000000000000000000000000000000000000000000000000c000000000000000000000000000000000000000000000000000000000000001200000000000000000000000000000000000000000000000000000000000000002000000000000000000000000000000000000000000000000000000000001518000000000000000000000000000000000000000000000000000000000000afc8000000000000000000000000000000000000000000000000000000000000000020000000000000000000000000000000000000000000000000de0b6b3a76400000000000000000000000000000000000000000000000000001bc16d674ec800000000000000000000000000000000000000000000000000000000000000000002000000000000000000000000000000000000000000000000000000000000000c000000000000000000000000000000000000000000000000000000000000000c",
          "blockHash": "0x62a19a399061dedd0b798cdc28f10afba315d28b559f348e25ba47dc6e9f907b",
          "blockNumber": "0x4fd5db",
          "transactionHash": "0xf424bdb9a8b2f7e186ba4a7f1a06d3f0f61c6ee4048bf1fb019bf34c9369d2c5",
          "transactionIndex": "0x3a",
          "logIndex": "0x70",
          "removed": false
        }
      ],
      "status": "0x1",
      "logsBloom": "0x00000000000000000000000000000000004000000000080000000000000000000000000020000000000000000000000000000000000080000000000000000000000000000000000000000000000000000000000000000000000000000000000000000000000000000000000000000000000000000000000000000000000000000000000000000000000000000000000000000000000000000000000000000000000000000000000000000000000000000000000000000000000000000000000000000000000000000000000000000000000000000000000000000000000000800000000000000000000000000000000000000000200000000000000000000000",
      "type": "0x2",
      "effectiveGasPrice": "0xde35a1f67"
    }
  ],
  "libraries": [],
  "pending": [],
  "returns": {},
  "timestamp": 1707221294,
  "chain": 11155111,
  "multi": false,
  "commit": "be388e0"
}