{
  "transactions": [
    {
      "hash": "0x17767f3c800fe821f60fb2505746292d25dc3cdd0f029f64924e891e60379a28",
      "transactionType": "CALL",
      "contractName": null,
      "contractAddress": "0xcf62030BFd6c0c64B5569b7C76b03F97E9A31352",
      "function": "lendAsLimitOrder((uint256,(uint256[],uint256[],int256[])))",
      "arguments": [
        "(1707436680, ([86400, 720000], [1000000000000000000, 2000000000000000000], [12, 12]))"
      ],
      "transaction": {
        "type": "0x02",
        "from": "0xd20baeccd9f77faa9e2c2b185f33483d7911f9c8",
        "to": "0xcf62030bfd6c0c64b5569b7c76b03f97e9a31352",
        "gas": "0x1caae",
        "value": "0x0",
        "data": "0x83ea6c3f00000000000000000000000000000000000000000000000000000000000000200000000000000000000000000000000000000000000000000000000065c56a880000000000000000000000000000000000000000000000000000000000000040000000000000000000000000000000000000000000000000000000000000006000000000000000000000000000000000000000000000000000000000000000c000000000000000000000000000000000000000000000000000000000000001200000000000000000000000000000000000000000000000000000000000000002000000000000000000000000000000000000000000000000000000000001518000000000000000000000000000000000000000000000000000000000000afc8000000000000000000000000000000000000000000000000000000000000000020000000000000000000000000000000000000000000000000de0b6b3a76400000000000000000000000000000000000000000000000000001bc16d674ec800000000000000000000000000000000000000000000000000000000000000000002000000000000000000000000000000000000000000000000000000000000000c000000000000000000000000000000000000000000000000000000000000000c",
        "nonce": "0x4e",
        "accessList": []
      },
      "additionalContracts": [],
      "isFixedGasLimit": false
    }
  ],
  "receipts": [],
  "libraries": [],
  "pending": [
    "0x17767f3c800fe821f60fb2505746292d25dc3cdd0f029f64924e891e60379a28"
  ],
  "returns": {},
  "timestamp": 1707177510,
  "chain": 11155111,
  "multi": false,
  "commit": "be388e0"
}