{
  "transactions": [
    {
      "hash": "0x8cf7bef0419377baac9ee1522a4572078d90847c5cc4c918003c5ef4d5e264e2",
      "transactionType": "CALL",
      "contractName": null,
      "contractAddress": "0xcf62030BFd6c0c64B5569b7C76b03F97E9A31352",
      "function": "lendAsLimitOrder((uint256,(uint256[],uint256[],int256[])))",
      "arguments": [
        "(1709814108, ([86400, 720000], [1000000000000000000, 2000000000000000000], [12, 12]))"
      ],
      "transaction": {
        "type": "0x02",
        "from": "0xd20baeccd9f77faa9e2c2b185f33483d7911f9c8",
        "to": "0xcf62030bfd6c0c64b5569b7c76b03f97e9a31352",
        "gas": "0x1aab0",
        "value": "0x0",
        "data": "0x83ea6c3f00000000000000000000000000000000000000000000000000000000000000200000000000000000000000000000000000000000000000000000000065e9b15c0000000000000000000000000000000000000000000000000000000000000040000000000000000000000000000000000000000000000000000000000000006000000000000000000000000000000000000000000000000000000000000000c000000000000000000000000000000000000000000000000000000000000001200000000000000000000000000000000000000000000000000000000000000002000000000000000000000000000000000000000000000000000000000001518000000000000000000000000000000000000000000000000000000000000afc8000000000000000000000000000000000000000000000000000000000000000020000000000000000000000000000000000000000000000000de0b6b3a76400000000000000000000000000000000000000000000000000001bc16d674ec800000000000000000000000000000000000000000000000000000000000000000002000000000000000000000000000000000000000000000000000000000000000c000000000000000000000000000000000000000000000000000000000000000c",
        "nonce": "0x51",
        "accessList": []
      },
      "additionalContracts": [],
      "isFixedGasLimit": false
    }
  ],
  "receipts": [
    {
      "transactionHash": "0x8cf7bef0419377baac9ee1522a4572078d90847c5cc4c918003c5ef4d5e264e2",
      "transactionIndex": "0x16",
      "blockHash": "0xe658caa18b217a701b93028e02a26702bf7e2fc09ee480123bd7767fe5740712",
      "blockNumber": "0x4fd621",
      "from": "0xD20baecCd9F77fAA9E2C2B185F33483D7911f9C8",
      "to": "0xcf62030BFd6c0c64B5569b7C76b03F97E9A31352",
      "cumulativeGasUsed": "0xdf54d",
      "gasUsed": "0x123c1",
      "contractAddress": null,
      "logs": [
        {
          "address": "0xcf62030BFd6c0c64B5569b7C76b03F97E9A31352",
          "topics": [
            "0x3b6874996459151f1c04500f7b7e26319353d737f30bea4c388be1a6fce94b0e"
          ],
          "data": "0x0000000000000000000000000000000000000000000000000000000065e9b15c0000000000000000000000000000000000000000000000000000000000000040000000000000000000000000000000000000000000000000000000000000006000000000000000000000000000000000000000000000000000000000000000c000000000000000000000000000000000000000000000000000000000000001200000000000000000000000000000000000000000000000000000000000000002000000000000000000000000000000000000000000000000000000000001518000000000000000000000000000000000000000000000000000000000000afc8000000000000000000000000000000000000000000000000000000000000000020000000000000000000000000000000000000000000000000de0b6b3a76400000000000000000000000000000000000000000000000000001bc16d674ec800000000000000000000000000000000000000000000000000000000000000000002000000000000000000000000000000000000000000000000000000000000000c000000000000000000000000000000000000000000000000000000000000000c",
          "blockHash": "0xe658caa18b217a701b93028e02a26702bf7e2fc09ee480123bd7767fe5740712",
          "blockNumber": "0x4fd621",
          "transactionHash": "0x8cf7bef0419377baac9ee1522a4572078d90847c5cc4c918003c5ef4d5e264e2",
          "transactionIndex": "0x16",
          "logIndex": "0xa",
          "removed": false
        }
      ],
      "status": "0x1",
      "logsBloom": "0x00000000000000000000000000000000004000000000080000000000000000000000000020000000000000000000000000000000000080000000000000000000000000000000000000000000000000000000000000000000000000000000000000000000000000000000000000000000000000000000000000000000000000000000000000000000000000000000000000000000000000000000000000000000000000000000000000000000000000000000000000000000000000000000000000000000000000000000000000000000000000000000000000000000000000800000000000000000000000000000000000000000200000000000000000000000",
      "type": "0x2",
      "effectiveGasPrice": "0xd4a548609"
    }
  ],
  "libraries": [],
  "pending": [],
  "returns": {},
  "timestamp": 1707222147,
  "chain": 11155111,
  "multi": false,
  "commit": "be388e0"
}