{
  "transactions": [
    {
      "hash": "0xf2c617f8b7884a403242810dedb246d8b8c7c297d9009a0f74e0f7c927a64b07",
      "transactionType": "CALL",
      "contractName": null,
      "contractAddress": "0xcf62030BFd6c0c64B5569b7C76b03F97E9A31352",
      "function": "lendAsLimitOrder((uint256,(uint256[],uint256[],int256[])))",
      "arguments": [
        "(1709763540, ([36000, 72000], [1000000000000000000, 2000000000000000000], [12, 12]))"
      ],
      "transaction": {
        "type": "0x02",
        "from": "0x979af411d048b453e3334c95f392012b3bbd6215",
        "to": "0xcf62030bfd6c0c64b5569b7c76b03f97e9a31352",
        "gas": "0x5b583",
        "value": "0x0",
        "data": "0x83ea6c3f00000000000000000000000000000000000000000000000000000000000000200000000000000000000000000000000000000000000000000000000065e8ebd40000000000000000000000000000000000000000000000000000000000000040000000000000000000000000000000000000000000000000000000000000006000000000000000000000000000000000000000000000000000000000000000c0000000000000000000000000000000000000000000000000000000000000012000000000000000000000000000000000000000000000000000000000000000020000000000000000000000000000000000000000000000000000000000008ca0000000000000000000000000000000000000000000000000000000000001194000000000000000000000000000000000000000000000000000000000000000020000000000000000000000000000000000000000000000000de0b6b3a76400000000000000000000000000000000000000000000000000001bc16d674ec800000000000000000000000000000000000000000000000000000000000000000002000000000000000000000000000000000000000000000000000000000000000c000000000000000000000000000000000000000000000000000000000000000c",
        "nonce": "0x9",
        "accessList": []
      },
      "additionalContracts": [],
      "isFixedGasLimit": false
    }
  ],
  "receipts": [
    {
      "transactionHash": "0xf2c617f8b7884a403242810dedb246d8b8c7c297d9009a0f74e0f7c927a64b07",
      "transactionIndex": "0x8a",
      "blockHash": "0x4d708a9862f58c5cc840585f7160bee02d13862674e87077ef6ac50eb0957781",
      "blockNumber": "0x4fc5c4",
      "from": "0x979Af411D048b453E3334C95F392012B3BbD6215",
      "to": "0xcf62030BFd6c0c64B5569b7C76b03F97E9A31352",
      "cumulativeGasUsed": "0x10e2fa8",
      "gasUsed": "0x4221d",
      "contractAddress": null,
      "logs": [
        {
          "address": "0xcf62030BFd6c0c64B5569b7C76b03F97E9A31352",
          "topics": [
            "0x3b6874996459151f1c04500f7b7e26319353d737f30bea4c388be1a6fce94b0e"
          ],
          "data": "0x0000000000000000000000000000000000000000000000000000000065e8ebd40000000000000000000000000000000000000000000000000000000000000040000000000000000000000000000000000000000000000000000000000000006000000000000000000000000000000000000000000000000000000000000000c0000000000000000000000000000000000000000000000000000000000000012000000000000000000000000000000000000000000000000000000000000000020000000000000000000000000000000000000000000000000000000000008ca0000000000000000000000000000000000000000000000000000000000001194000000000000000000000000000000000000000000000000000000000000000020000000000000000000000000000000000000000000000000de0b6b3a76400000000000000000000000000000000000000000000000000001bc16d674ec800000000000000000000000000000000000000000000000000000000000000000002000000000000000000000000000000000000000000000000000000000000000c000000000000000000000000000000000000000000000000000000000000000c",
          "blockHash": "0x4d708a9862f58c5cc840585f7160bee02d13862674e87077ef6ac50eb0957781",
          "blockNumber": "0x4fc5c4",
          "transactionHash": "0xf2c617f8b7884a403242810dedb246d8b8c7c297d9009a0f74e0f7c927a64b07",
          "transactionIndex": "0x8a",
          "logIndex": "0x11a",
          "removed": false
        }
      ],
      "status": "0x1",
      "logsBloom": "0x00000000000000000000000000000000004000000000080000000000000000000000000020000000000000000000000000000000000080000000000000000000000000000000000000000000000000000000000000000000000000000000000000000000000000000000000000000000000000000000000000000000000000000000000000000000000000000000000000000000000000000000000000000000000000000000000000000000000000000000000000000000000000000000000000000000000000000000000000000000000000000000000000000000000000800000000000000000000000000000000000000000200000000000000000000000",
      "type": "0x2",
      "effectiveGasPrice": "0x15a4db209"
    }
  ],
  "libraries": [],
  "pending": [],
  "returns": {},
  "timestamp": 1707171582,
  "chain": 11155111,
  "multi": false,
  "commit": "f334166"
}