{
  "transactions": [
    {
      "hash": "0x8de8fde8d56672c082c49bc6ec9227f75d12aa0ed3f79f9533a46a2b294a2c18",
      "transactionType": "CALL",
      "contractName": null,
      "contractAddress": "0xcf62030BFd6c0c64B5569b7C76b03F97E9A31352",
      "function": "lendAsLimitOrder((uint256,(uint256[],uint256[],int256[])))",
      "arguments": [
        "(1707423012, ([36000, 72000], [1000000000000000000, 2000000000000000000], [12, 12]))"
      ],
      "transaction": {
        "type": "0x02",
        "from": "0xd20baeccd9f77faa9e2c2b185f33483d7911f9c8",
        "to": "0xcf62030bfd6c0c64b5569b7c76b03f97e9a31352",
        "gas": "0x192eb",
        "value": "0x0",
        "data": "0x83ea6c3f00000000000000000000000000000000000000000000000000000000000000200000000000000000000000000000000000000000000000000000000065c535240000000000000000000000000000000000000000000000000000000000000040000000000000000000000000000000000000000000000000000000000000006000000000000000000000000000000000000000000000000000000000000000c0000000000000000000000000000000000000000000000000000000000000012000000000000000000000000000000000000000000000000000000000000000020000000000000000000000000000000000000000000000000000000000008ca0000000000000000000000000000000000000000000000000000000000001194000000000000000000000000000000000000000000000000000000000000000020000000000000000000000000000000000000000000000000de0b6b3a76400000000000000000000000000000000000000000000000000001bc16d674ec800000000000000000000000000000000000000000000000000000000000000000002000000000000000000000000000000000000000000000000000000000000000c000000000000000000000000000000000000000000000000000000000000000c",
        "nonce": "0x4a",
        "accessList": []
      },
      "additionalContracts": [],
      "isFixedGasLimit": false
    }
  ],
  "receipts": [],
  "libraries": [],
  "pending": [
    "0x8de8fde8d56672c082c49bc6ec9227f75d12aa0ed3f79f9533a46a2b294a2c18"
  ],
  "returns": {},
  "timestamp": 1707163836,
  "chain": 11155111,
  "multi": false,
  "commit": "6b3a63e"
}