{
  "transactions": [
    {
      "hash": "0x47c5fecfb37cdf8108598413efdc8194bb55c03a84089af626604b93e715ab5e",
      "transactionType": "CALL",
      "contractName": null,
      "contractAddress": "0x833589fcd6edb6e08f4c7c32d4f71b54bda02913",
      "function": "approve(address,uint256)",
      "arguments": [
        "0xC2a429681CAd7C1ce36442fbf7A4a68B11eFF940",
        "1000000"
      ],
      "transaction": {
        "from": "0xa5040d66a8e609fce17d115f4726a2311331bb21",
        "to": "0x833589fcd6edb6e08f4c7c32d4f71b54bda02913",
        "gas": "0x12b1b",
        "value": "0x0",
        "input": "0x095ea7b3000000000000000000000000c2a429681cad7c1ce36442fbf7a4a68b11eff94000000000000000000000000000000000000000000000000000000000000f4240",
        "nonce": "0x13d",
        "chainId": "0x2105"
      },
      "additionalContracts": [],
      "isFixedGasLimit": false
    },
    {
      "hash": "0x24814d34b525b816f870c7046ddef4dae6b85971a908ca83a82dd4ff4e654eeb",
      "transactionType": "CALL",
      "contractName": null,
      "contractAddress": "0x833589fcd6edb6e08f4c7c32d4f71b54bda02913",
      "function": "approve(address,uint256)",
      "arguments": [
        "0xB21Bbe052F5cE9ae681c59725f0A313765Fd016c",
        "1000000"
      ],
      "transaction": {
        "from": "0xa5040d66a8e609fce17d115f4726a2311331bb21",
        "to": "0x833589fcd6edb6e08f4c7c32d4f71b54bda02913",
        "gas": "0x12b1b",
        "value": "0x0",
        "input": "0x095ea7b3000000000000000000000000b21bbe052f5ce9ae681c59725f0a313765fd016c00000000000000000000000000000000000000000000000000000000000f4240",
        "nonce": "0x13e",
        "chainId": "0x2105"
      },
      "additionalContracts": [],
      "isFixedGasLimit": false
    },
    {
      "hash": "0x4715884c10c0cdf49916df739abeccba0a055f0a00667ff08e0cd94817cc700d",
      "transactionType": "CALL",
      "contractName": null,
      "contractAddress": "0x833589fcd6edb6e08f4c7c32d4f71b54bda02913",
      "function": "approve(address,uint256)",
      "arguments": [
        "0x0728522FBe416B9dBB0c12E9e84870AA8E17Ad11",
        "1000000"
      ],
      "transaction": {
        "from": "0xa5040d66a8e609fce17d115f4726a2311331bb21",
        "to": "0x833589fcd6edb6e08f4c7c32d4f71b54bda02913",
        "gas": "0x12b1b",
        "value": "0x0",
        "input": "0x095ea7b30000000000000000000000000728522fbe416b9dbb0c12e9e84870aa8e17ad1100000000000000000000000000000000000000000000000000000000000f4240",
        "nonce": "0x13f",
        "chainId": "0x2105"
      },
      "additionalContracts": [],
      "isFixedGasLimit": false
    },
    {
      "hash": "0x86ca41351d78e8ff316a9d47c977ec26afb625bf168f07aef92347a7ce3db778",
      "transactionType": "CALL",
      "contractName": null,
      "contractAddress": "0x833589fcd6edb6e08f4c7c32d4f71b54bda02913",
      "function": "approve(address,uint256)",
      "arguments": [
        "0x2a7168C467f97A4C56958b0DDE1144E450a60a36",
        "1000000"
      ],
      "transaction": {
        "from": "0xa5040d66a8e609fce17d115f4726a2311331bb21",
        "to": "0x833589fcd6edb6e08f4c7c32d4f71b54bda02913",
        "gas": "0x12b1b",
        "value": "0x0",
        "input": "0x095ea7b30000000000000000000000002a7168c467f97a4c56958b0dde1144e450a60a3600000000000000000000000000000000000000000000000000000000000f4240",
        "nonce": "0x140",
        "chainId": "0x2105"
      },
      "additionalContracts": [],
      "isFixedGasLimit": false
    },
    {
      "hash": "0x295e15330e2d0b4bb5e82d4fedfe21944f1e119355c5c4ed677f93f65df9b0c0",
      "transactionType": "CALL",
      "contractName": null,
      "contractAddress": "0x833589fcd6edb6e08f4c7c32d4f71b54bda02913",
      "function": "approve(address,uint256)",
      "arguments": [
        "0xe69669F93E77f2245f4a35D804BC3c91F43E0E15",
        "1000000"
      ],
      "transaction": {
        "from": "0xa5040d66a8e609fce17d115f4726a2311331bb21",
        "to": "0x833589fcd6edb6e08f4c7c32d4f71b54bda02913",
        "gas": "0x12b1b",
        "value": "0x0",
        "input": "0x095ea7b3000000000000000000000000e69669f93e77f2245f4a35d804bc3c91f43e0e1500000000000000000000000000000000000000000000000000000000000f4240",
        "nonce": "0x141",
        "chainId": "0x2105"
      },
      "additionalContracts": [],
      "isFixedGasLimit": false
    },
    {
      "hash": "0xc8b2f9984ab39210896f7d358a0be153cae43534a75e1eb274cdd149834011a1",
      "transactionType": "CALL",
      "contractName": "ERC1967Proxy",
      "contractAddress": "0x330dc31db45672c1f565cf3ec91f9a01f8f3df0b",
      "function": null,
      "arguments": null,
      "transaction": {
        "from": "0xa5040d66a8e609fce17d115f4726a2311331bb21",
        "to": "0x330dc31db45672c1f565cf3ec91f9a01f8f3df0b",
        "gas": "0x16f39b",
        "value": "0x0",
        "input": "0xac9650d80000000000000000000000000000000000000000000000000000000000000020000000000000000000000000000000000000000000000000000000000000000700000000000000000000000000000000000000000000000000000000000000e0000000000000000000000000000000000000000000000000000000000000016000000000000000000000000000000000000000000000000000000000000002a000000000000000000000000000000000000000000000000000000000000003e00000000000000000000000000000000000000000000000000000000000000520000000000000000000000000000000000000000000000000000000000000066000000000000000000000000000000000000000000000000000000000000007a0000000000000000000000000000000000000000000000000000000000000004491c769ce000000000000000000000000330dc31db45672c1f565cf3ec91f9a01f8f3df0b00000000000000000000000000000000000000000000000000000000000000010000000000000000000000000000000000000000000000000000000000000000000000000000000000000000000000000000000000000000000001045ec49544000000000000000000000000c2a429681cad7c1ce36442fbf7a4a68b11eff94000000000000000000000000000000000000000000000000000000000000000400000000000000000000000000000000000000000000000000000000000000084fa823af5000000000000000000000000833589fcd6edb6e08f4c7c32d4f71b54bda0291300000000000000000000000000000000000000000000000000000000000f4240000000000000000000000000c2a429681cad7c1ce36442fbf7a4a68b11eff940000000000000000000000000a5040d66a8e609fce17d115f4726a2311331bb21000000000000000000000000000000000000000000000000000000000000000000000000000000000000000000000000000000000000000000000000000000000000000000000000000000000000000000000000000001045ec49544000000000000000000000000b21bbe052f5ce9ae681c59725f0a313765fd016c00000000000000000000000000000000000000000000000000000000000000400000000000000000000000000000000000000000000000000000000000000084fa823af5000000000000000000000000833589fcd6edb6e08f4c7c32d4f71b54bda0291300000000000000000000000000000000000000000000000000000000000f4240000000000000000000000000b21bbe052f5ce9ae681c59725f0a313765fd016c000000000000000000000000a5040d66a8e609fce17d115f4726a2311331bb21000000000000000000000000000000000000000000000000000000000000000000000000000000000000000000000000000000000000000000000000000000000000000000000000000000000000000000000000000001045ec495440000000000000000000000000728522fbe416b9dbb0c12e9e84870aa8e17ad1100000000000000000000000000000000000000000000000000000000000000400000000000000000000000000000000000000000000000000000000000000084fa823af5000000000000000000000000833589fcd6edb6e08f4c7c32d4f71b54bda0291300000000000000000000000000000000000000000000000000000000000f42400000000000000000000000000728522fbe416b9dbb0c12e9e84870aa8e17ad11000000000000000000000000a5040d66a8e609fce17d115f4726a2311331bb21000000000000000000000000000000000000000000000000000000000000000000000000000000000000000000000000000000000000000000000000000000000000000000000000000000000000000000000000000001045ec495440000000000000000000000002a7168c467f97a4c56958b0dde1144e450a60a3600000000000000000000000000000000000000000000000000000000000000400000000000000000000000000000000000000000000000000000000000000084fa823af5000000000000000000000000833589fcd6edb6e08f4c7c32d4f71b54bda0291300000000000000000000000000000000000000000000000000000000000f42400000000000000000000000002a7168c467f97a4c56958b0dde1144e450a60a36000000000000000000000000a5040d66a8e609fce17d115f4726a2311331bb21000000000000000000000000000000000000000000000000000000000000000000000000000000000000000000000000000000000000000000000000000000000000000000000000000000000000000000000000000001045ec49544000000000000000000000000e69669f93e77f2245f4a35d804bc3c91f43e0e1500000000000000000000000000000000000000000000000000000000000000400000000000000000000000000000000000000000000000000000000000000084fa823af5000000000000000000000000833589fcd6edb6e08f4c7c32d4f71b54bda0291300000000000000000000000000000000000000000000000000000000000f4240000000000000000000000000e69669f93e77f2245f4a35d804bc3c91f43e0e15000000000000000000000000a5040d66a8e609fce17d115f4726a2311331bb210000000000000000000000000000000000000000000000000000000000000000000000000000000000000000000000000000000000000000000000000000000000000000000000000000000000000000000000000000004491c769ce000000000000000000000000330dc31db45672c1f565cf3ec91f9a01f8f3df0b000000000000000000000000000000000000000000000000000000000000000000000000000000000000000000000000000000000000000000000000",
        "nonce": "0x142",
        "chainId": "0x2105"
      },
      "additionalContracts": [],
      "isFixedGasLimit": false
    }
  ],
  "receipts": [
    {
      "status": "0x1",
      "cumulativeGasUsed": "0x181540c",
      "logs": [
        {
          "address": "0x833589fcd6edb6e08f4c7c32d4f71b54bda02913",
          "topics": [
            "0x8c5be1e5ebec7d5bd14f71427d1e84f3dd0314c0f7b2291e5b200ac8c7c3b925",
            "0x000000000000000000000000a5040d66a8e609fce17d115f4726a2311331bb21",
            "0x000000000000000000000000c2a429681cad7c1ce36442fbf7a4a68b11eff940"
          ],
          "data": "0x00000000000000000000000000000000000000000000000000000000000f4240",
          "blockHash": "0x7b8848a7303a8b3fd6e37b7b94959f0e9b2ffe2c07bbd13ef237e8eed1aa09e9",
          "blockNumber": "0x2375e6e",
          "blockTimestamp": "0x68f919bf",
          "transactionHash": "0x47c5fecfb37cdf8108598413efdc8194bb55c03a84089af626604b93e715ab5e",
          "transactionIndex": "0xc0",
          "logIndex": "0x18a",
          "removed": false
        }
      ],
      "logsBloom": "0x00100000000000000000000000004000000000000000000000000000000000000000200000000000000000000000100000000000000000000000000000200000000000000000000000000000000000000000000000080000000000000000000000800000000000000000000000000000000000000000000000000000000000000000000000000000000000000000000000000000000000000000000000000000020000000000000000000000000000000000000000000000000000000000000000000040000000000000000080000080000000000000000000000000000000000010000000000000000000000000000000000000000000000000000000000000",
      "type": "0x2",
      "transactionHash": "0x47c5fecfb37cdf8108598413efdc8194bb55c03a84089af626604b93e715ab5e",
      "transactionIndex": "0xc0",
      "blockHash": "0x7b8848a7303a8b3fd6e37b7b94959f0e9b2ffe2c07bbd13ef237e8eed1aa09e9",
      "blockNumber": "0x2375e6e",
      "gasUsed": "0xd88d",
      "effectiveGasPrice": "0x707cb8",
      "from": "0xa5040d66a8e609fce17d115f4726a2311331bb21",
      "to": "0x833589fcd6edb6e08f4c7c32d4f71b54bda02913",
      "contractAddress": null,
      "l1BaseFeeScalar": "0x8dd",
      "l1BlobBaseFee": "0x1",
      "l1BlobBaseFeeScalar": "0x101c12",
      "l1Fee": "0x53fc6309",
      "l1GasPrice": "0xc90ccbe",
      "l1GasUsed": "0x640"
    },
    {
      "status": "0x1",
      "cumulativeGasUsed": "0x3f1fb60",
      "logs": [
        {
          "address": "0x833589fcd6edb6e08f4c7c32d4f71b54bda02913",
          "topics": [
            "0x8c5be1e5ebec7d5bd14f71427d1e84f3dd0314c0f7b2291e5b200ac8c7c3b925",
            "0x000000000000000000000000a5040d66a8e609fce17d115f4726a2311331bb21",
            "0x000000000000000000000000b21bbe052f5ce9ae681c59725f0a313765fd016c"
          ],
          "data": "0x00000000000000000000000000000000000000000000000000000000000f4240",
          "blockHash": "0x862660489725d1d1a4c4a9d7b9e9bf12f2ea838bafbaccf5eb66a0bb85888a36",
          "blockNumber": "0x2375e6f",
          "blockTimestamp": "0x68f919c1",
          "transactionHash": "0x24814d34b525b816f870c7046ddef4dae6b85971a908ca83a82dd4ff4e654eeb",
          "transactionIndex": "0x128",
          "logIndex": "0x517",
          "removed": false
        }
      ],
      "logsBloom": "0x00000000004000000000000000004000000000000100000000000000000000000000200000000000000000000000100000000000000000000000000000200000000000000000000000000000000000000000000000080000000000000000000000800000000000000000000000000000000000000000000000000000000000000000000000000000000000000000000000001000000000000000000000000000020000000000000000000000000000000000000000000000000000000000000000000000000000000000000000000080000000000000000000000000000000000010000000000000000000000000000000000000000000000000000000000000",
      "type": "0x2",
      "transactionHash": "0x24814d34b525b816f870c7046ddef4dae6b85971a908ca83a82dd4ff4e654eeb",
      "transactionIndex": "0x128",
      "blockHash": "0x862660489725d1d1a4c4a9d7b9e9bf12f2ea838bafbaccf5eb66a0bb85888a36",
      "blockNumber": "0x2375e6f",
      "gasUsed": "0xd88d",
      "effectiveGasPrice": "0x6fbee5",
      "from": "0xa5040d66a8e609fce17d115f4726a2311331bb21",
      "to": "0x833589fcd6edb6e08f4c7c32d4f71b54bda02913",
      "contractAddress": null,
      "l1BaseFeeScalar": "0x8dd",
      "l1BlobBaseFee": "0x1",
      "l1BlobBaseFeeScalar": "0x101c12",
      "l1Fee": "0x3a098d6e",
      "l1GasPrice": "0xc90ccbe",
      "l1GasUsed": "0x640"
    },
    {
      "status": "0x1",
      "cumulativeGasUsed": "0x921d9c",
      "logs": [
        {
          "address": "0x833589fcd6edb6e08f4c7c32d4f71b54bda02913",
          "topics": [
            "0x8c5be1e5ebec7d5bd14f71427d1e84f3dd0314c0f7b2291e5b200ac8c7c3b925",
            "0x000000000000000000000000a5040d66a8e609fce17d115f4726a2311331bb21",
            "0x0000000000000000000000000728522fbe416b9dbb0c12e9e84870aa8e17ad11"
          ],
          "data": "0x00000000000000000000000000000000000000000000000000000000000f4240",
          "blockHash": "0x189badd429435003dba304e5bef67efb45e5234362c6809ba08a71e7862131ed",
          "blockNumber": "0x2375e71",
          "blockTimestamp": "0x68f919c5",
          "transactionHash": "0x4715884c10c0cdf49916df739abeccba0a055f0a00667ff08e0cd94817cc700d",
          "transactionIndex": "0x3b",
          "logIndex": "0xb7",
          "removed": false
        }
      ],
      "logsBloom": "0x00000000000000000000000000004000000000000000000000000000000000000000200000000000000000000000100000000000000000000000000000200000000000000000000000000000000000000000000000080000000000000000000000800000000000000000000000000000000000000000000000000000000000000010000000000000000000000000000000000000000000000000000000000040020000000000000000000000000000000000000000001000000000000000000000000000000000000000000000000080000000000000000000000000000000000010000000000000000000000000000000000000000000000000000000000000",
      "type": "0x2",
      "transactionHash": "0x4715884c10c0cdf49916df739abeccba0a055f0a00667ff08e0cd94817cc700d",
      "transactionIndex": "0x3b",
      "blockHash": "0x189badd429435003dba304e5bef67efb45e5234362c6809ba08a71e7862131ed",
      "blockNumber": "0x2375e71",
      "gasUsed": "0xd88d",
      "effectiveGasPrice": "0x705bb2",
      "from": "0xa5040d66a8e609fce17d115f4726a2311331bb21",
      "to": "0x833589fcd6edb6e08f4c7c32d4f71b54bda02913",
      "contractAddress": null,
      "l1BaseFeeScalar": "0x8dd",
      "l1BlobBaseFee": "0x1",
      "l1BlobBaseFeeScalar": "0x101c12",
      "l1Fee": "0x2cdf2587",
      "l1GasPrice": "0xc5c2772",
      "l1GasUsed": "0x640"
    },
    {
      "status": "0x1",
      "cumulativeGasUsed": "0x31f905a",
      "logs": [
        {
          "address": "0x833589fcd6edb6e08f4c7c32d4f71b54bda02913",
          "topics": [
            "0x8c5be1e5ebec7d5bd14f71427d1e84f3dd0314c0f7b2291e5b200ac8c7c3b925",
            "0x000000000000000000000000a5040d66a8e609fce17d115f4726a2311331bb21",
            "0x0000000000000000000000002a7168c467f97a4c56958b0dde1144e450a60a36"
          ],
          "data": "0x00000000000000000000000000000000000000000000000000000000000f4240",
          "blockHash": "0xb658e3d20564b2dc038906a9b4c52138b69153416d177da6cbeac36a4ac42902",
          "blockNumber": "0x2375e72",
          "blockTimestamp": "0x68f919c7",
          "transactionHash": "0x86ca41351d78e8ff316a9d47c977ec26afb625bf168f07aef92347a7ce3db778",
          "transactionIndex": "0x129",
          "logIndex": "0x4a7",
          "removed": false
        }
      ],
      "logsBloom": "0x00000000000000000000000000004000000000000000000000000000000000000000200000000000000000000000100000000000000000000000000000200000000000000000000000000000000000000000000000080000000000000000000000800020000000000000000000000000000000000000000000000000000000000000000000000000000040000000000000000000000000000000000000000200020000000000000000000000000000000000000000000000000000000000000000000000000000000000000000000080000000000000000000000000000000000010000000000000000000000000000000000000000000000000000000000000",
      "type": "0x2",
      "transactionHash": "0x86ca41351d78e8ff316a9d47c977ec26afb625bf168f07aef92347a7ce3db778",
      "transactionIndex": "0x129",
      "blockHash": "0xb658e3d20564b2dc038906a9b4c52138b69153416d177da6cbeac36a4ac42902",
      "blockNumber": "0x2375e72",
      "gasUsed": "0xd88d",
      "effectiveGasPrice": "0x707d37",
      "from": "0xa5040d66a8e609fce17d115f4726a2311331bb21",
      "to": "0x833589fcd6edb6e08f4c7c32d4f71b54bda02913",
      "contractAddress": null,
      "l1BaseFeeScalar": "0x8dd",
      "l1BlobBaseFee": "0x1",
      "l1BlobBaseFeeScalar": "0x101c12",
      "l1Fee": "0x2cdf2587",
      "l1GasPrice": "0xc5c2772",
      "l1GasUsed": "0x640"
    },
    {
      "status": "0x1",
      "cumulativeGasUsed": "0x727dfd",
      "logs": [
        {
          "address": "0x833589fcd6edb6e08f4c7c32d4f71b54bda02913",
          "topics": [
            "0x8c5be1e5ebec7d5bd14f71427d1e84f3dd0314c0f7b2291e5b200ac8c7c3b925",
            "0x000000000000000000000000a5040d66a8e609fce17d115f4726a2311331bb21",
            "0x000000000000000000000000e69669f93e77f2245f4a35d804bc3c91f43e0e15"
          ],
          "data": "0x00000000000000000000000000000000000000000000000000000000000f4240",
          "blockHash": "0xb16ef374ea43c4702d69b6f70ba800fe958cd6e41314ee0a4f3e9c82ddd2ff22",
          "blockNumber": "0x2375e74",
          "blockTimestamp": "0x68f919cb",
          "transactionHash": "0x295e15330e2d0b4bb5e82d4fedfe21944f1e119355c5c4ed677f93f65df9b0c0",
          "transactionIndex": "0x28",
          "logIndex": "0x6a",
          "removed": false
        }
      ],
      "logsBloom": "0x00000000000000000000000000004000000000000000000000000000008000000000200000000000000000000000100000000000000000000000000000200000000004000000000000000000000000000000000000080000000000000000000000800000000000000000000000000000000000000000000000000000000000000000000000000000000000000000000000000000000000000000000000000000020000000000080000000000000000000000000000000000000000000000000000000000000000000000000000000080000000000000000000000000000000000010000000000000000000000000000000000000000000000000000000000000",
      "type": "0x2",
      "transactionHash": "0x295e15330e2d0b4bb5e82d4fedfe21944f1e119355c5c4ed677f93f65df9b0c0",
      "transactionIndex": "0x28",
      "blockHash": "0xb16ef374ea43c4702d69b6f70ba800fe958cd6e41314ee0a4f3e9c82ddd2ff22",
      "blockNumber": "0x2375e74",
      "gasUsed": "0xd88d",
      "effectiveGasPrice": "0x710751",
      "from": "0xa5040d66a8e609fce17d115f4726a2311331bb21",
      "to": "0x833589fcd6edb6e08f4c7c32d4f71b54bda02913",
      "contractAddress": null,
      "l1BaseFeeScalar": "0x8dd",
      "l1BlobBaseFee": "0x1",
      "l1BlobBaseFeeScalar": "0x101c12",
      "l1Fee": "0x4b1ab70a",
      "l1GasPrice": "0xc5c2772",
      "l1GasUsed": "0x640"
    },
    {
      "status": "0x1",
      "cumulativeGasUsed": "0x30f9be5",
      "logs": [
        {
          "address": "0x330dc31db45672c1f565cf3ec91f9a01f8f3df0b",
          "topics": [
            "0x89733de2d64cea40de091169750607b26e8d46142312fba65fb6476c790bad49",
            "0x000000000000000000000000a5040d66a8e609fce17d115f4726a2311331bb21",
            "0x000000000000000000000000330dc31db45672c1f565cf3ec91f9a01f8f3df0b",
            "0x0000000000000000000000000000000000000000000000000000000000000001"
          ],
          "data": "0x0000000000000000000000000000000000000000000000000000000000000000",
          "blockHash": "0x8c52fd434a0e722b23dccd381db2af99063a2313e66ef5c84d9aa21ab87b83a5",
          "blockNumber": "0x2375e75",
          "blockTimestamp": "0x68f919cd",
          "transactionHash": "0xc8b2f9984ab39210896f7d358a0be153cae43534a75e1eb274cdd149834011a1",
          "transactionIndex": "0x10a",
          "logIndex": "0x34c",
          "removed": false
        },
        {
          "address": "0x833589fcd6edb6e08f4c7c32d4f71b54bda02913",
          "topics": [
            "0xddf252ad1be2c89b69c2b068fc378daa952ba7f163c4a11628f55a4df523b3ef",
            "0x000000000000000000000000a5040d66a8e609fce17d115f4726a2311331bb21",
            "0x000000000000000000000000c2a429681cad7c1ce36442fbf7a4a68b11eff940"
          ],
          "data": "0x00000000000000000000000000000000000000000000000000000000000f4240",
          "blockHash": "0x8c52fd434a0e722b23dccd381db2af99063a2313e66ef5c84d9aa21ab87b83a5",
          "blockNumber": "0x2375e75",
          "blockTimestamp": "0x68f919cd",
          "transactionHash": "0xc8b2f9984ab39210896f7d358a0be153cae43534a75e1eb274cdd149834011a1",
          "transactionIndex": "0x10a",
          "logIndex": "0x34d",
          "removed": false
        },
        {
          "address": "0x833589fcd6edb6e08f4c7c32d4f71b54bda02913",
          "topics": [
            "0x8c5be1e5ebec7d5bd14f71427d1e84f3dd0314c0f7b2291e5b200ac8c7c3b925",
            "0x000000000000000000000000c2a429681cad7c1ce36442fbf7a4a68b11eff940",
            "0x0000000000000000000000000447430c327cce6c0c43ec0eb0271fecdad471b2"
          ],
          "data": "0x00000000000000000000000000000000000000000000000000000000000f4240",
          "blockHash": "0x8c52fd434a0e722b23dccd381db2af99063a2313e66ef5c84d9aa21ab87b83a5",
          "blockNumber": "0x2375e75",
          "blockTimestamp": "0x68f919cd",
          "transactionHash": "0xc8b2f9984ab39210896f7d358a0be153cae43534a75e1eb274cdd149834011a1",
          "transactionIndex": "0x10a",
          "logIndex": "0x34e",
          "removed": false
        },
        {
          "address": "0x833589fcd6edb6e08f4c7c32d4f71b54bda02913",
          "topics": [
            "0xddf252ad1be2c89b69c2b068fc378daa952ba7f163c4a11628f55a4df523b3ef",
            "0x000000000000000000000000c2a429681cad7c1ce36442fbf7a4a68b11eff940",
            "0x000000000000000000000000e8bea9cc0e9e23bf72ca67835f6216e394d3d7be"
          ],
          "data": "0x00000000000000000000000000000000000000000000000000000000000f4240",
          "blockHash": "0x8c52fd434a0e722b23dccd381db2af99063a2313e66ef5c84d9aa21ab87b83a5",
          "blockNumber": "0x2375e75",
          "blockTimestamp": "0x68f919cd",
          "transactionHash": "0xc8b2f9984ab39210896f7d358a0be153cae43534a75e1eb274cdd149834011a1",
          "transactionIndex": "0x10a",
          "logIndex": "0x34f",
          "removed": false
        },
        {
          "address": "0x833589fcd6edb6e08f4c7c32d4f71b54bda02913",
          "topics": [
            "0x8c5be1e5ebec7d5bd14f71427d1e84f3dd0314c0f7b2291e5b200ac8c7c3b925",
            "0x000000000000000000000000e8bea9cc0e9e23bf72ca67835f6216e394d3d7be",
            "0x000000000000000000000000a238dd80c259a72e81d7e4664a9801593f98d1c5"
          ],
          "data": "0x00000000000000000000000000000000000000000000000000000000000f4240",
          "blockHash": "0x8c52fd434a0e722b23dccd381db2af99063a2313e66ef5c84d9aa21ab87b83a5",
          "blockNumber": "0x2375e75",
          "blockTimestamp": "0x68f919cd",
          "transactionHash": "0xc8b2f9984ab39210896f7d358a0be153cae43534a75e1eb274cdd149834011a1",
          "transactionIndex": "0x10a",
          "logIndex": "0x350",
          "removed": false
        },
        {
          "address": "0xa238dd80c259a72e81d7e4664a9801593f98d1c5",
          "topics": [
            "0x804c9b842b2748a22bb64b345453a3de7ca54a6ca45ce00d415894979e22897a",
            "0x000000000000000000000000833589fcd6edb6e08f4c7c32d4f71b54bda02913"
          ],
          "data": "0x00000000000000000000000000000000000000000027c83931598f76edd0c9bb00000000000000000000000000000000000000000000000000000000000000000000000000000000000000000000000000000000003a2509659b4d1c7c8eff640000000000000000000000000000000000000000039767e67bdcf761895b6110000000000000000000000000000000000000000003b936bbcb987940375d1ca0",
          "blockHash": "0x8c52fd434a0e722b23dccd381db2af99063a2313e66ef5c84d9aa21ab87b83a5",
          "blockNumber": "0x2375e75",
          "blockTimestamp": "0x68f919cd",
          "transactionHash": "0xc8b2f9984ab39210896f7d358a0be153cae43534a75e1eb274cdd149834011a1",
          "transactionIndex": "0x10a",
          "logIndex": "0x351",
          "removed": false
        },
        {
          "address": "0x833589fcd6edb6e08f4c7c32d4f71b54bda02913",
          "topics": [
            "0xddf252ad1be2c89b69c2b068fc378daa952ba7f163c4a11628f55a4df523b3ef",
            "0x000000000000000000000000e8bea9cc0e9e23bf72ca67835f6216e394d3d7be",
            "0x0000000000000000000000004e65fe4dba92790696d040ac24aa414708f5c0ab"
          ],
          "data": "0x00000000000000000000000000000000000000000000000000000000000f4240",
          "blockHash": "0x8c52fd434a0e722b23dccd381db2af99063a2313e66ef5c84d9aa21ab87b83a5",
          "blockNumber": "0x2375e75",
          "blockTimestamp": "0x68f919cd",
          "transactionHash": "0xc8b2f9984ab39210896f7d358a0be153cae43534a75e1eb274cdd149834011a1",
          "transactionIndex": "0x10a",
          "logIndex": "0x352",
          "removed": false
        },
        {
          "address": "0x4e65fe4dba92790696d040ac24aa414708f5c0ab",
          "topics": [
            "0xddf252ad1be2c89b69c2b068fc378daa952ba7f163c4a11628f55a4df523b3ef",
            "0x0000000000000000000000000000000000000000000000000000000000000000",
            "0x0000000000000000000000000447430c327cce6c0c43ec0eb0271fecdad471b2"
          ],
          "data": "0x00000000000000000000000000000000000000000000000000000000014074ec",
          "blockHash": "0x8c52fd434a0e722b23dccd381db2af99063a2313e66ef5c84d9aa21ab87b83a5",
          "blockNumber": "0x2375e75",
          "blockTimestamp": "0x68f919cd",
          "transactionHash": "0xc8b2f9984ab39210896f7d358a0be153cae43534a75e1eb274cdd149834011a1",
          "transactionIndex": "0x10a",
          "logIndex": "0x353",
          "removed": false
        },
        {
          "address": "0x4e65fe4dba92790696d040ac24aa414708f5c0ab",
          "topics": [
            "0x458f5fa412d0f69b08dd84872b0215675cc67bc1d5b6fd93300a1c3878b86196",
            "0x000000000000000000000000e8bea9cc0e9e23bf72ca67835f6216e394d3d7be",
            "0x0000000000000000000000000447430c327cce6c0c43ec0eb0271fecdad471b2"
          ],
          "data": "0x00000000000000000000000000000000000000000000000000000000014074ec00000000000000000000000000000000000000000000000000000000013132ac0000000000000000000000000000000000000000039767e67bdcf761895b6110",
          "blockHash": "0x8c52fd434a0e722b23dccd381db2af99063a2313e66ef5c84d9aa21ab87b83a5",
          "blockNumber": "0x2375e75",
          "blockTimestamp": "0x68f919cd",
          "transactionHash": "0xc8b2f9984ab39210896f7d358a0be153cae43534a75e1eb274cdd149834011a1",
          "transactionIndex": "0x10a",
          "logIndex": "0x354",
          "removed": false
        },
        {
          "address": "0xa238dd80c259a72e81d7e4664a9801593f98d1c5",
          "topics": [
            "0x2b627736bca15cd5381dcf80b0bf11fd197d01a037c52b927a881a10fb73ba61",
            "0x000000000000000000000000833589fcd6edb6e08f4c7c32d4f71b54bda02913",
            "0x0000000000000000000000000447430c327cce6c0c43ec0eb0271fecdad471b2",
            "0x0000000000000000000000000000000000000000000000000000000000000000"
          ],
          "data": "0x000000000000000000000000e8bea9cc0e9e23bf72ca67835f6216e394d3d7be00000000000000000000000000000000000000000000000000000000000f4240",
          "blockHash": "0x8c52fd434a0e722b23dccd381db2af99063a2313e66ef5c84d9aa21ab87b83a5",
          "blockNumber": "0x2375e75",
          "blockTimestamp": "0x68f919cd",
          "transactionHash": "0xc8b2f9984ab39210896f7d358a0be153cae43534a75e1eb274cdd149834011a1",
          "transactionIndex": "0x10a",
          "logIndex": "0x355",
          "removed": false
        },
        {
          "address": "0x0447430c327cce6c0c43ec0eb0271fecdad471b2",
          "topics": [
            "0xe5e5bf3572f08fca3d223c6d9b4f98131f95a3cfdc202f467747954b830330d1",
            "0x000000000000000000000000c2a429681cad7c1ce36442fbf7a4a68b11eff940",
            "0x00000000000000000000000000000000000000000000000000000000008b6ffe",
            "0x0000000000000000000000000000000000000000000000000000000000992a68"
          ],
          "data": "0x",
          "blockHash": "0x8c52fd434a0e722b23dccd381db2af99063a2313e66ef5c84d9aa21ab87b83a5",
          "blockNumber": "0x2375e75",
          "blockTimestamp": "0x68f919cd",
          "transactionHash": "0xc8b2f9984ab39210896f7d358a0be153cae43534a75e1eb274cdd149834011a1",
          "transactionIndex": "0x10a",
          "logIndex": "0x356",
          "removed": false
        },
        {
          "address": "0x0447430c327cce6c0c43ec0eb0271fecdad471b2",
          "topics": [
            "0xddf252ad1be2c89b69c2b068fc378daa952ba7f163c4a11628f55a4df523b3ef",
            "0x0000000000000000000000000000000000000000000000000000000000000000",
            "0x000000000000000000000000c2a429681cad7c1ce36442fbf7a4a68b11eff940"
          ],
          "data": "0x00000000000000000000000000000000000000000000000000000000000f423f",
          "blockHash": "0x8c52fd434a0e722b23dccd381db2af99063a2313e66ef5c84d9aa21ab87b83a5",
          "blockNumber": "0x2375e75",
          "blockTimestamp": "0x68f919cd",
          "transactionHash": "0xc8b2f9984ab39210896f7d358a0be153cae43534a75e1eb274cdd149834011a1",
          "transactionIndex": "0x10a",
          "logIndex": "0x357",
          "removed": false
        },
        {
          "address": "0xc2a429681cad7c1ce36442fbf7a4a68b11eff940",
          "topics": [
            "0xa856e8f098813135735b4d4f52d96083d1dbb35fd5603ff424661413f59c2810",
            "0x000000000000000000000000330dc31db45672c1f565cf3ec91f9a01f8f3df0b",
            "0x000000000000000000000000a5040d66a8e609fce17d115f4726a2311331bb21",
            "0x000000000000000000000000833589fcd6edb6e08f4c7c32d4f71b54bda02913"
          ],
          "data": "0x000000000000000000000000c2a429681cad7c1ce36442fbf7a4a68b11eff94000000000000000000000000000000000000000000000000000000000000f423f",
          "blockHash": "0x8c52fd434a0e722b23dccd381db2af99063a2313e66ef5c84d9aa21ab87b83a5",
          "blockNumber": "0x2375e75",
          "blockTimestamp": "0x68f919cd",
          "transactionHash": "0xc8b2f9984ab39210896f7d358a0be153cae43534a75e1eb274cdd149834011a1",
          "transactionIndex": "0x10a",
          "logIndex": "0x358",
          "removed": false
        },
        {
          "address": "0x833589fcd6edb6e08f4c7c32d4f71b54bda02913",
          "topics": [
            "0xddf252ad1be2c89b69c2b068fc378daa952ba7f163c4a11628f55a4df523b3ef",
            "0x000000000000000000000000a5040d66a8e609fce17d115f4726a2311331bb21",
            "0x000000000000000000000000b21bbe052f5ce9ae681c59725f0a313765fd016c"
          ],
          "data": "0x00000000000000000000000000000000000000000000000000000000000f4240",
          "blockHash": "0x8c52fd434a0e722b23dccd381db2af99063a2313e66ef5c84d9aa21ab87b83a5",
          "blockNumber": "0x2375e75",
          "blockTimestamp": "0x68f919cd",
          "transactionHash": "0xc8b2f9984ab39210896f7d358a0be153cae43534a75e1eb274cdd149834011a1",
          "transactionIndex": "0x10a",
          "logIndex": "0x359",
          "removed": false
        },
        {
          "address": "0x833589fcd6edb6e08f4c7c32d4f71b54bda02913",
          "topics": [
            "0x8c5be1e5ebec7d5bd14f71427d1e84f3dd0314c0f7b2291e5b200ac8c7c3b925",
            "0x000000000000000000000000b21bbe052f5ce9ae681c59725f0a313765fd016c",
            "0x0000000000000000000000000447430c327cce6c0c43ec0eb0271fecdad471b2"
          ],
          "data": "0x00000000000000000000000000000000000000000000000000000000000f4240",
          "blockHash": "0x8c52fd434a0e722b23dccd381db2af99063a2313e66ef5c84d9aa21ab87b83a5",
          "blockNumber": "0x2375e75",
          "blockTimestamp": "0x68f919cd",
          "transactionHash": "0xc8b2f9984ab39210896f7d358a0be153cae43534a75e1eb274cdd149834011a1",
          "transactionIndex": "0x10a",
          "logIndex": "0x35a",
          "removed": false
        },
        {
          "address": "0x833589fcd6edb6e08f4c7c32d4f71b54bda02913",
          "topics": [
            "0xddf252ad1be2c89b69c2b068fc378daa952ba7f163c4a11628f55a4df523b3ef",
            "0x000000000000000000000000b21bbe052f5ce9ae681c59725f0a313765fd016c",
            "0x000000000000000000000000e8bea9cc0e9e23bf72ca67835f6216e394d3d7be"
          ],
          "data": "0x00000000000000000000000000000000000000000000000000000000000f4240",
          "blockHash": "0x8c52fd434a0e722b23dccd381db2af99063a2313e66ef5c84d9aa21ab87b83a5",
          "blockNumber": "0x2375e75",
          "blockTimestamp": "0x68f919cd",
          "transactionHash": "0xc8b2f9984ab39210896f7d358a0be153cae43534a75e1eb274cdd149834011a1",
          "transactionIndex": "0x10a",
          "logIndex": "0x35b",
          "removed": false
        },
        {
          "address": "0x833589fcd6edb6e08f4c7c32d4f71b54bda02913",
          "topics": [
            "0x8c5be1e5ebec7d5bd14f71427d1e84f3dd0314c0f7b2291e5b200ac8c7c3b925",
            "0x000000000000000000000000e8bea9cc0e9e23bf72ca67835f6216e394d3d7be",
            "0x000000000000000000000000a238dd80c259a72e81d7e4664a9801593f98d1c5"
          ],
          "data": "0x00000000000000000000000000000000000000000000000000000000000f4240",
          "blockHash": "0x8c52fd434a0e722b23dccd381db2af99063a2313e66ef5c84d9aa21ab87b83a5",
          "blockNumber": "0x2375e75",
          "blockTimestamp": "0x68f919cd",
          "transactionHash": "0xc8b2f9984ab39210896f7d358a0be153cae43534a75e1eb274cdd149834011a1",
          "transactionIndex": "0x10a",
          "logIndex": "0x35c",
          "removed": false
        },
        {
          "address": "0xa238dd80c259a72e81d7e4664a9801593f98d1c5",
          "topics": [
            "0x804c9b842b2748a22bb64b345453a3de7ca54a6ca45ce00d415894979e22897a",
            "0x000000000000000000000000833589fcd6edb6e08f4c7c32d4f71b54bda02913"
          ],
          "data": "0x00000000000000000000000000000000000000000027c8392e765012f63ad11c00000000000000000000000000000000000000000000000000000000000000000000000000000000000000000000000000000000003a250963cbe0649fdc8ca20000000000000000000000000000000000000000039767e67bdcf761895b6110000000000000000000000000000000000000000003b936bbcb987940375d1ca0",
          "blockHash": "0x8c52fd434a0e722b23dccd381db2af99063a2313e66ef5c84d9aa21ab87b83a5",
          "blockNumber": "0x2375e75",
          "blockTimestamp": "0x68f919cd",
          "transactionHash": "0xc8b2f9984ab39210896f7d358a0be153cae43534a75e1eb274cdd149834011a1",
          "transactionIndex": "0x10a",
          "logIndex": "0x35d",
          "removed": false
        },
        {
          "address": "0x833589fcd6edb6e08f4c7c32d4f71b54bda02913",
          "topics": [
            "0xddf252ad1be2c89b69c2b068fc378daa952ba7f163c4a11628f55a4df523b3ef",
            "0x000000000000000000000000e8bea9cc0e9e23bf72ca67835f6216e394d3d7be",
            "0x0000000000000000000000004e65fe4dba92790696d040ac24aa414708f5c0ab"
          ],
          "data": "0x00000000000000000000000000000000000000000000000000000000000f4240",
          "blockHash": "0x8c52fd434a0e722b23dccd381db2af99063a2313e66ef5c84d9aa21ab87b83a5",
          "blockNumber": "0x2375e75",
          "blockTimestamp": "0x68f919cd",
          "transactionHash": "0xc8b2f9984ab39210896f7d358a0be153cae43534a75e1eb274cdd149834011a1",
          "transactionIndex": "0x10a",
          "logIndex": "0x35e",
          "removed": false
        },
        {
          "address": "0x4e65fe4dba92790696d040ac24aa414708f5c0ab",
          "topics": [
            "0xddf252ad1be2c89b69c2b068fc378daa952ba7f163c4a11628f55a4df523b3ef",
            "0x0000000000000000000000000000000000000000000000000000000000000000",
            "0x0000000000000000000000000447430c327cce6c0c43ec0eb0271fecdad471b2"
          ],
          "data": "0x00000000000000000000000000000000000000000000000000000000000f4240",
          "blockHash": "0x8c52fd434a0e722b23dccd381db2af99063a2313e66ef5c84d9aa21ab87b83a5",
          "blockNumber": "0x2375e75",
          "blockTimestamp": "0x68f919cd",
          "transactionHash": "0xc8b2f9984ab39210896f7d358a0be153cae43534a75e1eb274cdd149834011a1",
          "transactionIndex": "0x10a",
          "logIndex": "0x35f",
          "removed": false
        },
        {
          "address": "0x4e65fe4dba92790696d040ac24aa414708f5c0ab",
          "topics": [
            "0x458f5fa412d0f69b08dd84872b0215675cc67bc1d5b6fd93300a1c3878b86196",
            "0x000000000000000000000000e8bea9cc0e9e23bf72ca67835f6216e394d3d7be",
            "0x0000000000000000000000000447430c327cce6c0c43ec0eb0271fecdad471b2"
          ],
          "data": "0x00000000000000000000000000000000000000000000000000000000000f424000000000000000000000000000000000000000000000000000000000000000000000000000000000000000000000000000000000039767e67bdcf761895b6110",
          "blockHash": "0x8c52fd434a0e722b23dccd381db2af99063a2313e66ef5c84d9aa21ab87b83a5",
          "blockNumber": "0x2375e75",
          "blockTimestamp": "0x68f919cd",
          "transactionHash": "0xc8b2f9984ab39210896f7d358a0be153cae43534a75e1eb274cdd149834011a1",
          "transactionIndex": "0x10a",
          "logIndex": "0x360",
          "removed": false
        },
        {
          "address": "0xa238dd80c259a72e81d7e4664a9801593f98d1c5",
          "topics": [
            "0x2b627736bca15cd5381dcf80b0bf11fd197d01a037c52b927a881a10fb73ba61",
            "0x000000000000000000000000833589fcd6edb6e08f4c7c32d4f71b54bda02913",
            "0x0000000000000000000000000447430c327cce6c0c43ec0eb0271fecdad471b2",
            "0x0000000000000000000000000000000000000000000000000000000000000000"
          ],
          "data": "0x000000000000000000000000e8bea9cc0e9e23bf72ca67835f6216e394d3d7be00000000000000000000000000000000000000000000000000000000000f4240",
          "blockHash": "0x8c52fd434a0e722b23dccd381db2af99063a2313e66ef5c84d9aa21ab87b83a5",
          "blockNumber": "0x2375e75",
          "blockTimestamp": "0x68f919cd",
          "transactionHash": "0xc8b2f9984ab39210896f7d358a0be153cae43534a75e1eb274cdd149834011a1",
          "transactionIndex": "0x10a",
          "logIndex": "0x361",
          "removed": false
        },
        {
          "address": "0x0447430c327cce6c0c43ec0eb0271fecdad471b2",
          "topics": [
            "0xe5e5bf3572f08fca3d223c6d9b4f98131f95a3cfdc202f467747954b830330d1",
            "0x000000000000000000000000b21bbe052f5ce9ae681c59725f0a313765fd016c",
            "0x000000000000000000000000000000000000000000000000000000000000001b",
            "0x00000000000000000000000000000000000000000000000000000000000dba85"
          ],
          "data": "0x",
          "blockHash": "0x8c52fd434a0e722b23dccd381db2af99063a2313e66ef5c84d9aa21ab87b83a5",
          "blockNumber": "0x2375e75",
          "blockTimestamp": "0x68f919cd",
          "transactionHash": "0xc8b2f9984ab39210896f7d358a0be153cae43534a75e1eb274cdd149834011a1",
          "transactionIndex": "0x10a",
          "logIndex": "0x362",
          "removed": false
        },
        {
          "address": "0x0447430c327cce6c0c43ec0eb0271fecdad471b2",
          "topics": [
            "0xddf252ad1be2c89b69c2b068fc378daa952ba7f163c4a11628f55a4df523b3ef",
            "0x0000000000000000000000000000000000000000000000000000000000000000",
            "0x000000000000000000000000b21bbe052f5ce9ae681c59725f0a313765fd016c"
          ],
          "data": "0x00000000000000000000000000000000000000000000000000000000000f423f",
          "blockHash": "0x8c52fd434a0e722b23dccd381db2af99063a2313e66ef5c84d9aa21ab87b83a5",
          "blockNumber": "0x2375e75",
          "blockTimestamp": "0x68f919cd",
          "transactionHash": "0xc8b2f9984ab39210896f7d358a0be153cae43534a75e1eb274cdd149834011a1",
          "transactionIndex": "0x10a",
          "logIndex": "0x363",
          "removed": false
        },
        {
          "address": "0xb21bbe052f5ce9ae681c59725f0a313765fd016c",
          "topics": [
            "0xa856e8f098813135735b4d4f52d96083d1dbb35fd5603ff424661413f59c2810",
            "0x000000000000000000000000330dc31db45672c1f565cf3ec91f9a01f8f3df0b",
            "0x000000000000000000000000a5040d66a8e609fce17d115f4726a2311331bb21",
            "0x000000000000000000000000833589fcd6edb6e08f4c7c32d4f71b54bda02913"
          ],
          "data": "0x000000000000000000000000b21bbe052f5ce9ae681c59725f0a313765fd016c00000000000000000000000000000000000000000000000000000000000f423f",
          "blockHash": "0x8c52fd434a0e722b23dccd381db2af99063a2313e66ef5c84d9aa21ab87b83a5",
          "blockNumber": "0x2375e75",
          "blockTimestamp": "0x68f919cd",
          "transactionHash": "0xc8b2f9984ab39210896f7d358a0be153cae43534a75e1eb274cdd149834011a1",
          "transactionIndex": "0x10a",
          "logIndex": "0x364",
          "removed": false
        },
        {
          "address": "0x833589fcd6edb6e08f4c7c32d4f71b54bda02913",
          "topics": [
            "0xddf252ad1be2c89b69c2b068fc378daa952ba7f163c4a11628f55a4df523b3ef",
            "0x000000000000000000000000a5040d66a8e609fce17d115f4726a2311331bb21",
            "0x0000000000000000000000000728522fbe416b9dbb0c12e9e84870aa8e17ad11"
          ],
          "data": "0x00000000000000000000000000000000000000000000000000000000000f4240",
          "blockHash": "0x8c52fd434a0e722b23dccd381db2af99063a2313e66ef5c84d9aa21ab87b83a5",
          "blockNumber": "0x2375e75",
          "blockTimestamp": "0x68f919cd",
          "transactionHash": "0xc8b2f9984ab39210896f7d358a0be153cae43534a75e1eb274cdd149834011a1",
          "transactionIndex": "0x10a",
          "logIndex": "0x365",
          "removed": false
        },
        {
          "address": "0x833589fcd6edb6e08f4c7c32d4f71b54bda02913",
          "topics": [
            "0x8c5be1e5ebec7d5bd14f71427d1e84f3dd0314c0f7b2291e5b200ac8c7c3b925",
            "0x0000000000000000000000000728522fbe416b9dbb0c12e9e84870aa8e17ad11",
            "0x0000000000000000000000000447430c327cce6c0c43ec0eb0271fecdad471b2"
          ],
          "data": "0x00000000000000000000000000000000000000000000000000000000000f4240",
          "blockHash": "0x8c52fd434a0e722b23dccd381db2af99063a2313e66ef5c84d9aa21ab87b83a5",
          "blockNumber": "0x2375e75",
          "blockTimestamp": "0x68f919cd",
          "transactionHash": "0xc8b2f9984ab39210896f7d358a0be153cae43534a75e1eb274cdd149834011a1",
          "transactionIndex": "0x10a",
          "logIndex": "0x366",
          "removed": false
        },
        {
          "address": "0x833589fcd6edb6e08f4c7c32d4f71b54bda02913",
          "topics": [
            "0xddf252ad1be2c89b69c2b068fc378daa952ba7f163c4a11628f55a4df523b3ef",
            "0x0000000000000000000000000728522fbe416b9dbb0c12e9e84870aa8e17ad11",
            "0x000000000000000000000000e8bea9cc0e9e23bf72ca67835f6216e394d3d7be"
          ],
          "data": "0x00000000000000000000000000000000000000000000000000000000000f4240",
          "blockHash": "0x8c52fd434a0e722b23dccd381db2af99063a2313e66ef5c84d9aa21ab87b83a5",
          "blockNumber": "0x2375e75",
          "blockTimestamp": "0x68f919cd",
          "transactionHash": "0xc8b2f9984ab39210896f7d358a0be153cae43534a75e1eb274cdd149834011a1",
          "transactionIndex": "0x10a",
          "logIndex": "0x367",
          "removed": false
        },
        {
          "address": "0x833589fcd6edb6e08f4c7c32d4f71b54bda02913",
          "topics": [
            "0x8c5be1e5ebec7d5bd14f71427d1e84f3dd0314c0f7b2291e5b200ac8c7c3b925",
            "0x000000000000000000000000e8bea9cc0e9e23bf72ca67835f6216e394d3d7be",
            "0x000000000000000000000000a238dd80c259a72e81d7e4664a9801593f98d1c5"
          ],
          "data": "0x00000000000000000000000000000000000000000000000000000000000f4240",
          "blockHash": "0x8c52fd434a0e722b23dccd381db2af99063a2313e66ef5c84d9aa21ab87b83a5",
          "blockNumber": "0x2375e75",
          "blockTimestamp": "0x68f919cd",
          "transactionHash": "0xc8b2f9984ab39210896f7d358a0be153cae43534a75e1eb274cdd149834011a1",
          "transactionIndex": "0x10a",
          "logIndex": "0x368",
          "removed": false
        },
        {
          "address": "0xa238dd80c259a72e81d7e4664a9801593f98d1c5",
          "topics": [
            "0x804c9b842b2748a22bb64b345453a3de7ca54a6ca45ce00d415894979e22897a",
            "0x000000000000000000000000833589fcd6edb6e08f4c7c32d4f71b54bda02913"
          ],
          "data": "0x00000000000000000000000000000000000000000027c8392b9310af563899ec00000000000000000000000000000000000000000000000000000000000000000000000000000000000000000000000000000000003a250961fc73ace996050c0000000000000000000000000000000000000000039767e67bdcf761895b6110000000000000000000000000000000000000000003b936bbcb987940375d1ca0",
          "blockHash": "0x8c52fd434a0e722b23dccd381db2af99063a2313e66ef5c84d9aa21ab87b83a5",
          "blockNumber": "0x2375e75",
          "blockTimestamp": "0x68f919cd",
          "transactionHash": "0xc8b2f9984ab39210896f7d358a0be153cae43534a75e1eb274cdd149834011a1",
          "transactionIndex": "0x10a",
          "logIndex": "0x369",
          "removed": false
        },
        {
          "address": "0x833589fcd6edb6e08f4c7c32d4f71b54bda02913",
          "topics": [
            "0xddf252ad1be2c89b69c2b068fc378daa952ba7f163c4a11628f55a4df523b3ef",
            "0x000000000000000000000000e8bea9cc0e9e23bf72ca67835f6216e394d3d7be",
            "0x0000000000000000000000004e65fe4dba92790696d040ac24aa414708f5c0ab"
          ],
          "data": "0x00000000000000000000000000000000000000000000000000000000000f4240",
          "blockHash": "0x8c52fd434a0e722b23dccd381db2af99063a2313e66ef5c84d9aa21ab87b83a5",
          "blockNumber": "0x2375e75",
          "blockTimestamp": "0x68f919cd",
          "transactionHash": "0xc8b2f9984ab39210896f7d358a0be153cae43534a75e1eb274cdd149834011a1",
          "transactionIndex": "0x10a",
          "logIndex": "0x36a",
          "removed": false
        },
        {
          "address": "0x4e65fe4dba92790696d040ac24aa414708f5c0ab",
          "topics": [
            "0xddf252ad1be2c89b69c2b068fc378daa952ba7f163c4a11628f55a4df523b3ef",
            "0x0000000000000000000000000000000000000000000000000000000000000000",
            "0x0000000000000000000000000447430c327cce6c0c43ec0eb0271fecdad471b2"
          ],
          "data": "0x00000000000000000000000000000000000000000000000000000000000f423f",
          "blockHash": "0x8c52fd434a0e722b23dccd381db2af99063a2313e66ef5c84d9aa21ab87b83a5",
          "blockNumber": "0x2375e75",
          "blockTimestamp": "0x68f919cd",
          "transactionHash": "0xc8b2f9984ab39210896f7d358a0be153cae43534a75e1eb274cdd149834011a1",
          "transactionIndex": "0x10a",
          "logIndex": "0x36b",
          "removed": false
        },
        {
          "address": "0x4e65fe4dba92790696d040ac24aa414708f5c0ab",
          "topics": [
            "0x458f5fa412d0f69b08dd84872b0215675cc67bc1d5b6fd93300a1c3878b86196",
            "0x000000000000000000000000e8bea9cc0e9e23bf72ca67835f6216e394d3d7be",
            "0x0000000000000000000000000447430c327cce6c0c43ec0eb0271fecdad471b2"
          ],
          "data": "0x00000000000000000000000000000000000000000000000000000000000f423f00000000000000000000000000000000000000000000000000000000000000000000000000000000000000000000000000000000039767e67bdcf761895b6110",
          "blockHash": "0x8c52fd434a0e722b23dccd381db2af99063a2313e66ef5c84d9aa21ab87b83a5",
          "blockNumber": "0x2375e75",
          "blockTimestamp": "0x68f919cd",
          "transactionHash": "0xc8b2f9984ab39210896f7d358a0be153cae43534a75e1eb274cdd149834011a1",
          "transactionIndex": "0x10a",
          "logIndex": "0x36c",
          "removed": false
        },
        {
          "address": "0xa238dd80c259a72e81d7e4664a9801593f98d1c5",
          "topics": [
            "0x2b627736bca15cd5381dcf80b0bf11fd197d01a037c52b927a881a10fb73ba61",
            "0x000000000000000000000000833589fcd6edb6e08f4c7c32d4f71b54bda02913",
            "0x0000000000000000000000000447430c327cce6c0c43ec0eb0271fecdad471b2",
            "0x0000000000000000000000000000000000000000000000000000000000000000"
          ],
          "data": "0x000000000000000000000000e8bea9cc0e9e23bf72ca67835f6216e394d3d7be00000000000000000000000000000000000000000000000000000000000f4240",
          "blockHash": "0x8c52fd434a0e722b23dccd381db2af99063a2313e66ef5c84d9aa21ab87b83a5",
          "blockNumber": "0x2375e75",
          "blockTimestamp": "0x68f919cd",
          "transactionHash": "0xc8b2f9984ab39210896f7d358a0be153cae43534a75e1eb274cdd149834011a1",
          "transactionIndex": "0x10a",
          "logIndex": "0x36d",
          "removed": false
        },
        {
          "address": "0x0447430c327cce6c0c43ec0eb0271fecdad471b2",
          "topics": [
            "0xe5e5bf3572f08fca3d223c6d9b4f98131f95a3cfdc202f467747954b830330d1",
            "0x0000000000000000000000000728522fbe416b9dbb0c12e9e84870aa8e17ad11",
            "0x0000000000000000000000000000000000000000000000000000000000000009",
            "0x00000000000000000000000000000000000000000000000000000000000dba73"
          ],
          "data": "0x",
          "blockHash": "0x8c52fd434a0e722b23dccd381db2af99063a2313e66ef5c84d9aa21ab87b83a5",
          "blockNumber": "0x2375e75",
          "blockTimestamp": "0x68f919cd",
          "transactionHash": "0xc8b2f9984ab39210896f7d358a0be153cae43534a75e1eb274cdd149834011a1",
          "transactionIndex": "0x10a",
          "logIndex": "0x36e",
          "removed": false
        },
        {
          "address": "0x0447430c327cce6c0c43ec0eb0271fecdad471b2",
          "topics": [
            "0xddf252ad1be2c89b69c2b068fc378daa952ba7f163c4a11628f55a4df523b3ef",
            "0x0000000000000000000000000000000000000000000000000000000000000000",
            "0x0000000000000000000000000728522fbe416b9dbb0c12e9e84870aa8e17ad11"
          ],
          "data": "0x00000000000000000000000000000000000000000000000000000000000f423f",
          "blockHash": "0x8c52fd434a0e722b23dccd381db2af99063a2313e66ef5c84d9aa21ab87b83a5",
          "blockNumber": "0x2375e75",
          "blockTimestamp": "0x68f919cd",
          "transactionHash": "0xc8b2f9984ab39210896f7d358a0be153cae43534a75e1eb274cdd149834011a1",
          "transactionIndex": "0x10a",
          "logIndex": "0x36f",
          "removed": false
        },
        {
          "address": "0x0728522fbe416b9dbb0c12e9e84870aa8e17ad11",
          "topics": [
            "0xa856e8f098813135735b4d4f52d96083d1dbb35fd5603ff424661413f59c2810",
            "0x000000000000000000000000330dc31db45672c1f565cf3ec91f9a01f8f3df0b",
            "0x000000000000000000000000a5040d66a8e609fce17d115f4726a2311331bb21",
            "0x000000000000000000000000833589fcd6edb6e08f4c7c32d4f71b54bda02913"
          ],
          "data": "0x0000000000000000000000000728522fbe416b9dbb0c12e9e84870aa8e17ad1100000000000000000000000000000000000000000000000000000000000f423f",
          "blockHash": "0x8c52fd434a0e722b23dccd381db2af99063a2313e66ef5c84d9aa21ab87b83a5",
          "blockNumber": "0x2375e75",
          "blockTimestamp": "0x68f919cd",
          "transactionHash": "0xc8b2f9984ab39210896f7d358a0be153cae43534a75e1eb274cdd149834011a1",
          "transactionIndex": "0x10a",
          "logIndex": "0x370",
          "removed": false
        },
        {
          "address": "0x833589fcd6edb6e08f4c7c32d4f71b54bda02913",
          "topics": [
            "0xddf252ad1be2c89b69c2b068fc378daa952ba7f163c4a11628f55a4df523b3ef",
            "0x000000000000000000000000a5040d66a8e609fce17d115f4726a2311331bb21",
            "0x0000000000000000000000002a7168c467f97a4c56958b0dde1144e450a60a36"
          ],
          "data": "0x00000000000000000000000000000000000000000000000000000000000f4240",
          "blockHash": "0x8c52fd434a0e722b23dccd381db2af99063a2313e66ef5c84d9aa21ab87b83a5",
          "blockNumber": "0x2375e75",
          "blockTimestamp": "0x68f919cd",
          "transactionHash": "0xc8b2f9984ab39210896f7d358a0be153cae43534a75e1eb274cdd149834011a1",
          "transactionIndex": "0x10a",
          "logIndex": "0x371",
          "removed": false
        },
        {
          "address": "0x833589fcd6edb6e08f4c7c32d4f71b54bda02913",
          "topics": [
            "0x8c5be1e5ebec7d5bd14f71427d1e84f3dd0314c0f7b2291e5b200ac8c7c3b925",
            "0x0000000000000000000000002a7168c467f97a4c56958b0dde1144e450a60a36",
            "0x0000000000000000000000000447430c327cce6c0c43ec0eb0271fecdad471b2"
          ],
          "data": "0x00000000000000000000000000000000000000000000000000000000000f4240",
          "blockHash": "0x8c52fd434a0e722b23dccd381db2af99063a2313e66ef5c84d9aa21ab87b83a5",
          "blockNumber": "0x2375e75",
          "blockTimestamp": "0x68f919cd",
          "transactionHash": "0xc8b2f9984ab39210896f7d358a0be153cae43534a75e1eb274cdd149834011a1",
          "transactionIndex": "0x10a",
          "logIndex": "0x372",
          "removed": false
        },
        {
          "address": "0x833589fcd6edb6e08f4c7c32d4f71b54bda02913",
          "topics": [
            "0xddf252ad1be2c89b69c2b068fc378daa952ba7f163c4a11628f55a4df523b3ef",
            "0x0000000000000000000000002a7168c467f97a4c56958b0dde1144e450a60a36",
            "0x000000000000000000000000e8bea9cc0e9e23bf72ca67835f6216e394d3d7be"
          ],
          "data": "0x00000000000000000000000000000000000000000000000000000000000f4240",
          "blockHash": "0x8c52fd434a0e722b23dccd381db2af99063a2313e66ef5c84d9aa21ab87b83a5",
          "blockNumber": "0x2375e75",
          "blockTimestamp": "0x68f919cd",
          "transactionHash": "0xc8b2f9984ab39210896f7d358a0be153cae43534a75e1eb274cdd149834011a1",
          "transactionIndex": "0x10a",
          "logIndex": "0x373",
          "removed": false
        },
        {
          "address": "0x833589fcd6edb6e08f4c7c32d4f71b54bda02913",
          "topics": [
            "0x8c5be1e5ebec7d5bd14f71427d1e84f3dd0314c0f7b2291e5b200ac8c7c3b925",
            "0x000000000000000000000000e8bea9cc0e9e23bf72ca67835f6216e394d3d7be",
            "0x000000000000000000000000a238dd80c259a72e81d7e4664a9801593f98d1c5"
          ],
          "data": "0x00000000000000000000000000000000000000000000000000000000000f4240",
          "blockHash": "0x8c52fd434a0e722b23dccd381db2af99063a2313e66ef5c84d9aa21ab87b83a5",
          "blockNumber": "0x2375e75",
          "blockTimestamp": "0x68f919cd",
          "transactionHash": "0xc8b2f9984ab39210896f7d358a0be153cae43534a75e1eb274cdd149834011a1",
          "transactionIndex": "0x10a",
          "logIndex": "0x374",
          "removed": false
        },
        {
          "address": "0xa238dd80c259a72e81d7e4664a9801593f98d1c5",
          "topics": [
            "0x804c9b842b2748a22bb64b345453a3de7ca54a6ca45ce00d415894979e22897a",
            "0x000000000000000000000000833589fcd6edb6e08f4c7c32d4f71b54bda02913"
          ],
          "data": "0x00000000000000000000000000000000000000000027c83928afd14c0dca241c00000000000000000000000000000000000000000000000000000000000000000000000000000000000000000000000000000000003a2509602d06f559bb689c0000000000000000000000000000000000000000039767e67bdcf761895b6110000000000000000000000000000000000000000003b936bbcb987940375d1ca0",
          "blockHash": "0x8c52fd434a0e722b23dccd381db2af99063a2313e66ef5c84d9aa21ab87b83a5",
          "blockNumber": "0x2375e75",
          "blockTimestamp": "0x68f919cd",
          "transactionHash": "0xc8b2f9984ab39210896f7d358a0be153cae43534a75e1eb274cdd149834011a1",
          "transactionIndex": "0x10a",
          "logIndex": "0x375",
          "removed": false
        },
        {
          "address": "0x833589fcd6edb6e08f4c7c32d4f71b54bda02913",
          "topics": [
            "0xddf252ad1be2c89b69c2b068fc378daa952ba7f163c4a11628f55a4df523b3ef",
            "0x000000000000000000000000e8bea9cc0e9e23bf72ca67835f6216e394d3d7be",
            "0x0000000000000000000000004e65fe4dba92790696d040ac24aa414708f5c0ab"
          ],
          "data": "0x00000000000000000000000000000000000000000000000000000000000f4240",
          "blockHash": "0x8c52fd434a0e722b23dccd381db2af99063a2313e66ef5c84d9aa21ab87b83a5",
          "blockNumber": "0x2375e75",
          "blockTimestamp": "0x68f919cd",
          "transactionHash": "0xc8b2f9984ab39210896f7d358a0be153cae43534a75e1eb274cdd149834011a1",
          "transactionIndex": "0x10a",
          "logIndex": "0x376",
          "removed": false
        },
        {
          "address": "0x4e65fe4dba92790696d040ac24aa414708f5c0ab",
          "topics": [
            "0xddf252ad1be2c89b69c2b068fc378daa952ba7f163c4a11628f55a4df523b3ef",
            "0x0000000000000000000000000000000000000000000000000000000000000000",
            "0x0000000000000000000000000447430c327cce6c0c43ec0eb0271fecdad471b2"
          ],
          "data": "0x00000000000000000000000000000000000000000000000000000000000f4240",
          "blockHash": "0x8c52fd434a0e722b23dccd381db2af99063a2313e66ef5c84d9aa21ab87b83a5",
          "blockNumber": "0x2375e75",
          "blockTimestamp": "0x68f919cd",
          "transactionHash": "0xc8b2f9984ab39210896f7d358a0be153cae43534a75e1eb274cdd149834011a1",
          "transactionIndex": "0x10a",
          "logIndex": "0x377",
          "removed": false
        },
        {
          "address": "0x4e65fe4dba92790696d040ac24aa414708f5c0ab",
          "topics": [
            "0x458f5fa412d0f69b08dd84872b0215675cc67bc1d5b6fd93300a1c3878b86196",
            "0x000000000000000000000000e8bea9cc0e9e23bf72ca67835f6216e394d3d7be",
            "0x0000000000000000000000000447430c327cce6c0c43ec0eb0271fecdad471b2"
          ],
          "data": "0x00000000000000000000000000000000000000000000000000000000000f424000000000000000000000000000000000000000000000000000000000000000000000000000000000000000000000000000000000039767e67bdcf761895b6110",
          "blockHash": "0x8c52fd434a0e722b23dccd381db2af99063a2313e66ef5c84d9aa21ab87b83a5",
          "blockNumber": "0x2375e75",
          "blockTimestamp": "0x68f919cd",
          "transactionHash": "0xc8b2f9984ab39210896f7d358a0be153cae43534a75e1eb274cdd149834011a1",
          "transactionIndex": "0x10a",
          "logIndex": "0x378",
          "removed": false
        },
        {
          "address": "0xa238dd80c259a72e81d7e4664a9801593f98d1c5",
          "topics": [
            "0x2b627736bca15cd5381dcf80b0bf11fd197d01a037c52b927a881a10fb73ba61",
            "0x000000000000000000000000833589fcd6edb6e08f4c7c32d4f71b54bda02913",
            "0x0000000000000000000000000447430c327cce6c0c43ec0eb0271fecdad471b2",
            "0x0000000000000000000000000000000000000000000000000000000000000000"
          ],
          "data": "0x000000000000000000000000e8bea9cc0e9e23bf72ca67835f6216e394d3d7be00000000000000000000000000000000000000000000000000000000000f4240",
          "blockHash": "0x8c52fd434a0e722b23dccd381db2af99063a2313e66ef5c84d9aa21ab87b83a5",
          "blockNumber": "0x2375e75",
          "blockTimestamp": "0x68f919cd",
          "transactionHash": "0xc8b2f9984ab39210896f7d358a0be153cae43534a75e1eb274cdd149834011a1",
          "transactionIndex": "0x10a",
          "logIndex": "0x379",
          "removed": false
        },
        {
          "address": "0x0447430c327cce6c0c43ec0eb0271fecdad471b2",
          "topics": [
            "0xe5e5bf3572f08fca3d223c6d9b4f98131f95a3cfdc202f467747954b830330d1",
            "0x0000000000000000000000002a7168c467f97a4c56958b0dde1144e450a60a36",
            "0x0000000000000000000000000000000000000000000000000000000000000050",
            "0x00000000000000000000000000000000000000000000000000000000000dbaba"
          ],
          "data": "0x",
          "blockHash": "0x8c52fd434a0e722b23dccd381db2af99063a2313e66ef5c84d9aa21ab87b83a5",
          "blockNumber": "0x2375e75",
          "blockTimestamp": "0x68f919cd",
          "transactionHash": "0xc8b2f9984ab39210896f7d358a0be153cae43534a75e1eb274cdd149834011a1",
          "transactionIndex": "0x10a",
          "logIndex": "0x37a",
          "removed": false
        },
        {
          "address": "0x0447430c327cce6c0c43ec0eb0271fecdad471b2",
          "topics": [
            "0xddf252ad1be2c89b69c2b068fc378daa952ba7f163c4a11628f55a4df523b3ef",
            "0x0000000000000000000000000000000000000000000000000000000000000000",
            "0x0000000000000000000000002a7168c467f97a4c56958b0dde1144e450a60a36"
          ],
          "data": "0x00000000000000000000000000000000000000000000000000000000000f423f",
          "blockHash": "0x8c52fd434a0e722b23dccd381db2af99063a2313e66ef5c84d9aa21ab87b83a5",
          "blockNumber": "0x2375e75",
          "blockTimestamp": "0x68f919cd",
          "transactionHash": "0xc8b2f9984ab39210896f7d358a0be153cae43534a75e1eb274cdd149834011a1",
          "transactionIndex": "0x10a",
          "logIndex": "0x37b",
          "removed": false
        },
        {
          "address": "0x2a7168c467f97a4c56958b0dde1144e450a60a36",
          "topics": [
            "0xa856e8f098813135735b4d4f52d96083d1dbb35fd5603ff424661413f59c2810",
            "0x000000000000000000000000330dc31db45672c1f565cf3ec91f9a01f8f3df0b",
            "0x000000000000000000000000a5040d66a8e609fce17d115f4726a2311331bb21",
            "0x000000000000000000000000833589fcd6edb6e08f4c7c32d4f71b54bda02913"
          ],
          "data": "0x0000000000000000000000002a7168c467f97a4c56958b0dde1144e450a60a3600000000000000000000000000000000000000000000000000000000000f423f",
          "blockHash": "0x8c52fd434a0e722b23dccd381db2af99063a2313e66ef5c84d9aa21ab87b83a5",
          "blockNumber": "0x2375e75",
          "blockTimestamp": "0x68f919cd",
          "transactionHash": "0xc8b2f9984ab39210896f7d358a0be153cae43534a75e1eb274cdd149834011a1",
          "transactionIndex": "0x10a",
          "logIndex": "0x37c",
          "removed": false
        },
        {
          "address": "0x833589fcd6edb6e08f4c7c32d4f71b54bda02913",
          "topics": [
            "0xddf252ad1be2c89b69c2b068fc378daa952ba7f163c4a11628f55a4df523b3ef",
            "0x000000000000000000000000a5040d66a8e609fce17d115f4726a2311331bb21",
            "0x000000000000000000000000e69669f93e77f2245f4a35d804bc3c91f43e0e15"
          ],
          "data": "0x00000000000000000000000000000000000000000000000000000000000f4240",
          "blockHash": "0x8c52fd434a0e722b23dccd381db2af99063a2313e66ef5c84d9aa21ab87b83a5",
          "blockNumber": "0x2375e75",
          "blockTimestamp": "0x68f919cd",
          "transactionHash": "0xc8b2f9984ab39210896f7d358a0be153cae43534a75e1eb274cdd149834011a1",
          "transactionIndex": "0x10a",
          "logIndex": "0x37d",
          "removed": false
        },
        {
          "address": "0x833589fcd6edb6e08f4c7c32d4f71b54bda02913",
          "topics": [
            "0x8c5be1e5ebec7d5bd14f71427d1e84f3dd0314c0f7b2291e5b200ac8c7c3b925",
            "0x000000000000000000000000e69669f93e77f2245f4a35d804bc3c91f43e0e15",
            "0x0000000000000000000000000447430c327cce6c0c43ec0eb0271fecdad471b2"
          ],
          "data": "0x00000000000000000000000000000000000000000000000000000000000f4240",
          "blockHash": "0x8c52fd434a0e722b23dccd381db2af99063a2313e66ef5c84d9aa21ab87b83a5",
          "blockNumber": "0x2375e75",
          "blockTimestamp": "0x68f919cd",
          "transactionHash": "0xc8b2f9984ab39210896f7d358a0be153cae43534a75e1eb274cdd149834011a1",
          "transactionIndex": "0x10a",
          "logIndex": "0x37e",
          "removed": false
        },
        {
          "address": "0x833589fcd6edb6e08f4c7c32d4f71b54bda02913",
          "topics": [
            "0xddf252ad1be2c89b69c2b068fc378daa952ba7f163c4a11628f55a4df523b3ef",
            "0x000000000000000000000000e69669f93e77f2245f4a35d804bc3c91f43e0e15",
            "0x000000000000000000000000e8bea9cc0e9e23bf72ca67835f6216e394d3d7be"
          ],
          "data": "0x00000000000000000000000000000000000000000000000000000000000f4240",
          "blockHash": "0x8c52fd434a0e722b23dccd381db2af99063a2313e66ef5c84d9aa21ab87b83a5",
          "blockNumber": "0x2375e75",
          "blockTimestamp": "0x68f919cd",
          "transactionHash": "0xc8b2f9984ab39210896f7d358a0be153cae43534a75e1eb274cdd149834011a1",
          "transactionIndex": "0x10a",
          "logIndex": "0x37f",
          "removed": false
        },
        {
          "address": "0x833589fcd6edb6e08f4c7c32d4f71b54bda02913",
          "topics": [
            "0x8c5be1e5ebec7d5bd14f71427d1e84f3dd0314c0f7b2291e5b200ac8c7c3b925",
            "0x000000000000000000000000e8bea9cc0e9e23bf72ca67835f6216e394d3d7be",
            "0x000000000000000000000000a238dd80c259a72e81d7e4664a9801593f98d1c5"
          ],
          "data": "0x00000000000000000000000000000000000000000000000000000000000f4240",
          "blockHash": "0x8c52fd434a0e722b23dccd381db2af99063a2313e66ef5c84d9aa21ab87b83a5",
          "blockNumber": "0x2375e75",
          "blockTimestamp": "0x68f919cd",
          "transactionHash": "0xc8b2f9984ab39210896f7d358a0be153cae43534a75e1eb274cdd149834011a1",
          "transactionIndex": "0x10a",
          "logIndex": "0x380",
          "removed": false
        },
        {
          "address": "0xa238dd80c259a72e81d7e4664a9801593f98d1c5",
          "topics": [
            "0x804c9b842b2748a22bb64b345453a3de7ca54a6ca45ce00d415894979e22897a",
            "0x000000000000000000000000833589fcd6edb6e08f4c7c32d4f71b54bda02913"
          ],
          "data": "0x00000000000000000000000000000000000000000027c83925cc91e91cef6f9f00000000000000000000000000000000000000000000000000000000000000000000000000000000000000000000000000000000003a25095e5d9a3df04cb7500000000000000000000000000000000000000000039767e67bdcf761895b6110000000000000000000000000000000000000000003b936bbcb987940375d1ca0",
          "blockHash": "0x8c52fd434a0e722b23dccd381db2af99063a2313e66ef5c84d9aa21ab87b83a5",
          "blockNumber": "0x2375e75",
          "blockTimestamp": "0x68f919cd",
          "transactionHash": "0xc8b2f9984ab39210896f7d358a0be153cae43534a75e1eb274cdd149834011a1",
          "transactionIndex": "0x10a",
          "logIndex": "0x381",
          "removed": false
        },
        {
          "address": "0x833589fcd6edb6e08f4c7c32d4f71b54bda02913",
          "topics": [
            "0xddf252ad1be2c89b69c2b068fc378daa952ba7f163c4a11628f55a4df523b3ef",
            "0x000000000000000000000000e8bea9cc0e9e23bf72ca67835f6216e394d3d7be",
            "0x0000000000000000000000004e65fe4dba92790696d040ac24aa414708f5c0ab"
          ],
          "data": "0x00000000000000000000000000000000000000000000000000000000000f4240",
          "blockHash": "0x8c52fd434a0e722b23dccd381db2af99063a2313e66ef5c84d9aa21ab87b83a5",
          "blockNumber": "0x2375e75",
          "blockTimestamp": "0x68f919cd",
          "transactionHash": "0xc8b2f9984ab39210896f7d358a0be153cae43534a75e1eb274cdd149834011a1",
          "transactionIndex": "0x10a",
          "logIndex": "0x382",
          "removed": false
        },
        {
          "address": "0x4e65fe4dba92790696d040ac24aa414708f5c0ab",
          "topics": [
            "0xddf252ad1be2c89b69c2b068fc378daa952ba7f163c4a11628f55a4df523b3ef",
            "0x0000000000000000000000000000000000000000000000000000000000000000",
            "0x0000000000000000000000000447430c327cce6c0c43ec0eb0271fecdad471b2"
          ],
          "data": "0x00000000000000000000000000000000000000000000000000000000000f423f",
          "blockHash": "0x8c52fd434a0e722b23dccd381db2af99063a2313e66ef5c84d9aa21ab87b83a5",
          "blockNumber": "0x2375e75",
          "blockTimestamp": "0x68f919cd",
          "transactionHash": "0xc8b2f9984ab39210896f7d358a0be153cae43534a75e1eb274cdd149834011a1",
          "transactionIndex": "0x10a",
          "logIndex": "0x383",
          "removed": false
        },
        {
          "address": "0x4e65fe4dba92790696d040ac24aa414708f5c0ab",
          "topics": [
            "0x458f5fa412d0f69b08dd84872b0215675cc67bc1d5b6fd93300a1c3878b86196",
            "0x000000000000000000000000e8bea9cc0e9e23bf72ca67835f6216e394d3d7be",
            "0x0000000000000000000000000447430c327cce6c0c43ec0eb0271fecdad471b2"
          ],
          "data": "0x00000000000000000000000000000000000000000000000000000000000f423f00000000000000000000000000000000000000000000000000000000000000000000000000000000000000000000000000000000039767e67bdcf761895b6110",
          "blockHash": "0x8c52fd434a0e722b23dccd381db2af99063a2313e66ef5c84d9aa21ab87b83a5",
          "blockNumber": "0x2375e75",
          "blockTimestamp": "0x68f919cd",
          "transactionHash": "0xc8b2f9984ab39210896f7d358a0be153cae43534a75e1eb274cdd149834011a1",
          "transactionIndex": "0x10a",
          "logIndex": "0x384",
          "removed": false
        },
        {
          "address": "0xa238dd80c259a72e81d7e4664a9801593f98d1c5",
          "topics": [
            "0x2b627736bca15cd5381dcf80b0bf11fd197d01a037c52b927a881a10fb73ba61",
            "0x000000000000000000000000833589fcd6edb6e08f4c7c32d4f71b54bda02913",
            "0x0000000000000000000000000447430c327cce6c0c43ec0eb0271fecdad471b2",
            "0x0000000000000000000000000000000000000000000000000000000000000000"
          ],
          "data": "0x000000000000000000000000e8bea9cc0e9e23bf72ca67835f6216e394d3d7be00000000000000000000000000000000000000000000000000000000000f4240",
          "blockHash": "0x8c52fd434a0e722b23dccd381db2af99063a2313e66ef5c84d9aa21ab87b83a5",
          "blockNumber": "0x2375e75",
          "blockTimestamp": "0x68f919cd",
          "transactionHash": "0xc8b2f9984ab39210896f7d358a0be153cae43534a75e1eb274cdd149834011a1",
          "transactionIndex": "0x10a",
          "logIndex": "0x385",
          "removed": false
        },
        {
          "address": "0x0447430c327cce6c0c43ec0eb0271fecdad471b2",
          "topics": [
            "0xe5e5bf3572f08fca3d223c6d9b4f98131f95a3cfdc202f467747954b830330d1",
            "0x000000000000000000000000e69669f93e77f2245f4a35d804bc3c91f43e0e15",
            "0x000000000000000000000000000000000000000000000000000000000000000c",
            "0x00000000000000000000000000000000000000000000000000000000000dba76"
          ],
          "data": "0x",
          "blockHash": "0x8c52fd434a0e722b23dccd381db2af99063a2313e66ef5c84d9aa21ab87b83a5",
          "blockNumber": "0x2375e75",
          "blockTimestamp": "0x68f919cd",
          "transactionHash": "0xc8b2f9984ab39210896f7d358a0be153cae43534a75e1eb274cdd149834011a1",
          "transactionIndex": "0x10a",
          "logIndex": "0x386",
          "removed": false
        },
        {
          "address": "0x0447430c327cce6c0c43ec0eb0271fecdad471b2",
          "topics": [
            "0xddf252ad1be2c89b69c2b068fc378daa952ba7f163c4a11628f55a4df523b3ef",
            "0x0000000000000000000000000000000000000000000000000000000000000000",
            "0x000000000000000000000000e69669f93e77f2245f4a35d804bc3c91f43e0e15"
          ],
          "data": "0x00000000000000000000000000000000000000000000000000000000000f423f",
          "blockHash": "0x8c52fd434a0e722b23dccd381db2af99063a2313e66ef5c84d9aa21ab87b83a5",
          "blockNumber": "0x2375e75",
          "blockTimestamp": "0x68f919cd",
          "transactionHash": "0xc8b2f9984ab39210896f7d358a0be153cae43534a75e1eb274cdd149834011a1",
          "transactionIndex": "0x10a",
          "logIndex": "0x387",
          "removed": false
        },
        {
          "address": "0xe69669f93e77f2245f4a35d804bc3c91f43e0e15",
          "topics": [
            "0xa856e8f098813135735b4d4f52d96083d1dbb35fd5603ff424661413f59c2810",
            "0x000000000000000000000000330dc31db45672c1f565cf3ec91f9a01f8f3df0b",
            "0x000000000000000000000000a5040d66a8e609fce17d115f4726a2311331bb21",
            "0x000000000000000000000000833589fcd6edb6e08f4c7c32d4f71b54bda02913"
          ],
          "data": "0x000000000000000000000000e69669f93e77f2245f4a35d804bc3c91f43e0e1500000000000000000000000000000000000000000000000000000000000f423f",
          "blockHash": "0x8c52fd434a0e722b23dccd381db2af99063a2313e66ef5c84d9aa21ab87b83a5",
          "blockNumber": "0x2375e75",
          "blockTimestamp": "0x68f919cd",
          "transactionHash": "0xc8b2f9984ab39210896f7d358a0be153cae43534a75e1eb274cdd149834011a1",
          "transactionIndex": "0x10a",
          "logIndex": "0x388",
          "removed": false
        },
        {
          "address": "0x330dc31db45672c1f565cf3ec91f9a01f8f3df0b",
          "topics": [
            "0x89733de2d64cea40de091169750607b26e8d46142312fba65fb6476c790bad49",
            "0x000000000000000000000000a5040d66a8e609fce17d115f4726a2311331bb21",
            "0x000000000000000000000000330dc31db45672c1f565cf3ec91f9a01f8f3df0b",
            "0x0000000000000000000000000000000000000000000000000000000000000000"
          ],
          "data": "0x0000000000000000000000000000000000000000000000000000000000000000",
          "blockHash": "0x8c52fd434a0e722b23dccd381db2af99063a2313e66ef5c84d9aa21ab87b83a5",
          "blockNumber": "0x2375e75",
          "blockTimestamp": "0x68f919cd",
          "transactionHash": "0xc8b2f9984ab39210896f7d358a0be153cae43534a75e1eb274cdd149834011a1",
          "transactionIndex": "0x10a",
          "logIndex": "0x389",
          "removed": false
        }
      ],
      "logsBloom": "0x0110002000400000010010010000400010000200011011000000002000802280200020000080020000008000002410000c0000000000000000000000202400000000040000000400400000082020000000000000000c00000010020400000800008040240200000200000000000009020300000000000020300000100800010000108000000400004000408000000000000010010000000200000000000002400200000001200800000001080100004002104000800090000000000000000100020000420000001010000020c0000080000000000400000000004020020062210011040200000000000002000400000040042000000000100010640001800020",
      "type": "0x2",
      "transactionHash": "0xc8b2f9984ab39210896f7d358a0be153cae43534a75e1eb274cdd149834011a1",
      "transactionIndex": "0x10a",
      "blockHash": "0x8c52fd434a0e722b23dccd381db2af99063a2313e66ef5c84d9aa21ab87b83a5",
      "blockNumber": "0x2375e75",
      "gasUsed": "0xfb183",
      "effectiveGasPrice": "0x70a6f5",
      "from": "0xa5040d66a8e609fce17d115f4726a2311331bb21",
      "to": "0x330dc31db45672c1f565cf3ec91f9a01f8f3df0b",
      "contractAddress": null,
      "l1BaseFeeScalar": "0x8dd",
      "l1BlobBaseFee": "0x1",
      "l1BlobBaseFeeScalar": "0x101c12",
      "l1Fee": "0x4699a29d",
      "l1GasPrice": "0xc5c2772",
      "l1GasUsed": "0x167c"
    }
  ],
  "libraries": [],
  "pending": [],
  "returns": {},
  "timestamp": 1761155533168,
  "chain": 8453,
  "commit": "f3ea9de8"
}