{
  "transactions": [
    {
      "hash": null,
      "transactionType": "CALL",
      "contractName": null,
      "contractAddress": "0x833589fcd6edb6e08f4c7c32d4f71b54bda02913",
      "function": "approve(address,uint256)",
      "arguments": [
        "0xC2a429681CAd7C1ce36442fbf7A4a68B11eFF940",
        "1000000"
      ],
      "transaction": {
        "from": "0xa5040d66a8e609fce17d115f4726a2311331bb21",
        "to": "0x833589fcd6edb6e08f4c7c32d4f71b54bda02913",
        "gas": "0x12b1b",
        "value": "0x0",
        "input": "0x095ea7b3000000000000000000000000c2a429681cad7c1ce36442fbf7a4a68b11eff94000000000000000000000000000000000000000000000000000000000000f4240",
        "nonce": "0x13d",
        "chainId": "0x2105"
      },
      "additionalContracts": [],
      "isFixedGasLimit": false
    },
    {
      "hash": null,
      "transactionType": "CALL",
      "contractName": null,
      "contractAddress": "0x833589fcd6edb6e08f4c7c32d4f71b54bda02913",
      "function": "approve(address,uint256)",
      "arguments": [
        "0xB21Bbe052F5cE9ae681c59725f0A313765Fd016c",
        "1000000"
      ],
      "transaction": {
        "from": "0xa5040d66a8e609fce17d115f4726a2311331bb21",
        "to": "0x833589fcd6edb6e08f4c7c32d4f71b54bda02913",
        "gas": "0x12b1b",
        "value": "0x0",
        "input": "0x095ea7b3000000000000000000000000b21bbe052f5ce9ae681c59725f0a313765fd016c00000000000000000000000000000000000000000000000000000000000f4240",
        "nonce": "0x13e",
        "chainId": "0x2105"
      },
      "additionalContracts": [],
      "isFixedGasLimit": false
    },
    {
      "hash": null,
      "transactionType": "CALL",
      "contractName": null,
      "contractAddress": "0x833589fcd6edb6e08f4c7c32d4f71b54bda02913",
      "function": "approve(address,uint256)",
      "arguments": [
        "0x0728522FBe416B9dBB0c12E9e84870AA8E17Ad11",
        "1000000"
      ],
      "transaction": {
        "from": "0xa5040d66a8e609fce17d115f4726a2311331bb21",
        "to": "0x833589fcd6edb6e08f4c7c32d4f71b54bda02913",
        "gas": "0x12b1b",
        "value": "0x0",
        "input": "0x095ea7b30000000000000000000000000728522fbe416b9dbb0c12e9e84870aa8e17ad1100000000000000000000000000000000000000000000000000000000000f4240",
        "nonce": "0x13f",
        "chainId": "0x2105"
      },
      "additionalContracts": [],
      "isFixedGasLimit": false
    },
    {
      "hash": null,
      "transactionType": "CALL",
      "contractName": null,
      "contractAddress": "0x833589fcd6edb6e08f4c7c32d4f71b54bda02913",
      "function": "approve(address,uint256)",
      "arguments": [
        "0x2a7168C467f97A4C56958b0DDE1144E450a60a36",
        "1000000"
      ],
      "transaction": {
        "from": "0xa5040d66a8e609fce17d115f4726a2311331bb21",
        "to": "0x833589fcd6edb6e08f4c7c32d4f71b54bda02913",
        "gas": "0x12b1b",
        "value": "0x0",
        "input": "0x095ea7b30000000000000000000000002a7168c467f97a4c56958b0dde1144e450a60a3600000000000000000000000000000000000000000000000000000000000f4240",
        "nonce": "0x140",
        "chainId": "0x2105"
      },
      "additionalContracts": [],
      "isFixedGasLimit": false
    },
    {
      "hash": null,
      "transactionType": "CALL",
      "contractName": null,
      "contractAddress": "0x833589fcd6edb6e08f4c7c32d4f71b54bda02913",
      "function": "approve(address,uint256)",
      "arguments": [
        "0xe69669F93E77f2245f4a35D804BC3c91F43E0E15",
        "1000000"
      ],
      "transaction": {
        "from": "0xa5040d66a8e609fce17d115f4726a2311331bb21",
        "to": "0x833589fcd6edb6e08f4c7c32d4f71b54bda02913",
        "gas": "0x12b1b",
        "value": "0x0",
        "input": "0x095ea7b3000000000000000000000000e69669f93e77f2245f4a35d804bc3c91f43e0e1500000000000000000000000000000000000000000000000000000000000f4240",
        "nonce": "0x141",
        "chainId": "0x2105"
      },
      "additionalContracts": [],
      "isFixedGasLimit": false
    },
    {
      "hash": null,
      "transactionType": "CALL",
      "contractName": "ERC1967Proxy",
      "contractAddress": "0x330dc31db45672c1f565cf3ec91f9a01f8f3df0b",
      "function": null,
      "arguments": null,
      "transaction": {
        "from": "0xa5040d66a8e609fce17d115f4726a2311331bb21",
        "to": "0x330dc31db45672c1f565cf3ec91f9a01f8f3df0b",
        "gas": "0x16f39b",
        "value": "0x0",
        "input": "0xac9650d80000000000000000000000000000000000000000000000000000000000000020000000000000000000000000000000000000000000000000000000000000000700000000000000000000000000000000000000000000000000000000000000e0000000000000000000000000000000000000000000000000000000000000016000000000000000000000000000000000000000000000000000000000000002a000000000000000000000000000000000000000000000000000000000000003e00000000000000000000000000000000000000000000000000000000000000520000000000000000000000000000000000000000000000000000000000000066000000000000000000000000000000000000000000000000000000000000007a0000000000000000000000000000000000000000000000000000000000000004491c769ce000000000000000000000000330dc31db45672c1f565cf3ec91f9a01f8f3df0b00000000000000000000000000000000000000000000000000000000000000010000000000000000000000000000000000000000000000000000000000000000000000000000000000000000000000000000000000000000000001045ec49544000000000000000000000000c2a429681cad7c1ce36442fbf7a4a68b11eff94000000000000000000000000000000000000000000000000000000000000000400000000000000000000000000000000000000000000000000000000000000084fa823af5000000000000000000000000833589fcd6edb6e08f4c7c32d4f71b54bda0291300000000000000000000000000000000000000000000000000000000000f4240000000000000000000000000c2a429681cad7c1ce36442fbf7a4a68b11eff940000000000000000000000000a5040d66a8e609fce17d115f4726a2311331bb21000000000000000000000000000000000000000000000000000000000000000000000000000000000000000000000000000000000000000000000000000000000000000000000000000000000000000000000000000001045ec49544000000000000000000000000b21bbe052f5ce9ae681c59725f0a313765fd016c00000000000000000000000000000000000000000000000000000000000000400000000000000000000000000000000000000000000000000000000000000084fa823af5000000000000000000000000833589fcd6edb6e08f4c7c32d4f71b54bda0291300000000000000000000000000000000000000000000000000000000000f4240000000000000000000000000b21bbe052f5ce9ae681c59725f0a313765fd016c000000000000000000000000a5040d66a8e609fce17d115f4726a2311331bb21000000000000000000000000000000000000000000000000000000000000000000000000000000000000000000000000000000000000000000000000000000000000000000000000000000000000000000000000000001045ec495440000000000000000000000000728522fbe416b9dbb0c12e9e84870aa8e17ad1100000000000000000000000000000000000000000000000000000000000000400000000000000000000000000000000000000000000000000000000000000084fa823af5000000000000000000000000833589fcd6edb6e08f4c7c32d4f71b54bda0291300000000000000000000000000000000000000000000000000000000000f42400000000000000000000000000728522fbe416b9dbb0c12e9e84870aa8e17ad11000000000000000000000000a5040d66a8e609fce17d115f4726a2311331bb21000000000000000000000000000000000000000000000000000000000000000000000000000000000000000000000000000000000000000000000000000000000000000000000000000000000000000000000000000001045ec495440000000000000000000000002a7168c467f97a4c56958b0dde1144e450a60a3600000000000000000000000000000000000000000000000000000000000000400000000000000000000000000000000000000000000000000000000000000084fa823af5000000000000000000000000833589fcd6edb6e08f4c7c32d4f71b54bda0291300000000000000000000000000000000000000000000000000000000000f42400000000000000000000000002a7168c467f97a4c56958b0dde1144e450a60a36000000000000000000000000a5040d66a8e609fce17d115f4726a2311331bb21000000000000000000000000000000000000000000000000000000000000000000000000000000000000000000000000000000000000000000000000000000000000000000000000000000000000000000000000000001045ec49544000000000000000000000000e69669f93e77f2245f4a35d804bc3c91f43e0e1500000000000000000000000000000000000000000000000000000000000000400000000000000000000000000000000000000000000000000000000000000084fa823af5000000000000000000000000833589fcd6edb6e08f4c7c32d4f71b54bda0291300000000000000000000000000000000000000000000000000000000000f4240000000000000000000000000e69669f93e77f2245f4a35d804bc3c91f43e0e15000000000000000000000000a5040d66a8e609fce17d115f4726a2311331bb210000000000000000000000000000000000000000000000000000000000000000000000000000000000000000000000000000000000000000000000000000000000000000000000000000000000000000000000000000004491c769ce000000000000000000000000330dc31db45672c1f565cf3ec91f9a01f8f3df0b000000000000000000000000000000000000000000000000000000000000000000000000000000000000000000000000000000000000000000000000",
        "nonce": "0x142",
        "chainId": "0x2105"
      },
      "additionalContracts": [],
      "isFixedGasLimit": false
    }
  ],
  "receipts": [],
  "libraries": [],
  "pending": [],
  "returns": {},
  "timestamp": 1761155457846,
  "chain": 8453,
  "commit": "f3ea9de8"
}