{
  "transactions": [
    {
      "hash": "0x2dd6c348e664f9ae8a49643b54207547010a9ac8f3fc373db73e3c12ef67455c",
      "transactionType": "CALL",
      "contractName": null,
      "contractAddress": "0xcf62030BFd6c0c64B5569b7C76b03F97E9A31352",
      "function": "borrowAsMarketOrder((address,uint256,uint256,bool,uint256[]))",
      "arguments": [
        "(0xD20baecCd9F77fAA9E2C2B185F33483D7911f9C8, 10000000, 1707407832, false, [])"
      ],
      "transaction": {
        "type": "0x02",
        "from": "0x979af411d048b453e3334c95f392012b3bbd6215",
        "to": "0xcf62030bfd6c0c64b5569b7c76b03f97e9a31352",
        "gas": "0x960e5",
        "value": "0x0",
        "data": "0x872b7d260000000000000000000000000000000000000000000000000000000000000020000000000000000000000000d20baeccd9f77faa9e2c2b185f33483d7911f9c800000000000000000000000000000000000000000000000000000000009896800000000000000000000000000000000000000000000000000000000065c4f9d8000000000000000000000000000000000000000000000000000000000000000000000000000000000000000000000000000000000000000000000000000000a00000000000000000000000000000000000000000000000000000000000000000",
        "nonce": "0x1b",
        "accessList": []
      },
      "additionalContracts": [],
      "isFixedGasLimit": false
    }
  ],
  "receipts": [
    {
      "transactionHash": "0x2dd6c348e664f9ae8a49643b54207547010a9ac8f3fc373db73e3c12ef67455c",
      "transactionIndex": "0x54",
      "blockHash": "0xf554f0177dcf0482c697eeafb08ae6a78901d8a1626b17b776ff43636ac5f346",
      "blockNumber": "0x4fda2b",
      "from": "0x979Af411D048b453E3334C95F392012B3BbD6215",
      "to": "0xcf62030BFd6c0c64B5569b7C76b03F97E9A31352",
      "cumulativeGasUsed": "0x801955",
      "gasUsed": "0x6ca35",
      "contractAddress": null,
      "logs": [
        {
          "address": "0xcf62030BFd6c0c64B5569b7C76b03F97E9A31352",
          "topics": [
            "0x31c4288e9223fa08a43b454ba0d23c2e030c6c3f912bde9f90c0c781d50bae01",
            "0x000000000000000000000000d20baeccd9f77faa9e2c2b185f33483d7911f9c8"
          ],
          "data": "0x00000000000000000000000000000000000000000000000000000000009896800000000000000000000000000000000000000000000000000000000065c4f9d8000000000000000000000000000000000000000000000000000000000000000000000000000000000000000000000000000000000000000000000000000000800000000000000000000000000000000000000000000000000000000000000000",
          "blockHash": "0xf554f0177dcf0482c697eeafb08ae6a78901d8a1626b17b776ff43636ac5f346",
          "blockNumber": "0x4fda2b",
          "transactionHash": "0x2dd6c348e664f9ae8a49643b54207547010a9ac8f3fc373db73e3c12ef67455c",
          "transactionIndex": "0x54",
          "logIndex": "0xa6",
          "removed": false
        },
        {
          "address": "0xcf62030BFd6c0c64B5569b7C76b03F97E9A31352",
          "topics": [
            "0xda83d431bec0c8317d5cf10dd5dfba2be46256b6ea854b0fd08a556cb5a29f1d",
            "0x0000000000000000000000000000000000000000000000000000000000000002",
            "0x000000000000000000000000d20baeccd9f77faa9e2c2b185f33483d7911f9c8",
            "0x000000000000000000000000979af411d048b453e3334c95f392012b3bbd6215"
          ],
          "data": "0xffffffffffffffffffffffffffffffffffffffffffffffffffffffffffffffffffffffffffffffffffffffffffffffffffffffffffffffffffffffffffffffff0000000000000000000000000000000000000000000000000000000000989680000000000000000000000000000000000000000000000000000000000145f8020000000000000000000000000000000000000000000000000000000065c4f9d8",
          "blockHash": "0xf554f0177dcf0482c697eeafb08ae6a78901d8a1626b17b776ff43636ac5f346",
          "blockNumber": "0x4fda2b",
          "transactionHash": "0x2dd6c348e664f9ae8a49643b54207547010a9ac8f3fc373db73e3c12ef67455c",
          "transactionIndex": "0x54",
          "logIndex": "0xa7",
          "removed": false
        },
        {
          "address": "0x8c7fBeB9F92D40E8F9A3634f62f35F522997E68B",
          "topics": [
            "0xddf252ad1be2c89b69c2b068fc378daa952ba7f163c4a11628f55a4df523b3ef",
            "0x0000000000000000000000000000000000000000000000000000000000000000",
            "0x000000000000000000000000979af411d048b453e3334c95f392012b3bbd6215"
          ],
          "data": "0x000000000000000000000000000000000000000000000000000000000145f914",
          "blockHash": "0xf554f0177dcf0482c697eeafb08ae6a78901d8a1626b17b776ff43636ac5f346",
          "blockNumber": "0x4fda2b",
          "transactionHash": "0x2dd6c348e664f9ae8a49643b54207547010a9ac8f3fc373db73e3c12ef67455c",
          "transactionIndex": "0x54",
          "logIndex": "0xa8",
          "removed": false
        },
        {
          "address": "0x6031f0512e86164c278bEBF8a59E733ec6FA92D9",
          "topics": [
            "0xddf252ad1be2c89b69c2b068fc378daa952ba7f163c4a11628f55a4df523b3ef",
            "0x000000000000000000000000236955b5ce6d975a1655f10dba30726c65cb2f35",
            "0x000000000000000000000000fd1e0e7b6afd10703a47c2e2ac233dd6486b6825"
          ],
          "data": "0x0000000000000000000000000000000000000000000000000000000000989680",
          "blockHash": "0xf554f0177dcf0482c697eeafb08ae6a78901d8a1626b17b776ff43636ac5f346",
          "blockNumber": "0x4fda2b",
          "transactionHash": "0x2dd6c348e664f9ae8a49643b54207547010a9ac8f3fc373db73e3c12ef67455c",
          "transactionIndex": "0x54",
          "logIndex": "0xa9",
          "removed": false
        },
        {
          "address": "0x6031f0512e86164c278bEBF8a59E733ec6FA92D9",
          "topics": [
            "0x4beccb90f994c31aced7a23b5611020728a23d8ec5cddd1a3e9d97b96fda8666",
            "0x000000000000000000000000236955b5ce6d975a1655f10dba30726c65cb2f35",
            "0x000000000000000000000000fd1e0e7b6afd10703a47c2e2ac233dd6486b6825"
          ],
          "data": "0x00000000000000000000000000000000000000000000000000000000009896800000000000000000000000000000000000000000033b2e3c9fd0803ce8000000",
          "blockHash": "0xf554f0177dcf0482c697eeafb08ae6a78901d8a1626b17b776ff43636ac5f346",
          "blockNumber": "0x4fda2b",
          "transactionHash": "0x2dd6c348e664f9ae8a49643b54207547010a9ac8f3fc373db73e3c12ef67455c",
          "transactionIndex": "0x54",
          "logIndex": "0xaa",
          "removed": false
        }
      ],
      "status": "0x1",
      "logsBloom": "0x04000000000000000008000000000000004000000000080002000000000000000000000000200000000000000000400000000000200002000100000000000000000000000000000000000008010000000000000000000000000800004000000001000000020000002000100000000800000004000000000000000010000000000001010000000000000000000000000000000000000000400000000000000000000000000000000000000100000000000000000000000000080000000000000000000002000000100000000012000000000000000000000000000000001020000040000000000002000000000000000000000000208100000000000020020000",
      "type": "0x2",
      "effectiveGasPrice": "0x21f19a0a8d"
    }
  ],
  "libraries": [],
  "pending": [],
  "returns": {},
  "timestamp": 1707235097,
  "chain": 11155111,
  "multi": false,
  "commit": "4046cff"
}