{
  "transactions": [
    {
      "hash": "0x2dd6c348e664f9ae8a49643b54207547010a9ac8f3fc373db73e3c12ef67455c",
      "transactionType": "CALL",
      "contractName": null,
      "contractAddress": "0xcf62030BFd6c0c64B5569b7C76b03F97E9A31352",
      "function": "borrowAsMarketOrder((address,uint256,uint256,bool,uint256[]))",
      "arguments": [
        "(0xD20baecCd9F77fAA9E2C2B185F33483D7911f9C8, 10000000, 1707407832, false, [])"
      ],
      "transaction": {
        "type": "0x02",
        "from": "0x979af411d048b453e3334c95f392012b3bbd6215",
        "to": "0xcf62030bfd6c0c64b5569b7c76b03f97e9a31352",
        "gas": "0x960e5",
        "value": "0x0",
        "data": "0x872b7d260000000000000000000000000000000000000000000000000000000000000020000000000000000000000000d20baeccd9f77faa9e2c2b185f33483d7911f9c800000000000000000000000000000000000000000000000000000000009896800000000000000000000000000000000000000000000000000000000065c4f9d8000000000000000000000000000000000000000000000000000000000000000000000000000000000000000000000000000000000000000000000000000000a00000000000000000000000000000000000000000000000000000000000000000",
        "nonce": "0x1b",
        "accessList": []
      },
      "additionalContracts": [],
      "isFixedGasLimit": false
    }
  ],
  "receipts": [],
  "libraries": [],
  "pending": [
    "0x2dd6c348e664f9ae8a49643b54207547010a9ac8f3fc373db73e3c12ef67455c"
  ],
  "returns": {},
  "timestamp": 1707235084,
  "chain": 11155111,
  "multi": false,
  "commit": "4046cff"
}