{
  "transactions": [
    {
      "hash": "0x4cc968b91e56901cdcecf818c573ede4b31c6d4c64f2194c45a2e336cb31c37d",
      "transactionType": "CALL",
      "contractName": null,
      "contractAddress": "0xcf62030BFd6c0c64B5569b7C76b03F97E9A31352",
      "function": "borrowAsMarketOrder((address,uint256,uint256,bool,uint256[]))",
      "arguments": [
        "(0xD20baecCd9F77fAA9E2C2B185F33483D7911f9C8, 6000000, 1707400860, false, [])"
      ],
      "transaction": {
        "type": "0x02",
        "from": "0xd20baeccd9f77faa9e2c2b185f33483d7911f9c8",
        "to": "0xcf62030bfd6c0c64b5569b7c76b03f97e9a31352",
        "gas": "0xa3709",
        "value": "0x0",
        "data": "0x872b7d260000000000000000000000000000000000000000000000000000000000000020000000000000000000000000d20baeccd9f77faa9e2c2b185f33483d7911f9c800000000000000000000000000000000000000000000000000000000005b8d800000000000000000000000000000000000000000000000000000000065c4de9c000000000000000000000000000000000000000000000000000000000000000000000000000000000000000000000000000000000000000000000000000000a00000000000000000000000000000000000000000000000000000000000000000",
        "nonce": "0x5c",
        "accessList": []
      },
      "additionalContracts": [],
      "isFixedGasLimit": false
    }
  ],
  "receipts": [
    {
      "transactionHash": "0x4cc968b91e56901cdcecf818c573ede4b31c6d4c64f2194c45a2e336cb31c37d",
      "transactionIndex": "0x47",
      "blockHash": "0xfb1571b1f4e1c7723c628dd232d8f82d13beec1e4da3415a2ba3303c0bf96430",
      "blockNumber": "0x4fd80e",
      "from": "0xD20baecCd9F77fAA9E2C2B185F33483D7911f9C8",
      "to": "0xcf62030BFd6c0c64B5569b7C76b03F97E9A31352",
      "cumulativeGasUsed": "0x53fd42",
      "gasUsed": "0x7653e",
      "contractAddress": null,
      "logs": [
        {
          "address": "0xcf62030BFd6c0c64B5569b7C76b03F97E9A31352",
          "topics": [
            "0x31c4288e9223fa08a43b454ba0d23c2e030c6c3f912bde9f90c0c781d50bae01",
            "0x000000000000000000000000d20baeccd9f77faa9e2c2b185f33483d7911f9c8"
          ],
          "data": "0x00000000000000000000000000000000000000000000000000000000005b8d800000000000000000000000000000000000000000000000000000000065c4de9c000000000000000000000000000000000000000000000000000000000000000000000000000000000000000000000000000000000000000000000000000000800000000000000000000000000000000000000000000000000000000000000000",
          "blockHash": "0xfb1571b1f4e1c7723c628dd232d8f82d13beec1e4da3415a2ba3303c0bf96430",
          "blockNumber": "0x4fd80e",
          "transactionHash": "0x4cc968b91e56901cdcecf818c573ede4b31c6d4c64f2194c45a2e336cb31c37d",
          "transactionIndex": "0x47",
          "logIndex": "0x41",
          "removed": false
        },
        {
          "address": "0xcf62030BFd6c0c64B5569b7C76b03F97E9A31352",
          "topics": [
            "0xda83d431bec0c8317d5cf10dd5dfba2be46256b6ea854b0fd08a556cb5a29f1d",
            "0x0000000000000000000000000000000000000000000000000000000000000000",
            "0x000000000000000000000000d20baeccd9f77faa9e2c2b185f33483d7911f9c8",
            "0x000000000000000000000000d20baeccd9f77faa9e2c2b185f33483d7911f9c8"
          ],
          "data": "0xffffffffffffffffffffffffffffffffffffffffffffffffffffffffffffffffffffffffffffffffffffffffffffffffffffffffffffffffffffffffffffffff00000000000000000000000000000000000000000000000000000000005b8d800000000000000000000000000000000000000000000000000000000000c394ce0000000000000000000000000000000000000000000000000000000065c4de9c",
          "blockHash": "0xfb1571b1f4e1c7723c628dd232d8f82d13beec1e4da3415a2ba3303c0bf96430",
          "blockNumber": "0x4fd80e",
          "transactionHash": "0x4cc968b91e56901cdcecf818c573ede4b31c6d4c64f2194c45a2e336cb31c37d",
          "transactionIndex": "0x47",
          "logIndex": "0x42",
          "removed": false
        },
        {
          "address": "0x8c7fBeB9F92D40E8F9A3634f62f35F522997E68B",
          "topics": [
            "0xddf252ad1be2c89b69c2b068fc378daa952ba7f163c4a11628f55a4df523b3ef",
            "0x0000000000000000000000000000000000000000000000000000000000000000",
            "0x000000000000000000000000d20baeccd9f77faa9e2c2b185f33483d7911f9c8"
          ],
          "data": "0x0000000000000000000000000000000000000000000000000000000000c39573",
          "blockHash": "0xfb1571b1f4e1c7723c628dd232d8f82d13beec1e4da3415a2ba3303c0bf96430",
          "blockNumber": "0x4fd80e",
          "transactionHash": "0x4cc968b91e56901cdcecf818c573ede4b31c6d4c64f2194c45a2e336cb31c37d",
          "transactionIndex": "0x47",
          "logIndex": "0x43",
          "removed": false
        },
        {
          "address": "0x6031f0512e86164c278bEBF8a59E733ec6FA92D9",
          "topics": [
            "0xddf252ad1be2c89b69c2b068fc378daa952ba7f163c4a11628f55a4df523b3ef",
            "0x000000000000000000000000236955b5ce6d975a1655f10dba30726c65cb2f35",
            "0x000000000000000000000000236955b5ce6d975a1655f10dba30726c65cb2f35"
          ],
          "data": "0x00000000000000000000000000000000000000000000000000000000005b8d80",
          "blockHash": "0xfb1571b1f4e1c7723c628dd232d8f82d13beec1e4da3415a2ba3303c0bf96430",
          "blockNumber": "0x4fd80e",
          "transactionHash": "0x4cc968b91e56901cdcecf818c573ede4b31c6d4c64f2194c45a2e336cb31c37d",
          "transactionIndex": "0x47",
          "logIndex": "0x44",
          "removed": false
        },
        {
          "address": "0x6031f0512e86164c278bEBF8a59E733ec6FA92D9",
          "topics": [
            "0x4beccb90f994c31aced7a23b5611020728a23d8ec5cddd1a3e9d97b96fda8666",
            "0x000000000000000000000000236955b5ce6d975a1655f10dba30726c65cb2f35",
            "0x000000000000000000000000236955b5ce6d975a1655f10dba30726c65cb2f35"
          ],
          "data": "0x00000000000000000000000000000000000000000000000000000000005b8d800000000000000000000000000000000000000000033b2e3c9fd0803ce8000000",
          "blockHash": "0xfb1571b1f4e1c7723c628dd232d8f82d13beec1e4da3415a2ba3303c0bf96430",
          "blockNumber": "0x4fd80e",
          "transactionHash": "0x4cc968b91e56901cdcecf818c573ede4b31c6d4c64f2194c45a2e336cb31c37d",
          "transactionIndex": "0x47",
          "logIndex": "0x45",
          "removed": false
        }
      ],
      "status": "0x1",
      "logsBloom": "0x00000000000000000008000000000000004000000000080002000000000000000000000000200000000000000000400000000000200000000000000000000000000000000000000000000008010000000000000000000000000800000000000001000000020000002000100000000800000004000000000000000010000000000001010000000000000000000000000000000000000000000000000000000000000000000000000000000000000000000000000000000000080000000000000000000002000000100000000012000000000000000000000000000000000020000040000000000002000000000000000000000000200100000000000000020000",
      "type": "0x2",
      "effectiveGasPrice": "0xee61812e9"
    }
  ],
  "libraries": [],
  "pending": [],
  "returns": {},
  "timestamp": 1707228122,
  "chain": 11155111,
  "multi": false,
  "commit": "5feec6f"
}