{
  "transactions": [
    {
      "hash": "0x0639e47e37d03faeab238b44dce5a750183655f7fc91681eef0c58edf579ffaf",
      "transactionType": "CALL",
      "contractName": null,
      "contractAddress": "0xc2c923bbfd83d3b3a8888f80a9aab193ee5449b6",
      "function": "grantRole(bytes32,address)",
      "arguments": [
        "0x0000000000000000000000000000000000000000000000000000000000000000",
        "0x462B545e8BBb6f9E5860928748Bfe9eCC712c3a7"
      ],
      "transaction": {
        "from": "0xf7164d2fc05350c75387fa6c0cc4f97634ca9451",
        "to": "0xc2c923bbfd83d3b3a8888f80a9aab193ee5449b6",
        "gas": "0x12f34",
        "value": "0x0",
        "input": "0x2f2ff15d0000000000000000000000000000000000000000000000000000000000000000000000000000000000000000462b545e8bbb6f9e5860928748bfe9ecc712c3a7",
        "nonce": "0x48",
        "chainId": "0x14a34"
      },
      "additionalContracts": [],
      "isFixedGasLimit": false
    }
  ],
  "receipts": [
    {
      "status": "0x1",
      "cumulativeGasUsed": "0x139636",
      "logs": [
        {
          "address": "0xc2c923bbfd83d3b3a8888f80a9aab193ee5449b6",
          "topics": [
            "0x2f8788117e7eff1d82e926ec794901d17c78024a50270940304540a733656f0d",
            "0x0000000000000000000000000000000000000000000000000000000000000000",
            "0x000000000000000000000000462b545e8bbb6f9e5860928748bfe9ecc712c3a7",
            "0x000000000000000000000000f7164d2fc05350c75387fa6c0cc4f97634ca9451"
          ],
          "data": "0x",
          "blockHash": "0x3ccacd1eb9d035c0847f8afd9f7b01b25f552c319490ed68665bb2981853fc01",
          "blockNumber": "0xbe5471",
          "transactionHash": "0x0639e47e37d03faeab238b44dce5a750183655f7fc91681eef0c58edf579ffaf",
          "transactionIndex": "0x4",
          "logIndex": "0x10",
          "removed": false
        }
      ],
      "logsBloom": "0x00000004000000000000000000000040000000000000000000000000000000000040000000000000000000000000000000000010000000000000000000000000000000000000000000100000000000000000000000000000000000000000000000000000020000000000000000000800000000000000000000000000000000000000000000000000000000000000000000000000000000000000000108000000000000010000000000000000000000000000008000000000001000000000000000000000000000000000000000000000000000000000000100000000000020000000002000000000000000000000000000000000000000000000000000000000",
      "type": "0x2",
      "transactionHash": "0x0639e47e37d03faeab238b44dce5a750183655f7fc91681eef0c58edf579ffaf",
      "transactionIndex": "0x4",
      "blockHash": "0x3ccacd1eb9d035c0847f8afd9f7b01b25f552c319490ed68665bb2981853fc01",
      "blockNumber": "0xbe5471",
      "gasUsed": "0xdb84",
      "effectiveGasPrice": "0x92a73",
      "from": "0xf7164d2fc05350c75387fa6c0cc4f97634ca9451",
      "to": "0xc2c923bbfd83d3b3a8888f80a9aab193ee5449b6",
      "contractAddress": null,
      "l1BaseFeeScalar": "0x44d",
      "l1BlobBaseFee": "0x1",
      "l1BlobBaseFeeScalar": "0xa118b",
      "l1Fee": "0x403db56ba",
      "l1GasPrice": "0x2477aa682",
      "l1GasUsed": "0x640"
    }
  ],
  "libraries": [],
  "pending": [],
  "returns": {},
  "timestamp": 1720715207,
  "chain": 84532,
  "commit": "940211f"
}