{
  "transactions": [
    {
      "hash": "0xdaa603676c2cf6ab01b7b597535c8e637e9d5ac98553a63bb3950bf1045b3614",
      "transactionType": "CALL",
      "contractName": null,
      "contractAddress": "0xc2c923bbfd83d3b3a8888f80a9aab193ee5449b6",
      "function": "grantRole(bytes32,address)",
      "arguments": [
        "0x65d7a28e3265b37a6474929f336521b332c1681b933f6cb9f3376673440d862a",
        "0x462B545e8BBb6f9E5860928748Bfe9eCC712c3a7"
      ],
      "transaction": {
        "from": "0xf7164d2fc05350c75387fa6c0cc4f97634ca9451",
        "to": "0xc2c923bbfd83d3b3a8888f80a9aab193ee5449b6",
        "gas": "0x13146",
        "value": "0x0",
        "input": "0x2f2ff15d65d7a28e3265b37a6474929f336521b332c1681b933f6cb9f3376673440d862a000000000000000000000000462b545e8bbb6f9e5860928748bfe9ecc712c3a7",
        "nonce": "0x49",
        "chainId": "0x14a34"
      },
      "additionalContracts": [],
      "isFixedGasLimit": false
    }
  ],
  "receipts": [
    {
      "status": "0x1",
      "cumulativeGasUsed": "0xee54c",
      "logs": [
        {
          "address": "0xc2c923bbfd83d3b3a8888f80a9aab193ee5449b6",
          "topics": [
            "0x2f8788117e7eff1d82e926ec794901d17c78024a50270940304540a733656f0d",
            "0x65d7a28e3265b37a6474929f336521b332c1681b933f6cb9f3376673440d862a",
            "0x000000000000000000000000462b545e8bbb6f9e5860928748bfe9ecc712c3a7",
            "0x000000000000000000000000f7164d2fc05350c75387fa6c0cc4f97634ca9451"
          ],
          "data": "0x",
          "blockHash": "0x6b7eb2833e44080a3506d9482cef6f417b126aa0445a42be3371ae198e6974c7",
          "blockNumber": "0xbe5811",
          "transactionHash": "0xdaa603676c2cf6ab01b7b597535c8e637e9d5ac98553a63bb3950bf1045b3614",
          "transactionIndex": "0xb",
          "logIndex": "0xe",
          "removed": false
        }
      ],
      "logsBloom": "0x00000004000000000000000000000040000000000000000000000000000000000040000000000000000000000000000000000010000000000000000000000000000000000000000000100000000000000000000000000000000000000000000000000000000000000000000000000000000000000000000000000000000000000000000000000000000000000000008000000000000000000000000108000000000000010000000000000000000000000000008000000000001000000000000000000000000000000000000000000000000000000000000100002000000000000000002000000000000000000000000000000400000000000000000000000000",
      "type": "0x2",
      "transactionHash": "0xdaa603676c2cf6ab01b7b597535c8e637e9d5ac98553a63bb3950bf1045b3614",
      "transactionIndex": "0xb",
      "blockHash": "0x6b7eb2833e44080a3506d9482cef6f417b126aa0445a42be3371ae198e6974c7",
      "blockNumber": "0xbe5811",
      "gasUsed": "0xdd04",
      "effectiveGasPrice": "0xa777d",
      "from": "0xf7164d2fc05350c75387fa6c0cc4f97634ca9451",
      "to": "0xc2c923bbfd83d3b3a8888f80a9aab193ee5449b6",
      "contractAddress": null,
      "l1BaseFeeScalar": "0x44d",
      "l1BlobBaseFee": "0x140",
      "l1BlobBaseFeeScalar": "0xa118b",
      "l1Fee": "0x2eedb0e97",
      "l1GasPrice": "0x190ee1518",
      "l1GasUsed": "0x6a4"
    }
  ],
  "libraries": [],
  "pending": [],
  "returns": {},
  "timestamp": 1720717063,
  "chain": 84532,
  "commit": "d69e05f"
}