{
  "transactions": [
    {
      "hash": "0x618d565c3fffc0e732c368c07561d0fbf7e9cc0fd54aee56363cfc1c36a2e427",
      "transactionType": "CALL",
      "contractName": null,
      "contractAddress": "0xc2c923bbfd83d3b3a8888f80a9aab193ee5449b6",
      "function": "grantRole(bytes32,address)",
      "arguments": [
        "0x65d7a28e3265b37a6474929f336521b332c1681b933f6cb9f3376673440d862a",
        "0x023953117D262271d70Dd5d8C96A8Dd327A7A594"
      ],
      "transaction": {
        "from": "0xf7164d2fc05350c75387fa6c0cc4f97634ca9451",
        "to": "0xc2c923bbfd83d3b3a8888f80a9aab193ee5449b6",
        "gas": "0x13146",
        "value": "0x0",
        "input": "0x2f2ff15d65d7a28e3265b37a6474929f336521b332c1681b933f6cb9f3376673440d862a000000000000000000000000023953117d262271d70dd5d8c96a8dd327a7a594",
        "nonce": "0x2d",
        "chainId": "0x14a34"
      },
      "additionalContracts": [],
      "isFixedGasLimit": false
    }
  ],
  "receipts": [
    {
      "status": "0x1",
      "cumulativeGasUsed": "0x2d35f7",
      "logs": [
        {
          "address": "0xc2c923bbfd83d3b3a8888f80a9aab193ee5449b6",
          "topics": [
            "0x2f8788117e7eff1d82e926ec794901d17c78024a50270940304540a733656f0d",
            "0x65d7a28e3265b37a6474929f336521b332c1681b933f6cb9f3376673440d862a",
            "0x000000000000000000000000023953117d262271d70dd5d8c96a8dd327a7a594",
            "0x000000000000000000000000f7164d2fc05350c75387fa6c0cc4f97634ca9451"
          ],
          "data": "0x",
          "blockHash": "0x0fd74329a3fd91916eb8e618a262ea53d0b3394eaa68e1e2f3141abcc3832e4f",
          "blockNumber": "0xbd2bd5",
          "transactionHash": "0x618d565c3fffc0e732c368c07561d0fbf7e9cc0fd54aee56363cfc1c36a2e427",
          "transactionIndex": "0x7",
          "logIndex": "0x41",
          "removed": false
        }
      ],
      "logsBloom": "0x00000004000000000000000000000000000000000000000000000000000000000000000000000000000000000000000000000010000000000000000000000000000000000000000000100000000000000000000000000000000000000000000000000000000000008000000000080000000000000000000000000000100000000000000000000000000000000000008000000000000000000000000108000000000000010000000000000000000000000000000000000000001000000000000000000000000000000000000000000000000000000000000100002000000000000000002000000000000000000000000000000400000000000000000000000000",
      "type": "0x2",
      "transactionHash": "0x618d565c3fffc0e732c368c07561d0fbf7e9cc0fd54aee56363cfc1c36a2e427",
      "transactionIndex": "0x7",
      "blockHash": "0x0fd74329a3fd91916eb8e618a262ea53d0b3394eaa68e1e2f3141abcc3832e4f",
      "blockNumber": "0xbd2bd5",
      "gasUsed": "0xdd04",
      "effectiveGasPrice": "0xb76b7",
      "from": "0xf7164d2fc05350c75387fa6c0cc4f97634ca9451",
      "to": "0xc2c923bbfd83d3b3a8888f80a9aab193ee5449b6",
      "contractAddress": null,
      "l1BaseFeeScalar": "0x44d",
      "l1BlobBaseFee": "0x1",
      "l1BlobBaseFeeScalar": "0xa118b",
      "l1Fee": "0xaf20e195",
      "l1GasPrice": "0x5d833154",
      "l1GasUsed": "0x6a4"
    }
  ],
  "libraries": [],
  "pending": [],
  "returns": {},
  "timestamp": 1720563344,
  "chain": 84532,
  "commit": "1c16b0e"
}