{
  "transactions": [
    {
      "hash": "0x04151284c8c0eb4cace1e9a337427a2be8205f9628a71b04c35c952e13957aa9",
      "transactionType": "CALL",
      "contractName": null,
      "contractAddress": "0xa5f2066647d22dfbd2ed0dd43344db9dce4b4632",
      "function": "updateConfig((string,uint256))",
      "arguments": [
        "(fragmentationFee, 0)"
      ],
      "transaction": {
        "from": "0xf7164d2fc05350c75387fa6c0cc4f97634ca9451",
        "to": "0xa5f2066647d22dfbd2ed0dd43344db9dce4b4632",
        "gas": "0x2787e",
        "value": "0x0",
        "input": "0x0317b9df0000000000000000000000000000000000000000000000000000000000000020000000000000000000000000000000000000000000000000000000000000004000000000000000000000000000000000000000000000000000000000000000000000000000000000000000000000000000000000000000000000000000000010667261676d656e746174696f6e46656500000000000000000000000000000000",
        "nonce": "0xce",
        "chainId": "0x14a34"
      },
      "additionalContracts": [],
      "isFixedGasLimit": false
    },
    {
      "hash": "0xa72c7e86e15c47d3a495f68605d951f78445a9afbee03cade553e3e55408a299",
      "transactionType": "CALL",
      "contractName": null,
      "contractAddress": "0xa5f2066647d22dfbd2ed0dd43344db9dce4b4632",
      "function": "updateConfig((string,uint256))",
      "arguments": [
        "(swapFeeAPR, 0)"
      ],
      "transaction": {
        "from": "0xf7164d2fc05350c75387fa6c0cc4f97634ca9451",
        "to": "0xa5f2066647d22dfbd2ed0dd43344db9dce4b4632",
        "gas": "0x276fb",
        "value": "0x0",
        "input": "0x0317b9df000000000000000000000000000000000000000000000000000000000000002000000000000000000000000000000000000000000000000000000000000000400000000000000000000000000000000000000000000000000000000000000000000000000000000000000000000000000000000000000000000000000000000a7377617046656541505200000000000000000000000000000000000000000000",
        "nonce": "0xcf",
        "chainId": "0x14a34"
      },
      "additionalContracts": [],
      "isFixedGasLimit": false
    },
    {
      "hash": "0x2a2490e881875095195be55f6ac8ad98e55833543bb572c939fe2b90140a9271",
      "transactionType": "CALL",
      "contractName": null,
      "contractAddress": "0xa5f2066647d22dfbd2ed0dd43344db9dce4b4632",
      "function": "updateConfig((string,uint256))",
      "arguments": [
        "(minimumCreditBorrowAToken, 1)"
      ],
      "transaction": {
        "from": "0xf7164d2fc05350c75387fa6c0cc4f97634ca9451",
        "to": "0xa5f2066647d22dfbd2ed0dd43344db9dce4b4632",
        "gas": "0x286d7",
        "value": "0x0",
        "input": "0x0317b9df00000000000000000000000000000000000000000000000000000000000000200000000000000000000000000000000000000000000000000000000000000040000000000000000000000000000000000000000000000000000000000000000100000000000000000000000000000000000000000000000000000000000000196d696e696d756d437265646974426f72726f7741546f6b656e00000000000000",
        "nonce": "0xd0",
        "chainId": "0x14a34"
      },
      "additionalContracts": [],
      "isFixedGasLimit": false
    }
  ],
  "receipts": [
    {
      "status": "0x1",
      "cumulativeGasUsed": "0x41c08",
      "logs": [
        {
          "address": "0xa5f2066647d22dfbd2ed0dd43344db9dce4b4632",
          "topics": [
            "0x6818c9181f3a8cb0f4d8178667c423a4c4ed24fc2410822be08e76ef50b2de1e",
            "0x35993b6041e83059817ad034258d1f64f4ff5bc048719c2c748648617879c0d0"
          ],
          "data": "0x0000000000000000000000000000000000000000000000000000000000000000",
          "blockHash": "0xf245387c1f6af795532e186c49a9e1f9577e7471b449967715f073a5ce9d7b3f",
          "blockNumber": "0x1141e6f",
          "transactionHash": "0x04151284c8c0eb4cace1e9a337427a2be8205f9628a71b04c35c952e13957aa9",
          "transactionIndex": "0x3",
          "logIndex": "0x1",
          "removed": false
        }
      ],
      "logsBloom": "0x00000000002000000000000000000000000000000000000000000000000000010000000000000000000000000000000000000000000000000000000000000000000000000000000000000000000000000000000000000000000000000000000000000000000000000000000000000000002000000000000000000000000000000000000000000000000000000000000000000000000000000000000000000000000000000000000000000000000000000000000000000000000000000000000000000000040000000000000000000000000000000000000000000000000200200000000000000000080000000000000000000000008000000000000001000000",
      "type": "0x2",
      "transactionHash": "0x04151284c8c0eb4cace1e9a337427a2be8205f9628a71b04c35c952e13957aa9",
      "transactionIndex": "0x3",
      "blockHash": "0xf245387c1f6af795532e186c49a9e1f9577e7471b449967715f073a5ce9d7b3f",
      "blockNumber": "0x1141e6f",
      "gasUsed": "0x1b07a",
      "effectiveGasPrice": "0x187a3",
      "from": "0xf7164d2fc05350c75387fa6c0cc4f97634ca9451",
      "to": "0xa5f2066647d22dfbd2ed0dd43344db9dce4b4632",
      "contractAddress": null,
      "l1BaseFeeScalar": "0x44d",
      "l1BlobBaseFee": "0x2",
      "l1BlobBaseFeeScalar": "0xa118b",
      "l1Fee": "0x1834e3",
      "l1GasPrice": "0xdbd78",
      "l1GasUsed": "0x640"
    },
    {
      "status": "0x1",
      "cumulativeGasUsed": "0x5cb79",
      "logs": [
        {
          "address": "0xa5f2066647d22dfbd2ed0dd43344db9dce4b4632",
          "topics": [
            "0x6818c9181f3a8cb0f4d8178667c423a4c4ed24fc2410822be08e76ef50b2de1e",
            "0x96b181a4bdf3b0ce27849139f34671701dbe73e1c7d5b81e72b1a3e560862542"
          ],
          "data": "0x0000000000000000000000000000000000000000000000000000000000000000",
          "blockHash": "0xf245387c1f6af795532e186c49a9e1f9577e7471b449967715f073a5ce9d7b3f",
          "blockNumber": "0x1141e6f",
          "transactionHash": "0xa72c7e86e15c47d3a495f68605d951f78445a9afbee03cade553e3e55408a299",
          "transactionIndex": "0x4",
          "logIndex": "0x2",
          "removed": false
        }
      ],
      "logsBloom": "0x00000000000000000000002000000000000000000000000000000000000000010000000000000000000000000000000000000000000000000000000000000000000000000000000000000000000000000000000000000000000000000000000000000000000000000000000000000000002000000000000000000000000000000000000000000000000000000000000000000000010000000000100000000000000000000000000000000000000000000000000000000000000000000000000000000000040000000000000000000000000000000000000000000000000000200000000000000000000000000000000000000000008000000000000001000000",
      "type": "0x2",
      "transactionHash": "0xa72c7e86e15c47d3a495f68605d951f78445a9afbee03cade553e3e55408a299",
      "transactionIndex": "0x4",
      "blockHash": "0xf245387c1f6af795532e186c49a9e1f9577e7471b449967715f073a5ce9d7b3f",
      "blockNumber": "0x1141e6f",
      "gasUsed": "0x1af71",
      "effectiveGasPrice": "0x187a3",
      "from": "0xf7164d2fc05350c75387fa6c0cc4f97634ca9451",
      "to": "0xa5f2066647d22dfbd2ed0dd43344db9dce4b4632",
      "contractAddress": null,
      "l1BaseFeeScalar": "0x44d",
      "l1BlobBaseFee": "0x2",
      "l1BlobBaseFeeScalar": "0xa118b",
      "l1Fee": "0x1834e3",
      "l1GasPrice": "0xdbd78",
      "l1GasUsed": "0x640"
    },
    {
      "status": "0x1",
      "cumulativeGasUsed": "0x785c2",
      "logs": [
        {
          "address": "0xa5f2066647d22dfbd2ed0dd43344db9dce4b4632",
          "topics": [
            "0x6818c9181f3a8cb0f4d8178667c423a4c4ed24fc2410822be08e76ef50b2de1e",
            "0xf5ad8fba4527e351b3b8663157d537ecf3d02fa7405dc464331960404763b5af"
          ],
          "data": "0x0000000000000000000000000000000000000000000000000000000000000001",
          "blockHash": "0xf245387c1f6af795532e186c49a9e1f9577e7471b449967715f073a5ce9d7b3f",
          "blockNumber": "0x1141e6f",
          "transactionHash": "0x2a2490e881875095195be55f6ac8ad98e55833543bb572c939fe2b90140a9271",
          "transactionIndex": "0x5",
          "logIndex": "0x3",
          "removed": false
        }
      ],
      "logsBloom": "0x00000000000080000000000000000000000000000000800000000000000000010000000000000000000000000000000000000000000000000000000000000000000000000000000000000000000000000000000000000000000000000000000000000000000000000000000000000000002000000000000000000004000000000000000000000000000000000000000000000000000000000000000000000000000000000000000000000000000000000000000000000000000000000000000000000000040000000000000000000000000000000000000000000000000000200000000000000000000000000000000000000000008000000000000001000000",
      "type": "0x2",
      "transactionHash": "0x2a2490e881875095195be55f6ac8ad98e55833543bb572c939fe2b90140a9271",
      "transactionIndex": "0x5",
      "blockHash": "0xf245387c1f6af795532e186c49a9e1f9577e7471b449967715f073a5ce9d7b3f",
      "blockNumber": "0x1141e6f",
      "gasUsed": "0x1ba49",
      "effectiveGasPrice": "0x187a3",
      "from": "0xf7164d2fc05350c75387fa6c0cc4f97634ca9451",
      "to": "0xa5f2066647d22dfbd2ed0dd43344db9dce4b4632",
      "contractAddress": null,
      "l1BaseFeeScalar": "0x44d",
      "l1BlobBaseFee": "0x2",
      "l1BlobBaseFeeScalar": "0xa118b",
      "l1Fee": "0x19bbff",
      "l1GasPrice": "0xdbd78",
      "l1GasUsed": "0x6a4"
    }
  ],
  "libraries": [],
  "pending": [],
  "returns": {},
  "timestamp": 1731959743,
  "chain": 84532,
  "commit": "7ce4aa3"
}