{
  "transactions": [
    {
      "hash": "0xde37882f403c2f0a73e40ab68677dcd5604c9ff0e0fccef4a236f29f2eb8a4f4",
      "transactionType": "CALL",
      "contractName": null,
      "contractAddress": "0x3009b1049f2ef921bb35a80a3d5ee0a47bd0211a",
      "function": "updateConfig((string,uint256))",
      "arguments": [
        "(swapFeeAPR, 0)"
      ],
      "transaction": {
        "from": "0xf7164d2fc05350c75387fa6c0cc4f97634ca9451",
        "to": "0x3009b1049f2ef921bb35a80a3d5ee0a47bd0211a",
        "gas": "0x276fb",
        "value": "0x0",
        "input": "0x0317b9df000000000000000000000000000000000000000000000000000000000000002000000000000000000000000000000000000000000000000000000000000000400000000000000000000000000000000000000000000000000000000000000000000000000000000000000000000000000000000000000000000000000000000a7377617046656541505200000000000000000000000000000000000000000000",
        "nonce": "0xcb",
        "chainId": "0x14a34"
      },
      "additionalContracts": [],
      "isFixedGasLimit": false
    }
  ],
  "receipts": [
    {
      "status": "0x1",
      "cumulativeGasUsed": "0x132a55",
      "logs": [
        {
          "address": "0x3009b1049f2ef921bb35a80a3d5ee0a47bd0211a",
          "topics": [
            "0x6818c9181f3a8cb0f4d8178667c423a4c4ed24fc2410822be08e76ef50b2de1e",
            "0x96b181a4bdf3b0ce27849139f34671701dbe73e1c7d5b81e72b1a3e560862542"
          ],
          "data": "0x0000000000000000000000000000000000000000000000000000000000000000",
          "blockHash": "0xaa129e95b1816e3c68605d9801aebf9457191e8d4cbe43c4d6a510ceef5c09aa",
          "blockNumber": "0x1141e1d",
          "transactionHash": "0xde37882f403c2f0a73e40ab68677dcd5604c9ff0e0fccef4a236f29f2eb8a4f4",
          "transactionIndex": "0x7",
          "logIndex": "0x9",
          "removed": false
        }
      ],
      "logsBloom": "0x00000000000000000000002000000000000000000000000000000000000000000000000000010000000000000000000000000000000000000000001000000000000000000000000000000000000000000000000000000000000000000000000000000000000000000001000000000000000000000000000000000000000000000000000000000000000000000000000000000000010000000000100000000000000000000000000000000000000000000000000000000000000000000000000000000000000000000000000000000000000000000000000000000000000000200000000000000000000000000000000000000000008000000000000001000000",
      "type": "0x2",
      "transactionHash": "0xde37882f403c2f0a73e40ab68677dcd5604c9ff0e0fccef4a236f29f2eb8a4f4",
      "transactionIndex": "0x7",
      "blockHash": "0xaa129e95b1816e3c68605d9801aebf9457191e8d4cbe43c4d6a510ceef5c09aa",
      "blockNumber": "0x1141e1d",
      "gasUsed": "0x1af71",
      "effectiveGasPrice": "0x6ac",
      "from": "0xf7164d2fc05350c75387fa6c0cc4f97634ca9451",
      "to": "0x3009b1049f2ef921bb35a80a3d5ee0a47bd0211a",
      "contractAddress": null,
      "l1BaseFeeScalar": "0x44d",
      "l1BlobBaseFee": "0x2",
      "l1BlobBaseFeeScalar": "0xa118b",
      "l1Fee": "0x171298",
      "l1GasPrice": "0xd18ae",
      "l1GasUsed": "0x640"
    }
  ],
  "libraries": [],
  "pending": [],
  "returns": {},
  "timestamp": 1731959579,
  "chain": 84532,
  "commit": "7ce4aa3"
}