{
  "transactions": [
    {
      "hash": "0xe0390dc1df4c5939f0593901eaa54f020a78a1c527a1ee09314d7f76b7b8ab4b",
      "transactionType": "CALL",
      "contractName": null,
      "contractAddress": "0x3009b1049f2ef921bb35a80a3d5ee0a47bd0211a",
      "function": "updateConfig((string,uint256))",
      "arguments": [
        "(fragmentationFee, 0)"
      ],
      "transaction": {
        "from": "0xf7164d2fc05350c75387fa6c0cc4f97634ca9451",
        "to": "0x3009b1049f2ef921bb35a80a3d5ee0a47bd0211a",
        "gas": "0x2787e",
        "value": "0x0",
        "input": "0x0317b9df0000000000000000000000000000000000000000000000000000000000000020000000000000000000000000000000000000000000000000000000000000004000000000000000000000000000000000000000000000000000000000000000000000000000000000000000000000000000000000000000000000000000000010667261676d656e746174696f6e46656500000000000000000000000000000000",
        "nonce": "0xcc",
        "chainId": "0x14a34"
      },
      "additionalContracts": [],
      "isFixedGasLimit": false
    }
  ],
  "receipts": [
    {
      "status": "0x1",
      "cumulativeGasUsed": "0xa60a3",
      "logs": [
        {
          "address": "0x3009b1049f2ef921bb35a80a3d5ee0a47bd0211a",
          "topics": [
            "0x6818c9181f3a8cb0f4d8178667c423a4c4ed24fc2410822be08e76ef50b2de1e",
            "0x35993b6041e83059817ad034258d1f64f4ff5bc048719c2c748648617879c0d0"
          ],
          "data": "0x0000000000000000000000000000000000000000000000000000000000000000",
          "blockHash": "0x5a88e31280463fcbea5ae18dbaa4fb62e7e830ff7b2afc7c20c7f541a009456a",
          "blockNumber": "0x1141e3a",
          "transactionHash": "0xe0390dc1df4c5939f0593901eaa54f020a78a1c527a1ee09314d7f76b7b8ab4b",
          "transactionIndex": "0x7",
          "logIndex": "0xb",
          "removed": false
        }
      ],
      "logsBloom": "0x00000000002000000000000000000000000000000000000000000000000000000000000000010000000000000000000000000000000000000000001000000000000000000000000000000000000000000000000000000000000000000000000000000000000000000001000000000000000000000000000000000000000000000000000000000000000000000000000000000000000000000000000000000000000000000000000000000000000000000000000000000000000000000000000000000000000000000000000000000000000000000000000000000000000200200000000000000000080000000000000000000000008000000000000001000000",
      "type": "0x2",
      "transactionHash": "0xe0390dc1df4c5939f0593901eaa54f020a78a1c527a1ee09314d7f76b7b8ab4b",
      "transactionIndex": "0x7",
      "blockHash": "0x5a88e31280463fcbea5ae18dbaa4fb62e7e830ff7b2afc7c20c7f541a009456a",
      "blockNumber": "0x1141e3a",
      "gasUsed": "0x1b07a",
      "effectiveGasPrice": "0x3e2",
      "from": "0xf7164d2fc05350c75387fa6c0cc4f97634ca9451",
      "to": "0x3009b1049f2ef921bb35a80a3d5ee0a47bd0211a",
      "contractAddress": null,
      "l1BaseFeeScalar": "0x44d",
      "l1BlobBaseFee": "0x2",
      "l1BlobBaseFeeScalar": "0xa118b",
      "l1Fee": "0x1710f8",
      "l1GasPrice": "0xd17c2",
      "l1GasUsed": "0x640"
    }
  ],
  "libraries": [],
  "pending": [],
  "returns": {},
  "timestamp": 1731959637,
  "chain": 84532,
  "commit": "7ce4aa3"
}