{
  "transactions": [
    {
      "hash": "0xb39614f9b6633eeb1199ed8868cd35d61d08ee9f16e909b492567d480c610ac7",
      "transactionType": "CALL",
      "contractName": null,
      "contractAddress": "0xcf62030BFd6c0c64B5569b7C76b03F97E9A31352",
      "function": "lendAsMarketOrder((address,uint256,uint256,bool))",
      "arguments": [
        "(0x979Af411D048b453E3334C95F392012B3BbD6215, 1709820300, 6000000, false)"
      ],
      "transaction": {
        "type": "0x02",
        "from": "0xd20baeccd9f77faa9e2c2b185f33483d7911f9c8",
        "to": "0xcf62030bfd6c0c64b5569b7c76b03f97e9a31352",
        "gas": "0x91a67",
        "value": "0x0",
        "data": "0xd54a4914000000000000000000000000979af411d048b453e3334c95f392012b3bbd62150000000000000000000000000000000000000000000000000000000065e9c98c00000000000000000000000000000000000000000000000000000000005b8d800000000000000000000000000000000000000000000000000000000000000000",
        "nonce": "0x5d",
        "accessList": []
      },
      "additionalContracts": [],
      "isFixedGasLimit": false
    }
  ],
  "receipts": [
    {
      "transactionHash": "0xb39614f9b6633eeb1199ed8868cd35d61d08ee9f16e909b492567d480c610ac7",
      "transactionIndex": "0x2b",
      "blockHash": "0x5d13f07d9926d3b9aec042fc10f8d3197b1319fa220f673e6f34ea21cac6e374",
      "blockNumber": "0x4fd820",
      "from": "0xD20baecCd9F77fAA9E2C2B185F33483D7911f9C8",
      "to": "0xcf62030BFd6c0c64B5569b7C76b03F97E9A31352",
      "cumulativeGasUsed": "0x20f7d2",
      "gasUsed": "0x6972c",
      "contractAddress": null,
      "logs": [
        {
          "address": "0xcf62030BFd6c0c64B5569b7C76b03F97E9A31352",
          "topics": [
            "0x663a0cbff5c6aad616ed85da590ecf9625745a33f1d99c7463504e4a7e0b9216",
            "0x000000000000000000000000979af411d048b453e3334c95f392012b3bbd6215"
          ],
          "data": "0x0000000000000000000000000000000000000000000000000000000065e9c98c00000000000000000000000000000000000000000000000000000000005b8d800000000000000000000000000000000000000000000000000000000000000000",
          "blockHash": "0x5d13f07d9926d3b9aec042fc10f8d3197b1319fa220f673e6f34ea21cac6e374",
          "blockNumber": "0x4fd820",
          "transactionHash": "0xb39614f9b6633eeb1199ed8868cd35d61d08ee9f16e909b492567d480c610ac7",
          "transactionIndex": "0x2b",
          "logIndex": "0x18",
          "removed": false
        },
        {
          "address": "0xcf62030BFd6c0c64B5569b7C76b03F97E9A31352",
          "topics": [
            "0xda83d431bec0c8317d5cf10dd5dfba2be46256b6ea854b0fd08a556cb5a29f1d",
            "0x0000000000000000000000000000000000000000000000000000000000000001",
            "0x000000000000000000000000d20baeccd9f77faa9e2c2b185f33483d7911f9c8",
            "0x000000000000000000000000979af411d048b453e3334c95f392012b3bbd6215"
          ],
          "data": "0xffffffffffffffffffffffffffffffffffffffffffffffffffffffffffffffffffffffffffffffffffffffffffffffffffffffffffffffffffffffffffffffff000000000000000000000000000000000000000000000000000000000026ebfe00000000000000000000000000000000000000000000000000000000005b8d800000000000000000000000000000000000000000000000000000000065e9c98c",
          "blockHash": "0x5d13f07d9926d3b9aec042fc10f8d3197b1319fa220f673e6f34ea21cac6e374",
          "blockNumber": "0x4fd820",
          "transactionHash": "0xb39614f9b6633eeb1199ed8868cd35d61d08ee9f16e909b492567d480c610ac7",
          "transactionIndex": "0x2b",
          "logIndex": "0x19",
          "removed": false
        },
        {
          "address": "0x8c7fBeB9F92D40E8F9A3634f62f35F522997E68B",
          "topics": [
            "0xddf252ad1be2c89b69c2b068fc378daa952ba7f163c4a11628f55a4df523b3ef",
            "0x0000000000000000000000000000000000000000000000000000000000000000",
            "0x000000000000000000000000979af411d048b453e3334c95f392012b3bbd6215"
          ],
          "data": "0x00000000000000000000000000000000000000000000000000000000005b9199",
          "blockHash": "0x5d13f07d9926d3b9aec042fc10f8d3197b1319fa220f673e6f34ea21cac6e374",
          "blockNumber": "0x4fd820",
          "transactionHash": "0xb39614f9b6633eeb1199ed8868cd35d61d08ee9f16e909b492567d480c610ac7",
          "transactionIndex": "0x2b",
          "logIndex": "0x1a",
          "removed": false
        },
        {
          "address": "0x6031f0512e86164c278bEBF8a59E733ec6FA92D9",
          "topics": [
            "0xddf252ad1be2c89b69c2b068fc378daa952ba7f163c4a11628f55a4df523b3ef",
            "0x000000000000000000000000236955b5ce6d975a1655f10dba30726c65cb2f35",
            "0x000000000000000000000000fd1e0e7b6afd10703a47c2e2ac233dd6486b6825"
          ],
          "data": "0x000000000000000000000000000000000000000000000000000000000026ebfe",
          "blockHash": "0x5d13f07d9926d3b9aec042fc10f8d3197b1319fa220f673e6f34ea21cac6e374",
          "blockNumber": "0x4fd820",
          "transactionHash": "0xb39614f9b6633eeb1199ed8868cd35d61d08ee9f16e909b492567d480c610ac7",
          "transactionIndex": "0x2b",
          "logIndex": "0x1b",
          "removed": false
        },
        {
          "address": "0x6031f0512e86164c278bEBF8a59E733ec6FA92D9",
          "topics": [
            "0x4beccb90f994c31aced7a23b5611020728a23d8ec5cddd1a3e9d97b96fda8666",
            "0x000000000000000000000000236955b5ce6d975a1655f10dba30726c65cb2f35",
            "0x000000000000000000000000fd1e0e7b6afd10703a47c2e2ac233dd6486b6825"
          ],
          "data": "0x000000000000000000000000000000000000000000000000000000000026ebfe0000000000000000000000000000000000000000033b2e3c9fd0803ce8000000",
          "blockHash": "0x5d13f07d9926d3b9aec042fc10f8d3197b1319fa220f673e6f34ea21cac6e374",
          "blockNumber": "0x4fd820",
          "transactionHash": "0xb39614f9b6633eeb1199ed8868cd35d61d08ee9f16e909b492567d480c610ac7",
          "transactionIndex": "0x2b",
          "logIndex": "0x1c",
          "removed": false
        }
      ],
      "status": "0x1",
      "logsBloom": "0x00000000000000000008000002000000004000000000080002000000000000000000000000200000000000000000000000000000200002000100000000040000000000000000000000000008010000000000000000040000000800004000000001000008020000002000100000000800000004000000000000000010000000000001010000000000000000000000000000000000000000400000000000000000000000000000000000000000000000000000000000000000080000000000000000000002000000100000000010000000000000000000000000000000001060000040000000000000000000000000000000000000200100000000000020030000",
      "type": "0x2",
      "effectiveGasPrice": "0x10bbdb6ee5"
    }
  ],
  "libraries": [],
  "pending": [],
  "returns": {},
  "timestamp": 1707228351,
  "chain": 11155111,
  "multi": false,
  "commit": "5feec6f"
}