{
  "transactions": [
    {
      "hash": "0xb39614f9b6633eeb1199ed8868cd35d61d08ee9f16e909b492567d480c610ac7",
      "transactionType": "CALL",
      "contractName": null,
      "contractAddress": "0xcf62030BFd6c0c64B5569b7C76b03F97E9A31352",
      "function": "lendAsMarketOrder((address,uint256,uint256,bool))",
      "arguments": [
        "(0x979Af411D048b453E3334C95F392012B3BbD6215, 1709820300, 6000000, false)"
      ],
      "transaction": {
        "type": "0x02",
        "from": "0xd20baeccd9f77faa9e2c2b185f33483d7911f9c8",
        "to": "0xcf62030bfd6c0c64b5569b7c76b03f97e9a31352",
        "gas": "0x91a67",
        "value": "0x0",
        "data": "0xd54a4914000000000000000000000000979af411d048b453e3334c95f392012b3bbd62150000000000000000000000000000000000000000000000000000000065e9c98c00000000000000000000000000000000000000000000000000000000005b8d800000000000000000000000000000000000000000000000000000000000000000",
        "nonce": "0x5d",
        "accessList": []
      },
      "additionalContracts": [],
      "isFixedGasLimit": false
    }
  ],
  "receipts": [],
  "libraries": [],
  "pending": [
    "0xb39614f9b6633eeb1199ed8868cd35d61d08ee9f16e909b492567d480c610ac7"
  ],
  "returns": {},
  "timestamp": 1707228344,
  "chain": 11155111,
  "multi": false,
  "commit": "5feec6f"
}